{"abi":[{"type":"constructor","inputs":[],"stateMutability":"nonpayable"},{"type":"function","name":"DEFAULT_ADMIN_ROLE","inputs":[],"outputs":[{"name":"","type":"bytes32","internalType":"bytes32"}],"stateMutability":"view"},{"type":"function","name":"GAME_ROLE","inputs":[],"outputs":[{"name":"","type":"bytes32","internalType":"bytes32"}],"stateMutability":"view"},{"type":"function","name":"PRECISION","inputs":[],"outputs":[{"name":"","type":"uint256","internalType":"uint256"}],"stateMutability":"view"},{"type":"function","name":"VAULT_ROLE","inputs":[],"outputs":[{"name":"","type":"bytes32","internalType":"bytes32"}],"stateMutability":"view"},{"type":"function","name":"feeCollector","inputs":[],"outputs":[{"name":"","type":"address","internalType":"contract IFeeCollector"}],"stateMutability":"view"},{"type":"function","name":"getRoleAdmin","inputs":[{"name":"role","type":"bytes32","internalType":"bytes32"}],"outputs":[{"name":"","type":"bytes32","internalType":"bytes32"}],"stateMutability":"view"},{"type":"function","name":"getWhitelistedTokens","inputs":[],"outputs":[{"name":"whitelistedTokenList_","type":"address[]","internalType":"address[]"}],"stateMutability":"view"},{"type":"function","name":"grantRole","inputs":[{"name":"role","type":"bytes32","internalType":"bytes32"},{"name":"account","type":"address","internalType":"address"}],"outputs":[],"stateMutability":"nonpayable"},{"type":"function","name":"hasRole","inputs":[{"name":"role","type":"bytes32","internalType":"bytes32"},{"name":"account","type":"address","internalType":"address"}],"outputs":[{"name":"","type":"bool","internalType":"bool"}],"stateMutability":"view"},{"type":"function","name":"maxWagerPercent","inputs":[],"outputs":[{"name":"","type":"uint256","internalType":"uint256"}],"stateMutability":"view"},{"type":"function","name":"minWagers","inputs":[{"name":"","type":"address","internalType":"address"}],"outputs":[{"name":"","type":"uint256","internalType":"uint256"}],"stateMutability":"view"},{"type":"function","name":"pause","inputs":[],"outputs":[],"stateMutability":"nonpayable"},{"type":"function","name":"paused","inputs":[],"outputs":[{"name":"","type":"bool","internalType":"bool"}],"stateMutability":"view"},{"type":"function","name":"priceFeed","inputs":[],"outputs":[{"name":"","type":"address","internalType":"contract IPriceFeed"}],"stateMutability":"view"},{"type":"function","name":"referralStorage","inputs":[],"outputs":[{"name":"","type":"address","internalType":"contract IReferralStorage"}],"stateMutability":"view"},{"type":"function","name":"renounceRole","inputs":[{"name":"role","type":"bytes32","internalType":"bytes32"},{"name":"account","type":"address","internalType":"address"}],"outputs":[],"stateMutability":"nonpayable"},{"type":"function","name":"revokeRole","inputs":[{"name":"role","type":"bytes32","internalType":"bytes32"},{"name":"account","type":"address","internalType":"address"}],"outputs":[],"stateMutability":"nonpayable"},{"type":"function","name":"setFeeCollector","inputs":[{"name":"_feeCollector","type":"address","internalType":"contract IFeeCollector"}],"outputs":[],"stateMutability":"nonpayable"},{"type":"function","name":"setMaxWagerPercent","inputs":[{"name":"_maxWagerPercent","type":"uint256","internalType":"uint256"}],"outputs":[],"stateMutability":"nonpayable"},{"type":"function","name":"setPriceFeed","inputs":[{"name":"_priceFeed","type":"address","internalType":"contract IPriceFeed"}],"outputs":[],"stateMutability":"nonpayable"},{"type":"function","name":"setReferralStorage","inputs":[{"name":"_referralStorage","type":"address","internalType":"contract IReferralStorage"}],"outputs":[],"stateMutability":"nonpayable"},{"type":"function","name":"setTokenManager","inputs":[{"name":"_tokenManager","type":"address","internalType":"contract ITokenManager"}],"outputs":[],"stateMutability":"nonpayable"},{"type":"function","name":"setVault","inputs":[{"name":"_vault","type":"address","internalType":"contract IVault"}],"outputs":[],"stateMutability":"nonpayable"},{"type":"function","name":"setWhitelistedGame","inputs":[{"name":"_game","type":"address","internalType":"address"}],"outputs":[],"stateMutability":"nonpayable"},{"type":"function","name":"setWhitelistedTokens","inputs":[{"name":"_nextTokens","type":"address[]","internalType":"address[]"}],"outputs":[],"stateMutability":"nonpayable"},{"type":"function","name":"setWlp","inputs":[{"name":"_wlp","type":"address","internalType":"contract IERC20"}],"outputs":[],"stateMutability":"nonpayable"},{"type":"function","name":"supportsInterface","inputs":[{"name":"interfaceId","type":"bytes4","internalType":"bytes4"}],"outputs":[{"name":"","type":"bool","internalType":"bool"}],"stateMutability":"view"},{"type":"function","name":"tokenManager","inputs":[],"outputs":[{"name":"","type":"address","internalType":"contract ITokenManager"}],"stateMutability":"view"},{"type":"function","name":"unpause","inputs":[],"outputs":[],"stateMutability":"nonpayable"},{"type":"function","name":"unsetWhitelistedGame","inputs":[{"name":"_game","type":"address","internalType":"address"}],"outputs":[],"stateMutability":"nonpayable"},{"type":"function","name":"vault","inputs":[],"outputs":[{"name":"","type":"address","internalType":"contract IVault"}],"stateMutability":"view"},{"type":"function","name":"whitelistedGames","inputs":[{"name":"","type":"address","internalType":"address"}],"outputs":[{"name":"","type":"bool","internalType":"bool"}],"stateMutability":"view"},{"type":"function","name":"whitelistedTokenList","inputs":[{"name":"","type":"uint256","internalType":"uint256"}],"outputs":[{"name":"","type":"address","internalType":"address"}],"stateMutability":"view"},{"type":"function","name":"whitelistedTokens","inputs":[{"name":"","type":"address","internalType":"address"}],"outputs":[{"name":"","type":"bool","internalType":"bool"}],"stateMutability":"view"},{"type":"function","name":"wlp","inputs":[],"outputs":[{"name":"","type":"address","internalType":"contract IERC20"}],"stateMutability":"view"},{"type":"event","name":"GameAdded","inputs":[{"name":"game","type":"address","indexed":false,"internalType":"address"}],"anonymous":false},{"type":"event","name":"GameRemoved","inputs":[{"name":"game","type":"address","indexed":false,"internalType":"address"}],"anonymous":false},{"type":"event","name":"MaxWagerPercentChanged","inputs":[{"name":"percent","type":"uint256","indexed":false,"internalType":"uint256"}],"anonymous":false},{"type":"event","name":"Paused","inputs":[{"name":"account","type":"address","indexed":false,"internalType":"address"}],"anonymous":false},{"type":"event","name":"RoleAdminChanged","inputs":[{"name":"role","type":"bytes32","indexed":true,"internalType":"bytes32"},{"name":"previousAdminRole","type":"bytes32","indexed":true,"internalType":"bytes32"},{"name":"newAdminRole","type":"bytes32","indexed":true,"internalType":"bytes32"}],"anonymous":false},{"type":"event","name":"RoleGranted","inputs":[{"name":"role","type":"bytes32","indexed":true,"internalType":"bytes32"},{"name":"account","type":"address","indexed":true,"internalType":"address"},{"name":"sender","type":"address","indexed":true,"internalType":"address"}],"anonymous":false},{"type":"event","name":"RoleRevoked","inputs":[{"name":"role","type":"bytes32","indexed":true,"internalType":"bytes32"},{"name":"account","type":"address","indexed":true,"internalType":"address"},{"name":"sender","type":"address","indexed":true,"internalType":"address"}],"anonymous":false},{"type":"event","name":"TokensUpdated","inputs":[{"name":"tokens","type":"address[]","indexed":false,"internalType":"address[]"}],"anonymous":false},{"type":"event","name":"Unpaused","inputs":[{"name":"account","type":"address","indexed":false,"internalType":"address"}],"anonymous":false}],"bytecode":{"object":"0x608060405266038d7ea4c6800060095534801561001b57600080fd5b506000805460ff191681556100309033610035565b6100bd565b60008281526001602090815260408083206001600160a01b038516845290915290205460ff166100b95760008281526001602081815260408084206001600160a01b0386168086529252808420805460ff19169093179092559051339285917f2f8788117e7eff1d82e926ec794901d17c78024a50270940304540a733656f0d9190a45b5050565b61152a806100cc6000396000f3fe608060405234801561001057600080fd5b50600436106102105760003560e01c80637cb2b79c11610125578063ae4d7f9a116100ad578063cc75d5af1161007c578063cc75d5af146104b5578063d547741f146104be578063daf9c210146104d1578063e26f7900146104f4578063fbfa77cf1461050957600080fd5b8063ae4d7f9a14610469578063bddff7491461047c578063c038b1141461048f578063c415b95c146104a257600080fd5b80639a0bf14a116100f45780639a0bf14a14610405578063a217fddf14610418578063a42dce8014610420578063aaf5eb6814610433578063ab4007061461044257600080fd5b80637cb2b79c146103b05780638456cb59146103c357806391d14854146103cb57806398c4f1ac146103de57600080fd5b80634e5870ed116101a85780636bc9340c116101775780636bc9340c146103415780636cdd1d5714610354578063724e78da14610377578063741bef1a1461038a57806375fc04351461039d57600080fd5b80634e5870ed146102fd5780635988f9a5146103105780635c975abb146103235780636817031b1461032e57600080fd5b80632a709b14116101e45780632a709b14146102ba5780632f2ff15d146102cd57806336568abe146102e25780633f4ba83a146102f557600080fd5b80626cc35e1461021557806301ffc9a71461024557806321aa67ac14610268578063248a9ca314610296575b600080fd5b600854610228906001600160a01b031681565b6040516001600160a01b0390911681526020015b60405180910390f35b610258610253366004611155565b61051c565b604051901515815260200161023c565b6102886102763660046111a4565b600c6020526000908152604090205481565b60405190815260200161023c565b6102886102a43660046111c1565b6000908152600160208190526040909120015490565b600654610228906001600160a01b031681565b6102e06102db3660046111da565b610553565b005b6102e06102f03660046111da565b61057e565b6102e0610601565b6102e061030b3660046111a4565b610632565b6102e061031e366004611220565b6106db565b60005460ff16610258565b6102e061033c3660046111a4565b61088b565b6102e061034f3660046111c1565b610942565b6102586103623660046111a4565b600a6020526000908152604090205460ff1681565b6102e06103853660046111a4565b61099e565b600454610228906001600160a01b031681565b6102e06103ab3660046111a4565b6109e7565b6102e06103be3660046111a4565b610a8c565b6102e0610ad5565b6102586103d93660046111da565b610b04565b6102887f68fc488efe30251cadb6ac88bdeef3f1a5e6048808baf387258d1d78e986720c81565b600254610228906001600160a01b031681565b610288600081565b6102e061042e3660046111a4565b610b2f565b610288670de0b6b3a764000081565b6102887fd13d8e3c8822ff4d0a39994f3616e22d61c97585cee7a1baf4e9a875726b5f1581565b6102e06104773660046111a4565b610b78565b61022861048a3660046111c1565b610bc1565b6102e061049d3660046111a4565b610beb565b600554610228906001600160a01b031681565b61028860095481565b6102e06104cc3660046111da565b610c34565b6102586104df3660046111a4565b600b6020526000908152604090205460ff1681565b6104fc610c5a565b60405161023c91906112e5565b600354610228906001600160a01b031681565b60006001600160e01b03198216637965db0b60e01b148061054d57506301ffc9a760e01b6001600160e01b03198316145b92915050565b6000828152600160208190526040909120015461056f81610cbc565b6105798383610cc6565b505050565b6001600160a01b03811633146105f35760405162461bcd60e51b815260206004820152602f60248201527f416363657373436f6e74726f6c3a2063616e206f6e6c792072656e6f756e636560448201526e103937b632b9903337b91039b2b63360891b60648201526084015b60405180910390fd5b6105fd8282610d31565b5050565b61060c600033610b04565b6106285760405162461bcd60e51b81526004016105ea90611332565b610630610d98565b565b61063d600033610b04565b6106595760405162461bcd60e51b81526004016105ea90611332565b6106837fd13d8e3c8822ff4d0a39994f3616e22d61c97585cee7a1baf4e9a875726b5f1582610c34565b6001600160a01b0381166000818152600a6020908152604091829020805460ff1916905590519182527f79e522c2ccc4f9a35ab9a2d60c7a3d2ea971f1fe148f392afef6283a3f9395f191015b60405180910390a150565b6106e6600033610b04565b6107025760405162461bcd60e51b81526004016105ea90611332565b6000600780548060200260200160405190810160405280929190818152602001828054801561075a57602002820191906000526020600020905b81546001600160a01b0316815260019091019060200180831161073c575b505050505090506007600061076f91906110bd565b60005b81518110156107ce57600b60008383815181106107915761079161135e565b6020908102919091018101516001600160a01b03168252810191909152604001600020805460ff19169055806107c68161138a565b915050610772565b5081516107e29060079060208501906110db565b5060005b825181101561084e576001600b6000600784815481106108085761080861135e565b6000918252602080832091909101546001600160a01b031683528201929092526040019020805460ff1916911515919091179055806108468161138a565b9150506107e6565b507f3ca096a4c913a6f222a557151d17832dddab787e6ddf59063cab45e15b9a9fac600760405161087f91906113a3565b60405180910390a15050565b610896600033610b04565b6108b25760405162461bcd60e51b81526004016105ea90611332565b6003546001600160a01b0316156108fa576003546108fa907f68fc488efe30251cadb6ac88bdeef3f1a5e6048808baf387258d1d78e986720c906001600160a01b0316610c34565b600380546001600160a01b0319166001600160a01b03831617905561093f7f68fc488efe30251cadb6ac88bdeef3f1a5e6048808baf387258d1d78e986720c82610553565b50565b61094d600033610b04565b6109695760405162461bcd60e51b81526004016105ea90611332565b60098190556040518181527f56f049cdbf5dea44c01ae8db35953a8192abb0becf4f7caa0b814af2bf099807906020016106d0565b6109a9600033610b04565b6109c55760405162461bcd60e51b81526004016105ea90611332565b600480546001600160a01b0319166001600160a01b0392909216919091179055565b6109f2600033610b04565b610a0e5760405162461bcd60e51b81526004016105ea90611332565b610a387fd13d8e3c8822ff4d0a39994f3616e22d61c97585cee7a1baf4e9a875726b5f1582610553565b6001600160a01b0381166000818152600a6020908152604091829020805460ff1916600117905590519182527f8fa5def8b409da8bf0a822ecd1f672c8cc17808f45d671cd1a5d2fb0d7fe02ad91016106d0565b610a97600033610b04565b610ab35760405162461bcd60e51b81526004016105ea90611332565b600680546001600160a01b0319166001600160a01b0392909216919091179055565b610ae0600033610b04565b610afc5760405162461bcd60e51b81526004016105ea90611332565b610630610dea565b60009182526001602090815260408084206001600160a01b0393909316845291905290205460ff1690565b610b3a600033610b04565b610b565760405162461bcd60e51b81526004016105ea90611332565b600580546001600160a01b0319166001600160a01b0392909216919091179055565b610b83600033610b04565b610b9f5760405162461bcd60e51b81526004016105ea90611332565b600880546001600160a01b0319166001600160a01b0392909216919091179055565b60078181548110610bd157600080fd5b6000918252602090912001546001600160a01b0316905081565b610bf6600033610b04565b610c125760405162461bcd60e51b81526004016105ea90611332565b600280546001600160a01b0319166001600160a01b0392909216919091179055565b60008281526001602081905260409091200154610c5081610cbc565b6105798383610d31565b60606007805480602002602001604051908101604052809291908181526020018280548015610cb257602002820191906000526020600020905b81546001600160a01b03168152600190910190602001808311610c94575b5050505050905090565b61093f8133610e27565b610cd08282610b04565b6105fd5760008281526001602081815260408084206001600160a01b0386168086529252808420805460ff19169093179092559051339285917f2f8788117e7eff1d82e926ec794901d17c78024a50270940304540a733656f0d9190a45050565b610d3b8282610b04565b156105fd5760008281526001602090815260408083206001600160a01b0385168085529252808320805460ff1916905551339285917ff6391f5c32d9c69d2a47ea670b442974b53935d1edc7fd64eb21e047a839171b9190a45050565b610da0610e8b565b6000805460ff191690557f5db9ee0a495bf2e6ff9c91a7834c1ba4fdd244a5e8aa4e537bd38aeae4b073aa335b6040516001600160a01b03909116815260200160405180910390a1565b610df2610ed4565b6000805460ff191660011790557f62e78cea01bee320cd4e420270b5ea74000d11b0c9f74754ebdbfc544b05a258610dcd3390565b610e318282610b04565b6105fd57610e49816001600160a01b03166014610f1a565b610e54836020610f1a565b604051602001610e6592919061140b565b60408051601f198184030181529082905262461bcd60e51b82526105ea91600401611480565b60005460ff166106305760405162461bcd60e51b815260206004820152601460248201527314185d5cd8589b194e881b9bdd081c185d5cd95960621b60448201526064016105ea565b60005460ff16156106305760405162461bcd60e51b815260206004820152601060248201526f14185d5cd8589b194e881c185d5cd95960821b60448201526064016105ea565b60606000610f298360026114b3565b610f349060026114ca565b67ffffffffffffffff811115610f4c57610f4c61120a565b6040519080825280601f01601f191660200182016040528015610f76576020820181803683370190505b509050600360fc1b81600081518110610f9157610f9161135e565b60200101906001600160f81b031916908160001a905350600f60fb1b81600181518110610fc057610fc061135e565b60200101906001600160f81b031916908160001a9053506000610fe48460026114b3565b610fef9060016114ca565b90505b6001811115611067576f181899199a1a9b1b9c1cb0b131b232b360811b85600f16601081106110235761102361135e565b1a60f81b8282815181106110395761103961135e565b60200101906001600160f81b031916908160001a90535060049490941c93611060816114dd565b9050610ff2565b5083156110b65760405162461bcd60e51b815260206004820181905260248201527f537472696e67733a20686578206c656e67746820696e73756666696369656e7460448201526064016105ea565b9392505050565b508054600082559060005260206000209081019061093f9190611140565b828054828255906000526020600020908101928215611130579160200282015b8281111561113057825182546001600160a01b0319166001600160a01b039091161782556020909201916001909101906110fb565b5061113c929150611140565b5090565b5b8082111561113c5760008155600101611141565b60006020828403121561116757600080fd5b81356001600160e01b0319811681146110b657600080fd5b6001600160a01b038116811461093f57600080fd5b803561119f8161117f565b919050565b6000602082840312156111b657600080fd5b81356110b68161117f565b6000602082840312156111d357600080fd5b5035919050565b600080604083850312156111ed57600080fd5b8235915060208301356111ff8161117f565b809150509250929050565b634e487b7160e01b600052604160045260246000fd5b6000602080838503121561123357600080fd5b823567ffffffffffffffff8082111561124b57600080fd5b818501915085601f83011261125f57600080fd5b8135818111156112715761127161120a565b8060051b604051601f19603f830116810181811085821117156112965761129661120a565b6040529182528482019250838101850191888311156112b457600080fd5b938501935b828510156112d9576112ca85611194565b845293850193928501926112b9565b98975050505050505050565b6020808252825182820181905260009190848201906040850190845b818110156113265783516001600160a01b031683529284019291840191600101611301565b50909695505050505050565b602080825260129082015271564d3a204e6f7420676f7665726e616e636560701b604082015260600190565b634e487b7160e01b600052603260045260246000fd5b634e487b7160e01b600052601160045260246000fd5b60006001820161139c5761139c611374565b5060010190565b6020808252825482820181905260008481528281209092916040850190845b818110156113265783546001600160a01b0316835260019384019392850192016113c2565b60005b838110156114025781810151838201526020016113ea565b50506000910152565b7f416363657373436f6e74726f6c3a206163636f756e74200000000000000000008152600083516114438160178501602088016113e7565b7001034b99036b4b9b9b4b733903937b6329607d1b60179184019182015283516114748160288401602088016113e7565b01602801949350505050565b602081526000825180602084015261149f8160408501602087016113e7565b601f01601f19169190910160400192915050565b808202811582820484141761054d5761054d611374565b8082018082111561054d5761054d611374565b6000816114ec576114ec611374565b50600019019056fea264697066735822122006ca0aa48d923ed8d70753b491cf03462324906f76169342fdb557d5d20f512264736f6c63430008110033","linkReferences":{}},"methodIdentifiers":{"DEFAULT_ADMIN_ROLE()":"a217fddf","GAME_ROLE()":"ab400706","PRECISION()":"aaf5eb68","VAULT_ROLE()":"98c4f1ac","feeCollector()":"c415b95c","getRoleAdmin(bytes32)":"248a9ca3","getWhitelistedTokens()":"e26f7900","grantRole(bytes32,address)":"2f2ff15d","hasRole(bytes32,address)":"91d14854","maxWagerPercent()":"cc75d5af","minWagers(address)":"21aa67ac","pause()":"8456cb59","paused()":"5c975abb","priceFeed()":"741bef1a","referralStorage()":"006cc35e","renounceRole(bytes32,address)":"36568abe","revokeRole(bytes32,address)":"d547741f","setFeeCollector(address)":"a42dce80","setMaxWagerPercent(uint256)":"6bc9340c","setPriceFeed(address)":"724e78da","setReferralStorage(address)":"ae4d7f9a","setTokenManager(address)":"7cb2b79c","setVault(address)":"6817031b","setWhitelistedGame(address)":"75fc0435","setWhitelistedTokens(address[])":"5988f9a5","setWlp(address)":"c038b114","supportsInterface(bytes4)":"01ffc9a7","tokenManager()":"2a709b14","unpause()":"3f4ba83a","unsetWhitelistedGame(address)":"4e5870ed","vault()":"fbfa77cf","whitelistedGames(address)":"6cdd1d57","whitelistedTokenList(uint256)":"bddff749","whitelistedTokens(address)":"daf9c210","wlp()":"9a0bf14a"},"id":2}