{"abi":[{"type":"constructor","inputs":[{"name":"_router","type":"address","internalType":"contract IRandomizerRouter"}],"stateMutability":"nonpayable"},{"type":"function","name":"DEFAULT_ADMIN_ROLE","inputs":[],"outputs":[{"name":"","type":"bytes32","internalType":"bytes32"}],"stateMutability":"view"},{"type":"function","name":"PRECISION","inputs":[],"outputs":[{"name":"","type":"uint256","internalType":"uint256"}],"stateMutability":"view"},{"type":"function","name":"RANDOMIZER_ROLE","inputs":[],"outputs":[{"name":"","type":"bytes32","internalType":"bytes32"}],"stateMutability":"view"},{"type":"function","name":"TEAM_ROLE","inputs":[],"outputs":[{"name":"","type":"bytes32","internalType":"bytes32"}],"stateMutability":"view"},{"type":"function","name":"_computeDollarValue","inputs":[{"name":"_token","type":"address","internalType":"address"},{"name":"_wager","type":"uint256","internalType":"uint256"}],"outputs":[{"name":"_wagerInDollar","type":"uint256","internalType":"uint256"}],"stateMutability":"view"},{"type":"function","name":"bet","inputs":[{"name":"_wager","type":"uint256","internalType":"uint256"},{"name":"_count","type":"uint8","internalType":"uint8"},{"name":"_stopGain","type":"uint256","internalType":"uint256"},{"name":"_stopLoss","type":"uint256","internalType":"uint256"},{"name":"_gameData","type":"bytes","internalType":"bytes"},{"name":"_tokens","type":"address[2]","internalType":"address[2]"}],"outputs":[],"stateMutability":"nonpayable"},{"type":"function","name":"calcReward","inputs":[{"name":"_sideCount","type":"uint8","internalType":"uint8"},{"name":"_wager","type":"uint256","internalType":"uint256"}],"outputs":[{"name":"reward_","type":"uint256","internalType":"uint256"}],"stateMutability":"view"},{"type":"function","name":"calcWager","inputs":[{"name":"_count","type":"uint256","internalType":"uint256"},{"name":"_usedCount","type":"uint256","internalType":"uint256"},{"name":"_wager","type":"uint256","internalType":"uint256"}],"outputs":[{"name":"usedWager_","type":"uint256","internalType":"uint256"},{"name":"unusedWager_","type":"uint256","internalType":"uint256"}],"stateMutability":"pure"},{"type":"function","name":"changeRandomizerRouter","inputs":[{"name":"_randomizerRouter","type":"address","internalType":"contract IRandomizerRouter"}],"outputs":[],"stateMutability":"nonpayable"},{"type":"function","name":"completedGames","inputs":[{"name":"","type":"uint256","internalType":"uint256"}],"outputs":[{"name":"","type":"bool","internalType":"bool"}],"stateMutability":"view"},{"type":"function","name":"decodeGameData","inputs":[{"name":"_gameData","type":"bytes","internalType":"bytes"}],"outputs":[{"name":"","type":"uint8[]","internalType":"uint8[]"}],"stateMutability":"pure"},{"type":"function","name":"encodeGameData","inputs":[{"name":"_choices","type":"uint8[]","internalType":"uint8[]"}],"outputs":[{"name":"","type":"bytes","internalType":"bytes"}],"stateMutability":"pure"},{"type":"function","name":"games","inputs":[{"name":"","type":"uint256","internalType":"uint256"}],"outputs":[{"name":"count","type":"uint8","internalType":"uint8"},{"name":"player","type":"address","internalType":"address"},{"name":"gameData","type":"bytes","internalType":"bytes"},{"name":"wager","type":"uint256","internalType":"uint256"},{"name":"startTime","type":"uint256","internalType":"uint256"}],"stateMutability":"view"},{"type":"function","name":"getHouseEdge","inputs":[{"name":"","type":"tuple","internalType":"struct CommonSolo.Game","components":[{"name":"count","type":"uint8","internalType":"uint8"},{"name":"player","type":"address","internalType":"address"},{"name":"gameData","type":"bytes","internalType":"bytes"},{"name":"wager","type":"uint256","internalType":"uint256"},{"name":"startTime","type":"uint256","internalType":"uint256"},{"name":"tokens","type":"address[2]","internalType":"address[2]"}]}],"outputs":[{"name":"edge_","type":"uint64","internalType":"uint64"}],"stateMutability":"view"},{"type":"function","name":"getRoleAdmin","inputs":[{"name":"role","type":"bytes32","internalType":"bytes32"}],"outputs":[{"name":"","type":"bytes32","internalType":"bytes32"}],"stateMutability":"view"},{"type":"function","name":"grantRole","inputs":[{"name":"role","type":"bytes32","internalType":"bytes32"},{"name":"account","type":"address","internalType":"address"}],"outputs":[],"stateMutability":"nonpayable"},{"type":"function","name":"hasRole","inputs":[{"name":"role","type":"bytes32","internalType":"bytes32"},{"name":"account","type":"address","internalType":"address"}],"outputs":[{"name":"","type":"bool","internalType":"bool"}],"stateMutability":"view"},{"type":"function","name":"houseEdge","inputs":[],"outputs":[{"name":"","type":"uint64","internalType":"uint64"}],"stateMutability":"view"},{"type":"function","name":"isWon","inputs":[{"name":"_choices","type":"uint8[]","internalType":"uint8[]"},{"name":"_result","type":"uint256","internalType":"uint256"}],"outputs":[{"name":"result_","type":"bool","internalType":"bool"}],"stateMutability":"pure"},{"type":"function","name":"maxGameCount","inputs":[],"outputs":[{"name":"","type":"uint8","internalType":"uint8"}],"stateMutability":"view"},{"type":"function","name":"minConfirmations","inputs":[],"outputs":[{"name":"","type":"uint256","internalType":"uint256"}],"stateMutability":"view"},{"type":"function","name":"multipliers","inputs":[{"name":"","type":"uint8","internalType":"uint8"}],"outputs":[{"name":"","type":"uint24","internalType":"uint24"}],"stateMutability":"view"},{"type":"function","name":"options","inputs":[{"name":"","type":"uint256","internalType":"uint256"}],"outputs":[{"name":"stopGain","type":"uint256","internalType":"uint256"},{"name":"stopLoss","type":"uint256","internalType":"uint256"}],"stateMutability":"view"},{"type":"function","name":"pause","inputs":[],"outputs":[],"stateMutability":"nonpayable"},{"type":"function","name":"paused","inputs":[],"outputs":[{"name":"","type":"bool","internalType":"bool"}],"stateMutability":"view"},{"type":"function","name":"play","inputs":[{"name":"_game","type":"tuple","internalType":"struct CommonSolo.Game","components":[{"name":"count","type":"uint8","internalType":"uint8"},{"name":"player","type":"address","internalType":"address"},{"name":"gameData","type":"bytes","internalType":"bytes"},{"name":"wager","type":"uint256","internalType":"uint256"},{"name":"startTime","type":"uint256","internalType":"uint256"},{"name":"tokens","type":"address[2]","internalType":"address[2]"}]},{"name":"_resultNumbers","type":"uint256[]","internalType":"uint256[]"},{"name":"_stopGain","type":"uint256","internalType":"uint256"},{"name":"_stopLoss","type":"uint256","internalType":"uint256"}],"outputs":[{"name":"payout_","type":"uint256","internalType":"uint256"},{"name":"playedGameCount_","type":"uint32","internalType":"uint32"},{"name":"payouts_","type":"uint256[]","internalType":"uint256[]"}],"stateMutability":"view"},{"type":"function","name":"randomizerCallback","inputs":[{"name":"_requestId","type":"uint256","internalType":"uint256"},{"name":"_rngList","type":"uint256[]","internalType":"uint256[]"}],"outputs":[],"stateMutability":"nonpayable"},{"type":"function","name":"randomizerRouter","inputs":[],"outputs":[{"name":"","type":"address","internalType":"contract IRandomizerRouter"}],"stateMutability":"view"},{"type":"function","name":"refundCooldown","inputs":[],"outputs":[{"name":"","type":"uint32","internalType":"uint32"}],"stateMutability":"view"},{"type":"function","name":"refundGame","inputs":[{"name":"_requestId","type":"uint256","internalType":"uint256"}],"outputs":[],"stateMutability":"nonpayable"},{"type":"function","name":"renounceRole","inputs":[{"name":"role","type":"bytes32","internalType":"bytes32"},{"name":"account","type":"address","internalType":"address"}],"outputs":[],"stateMutability":"nonpayable"},{"type":"function","name":"revokeRole","inputs":[{"name":"role","type":"bytes32","internalType":"bytes32"},{"name":"account","type":"address","internalType":"address"}],"outputs":[],"stateMutability":"nonpayable"},{"type":"function","name":"setMinConfirmations","inputs":[{"name":"_minConfirmations","type":"uint16","internalType":"uint16"}],"outputs":[],"stateMutability":"nonpayable"},{"type":"function","name":"setVaultManager","inputs":[{"name":"_vaultManager","type":"address","internalType":"contract IVaultManager"}],"outputs":[],"stateMutability":"nonpayable"},{"type":"function","name":"shouldStop","inputs":[{"name":"_total","type":"uint256","internalType":"uint256"},{"name":"_wager","type":"uint256","internalType":"uint256"},{"name":"_stopGain","type":"uint256","internalType":"uint256"},{"name":"_stopLoss","type":"uint256","internalType":"uint256"}],"outputs":[{"name":"stop_","type":"bool","internalType":"bool"}],"stateMutability":"pure"},{"type":"function","name":"supportsInterface","inputs":[{"name":"interfaceId","type":"bytes4","internalType":"bytes4"}],"outputs":[{"name":"","type":"bool","internalType":"bool"}],"stateMutability":"view"},{"type":"function","name":"unpause","inputs":[],"outputs":[],"stateMutability":"nonpayable"},{"type":"function","name":"updateHouseEdge","inputs":[{"name":"_houseEdge","type":"uint64","internalType":"uint64"}],"outputs":[],"stateMutability":"nonpayable"},{"type":"function","name":"updateMaxGameCount","inputs":[{"name":"_maxGameCount","type":"uint8","internalType":"uint8"}],"outputs":[],"stateMutability":"nonpayable"},{"type":"function","name":"updateRefundCooldown","inputs":[{"name":"_refundCooldown","type":"uint32","internalType":"uint32"}],"outputs":[],"stateMutability":"nonpayable"},{"type":"function","name":"updateWinMultiplier","inputs":[{"name":"_sideCount","type":"uint8","internalType":"uint8"},{"name":"_multiplier","type":"uint24","internalType":"uint24"}],"outputs":[],"stateMutability":"nonpayable"},{"type":"function","name":"vaultManager","inputs":[],"outputs":[{"name":"","type":"address","internalType":"contract IVaultManager"}],"stateMutability":"view"},{"type":"event","name":"Created","inputs":[{"name":"player","type":"address","indexed":true,"internalType":"address"},{"name":"requestId","type":"uint256","indexed":false,"internalType":"uint256"},{"name":"wager","type":"uint256","indexed":false,"internalType":"uint256"},{"name":"tokens","type":"address[2]","indexed":false,"internalType":"address[2]"}],"anonymous":false},{"type":"event","name":"Paused","inputs":[{"name":"account","type":"address","indexed":false,"internalType":"address"}],"anonymous":false},{"type":"event","name":"RoleAdminChanged","inputs":[{"name":"role","type":"bytes32","indexed":true,"internalType":"bytes32"},{"name":"previousAdminRole","type":"bytes32","indexed":true,"internalType":"bytes32"},{"name":"newAdminRole","type":"bytes32","indexed":true,"internalType":"bytes32"}],"anonymous":false},{"type":"event","name":"RoleGranted","inputs":[{"name":"role","type":"bytes32","indexed":true,"internalType":"bytes32"},{"name":"account","type":"address","indexed":true,"internalType":"address"},{"name":"sender","type":"address","indexed":true,"internalType":"address"}],"anonymous":false},{"type":"event","name":"RoleRevoked","inputs":[{"name":"role","type":"bytes32","indexed":true,"internalType":"bytes32"},{"name":"account","type":"address","indexed":true,"internalType":"address"},{"name":"sender","type":"address","indexed":true,"internalType":"address"}],"anonymous":false},{"type":"event","name":"Settled","inputs":[{"name":"player","type":"address","indexed":true,"internalType":"address"},{"name":"requestId","type":"uint256","indexed":false,"internalType":"uint256"},{"name":"wager","type":"uint256","indexed":false,"internalType":"uint256"},{"name":"won","type":"bool","indexed":false,"internalType":"bool"},{"name":"payout","type":"uint256","indexed":false,"internalType":"uint256"},{"name":"playedGameCount","type":"uint32","indexed":false,"internalType":"uint32"},{"name":"numbers","type":"uint256[]","indexed":false,"internalType":"uint256[]"},{"name":"payouts","type":"uint256[]","indexed":false,"internalType":"uint256[]"}],"anonymous":false},{"type":"event","name":"Unpaused","inputs":[{"name":"account","type":"address","indexed":false,"internalType":"address"}],"anonymous":false},{"type":"event","name":"UpdateHouseEdge","inputs":[{"name":"houseEdge","type":"uint64","indexed":false,"internalType":"uint64"}],"anonymous":false},{"type":"event","name":"VaultManagerChange","inputs":[{"name":"vaultManager","type":"address","indexed":false,"internalType":"address"}],"anonymous":false}],"bytecode":{"object":"0x608060405260038055600580546207081960a21b64ffffffffff60a01b19909116179055600980546001600160401b03191660c81790553480156200004357600080fd5b5060405162003b6738038062003b67833981016040819052620000669162000551565b6000805460ff1916815581908190819062000082903362000185565b6001600255620000928162000195565b5050600a60205250507fbbc70db1b6c7afd11e79c0fb0051300458f1a3acb8ee9789d9b6b26c61ad9bc7805462ffffff199081166116f8179091557fbff4442b8ed600beeb8e26b1279a0f0d14c6edfaec26d968ee13c86f7d4c2ba880548216610b7c1790557fa856840544dc26124927add067d799967eac11be13e14d82cc281ea46fa39759805482166107a81790557fe1eb2b2161a492c07c5a334e48012567cba93ec021043f53c1955516a3c5a841805482166105be17905560056000527ff35035bc2b01d44bd35a1dcdc552315cffb73da35cfd60570b7b777f98036f9f8054909116610498179055620006dc565b6200019182826200023e565b5050565b620001a2600033620002ac565b620001f45760405162461bcd60e51b815260206004820152601360248201527f4143433a204e6f7420676f7665726e616e63650000000000000000000000000060448201526064015b60405180910390fd5b600480546001600160a01b0319166001600160a01b0383161790556200023b7f2f660b522cd66c3fe8eabbd9815ae97246faa2cf642722f997fcefd13b6a67b682620002d9565b50565b6200024a8282620002ac565b620001915760008281526001602081815260408084206001600160a01b0386168086529252808420805460ff19169093179092559051339285917f2f8788117e7eff1d82e926ec794901d17c78024a50270940304540a733656f0d9190a45050565b60008281526001602090815260408083206001600160a01b038516845290915290205460ff165b92915050565b60008281526001602081905260409091200154620002f78162000308565b6200030383836200023e565b505050565b6200023b81336200031a8282620002ac565b620001915762000340816001600160a01b031660146200039160201b620015151760201c565b620003568360206200151562000391821b17811c565b60405160200162000369929190620005a2565b60408051601f198184030181529082905262461bcd60e51b8252620001eb916004016200061b565b60606000620003a283600262000666565b620003af90600262000680565b6001600160401b03811115620003c957620003c962000696565b6040519080825280601f01601f191660200182016040528015620003f4576020820181803683370190505b509050600360fc1b81600081518110620004125762000412620006ac565b60200101906001600160f81b031916908160001a905350600f60fb1b81600181518110620004445762000444620006ac565b60200101906001600160f81b031916908160001a90535060006200046a84600262000666565b6200047790600162000680565b90505b6001811115620004f9576f181899199a1a9b1b9c1cb0b131b232b360811b85600f1660108110620004af57620004af620006ac565b1a60f81b828281518110620004c857620004c8620006ac565b60200101906001600160f81b031916908160001a90535060049490941c93620004f181620006c2565b90506200047a565b5083156200054a5760405162461bcd60e51b815260206004820181905260248201527f537472696e67733a20686578206c656e67746820696e73756666696369656e746044820152606401620001eb565b9392505050565b6000602082840312156200056457600080fd5b81516001600160a01b03811681146200054a57600080fd5b60005b83811015620005995781810151838201526020016200057f565b50506000910152565b7f416363657373436f6e74726f6c3a206163636f756e7420000000000000000000815260008351620005dc8160178501602088016200057c565b7001034b99036b4b9b9b4b733903937b6329607d1b60179184019182015283516200060f8160288401602088016200057c565b01602801949350505050565b60208152600082518060208401526200063c8160408501602087016200057c565b601f01601f19169190910160400192915050565b634e487b7160e01b600052601160045260246000fd5b8082028115828204841417620002d357620002d362000650565b80820180821115620002d357620002d362000650565b634e487b7160e01b600052604160045260246000fd5b634e487b7160e01b600052603260045260246000fd5b600081620006d457620006d462000650565b506000190190565b61347b80620006ec6000396000f3fe608060405234801561001057600080fd5b506004361061025e5760003560e01c80638f130d5011610146578063c56bd7cb116100c3578063e5199bb811610087578063e5199bb81461062d578063e7c4393e14610640578063e84f0cc014610649578063e85890ac1461065c578063e9f9b2d71461066f578063f7137e771461069557600080fd5b8063c56bd7cb146105c1578063d1adfff4146105e1578063d547741f146105f4578063d667dcd714610607578063d7260cba1461061a57600080fd5b8063aaf5eb681161010a578063aaf5eb6814610545578063b543503e14610554578063bb4149e014610567578063bda9a8441461057a578063bf1930051461059a57600080fd5b80638f130d50146104cb5780639104a03d146104de57806391d14854146104f157806392870d9414610504578063a217fddf1461053d57600080fd5b8063409e2205116101df5780634d30372d116101a35780634d30372d146104395780635c975abb1461045c57806379e7a5d7146104675780637f1ad2041461047a5780638456cb59146104b05780638a4adf24146104b857600080fd5b8063409e22051461039a578063427dc913146103c157806349d5e604146103d45780634b8c52b3146103fb5780634b95a52e1461040e57600080fd5b80632f2ff15d116102265780632f2ff15d1461033557806336568abe1461034a57806337107fc71461035d5780633b49b7ed1461037f5780633f4ba83a1461039257600080fd5b806301ffc9a71461026357806310088fbc1461028b578063117a5b90146102b3578063248a9ca3146102d75780632d3e8c9314610309575b600080fd5b6102766102713660046125af565b6106a8565b60405190151581526020015b60405180910390f35b61029e6102993660046125d9565b6106df565b60408051928352602083019190915201610282565b6102c66102c1366004612605565b61070d565b60405161028295949392919061266e565b6102fb6102e5366004612605565b6000908152600160208190526040909120015490565b604051908152602001610282565b60055461032090600160a81b900463ffffffff1681565b60405163ffffffff9091168152602001610282565b6103486103433660046126c4565b6107d2565b005b6103486103583660046126c4565b6107fd565b61037061036b366004612908565b610880565b60405161028293929190612a10565b61027661038d366004612a3e565b6109ea565b610348610a3e565b61029e6103a8366004612605565b6007602052600090815260409020805460019091015482565b6103486103cf366004612a70565b610aaf565b6102fb7f9b82d2f38fbdf13006bfa741767f793d917e063392737837b580c1c2b1e0bab381565b610276610409366004612afc565b610adb565b600454610421906001600160a01b031681565b6040516001600160a01b039091168152602001610282565b610276610447366004612605565b60086020526000908152604090205460ff1681565b60005460ff16610276565b6102fb610475366004612b40565b610b31565b610498610488366004612b6c565b506009546001600160401b031690565b6040516001600160401b039091168152602001610282565b610348610b68565b600554610421906001600160a01b031681565b6103486104d9366004612ba0565b610bd7565b6103486104ec366004612bbd565b610c46565b6102766104ff3660046126c4565b610c76565b610529610512366004612a70565b600a6020526000908152604090205462ffffff1681565b60405162ffffff9091168152602001610282565b6102fb600081565b6102fb670de0b6b3a764000081565b610348610562366004612ba0565b610ca1565b610348610575366004612be1565b610d1d565b61058d610588366004612c5d565b610e0f565b6040516102829190612c91565b6102fb7f2f660b522cd66c3fe8eabbd9815ae97246faa2cf642722f997fcefd13b6a67b681565b6105d46105cf366004612cd8565b610e25565b6040516102829190612d0c565b6103486105ef366004612d1f565b610e4e565b6103486106023660046126c4565b610e80565b600954610498906001600160401b031681565b610348610628366004612605565b610ea6565b61034861063b366004612d45565b611222565b6102fb60035481565b610348610657366004612dc3565b611298565b61034861066a366004612dec565b61130e565b60055461068390600160a01b900460ff1681565b60405160ff9091168152602001610282565b6102fb6106a3366004612e22565b61142e565b60006001600160e01b03198216637965db0b60e01b14806106d957506301ffc9a760e01b6001600160e01b03198316145b92915050565b6000806106ec8385612e56565b9150816106f98487612e56565b6107039190612e6d565b9050935093915050565b6006602052600090815260409020805460018201805460ff8316936101009093046001600160a01b031692919061074390612e80565b80601f016020809104026020016040519081016040528092919081815260200182805461076f90612e80565b80156107bc5780601f10610791576101008083540402835291602001916107bc565b820191906000526020600020905b81548152906001019060200180831161079f57829003601f168201915b5050505050908060020154908060030154905085565b600082815260016020819052604090912001546107ee816116b0565b6107f883836116ba565b505050565b6001600160a01b03811633146108725760405162461bcd60e51b815260206004820152602f60248201527f416363657373436f6e74726f6c3a2063616e206f6e6c792072656e6f756e636560448201526e103937b632b9903337b91039b2b63360891b60648201526084015b60405180910390fd5b61087c8282611725565b5050565b6000806060866000015160ff166001600160401b038111156108a4576108a46126f4565b6040519080825280602002602001820160405280156108cd578160200160208202803683370190505b509050866000015160ff16915060006108e98860400151610e0f565b905060006108fc82518a60600151610b31565b905060005b896000015160ff168160ff1610156109dd57610939838a8360ff168151811061092c5761092c612eba565b6020026020010151610adb565b156109895760008a60600151836109509190612ed0565b905061095b8161178c565b858360ff168151811061097057610970612eba565b60209081029190910101526109858388612ef0565b9650505b6109b3868b6060015183600161099f9190612f03565b60ff166109ac9190612e56565b8a8a6109ea565b156109cd576109c3816001612f03565b60ff1694506109dd565b6109d681612f1c565b9050610901565b5050509450945094915050565b600082158015906109fa57508385115b15610a135782610a0a8587612e6d565b10159050610a36565b8115801590610a2157508484115b15610a365781610a318686612e6d565b101590505b949350505050565b610a687f9b82d2f38fbdf13006bfa741767f793d917e063392737837b580c1c2b1e0bab333610c76565b610aa55760405162461bcd60e51b815260206004820152600e60248201526d47414d453a204e6f74207465616d60901b6044820152606401610869565b610aad6117a8565b565b6000610aba816116b0565b506005805460ff909216600160a01b0260ff60a01b19909216919091179055565b6000805b83518160ff161015610b2a5782848260ff1681518110610b0157610b01612eba565b602002602001015160ff1603610b1a5760019150610b2a565b610b2381612f1c565b9050610adf565b5092915050565b60ff82166000908152600a60205260408120546103e890610b579062ffffff1684612e56565b610b619190612f51565b9392505050565b610b927f9b82d2f38fbdf13006bfa741767f793d917e063392737837b580c1c2b1e0bab333610c76565b610bcf5760405162461bcd60e51b815260206004820152600e60248201526d47414d453a204e6f74207465616d60901b6044820152606401610869565b610aad6117fa565b610be2600033610c76565b610bfe5760405162461bcd60e51b815260040161086990612f65565b600480546001600160a01b0319166001600160a01b038316179055610c437f2f660b522cd66c3fe8eabbd9815ae97246faa2cf642722f997fcefd13b6a67b6826107d2565b50565b610c51600033610c76565b610c6d5760405162461bcd60e51b815260040161086990612f65565b61ffff16600355565b60009182526001602090815260408084206001600160a01b0393909316845291905290205460ff1690565b610cac600033610c76565b610cc85760405162461bcd60e51b815260040161086990612f65565b600580546001600160a01b0319166001600160a01b0383169081179091556040519081527fa908db00c4502bbe936c6ac99cb6d67f0636790d9b238cfddab0139153f5eb74906020015b60405180910390a150565b816000610d2982610e0f565b9050600581511115610d755760405162461bcd60e51b8152602060048201526015602482015274086d0ded2c6ca40c6deeadce840e8dede40d0d2ced605b1b6044820152606401610869565b60005b8151811015610df6576006828281518110610d9557610d95612eba565b602002602001015160ff1610610de45760405162461bcd60e51b815260206004820152601460248201527310da1bda58d9481a5cdb89dd08185b1b1bddd95960621b6044820152606401610869565b80610dee81612f92565b915050610d78565b50610e05888888888888611837565b5050505050505050565b6060818060200190518101906106d99190612fab565b606081604051602001610e389190612c91565b6040516020818303038152906040529050919050565b6000610e59816116b0565b506005805463ffffffff909216600160a81b0263ffffffff60a81b19909216919091179055565b60008281526001602081905260409091200154610e9c816116b0565b6107f88383611725565b6002805403610ec75760405162461bcd60e51b815260040161086990613044565b60028055600081815260086020526040902054819060ff1615610f205760405162461bcd60e51b815260206004820152601160248201527011d85b59481a5cc818dbdb5c1b195d1959607a1b6044820152606401610869565b6000818152600860209081526040808320805460ff1916600190811790915585845260068352818420825160c081018452815460ff811682526001600160a01b03610100909104169481019490945290810180549192840191610f8290612e80565b80601f0160208091040260200160405190810160405280929190818152602001828054610fae90612e80565b8015610ffb5780601f10610fd057610100808354040283529160200191610ffb565b820191906000526020600020905b815481529060010190602001808311610fde57829003601f168201915b5050505050815260200160028201548152602001600382015481526020016004820160028060200260405190810160405280929190826002801561105e576020028201915b81546001600160a01b03168152600190910190602001808311611040575b50505050508152505090506110703390565b6001600160a01b031681602001516001600160a01b0316146110c25760405162461bcd60e51b815260206004820152600b60248201526a27b7363c90383630bcb2b960a91b6044820152606401610869565b600554608082015142916110e491600160a81b90910463ffffffff1690612ef0565b106111315760405162461bcd60e51b815260206004820152601a60248201527f47616d65206973206e6f7420726566756e6461626c65207965740000000000006044820152606401610869565b600083815260066020526040812080546001600160a81b03191681559061115b6001830182612510565b5060006002820181905560038201819055600482018190556005918201555460a082015151825160608401516001600160a01b0390931692634154aede92916111a99160ff90911690612e56565b60208501516040516001600160e01b031960e086901b1681526001600160a01b0393841660048201526024810192909252919091166044820152606401600060405180830381600087803b15801561120057600080fd5b505af1158015611214573d6000803e3d6000fd5b505060016002555050505050565b61124c7f2f660b522cd66c3fe8eabbd9815ae97246faa2cf642722f997fcefd13b6a67b633610c76565b61128d5760405162461bcd60e51b815260206004820152601260248201527129219d102737ba103930b73237b6b4bd32b960711b6044820152606401610869565b6107f8838383611c95565b6112a3600033610c76565b6112bf5760405162461bcd60e51b815260040161086990612f65565b6009805467ffffffffffffffff19166001600160401b0383169081179091556040519081527f6a0c74d2a2f78a7af3b6da5a6ae0321cc6d9b6271a7544a895e01d6bf1916e2c90602001610d12565b611319600033610c76565b6113355760405162461bcd60e51b815260040161086990612f65565b60018162ffffff1610156113a45760405162461bcd60e51b815260206004820152603060248201527f5f6d756c7469706c6965722073686f756c64206265206772656174657220746860448201526f616e206f7220657175616c20746f203160801b6064820152608401610869565b60058260ff1611156114035760405162461bcd60e51b815260206004820152602260248201527f7369646520636f756e742063616e27742062652067726561746572207468616e604482015261203560f01b6064820152608401610869565b60ff919091166000908152600a60205260409020805462ffffff191662ffffff909216919091179055565b6000826001600160a01b031663313ce5676040518163ffffffff1660e01b8152600401602060405180830381865afa15801561146e573d6000803e3d6000fd5b505050506040513d601f19601f82011682018060405250810190611492919061307b565b61149d90600a61317c565b6005546040516341976e0960e01b81526001600160a01b038681166004830152909116906341976e0990602401602060405180830381865afa1580156114e7573d6000803e3d6000fd5b505050506040513d601f19601f8201168201806040525081019061150b919061318b565b610b579084612e56565b60606000611524836002612e56565b61152f906002612ef0565b6001600160401b03811115611546576115466126f4565b6040519080825280601f01601f191660200182016040528015611570576020820181803683370190505b509050600360fc1b8160008151811061158b5761158b612eba565b60200101906001600160f81b031916908160001a905350600f60fb1b816001815181106115ba576115ba612eba565b60200101906001600160f81b031916908160001a90535060006115de846002612e56565b6115e9906001612ef0565b90505b6001811115611661576f181899199a1a9b1b9c1cb0b131b232b360811b85600f166010811061161d5761161d612eba565b1a60f81b82828151811061163357611633612eba565b60200101906001600160f81b031916908160001a90535060049490941c9361165a816131a4565b90506115ec565b508315610b615760405162461bcd60e51b815260206004820181905260248201527f537472696e67733a20686578206c656e67746820696e73756666696369656e746044820152606401610869565b610c438133611feb565b6116c48282610c76565b61087c5760008281526001602081815260408084206001600160a01b0386168086529252808420805460ff19169093179092559051339285917f2f8788117e7eff1d82e926ec794901d17c78024a50270940304540a733656f0d9190a45050565b61172f8282610c76565b1561087c5760008281526001602090815260408083206001600160a01b0385168085529252808320805460ff1916905551339285917ff6391f5c32d9c69d2a47ea670b442974b53935d1edc7fd64eb21e047a839171b9190a45050565b6000808212156117a45761179f826131bb565b6106d9565b5090565b6117b061204f565b6000805460ff191690557f5db9ee0a495bf2e6ff9c91a7834c1ba4fdd244a5e8aa4e537bd38aeae4b073aa335b6040516001600160a01b03909116815260200160405180910390a1565b611802612098565b6000805460ff191660011790557f62e78cea01bee320cd4e420270b5ea74000d11b0c9f74754ebdbfc544b05a2586117dd3390565b8460ff16600081116118825760405162461bcd60e51b815260206004820152601460248201527347616d6520636f756e74206f75742d72616e676560601b6044820152606401610869565b600554600160a01b900460ff168111156118d55760405162461bcd60e51b815260206004820152601460248201527347616d6520636f756e74206f75742d72616e676560601b6044820152606401610869565b81518760006118e4838361142e565b60055460405163a8e3925760e01b81523060048201529192506001600160a01b03169063a8e3925790602401602060405180830381865afa15801561192d573d6000803e3d6000fd5b505050506040513d601f19601f82011682018060405250810190611951919061318b565b8110156119965760405162461bcd60e51b815260206004820152601360248201527247414d453a20576167657220746f6f206c6f7760681b6044820152606401610869565b600560009054906101000a90046001600160a01b03166001600160a01b0316638ac402596040518163ffffffff1660e01b8152600401602060405180830381865afa1580156119e9573d6000803e3d6000fd5b505050506040513d601f19601f82011682018060405250810190611a0d919061318b565b811115611a535760405162461bcd60e51b815260206004820152601460248201527308e829a8a7440aec2cecae440e8dede40d0d2ced60631b6044820152606401610869565b611a5b612098565b6002805403611a7c5760405162461bcd60e51b815260040161086990613044565b60028055336000611a8c8b6120de565b6005549091506001600160a01b03166382b9be1a8860006020020151848f8f60ff16611ab89190612e56565b6040516001600160e01b031960e086901b1681526001600160a01b0393841660048201529290911660248301526044820152606401600060405180830381600087803b158015611b0757600080fd5b505af1158015611b1b573d6000803e3d6000fd5b505050506040518060c001604052808c60ff168152602001836001600160a01b031681526020018981526020018d8152602001428152602001888152506006600083815260200190815260200160002060008201518160000160006101000a81548160ff021916908360ff16021790555060208201518160000160016101000a8154816001600160a01b0302191690836001600160a01b031602179055506040820151816001019081611bce9190613225565b50606082015181600201556080820151816003015560a082015181600401906002611bfa92919061254a565b50505089151580611c0a57508815155b15611c3d576040805180820182528b815260208082018c8152600085815260079092529290209051815590516001909101555b816001600160a01b03167f4eb2df9ddc67bd535fefe0a4420b0439b48f28eaf990ef434f94694d52e8b943828e8a604051611c7a93929190613316565b60405180910390a25050600160025550505050505050505050565b600083815260066020526040902054839061010090046001600160a01b0316611cf65760405162461bcd60e51b815260206004820152601360248201527211d85b59481a5cc81b9bdd0818dc99585d1959606a1b6044820152606401610869565b600084815260086020526040902054849060ff1615611d4b5760405162461bcd60e51b815260206004820152601160248201527011d85b59481a5cc818dbdb5c1b195d1959607a1b6044820152606401610869565b6000818152600860205260409020805460ff1916600117905560025460011901611d875760405162461bcd60e51b815260040161086990613044565b600280556000858152600660209081526040808320815160c081018352815460ff8116825261010090046001600160a01b0316938101939093526001810180549192840191611dd590612e80565b80601f0160208091040260200160405190810160405280929190818152602001828054611e0190612e80565b8015611e4e5780601f10611e2357610100808354040283529160200191611e4e565b820191906000526020600020905b815481529060010190602001808311611e3157829003601f168201915b50505050508152602001600282015481526020016003820154815260200160048201600280602002604051908101604052809291908260028015611eb1576020028201915b81546001600160a01b03168152600190910190602001808311611e93575b5050509190925250505060008781526007602090815260408083208151808301909252805482526001015491810191909152919250611ef183888861215d565b90506000806000611f0c868587600001518860200151610880565b92509250925085602001516001600160a01b03167fa0c6d43553c751eac6408fb8830cce1d25ac333ad47e35f29671b726e8e911648c8860600151611f588a8763ffffffff168961219e565b87878a88604051611f6f9796959493929190613331565b60405180910390a260008b815260066020526040812080546001600160a81b031916815590611fa16001830182612510565b600060028301819055600383018190556004830181905560058301555050506000998a52505060076020525050604086208681556001908101969096555050506002929092555050565b611ff58282610c76565b61087c5761200d816001600160a01b03166014611515565b612018836020611515565b60405160200161202992919061338a565b60408051601f198184030181529082905262461bcd60e51b825261086991600401612d0c565b60005460ff16610aad5760405162461bcd60e51b815260206004820152601460248201527314185d5cd8589b194e881b9bdd081c185d5cd95960621b6044820152606401610869565b60005460ff1615610aad5760405162461bcd60e51b815260206004820152601060248201526f14185d5cd8589b194e881c185d5cd95960821b6044820152606401610869565b600480546003546040516336f71c3f60e01b815260ff85169381019390935260248301526000916001600160a01b03909116906336f71c3f906044016020604051808303816000875af1158015612139573d6000803e3d6000fd5b505050506040513d601f19601f820116820180604052508101906106d9919061318b565b6060610a368383808060200260200160405190810160405280939291908181526020018383602002808284376000920191909152506006925061243c915050565b60008060006121b9866000015160ff168688606001516106df565b60055460a08901515160208a015160095460408051633005989b60e11b81526001600160a01b0394851660048201529284166024840152604483018790526001600160401b03909116606483015251949650929450169163600b31369160848082019260009290919082900301818387803b15801561223757600080fd5b505af115801561224b573d6000803e3d6000fd5b505060055460a08901515160208a01516040516303d1db8560e31b81526001600160a01b03928316600482015260248101889052908216604482015291169250631e8edc289150606401600060405180830381600087803b1580156122af57600080fd5b505af11580156122c3573d6000803e3d6000fd5b50505050806000146123485760055460a0870151516020880151604051631d2adf0f60e01b81526001600160a01b039283166004820152908216602482015260448101849052911690631d2adf0f90606401600060405180830381600087803b15801561232f57600080fd5b505af1158015612343573d6000803e3d6000fd5b505050505b836000036123c05760055460a087015151604051631af5a19360e21b81526001600160a01b03918216600482015260248101859052911690636bd6864c90604401600060405180830381600087803b1580156123a357600080fd5b505af11580156123b7573d6000803e3d6000fd5b50505050612431565b60055460a087015160208801516040516353a2418b60e11b81526001600160a01b039093169263a7448316926123fe92909187908a906004016133ff565b600060405180830381600087803b15801561241857600080fd5b505af115801561242c573d6000803e3d6000fd5b505050505b509091119392505050565b6060600083516001600160401b03811115612459576124596126f4565b604051908082528060200260200182016040528015612482578160200160208202803683370190505b50905060005b84518110156124e3576124b48582815181106124a6576124a6612eba565b6020026020010151856124eb565b8282815181106124c6576124c6612eba565b6020908102919091010152806124db81612f92565b915050612488565b509392505050565b6000808263ffffffff16116125005782610b61565b610b6163ffffffff831684613431565b50805461251c90612e80565b6000825580601f1061252c575050565b601f016020900490600052602060002090810190610c43919061259a565b8260028101928215612592579160200282015b8281111561259257825182546001600160a01b0319166001600160a01b0390911617825560209092019160019091019061255d565b506117a49291505b5b808211156117a4576000815560010161259b565b6000602082840312156125c157600080fd5b81356001600160e01b031981168114610b6157600080fd5b6000806000606084860312156125ee57600080fd5b505081359360208301359350604090920135919050565b60006020828403121561261757600080fd5b5035919050565b60005b83811015612639578181015183820152602001612621565b50506000910152565b6000815180845261265a81602086016020860161261e565b601f01601f19169290920160200192915050565b60ff861681526001600160a01b038516602082015260a06040820181905260009061269b90830186612642565b606083019490945250608001529392505050565b6001600160a01b0381168114610c4357600080fd5b600080604083850312156126d757600080fd5b8235915060208301356126e9816126af565b809150509250929050565b634e487b7160e01b600052604160045260246000fd5b604051601f8201601f191681016001600160401b0381118282101715612732576127326126f4565b604052919050565b60ff81168114610c4357600080fd5b600082601f83011261275a57600080fd5b81356001600160401b03811115612773576127736126f4565b612786601f8201601f191660200161270a565b81815284602083860101111561279b57600080fd5b816020850160208301376000918101602001919091529392505050565b600082601f8301126127c957600080fd5b604051604081018181106001600160401b03821117156127eb576127eb6126f4565b806040525080604084018581111561280257600080fd5b845b81811015612825578035612817816126af565b835260209283019201612804565b509195945050505050565b600060e0828403121561284257600080fd5b60405160c081016001600160401b038282108183111715612865576128656126f4565b81604052829350843591506128798261273a565b90825260208401359061288b826126af565b81602084015260408501359150808211156128a557600080fd5b506128b285828601612749565b60408301525060608301356060820152608083013560808201526128d98460a085016127b8565b60a08201525092915050565b60006001600160401b038211156128fe576128fe6126f4565b5060051b60200190565b6000806000806080858703121561291e57600080fd5b84356001600160401b038082111561293557600080fd5b61294188838901612830565b955060209150818701358181111561295857600080fd5b87019050601f8101881361296b57600080fd5b803561297e612979826128e5565b61270a565b81815260059190911b8201830190838101908a83111561299d57600080fd5b928401925b828410156129bb578335825292840192908401906129a2565b979a97995050505060408601359560600135949350505050565b600081518084526020808501945080840160005b83811015612a05578151875295820195908201906001016129e9565b509495945050505050565b83815263ffffffff83166020820152606060408201526000612a3560608301846129d5565b95945050505050565b60008060008060808587031215612a5457600080fd5b5050823594602084013594506040840135936060013592509050565b600060208284031215612a8257600080fd5b8135610b618161273a565b600082601f830112612a9e57600080fd5b81356020612aae612979836128e5565b82815260059290921b84018101918181019086841115612acd57600080fd5b8286015b84811015612af1578035612ae48161273a565b8352918301918301612ad1565b509695505050505050565b60008060408385031215612b0f57600080fd5b82356001600160401b03811115612b2557600080fd5b612b3185828601612a8d565b95602094909401359450505050565b60008060408385031215612b5357600080fd5b8235612b5e8161273a565b946020939093013593505050565b600060208284031215612b7e57600080fd5b81356001600160401b03811115612b9457600080fd5b610a3684828501612830565b600060208284031215612bb257600080fd5b8135610b61816126af565b600060208284031215612bcf57600080fd5b813561ffff81168114610b6157600080fd5b60008060008060008060e08789031215612bfa57600080fd5b863595506020870135612c0c8161273a565b9450604087013593506060870135925060808701356001600160401b03811115612c3557600080fd5b612c4189828a01612749565b925050612c518860a089016127b8565b90509295509295509295565b600060208284031215612c6f57600080fd5b81356001600160401b03811115612c8557600080fd5b610a3684828501612749565b6020808252825182820181905260009190848201906040850190845b81811015612ccc57835160ff1683529284019291840191600101612cad565b50909695505050505050565b600060208284031215612cea57600080fd5b81356001600160401b03811115612d0057600080fd5b610a3684828501612a8d565b602081526000610b616020830184612642565b600060208284031215612d3157600080fd5b813563ffffffff81168114610b6157600080fd5b600080600060408486031215612d5a57600080fd5b8335925060208401356001600160401b0380821115612d7857600080fd5b818601915086601f830112612d8c57600080fd5b813581811115612d9b57600080fd5b8760208260051b8501011115612db057600080fd5b6020830194508093505050509250925092565b600060208284031215612dd557600080fd5b81356001600160401b0381168114610b6157600080fd5b60008060408385031215612dff57600080fd5b8235612e0a8161273a565b9150602083013562ffffff811681146126e957600080fd5b60008060408385031215612e3557600080fd5b8235612b5e816126af565b634e487b7160e01b600052601160045260246000fd5b80820281158282048414176106d9576106d9612e40565b818103818111156106d9576106d9612e40565b600181811c90821680612e9457607f821691505b602082108103612eb457634e487b7160e01b600052602260045260246000fd5b50919050565b634e487b7160e01b600052603260045260246000fd5b8181036000831280158383131683831282161715610b2a57610b2a612e40565b808201808211156106d9576106d9612e40565b60ff81811683821601908111156106d9576106d9612e40565b600060ff821660ff8103612f3257612f32612e40565b60010192915050565b634e487b7160e01b600052601260045260246000fd5b600082612f6057612f60612f3b565b500490565b6020808252601390820152724143433a204e6f7420676f7665726e616e636560681b604082015260600190565b600060018201612fa457612fa4612e40565b5060010190565b60006020808385031215612fbe57600080fd5b82516001600160401b03811115612fd457600080fd5b8301601f81018513612fe557600080fd5b8051612ff3612979826128e5565b81815260059190911b8201830190838101908783111561301257600080fd5b928401925b8284101561303957835161302a8161273a565b82529284019290840190613017565b979650505050505050565b6020808252601f908201527f5265656e7472616e637947756172643a207265656e7472616e742063616c6c00604082015260600190565b60006020828403121561308d57600080fd5b8151610b618161273a565b600181815b808511156130d35781600019048211156130b9576130b9612e40565b808516156130c657918102915b93841c939080029061309d565b509250929050565b6000826130ea575060016106d9565b816130f7575060006106d9565b816001811461310d576002811461311757613133565b60019150506106d9565b60ff84111561312857613128612e40565b50506001821b6106d9565b5060208310610133831016604e8410600b8410161715613156575081810a6106d9565b6131608383613098565b806000190482111561317457613174612e40565b029392505050565b6000610b6160ff8416836130db565b60006020828403121561319d57600080fd5b5051919050565b6000816131b3576131b3612e40565b506000190190565b6000600160ff1b82016131d0576131d0612e40565b5060000390565b601f8211156107f857600081815260208120601f850160051c810160208610156131fe5750805b601f850160051c820191505b8181101561321d5782815560010161320a565b505050505050565b81516001600160401b0381111561323e5761323e6126f4565b6132528161324c8454612e80565b846131d7565b602080601f831160018114613287576000841561326f5750858301515b600019600386901b1c1916600185901b17855561321d565b600085815260208120601f198616915b828110156132b657888601518255948401946001909101908401613297565b50858210156132d45787850151600019600388901b60f8161c191681555b5050505050600190811b01905550565b8060005b60028110156133105781516001600160a01b03168452602093840193909101906001016132e8565b50505050565b8381526020810183905260808101610a3660408301846132e4565b878152866020820152851515604082015284606082015263ffffffff8416608082015260e060a0820152600061336a60e08301856129d5565b82810360c084015261337c81856129d5565b9a9950505050505050505050565b7f416363657373436f6e74726f6c3a206163636f756e74200000000000000000008152600083516133c281601785016020880161261e565b7001034b99036b4b9b9b4b733903937b6329607d1b60179184019182015283516133f381602884016020880161261e565b01602801949350505050565b60a0810161340d82876132e4565b6001600160a01b039490941660408201526060810192909252608090910152919050565b60008261344057613440612f3b565b50069056fea26469706673582212204d047c67f1ea48f07492d154a1de4dc4d98e91fefd4ccbc6767c720c9881653164736f6c63430008110033","linkReferences":{}},"methodIdentifiers":{"DEFAULT_ADMIN_ROLE()":"a217fddf","PRECISION()":"aaf5eb68","RANDOMIZER_ROLE()":"bf193005","TEAM_ROLE()":"49d5e604","_computeDollarValue(address,uint256)":"f7137e77","bet(uint256,uint8,uint256,uint256,bytes,address[2])":"bb4149e0","calcReward(uint8,uint256)":"79e7a5d7","calcWager(uint256,uint256,uint256)":"10088fbc","changeRandomizerRouter(address)":"8f130d50","completedGames(uint256)":"4d30372d","decodeGameData(bytes)":"bda9a844","encodeGameData(uint8[])":"c56bd7cb","games(uint256)":"117a5b90","getHouseEdge((uint8,address,bytes,uint256,uint256,address[2]))":"7f1ad204","getRoleAdmin(bytes32)":"248a9ca3","grantRole(bytes32,address)":"2f2ff15d","hasRole(bytes32,address)":"91d14854","houseEdge()":"d667dcd7","isWon(uint8[],uint256)":"4b8c52b3","maxGameCount()":"e9f9b2d7","minConfirmations()":"e7c4393e","multipliers(uint8)":"92870d94","options(uint256)":"409e2205","pause()":"8456cb59","paused()":"5c975abb","play((uint8,address,bytes,uint256,uint256,address[2]),uint256[],uint256,uint256)":"37107fc7","randomizerCallback(uint256,uint256[])":"e5199bb8","randomizerRouter()":"4b95a52e","refundCooldown()":"2d3e8c93","refundGame(uint256)":"d7260cba","renounceRole(bytes32,address)":"36568abe","revokeRole(bytes32,address)":"d547741f","setMinConfirmations(uint16)":"9104a03d","setVaultManager(address)":"b543503e","shouldStop(uint256,uint256,uint256,uint256)":"3b49b7ed","supportsInterface(bytes4)":"01ffc9a7","unpause()":"3f4ba83a","updateHouseEdge(uint64)":"e84f0cc0","updateMaxGameCount(uint8)":"427dc913","updateRefundCooldown(uint32)":"d1adfff4","updateWinMultiplier(uint8,uint24)":"e85890ac","vaultManager()":"8a4adf24"},"id":11}