{"abi":[{"type":"constructor","inputs":[{"name":"_randomizer","type":"address","internalType":"contract ISupraRouter"}],"stateMutability":"nonpayable"},{"type":"function","name":"CONSUMER_ROLE","inputs":[],"outputs":[{"name":"","type":"bytes32","internalType":"bytes32"}],"stateMutability":"view"},{"type":"function","name":"DEFAULT_ADMIN_ROLE","inputs":[],"outputs":[{"name":"","type":"bytes32","internalType":"bytes32"}],"stateMutability":"view"},{"type":"function","name":"PROVIDER_ROLE","inputs":[],"outputs":[{"name":"","type":"bytes32","internalType":"bytes32"}],"stateMutability":"view"},{"type":"function","name":"RANDOMIZER_ROLE","inputs":[],"outputs":[{"name":"","type":"bytes32","internalType":"bytes32"}],"stateMutability":"view"},{"type":"function","name":"ROUTER_ROLE","inputs":[],"outputs":[{"name":"","type":"bytes32","internalType":"bytes32"}],"stateMutability":"view"},{"type":"function","name":"TEAM_ROLE","inputs":[],"outputs":[{"name":"","type":"bytes32","internalType":"bytes32"}],"stateMutability":"view"},{"type":"function","name":"callback","inputs":[{"name":"_requestId","type":"uint256","internalType":"uint256"},{"name":"_rngList","type":"uint256[]","internalType":"uint256[]"}],"outputs":[],"stateMutability":"nonpayable"},{"type":"function","name":"changeRandomizer","inputs":[{"name":"_randomizer","type":"address","internalType":"contract ISupraRouter"}],"outputs":[],"stateMutability":"nonpayable"},{"type":"function","name":"changeWalletAddress","inputs":[{"name":"_walletAddress","type":"address","internalType":"address"}],"outputs":[],"stateMutability":"nonpayable"},{"type":"function","name":"getRoleAdmin","inputs":[{"name":"role","type":"bytes32","internalType":"bytes32"}],"outputs":[{"name":"","type":"bytes32","internalType":"bytes32"}],"stateMutability":"view"},{"type":"function","name":"grantRole","inputs":[{"name":"role","type":"bytes32","internalType":"bytes32"},{"name":"account","type":"address","internalType":"address"}],"outputs":[],"stateMutability":"nonpayable"},{"type":"function","name":"hasRole","inputs":[{"name":"role","type":"bytes32","internalType":"bytes32"},{"name":"account","type":"address","internalType":"address"}],"outputs":[{"name":"","type":"bool","internalType":"bool"}],"stateMutability":"view"},{"type":"function","name":"randomizer","inputs":[],"outputs":[{"name":"","type":"address","internalType":"contract ISupraRouter"}],"stateMutability":"view"},{"type":"function","name":"renounceRole","inputs":[{"name":"role","type":"bytes32","internalType":"bytes32"},{"name":"account","type":"address","internalType":"address"}],"outputs":[],"stateMutability":"nonpayable"},{"type":"function","name":"request","inputs":[{"name":"_routerRequestId","type":"uint256","internalType":"uint256"},{"name":"_count","type":"uint32","internalType":"uint32"},{"name":"minConfirmations","type":"uint256","internalType":"uint256"}],"outputs":[{"name":"requestId_","type":"uint256","internalType":"uint256"}],"stateMutability":"nonpayable"},{"type":"function","name":"revokeRole","inputs":[{"name":"role","type":"bytes32","internalType":"bytes32"},{"name":"account","type":"address","internalType":"address"}],"outputs":[],"stateMutability":"nonpayable"},{"type":"function","name":"router","inputs":[],"outputs":[{"name":"","type":"address","internalType":"contract IRandomizerRouter"}],"stateMutability":"view"},{"type":"function","name":"routerRequestIds","inputs":[{"name":"","type":"uint256","internalType":"uint256"}],"outputs":[{"name":"","type":"uint256","internalType":"uint256"}],"stateMutability":"view"},{"type":"function","name":"setRouter","inputs":[{"name":"_router","type":"address","internalType":"contract IRandomizerRouter"}],"outputs":[],"stateMutability":"nonpayable"},{"type":"function","name":"supportsInterface","inputs":[{"name":"interfaceId","type":"bytes4","internalType":"bytes4"}],"outputs":[{"name":"","type":"bool","internalType":"bool"}],"stateMutability":"view"},{"type":"function","name":"walletAddress","inputs":[],"outputs":[{"name":"","type":"address","internalType":"address"}],"stateMutability":"view"},{"type":"event","name":"RoleAdminChanged","inputs":[{"name":"role","type":"bytes32","indexed":true,"internalType":"bytes32"},{"name":"previousAdminRole","type":"bytes32","indexed":true,"internalType":"bytes32"},{"name":"newAdminRole","type":"bytes32","indexed":true,"internalType":"bytes32"}],"anonymous":false},{"type":"event","name":"RoleGranted","inputs":[{"name":"role","type":"bytes32","indexed":true,"internalType":"bytes32"},{"name":"account","type":"address","indexed":true,"internalType":"address"},{"name":"sender","type":"address","indexed":true,"internalType":"address"}],"anonymous":false},{"type":"event","name":"RoleRevoked","inputs":[{"name":"role","type":"bytes32","indexed":true,"internalType":"bytes32"},{"name":"account","type":"address","indexed":true,"internalType":"address"},{"name":"sender","type":"address","indexed":true,"internalType":"address"}],"anonymous":false},{"type":"event","name":"VaultManagerChange","inputs":[{"name":"vaultManager","type":"address","indexed":false,"internalType":"address"}],"anonymous":false}],"bytecode":{"object":"0x60806040523480156200001157600080fd5b506040516200144d3803806200144d833981016040819052620000349162000443565b6200004160003362000060565b6200004e60003362000060565b620000598162000070565b50620005ce565b6200006c828262000119565b5050565b6200007d600033620001a1565b620000cf5760405162461bcd60e51b815260206004820152601360248201527f524e443a204e6f7420676f7665726e616e63650000000000000000000000000060448201526064015b60405180910390fd5b600280546001600160a01b0319166001600160a01b038316179055620001167f2f660b522cd66c3fe8eabbd9815ae97246faa2cf642722f997fcefd13b6a67b682620001cc565b50565b620001258282620001a1565b6200006c576000828152602081815260408083206001600160a01b03851684529091529020805460ff191660011790556200015d3390565b6001600160a01b0316816001600160a01b0316837f2f8788117e7eff1d82e926ec794901d17c78024a50270940304540a733656f0d60405160405180910390a45050565b6000828152602081815260408083206001600160a01b038516845290915290205460ff165b92915050565b600082815260208190526040902060010154620001e981620001fa565b620001f5838362000119565b505050565b6200011681336200020c8282620001a1565b6200006c5762000232816001600160a01b031660146200028360201b620008041760201c565b620002488360206200080462000283821b17811c565b6040516020016200025b92919062000494565b60408051601f198184030181529082905262461bcd60e51b8252620000c6916004016200050d565b606060006200029483600262000558565b620002a190600262000572565b6001600160401b03811115620002bb57620002bb62000588565b6040519080825280601f01601f191660200182016040528015620002e6576020820181803683370190505b509050600360fc1b816000815181106200030457620003046200059e565b60200101906001600160f81b031916908160001a905350600f60fb1b816001815181106200033657620003366200059e565b60200101906001600160f81b031916908160001a90535060006200035c84600262000558565b6200036990600162000572565b90505b6001811115620003eb576f181899199a1a9b1b9c1cb0b131b232b360811b85600f1660108110620003a157620003a16200059e565b1a60f81b828281518110620003ba57620003ba6200059e565b60200101906001600160f81b031916908160001a90535060049490941c93620003e381620005b4565b90506200036c565b5083156200043c5760405162461bcd60e51b815260206004820181905260248201527f537472696e67733a20686578206c656e67746820696e73756666696369656e746044820152606401620000c6565b9392505050565b6000602082840312156200045657600080fd5b81516001600160a01b03811681146200043c57600080fd5b60005b838110156200048b57818101518382015260200162000471565b50506000910152565b7f416363657373436f6e74726f6c3a206163636f756e7420000000000000000000815260008351620004ce8160178501602088016200046e565b7001034b99036b4b9b9b4b733903937b6329607d1b6017918401918201528351620005018160288401602088016200046e565b01602801949350505050565b60208152600082518060208401526200052e8160408501602087016200046e565b601f01601f19169190910160400192915050565b634e487b7160e01b600052601160045260246000fd5b8082028115828204841417620001c657620001c662000542565b80820180821115620001c657620001c662000542565b634e487b7160e01b600052604160045260246000fd5b634e487b7160e01b600052603260045260246000fd5b600081620005c657620005c662000542565b506000190190565b610e6f80620005de6000396000f3fe608060405234801561001057600080fd5b50600436106101375760003560e01c80636020345e116100b8578063bf1930051161007c578063bf193005146102f8578063c0d786551461031f578063d547741f14610332578063ec8edf7a14610345578063f10fb58414610358578063f887ea401461036b57600080fd5b80636020345e1461027f5780636ad5b3ea1461029f5780637d183f3d146102ca57806391d14854146102dd578063a217fddf146102f057600080fd5b806330d643b5116100ff57806330d643b5146101e457806336568abe1461020b57806349d5e6041461021e5780634bc02da61461024557806353d45f5f1461026c57600080fd5b806301ffc9a71461013c578063072418ae14610164578063248a9ca31461018557806324c20a34146101a85780632f2ff15d146101cf575b600080fd5b61014f61014a366004610afe565b61037e565b60405190151581526020015b60405180910390f35b610177610172366004610b28565b6103b5565b60405190815260200161015b565b610177610193366004610b69565b60009081526020819052604090206001015490565b6101777f4a3debffbb5bc5d4c738c3d8b74da2daa7589500e8c18ed2d6a9a12a34a3116181565b6101e26101dd366004610b97565b6104f4565b005b6101777feb4fd9f47c063b511700e1c8e94e2fa4088ffca1fdcef1e60edf1beecd1b2e6481565b6101e2610219366004610b97565b61051e565b6101777f9b82d2f38fbdf13006bfa741767f793d917e063392737837b580c1c2b1e0bab381565b6101777fee129e6fb492ad85e7c4d99e24facc6412bb957226fd6e1ff5efa1d2c0569e9c81565b6101e261027a366004610bc7565b61059c565b61017761028d366004610b69565b60046020526000908152604090205481565b6003546102b2906001600160a01b031681565b6040516001600160a01b03909116815260200161015b565b6101e26102d8366004610be4565b61060b565b61014f6102eb366004610b97565b610701565b610177600081565b6101777f2f660b522cd66c3fe8eabbd9815ae97246faa2cf642722f997fcefd13b6a67b681565b6101e261032d366004610bc7565b61072a565b6101e2610340366004610b97565b610796565b6101e2610353366004610bc7565b6107bb565b6002546102b2906001600160a01b031681565b6001546102b2906001600160a01b031681565b60006001600160e01b03198216637965db0b60e01b14806103af57506301ffc9a760e01b6001600160e01b03198316145b92915050565b60006103e17feb4fd9f47c063b511700e1c8e94e2fa4088ffca1fdcef1e60edf1beecd1b2e6433610701565b6104245760405162461bcd60e51b815260206004820152600f60248201526e2928291d102737ba103937baba32b960891b60448201526064015b60405180910390fd5b60025460035460405163d291ba0960e01b815260806004820152601b60848201527f63616c6c6261636b2875696e743235362c75696e743235365b5d29000000000060a482015260ff86166024820152604481018590526001600160a01b03918216606482015291169063d291ba099060c4016020604051808303816000875af11580156104b6573d6000803e3d6000fd5b505050506040513d601f19601f820116820180604052508101906104da9190610c63565b600081815260046020526040902094909455509192915050565b60008281526020819052604090206001015461050f816109a7565b61051983836109b1565b505050565b6001600160a01b038116331461058e5760405162461bcd60e51b815260206004820152602f60248201527f416363657373436f6e74726f6c3a2063616e206f6e6c792072656e6f756e636560448201526e103937b632b9903337b91039b2b63360891b606482015260840161041b565b6105988282610a35565b5050565b6105a7600033610701565b6105c35760405162461bcd60e51b815260040161041b90610c7c565b600280546001600160a01b0319166001600160a01b0383161790556106087f2f660b522cd66c3fe8eabbd9815ae97246faa2cf642722f997fcefd13b6a67b6826104f4565b50565b6106357f2f660b522cd66c3fe8eabbd9815ae97246faa2cf642722f997fcefd13b6a67b633610701565b6106775760405162461bcd60e51b81526020600482015260136024820152722928291d102737ba103930b73237b6b4bd32b960691b604482015260640161041b565b60008381526004602081905260409182902054600154925163526fbe5560e01b815290926001600160a01b03169163526fbe55916106bb9185918891889101610ca9565b600060405180830381600087803b1580156106d557600080fd5b505af11580156106e9573d6000803e3d6000fd5b50505060009485525050600460205250506040812055565b6000918252602082815260408084206001600160a01b0393909316845291905290205460ff1690565b610735600033610701565b6107515760405162461bcd60e51b815260040161041b90610c7c565b600180546001600160a01b0319166001600160a01b0383161790556106087feb4fd9f47c063b511700e1c8e94e2fa4088ffca1fdcef1e60edf1beecd1b2e64826104f4565b6000828152602081905260409020600101546107b1816109a7565b6105198383610a35565b6107c6600033610701565b6107e25760405162461bcd60e51b815260040161041b90610c7c565b600380546001600160a01b0319166001600160a01b0392909216919091179055565b60606000610813836002610d00565b61081e906002610d17565b67ffffffffffffffff81111561083657610836610d2a565b6040519080825280601f01601f191660200182016040528015610860576020820181803683370190505b509050600360fc1b8160008151811061087b5761087b610d40565b60200101906001600160f81b031916908160001a905350600f60fb1b816001815181106108aa576108aa610d40565b60200101906001600160f81b031916908160001a90535060006108ce846002610d00565b6108d9906001610d17565b90505b6001811115610951576f181899199a1a9b1b9c1cb0b131b232b360811b85600f166010811061090d5761090d610d40565b1a60f81b82828151811061092357610923610d40565b60200101906001600160f81b031916908160001a90535060049490941c9361094a81610d56565b90506108dc565b5083156109a05760405162461bcd60e51b815260206004820181905260248201527f537472696e67733a20686578206c656e67746820696e73756666696369656e74604482015260640161041b565b9392505050565b6106088133610a9a565b6109bb8282610701565b610598576000828152602081815260408083206001600160a01b03851684529091529020805460ff191660011790556109f13390565b6001600160a01b0316816001600160a01b0316837f2f8788117e7eff1d82e926ec794901d17c78024a50270940304540a733656f0d60405160405180910390a45050565b610a3f8282610701565b15610598576000828152602081815260408083206001600160a01b0385168085529252808320805460ff1916905551339285917ff6391f5c32d9c69d2a47ea670b442974b53935d1edc7fd64eb21e047a839171b9190a45050565b610aa48282610701565b61059857610abc816001600160a01b03166014610804565b610ac7836020610804565b604051602001610ad8929190610d91565b60408051601f198184030181529082905262461bcd60e51b825261041b91600401610e06565b600060208284031215610b1057600080fd5b81356001600160e01b0319811681146109a057600080fd5b600080600060608486031215610b3d57600080fd5b83359250602084013563ffffffff81168114610b5857600080fd5b929592945050506040919091013590565b600060208284031215610b7b57600080fd5b5035919050565b6001600160a01b038116811461060857600080fd5b60008060408385031215610baa57600080fd5b823591506020830135610bbc81610b82565b809150509250929050565b600060208284031215610bd957600080fd5b81356109a081610b82565b600080600060408486031215610bf957600080fd5b83359250602084013567ffffffffffffffff80821115610c1857600080fd5b818601915086601f830112610c2c57600080fd5b813581811115610c3b57600080fd5b8760208260051b8501011115610c5057600080fd5b6020830194508093505050509250925092565b600060208284031215610c7557600080fd5b5051919050565b602080825260139082015272524e443a204e6f7420676f7665726e616e636560681b604082015260600190565b838152604060208201819052810182905260006001600160fb1b03831115610cd057600080fd5b8260051b8085606085013791909101606001949350505050565b634e487b7160e01b600052601160045260246000fd5b80820281158282048414176103af576103af610cea565b808201808211156103af576103af610cea565b634e487b7160e01b600052604160045260246000fd5b634e487b7160e01b600052603260045260246000fd5b600081610d6557610d65610cea565b506000190190565b60005b83811015610d88578181015183820152602001610d70565b50506000910152565b7f416363657373436f6e74726f6c3a206163636f756e7420000000000000000000815260008351610dc9816017850160208801610d6d565b7001034b99036b4b9b9b4b733903937b6329607d1b6017918401918201528351610dfa816028840160208801610d6d565b01602801949350505050565b6020815260008251806020840152610e25816040850160208701610d6d565b601f01601f1916919091016040019291505056fea264697066735822122056be4028334c6ff6a334c6302829e0f5f2faf642d964d2c2169be40f2df3900a64736f6c63430008110033","linkReferences":{}},"methodIdentifiers":{"CONSUMER_ROLE()":"4bc02da6","DEFAULT_ADMIN_ROLE()":"a217fddf","PROVIDER_ROLE()":"24c20a34","RANDOMIZER_ROLE()":"bf193005","ROUTER_ROLE()":"30d643b5","TEAM_ROLE()":"49d5e604","callback(uint256,uint256[])":"7d183f3d","changeRandomizer(address)":"53d45f5f","changeWalletAddress(address)":"ec8edf7a","getRoleAdmin(bytes32)":"248a9ca3","grantRole(bytes32,address)":"2f2ff15d","hasRole(bytes32,address)":"91d14854","randomizer()":"f10fb584","renounceRole(bytes32,address)":"36568abe","request(uint256,uint32,uint256)":"072418ae","revokeRole(bytes32,address)":"d547741f","router()":"f887ea40","routerRequestIds(uint256)":"6020345e","setRouter(address)":"c0d78655","supportsInterface(bytes4)":"01ffc9a7","walletAddress()":"6ad5b3ea"},"id":33}