{"abi":[{"type":"constructor","inputs":[{"name":"_router","type":"address","internalType":"contract IRandomizerRouter"}],"stateMutability":"nonpayable"},{"type":"function","name":"DEFAULT_ADMIN_ROLE","inputs":[],"outputs":[{"name":"","type":"bytes32","internalType":"bytes32"}],"stateMutability":"view"},{"type":"function","name":"PRECISION","inputs":[],"outputs":[{"name":"","type":"uint256","internalType":"uint256"}],"stateMutability":"view"},{"type":"function","name":"RANDOMIZER_ROLE","inputs":[],"outputs":[{"name":"","type":"bytes32","internalType":"bytes32"}],"stateMutability":"view"},{"type":"function","name":"TEAM_ROLE","inputs":[],"outputs":[{"name":"","type":"bytes32","internalType":"bytes32"}],"stateMutability":"view"},{"type":"function","name":"_computeDollarValue","inputs":[{"name":"_token","type":"address","internalType":"address"},{"name":"_wager","type":"uint256","internalType":"uint256"}],"outputs":[{"name":"_wagerInDollar","type":"uint256","internalType":"uint256"}],"stateMutability":"view"},{"type":"function","name":"bet","inputs":[{"name":"_wager","type":"uint256","internalType":"uint256"},{"name":"_count","type":"uint8","internalType":"uint8"},{"name":"_stopGain","type":"uint256","internalType":"uint256"},{"name":"_stopLoss","type":"uint256","internalType":"uint256"},{"name":"_gameData","type":"bytes","internalType":"bytes"},{"name":"_tokens","type":"address[2]","internalType":"address[2]"}],"outputs":[],"stateMutability":"nonpayable"},{"type":"function","name":"calcReward","inputs":[{"name":"_wager","type":"uint256","internalType":"uint256"}],"outputs":[{"name":"reward_","type":"uint256","internalType":"uint256"}],"stateMutability":"view"},{"type":"function","name":"calcWager","inputs":[{"name":"_count","type":"uint256","internalType":"uint256"},{"name":"_usedCount","type":"uint256","internalType":"uint256"},{"name":"_wager","type":"uint256","internalType":"uint256"}],"outputs":[{"name":"usedWager_","type":"uint256","internalType":"uint256"},{"name":"unusedWager_","type":"uint256","internalType":"uint256"}],"stateMutability":"pure"},{"type":"function","name":"changeRandomizerRouter","inputs":[{"name":"_randomizerRouter","type":"address","internalType":"contract IRandomizerRouter"}],"outputs":[],"stateMutability":"nonpayable"},{"type":"function","name":"completedGames","inputs":[{"name":"","type":"uint256","internalType":"uint256"}],"outputs":[{"name":"","type":"bool","internalType":"bool"}],"stateMutability":"view"},{"type":"function","name":"decodeGameData","inputs":[{"name":"_gameData","type":"bytes","internalType":"bytes"}],"outputs":[{"name":"","type":"uint8","internalType":"uint8"}],"stateMutability":"pure"},{"type":"function","name":"encodeGameData","inputs":[{"name":"_choice","type":"uint8","internalType":"uint8"}],"outputs":[{"name":"","type":"bytes","internalType":"bytes"}],"stateMutability":"pure"},{"type":"function","name":"games","inputs":[{"name":"","type":"uint256","internalType":"uint256"}],"outputs":[{"name":"count","type":"uint8","internalType":"uint8"},{"name":"player","type":"address","internalType":"address"},{"name":"gameData","type":"bytes","internalType":"bytes"},{"name":"wager","type":"uint256","internalType":"uint256"},{"name":"startTime","type":"uint256","internalType":"uint256"}],"stateMutability":"view"},{"type":"function","name":"getHouseEdge","inputs":[{"name":"","type":"tuple","internalType":"struct CommonSolo.Game","components":[{"name":"count","type":"uint8","internalType":"uint8"},{"name":"player","type":"address","internalType":"address"},{"name":"gameData","type":"bytes","internalType":"bytes"},{"name":"wager","type":"uint256","internalType":"uint256"},{"name":"startTime","type":"uint256","internalType":"uint256"},{"name":"tokens","type":"address[2]","internalType":"address[2]"}]}],"outputs":[{"name":"edge_","type":"uint64","internalType":"uint64"}],"stateMutability":"view"},{"type":"function","name":"getRoleAdmin","inputs":[{"name":"role","type":"bytes32","internalType":"bytes32"}],"outputs":[{"name":"","type":"bytes32","internalType":"bytes32"}],"stateMutability":"view"},{"type":"function","name":"grantRole","inputs":[{"name":"role","type":"bytes32","internalType":"bytes32"},{"name":"account","type":"address","internalType":"address"}],"outputs":[],"stateMutability":"nonpayable"},{"type":"function","name":"hasRole","inputs":[{"name":"role","type":"bytes32","internalType":"bytes32"},{"name":"account","type":"address","internalType":"address"}],"outputs":[{"name":"","type":"bool","internalType":"bool"}],"stateMutability":"view"},{"type":"function","name":"houseEdge","inputs":[],"outputs":[{"name":"","type":"uint64","internalType":"uint64"}],"stateMutability":"view"},{"type":"function","name":"isWon","inputs":[{"name":"_choice","type":"uint8","internalType":"uint8"},{"name":"_result","type":"uint256","internalType":"uint256"}],"outputs":[{"name":"won_","type":"bool","internalType":"bool"}],"stateMutability":"pure"},{"type":"function","name":"maxGameCount","inputs":[],"outputs":[{"name":"","type":"uint8","internalType":"uint8"}],"stateMutability":"view"},{"type":"function","name":"minConfirmations","inputs":[],"outputs":[{"name":"","type":"uint256","internalType":"uint256"}],"stateMutability":"view"},{"type":"function","name":"options","inputs":[{"name":"","type":"uint256","internalType":"uint256"}],"outputs":[{"name":"stopGain","type":"uint256","internalType":"uint256"},{"name":"stopLoss","type":"uint256","internalType":"uint256"}],"stateMutability":"view"},{"type":"function","name":"pause","inputs":[],"outputs":[],"stateMutability":"nonpayable"},{"type":"function","name":"paused","inputs":[],"outputs":[{"name":"","type":"bool","internalType":"bool"}],"stateMutability":"view"},{"type":"function","name":"play","inputs":[{"name":"_game","type":"tuple","internalType":"struct CommonSolo.Game","components":[{"name":"count","type":"uint8","internalType":"uint8"},{"name":"player","type":"address","internalType":"address"},{"name":"gameData","type":"bytes","internalType":"bytes"},{"name":"wager","type":"uint256","internalType":"uint256"},{"name":"startTime","type":"uint256","internalType":"uint256"},{"name":"tokens","type":"address[2]","internalType":"address[2]"}]},{"name":"_resultNumbers","type":"uint256[]","internalType":"uint256[]"},{"name":"_stopGain","type":"uint256","internalType":"uint256"},{"name":"_stopLoss","type":"uint256","internalType":"uint256"}],"outputs":[{"name":"payout_","type":"uint256","internalType":"uint256"},{"name":"playedGameCount_","type":"uint32","internalType":"uint32"},{"name":"payouts_","type":"uint256[]","internalType":"uint256[]"}],"stateMutability":"view"},{"type":"function","name":"randomizerCallback","inputs":[{"name":"_requestId","type":"uint256","internalType":"uint256"},{"name":"_rngList","type":"uint256[]","internalType":"uint256[]"}],"outputs":[],"stateMutability":"nonpayable"},{"type":"function","name":"randomizerRouter","inputs":[],"outputs":[{"name":"","type":"address","internalType":"contract IRandomizerRouter"}],"stateMutability":"view"},{"type":"function","name":"refundCooldown","inputs":[],"outputs":[{"name":"","type":"uint32","internalType":"uint32"}],"stateMutability":"view"},{"type":"function","name":"refundGame","inputs":[{"name":"_requestId","type":"uint256","internalType":"uint256"}],"outputs":[],"stateMutability":"nonpayable"},{"type":"function","name":"renounceRole","inputs":[{"name":"role","type":"bytes32","internalType":"bytes32"},{"name":"account","type":"address","internalType":"address"}],"outputs":[],"stateMutability":"nonpayable"},{"type":"function","name":"revokeRole","inputs":[{"name":"role","type":"bytes32","internalType":"bytes32"},{"name":"account","type":"address","internalType":"address"}],"outputs":[],"stateMutability":"nonpayable"},{"type":"function","name":"setMinConfirmations","inputs":[{"name":"_minConfirmations","type":"uint16","internalType":"uint16"}],"outputs":[],"stateMutability":"nonpayable"},{"type":"function","name":"setVaultManager","inputs":[{"name":"_vaultManager","type":"address","internalType":"contract IVaultManager"}],"outputs":[],"stateMutability":"nonpayable"},{"type":"function","name":"shouldStop","inputs":[{"name":"_total","type":"uint256","internalType":"uint256"},{"name":"_wager","type":"uint256","internalType":"uint256"},{"name":"_stopGain","type":"uint256","internalType":"uint256"},{"name":"_stopLoss","type":"uint256","internalType":"uint256"}],"outputs":[{"name":"stop_","type":"bool","internalType":"bool"}],"stateMutability":"pure"},{"type":"function","name":"supportsInterface","inputs":[{"name":"interfaceId","type":"bytes4","internalType":"bytes4"}],"outputs":[{"name":"","type":"bool","internalType":"bool"}],"stateMutability":"view"},{"type":"function","name":"unpause","inputs":[],"outputs":[],"stateMutability":"nonpayable"},{"type":"function","name":"updateMaxGameCount","inputs":[{"name":"_maxGameCount","type":"uint8","internalType":"uint8"}],"outputs":[],"stateMutability":"nonpayable"},{"type":"function","name":"updateRefundCooldown","inputs":[{"name":"_refundCooldown","type":"uint32","internalType":"uint32"}],"outputs":[],"stateMutability":"nonpayable"},{"type":"function","name":"updateWinMultiplier","inputs":[{"name":"_winMultiplier","type":"uint256","internalType":"uint256"},{"name":"_houseEdge","type":"uint64","internalType":"uint64"}],"outputs":[],"stateMutability":"nonpayable"},{"type":"function","name":"vaultManager","inputs":[],"outputs":[{"name":"","type":"address","internalType":"contract IVaultManager"}],"stateMutability":"view"},{"type":"function","name":"winMultiplier","inputs":[],"outputs":[{"name":"","type":"uint256","internalType":"uint256"}],"stateMutability":"view"},{"type":"event","name":"Created","inputs":[{"name":"player","type":"address","indexed":true,"internalType":"address"},{"name":"requestId","type":"uint256","indexed":false,"internalType":"uint256"},{"name":"wager","type":"uint256","indexed":false,"internalType":"uint256"},{"name":"tokens","type":"address[2]","indexed":false,"internalType":"address[2]"}],"anonymous":false},{"type":"event","name":"Paused","inputs":[{"name":"account","type":"address","indexed":false,"internalType":"address"}],"anonymous":false},{"type":"event","name":"RoleAdminChanged","inputs":[{"name":"role","type":"bytes32","indexed":true,"internalType":"bytes32"},{"name":"previousAdminRole","type":"bytes32","indexed":true,"internalType":"bytes32"},{"name":"newAdminRole","type":"bytes32","indexed":true,"internalType":"bytes32"}],"anonymous":false},{"type":"event","name":"RoleGranted","inputs":[{"name":"role","type":"bytes32","indexed":true,"internalType":"bytes32"},{"name":"account","type":"address","indexed":true,"internalType":"address"},{"name":"sender","type":"address","indexed":true,"internalType":"address"}],"anonymous":false},{"type":"event","name":"RoleRevoked","inputs":[{"name":"role","type":"bytes32","indexed":true,"internalType":"bytes32"},{"name":"account","type":"address","indexed":true,"internalType":"address"},{"name":"sender","type":"address","indexed":true,"internalType":"address"}],"anonymous":false},{"type":"event","name":"Settled","inputs":[{"name":"player","type":"address","indexed":true,"internalType":"address"},{"name":"requestId","type":"uint256","indexed":false,"internalType":"uint256"},{"name":"wager","type":"uint256","indexed":false,"internalType":"uint256"},{"name":"won","type":"bool","indexed":false,"internalType":"bool"},{"name":"payout","type":"uint256","indexed":false,"internalType":"uint256"},{"name":"playedGameCount","type":"uint32","indexed":false,"internalType":"uint32"},{"name":"numbers","type":"uint256[]","indexed":false,"internalType":"uint256[]"},{"name":"payouts","type":"uint256[]","indexed":false,"internalType":"uint256[]"}],"anonymous":false},{"type":"event","name":"Unpaused","inputs":[{"name":"account","type":"address","indexed":false,"internalType":"address"}],"anonymous":false},{"type":"event","name":"UpdateHouseEdge","inputs":[{"name":"multiplier","type":"uint256","indexed":false,"internalType":"uint256"},{"name":"houseEdge","type":"uint64","indexed":false,"internalType":"uint64"}],"anonymous":false},{"type":"event","name":"VaultManagerChange","inputs":[{"name":"vaultManager","type":"address","indexed":false,"internalType":"address"}],"anonymous":false}],"bytecode":{"object":"0x608060405260038055600580546207081960a21b64ffffffffff60a01b19909116179055671b33519d8fc40000600955600a80546001600160401b03191660c81790553480156200004f57600080fd5b506040516200366938038062003669833981016040819052620000729162000474565b6000805460ff191681558190819081906200008e9033620000a8565b60016002556200009e81620000b8565b50505050620005ff565b620000b4828262000161565b5050565b620000c5600033620001cf565b620001175760405162461bcd60e51b815260206004820152601360248201527f4143433a204e6f7420676f7665726e616e63650000000000000000000000000060448201526064015b60405180910390fd5b600480546001600160a01b0319166001600160a01b0383161790556200015e7f2f660b522cd66c3fe8eabbd9815ae97246faa2cf642722f997fcefd13b6a67b682620001fc565b50565b6200016d8282620001cf565b620000b45760008281526001602081815260408084206001600160a01b0386168086529252808420805460ff19169093179092559051339285917f2f8788117e7eff1d82e926ec794901d17c78024a50270940304540a733656f0d9190a45050565b60008281526001602090815260408083206001600160a01b038516845290915290205460ff165b92915050565b600082815260016020819052604090912001546200021a816200022b565b62000226838362000161565b505050565b6200015e81336200023d8282620001cf565b620000b45762000263816001600160a01b03166014620002b460201b620013521760201c565b6200027983602062001352620002b4821b17811c565b6040516020016200028c929190620004c5565b60408051601f198184030181529082905262461bcd60e51b82526200010e916004016200053e565b60606000620002c583600262000589565b620002d2906002620005a3565b6001600160401b03811115620002ec57620002ec620005b9565b6040519080825280601f01601f19166020018201604052801562000317576020820181803683370190505b509050600360fc1b81600081518110620003355762000335620005cf565b60200101906001600160f81b031916908160001a905350600f60fb1b81600181518110620003675762000367620005cf565b60200101906001600160f81b031916908160001a90535060006200038d84600262000589565b6200039a906001620005a3565b90505b60018111156200041c576f181899199a1a9b1b9c1cb0b131b232b360811b85600f1660108110620003d257620003d2620005cf565b1a60f81b828281518110620003eb57620003eb620005cf565b60200101906001600160f81b031916908160001a90535060049490941c936200041481620005e5565b90506200039d565b5083156200046d5760405162461bcd60e51b815260206004820181905260248201527f537472696e67733a20686578206c656e67746820696e73756666696369656e7460448201526064016200010e565b9392505050565b6000602082840312156200048757600080fd5b81516001600160a01b03811681146200046d57600080fd5b60005b83811015620004bc578181015183820152602001620004a2565b50506000910152565b7f416363657373436f6e74726f6c3a206163636f756e7420000000000000000000815260008351620004ff8160178501602088016200049f565b7001034b99036b4b9b9b4b733903937b6329607d1b6017918401918201528351620005328160288401602088016200049f565b01602801949350505050565b60208152600082518060208401526200055f8160408501602087016200049f565b601f01601f19169190910160400192915050565b634e487b7160e01b600052601160045260246000fd5b8082028115828204841417620001f657620001f662000573565b80820180821115620001f657620001f662000573565b634e487b7160e01b600052604160045260246000fd5b634e487b7160e01b600052603260045260246000fd5b600081620005f757620005f762000573565b506000190190565b61305a806200060f6000396000f3fe608060405234801561001057600080fd5b50600436106102535760003560e01c806380d4dcd511610146578063bda9a844116100c3578063d667dcd711610087578063d667dcd714610606578063d7260cba14610619578063e5199bb81461062c578063e7c4393e1461063f578063e9f9b2d714610648578063f7137e771461065c57600080fd5b8063bda9a8441461058b578063bf193005146105b0578063cf24141a146105d7578063d1adfff4146105e0578063d547741f146105f357600080fd5b806391d148541161010a57806391d148541461053b578063a217fddf1461054e578063aaf5eb6814610556578063b543503e14610565578063bb4149e01461057857600080fd5b806380d4dcd5146104b85780638456cb59146104fa5780638a4adf24146105025780638f130d50146105155780639104a03d1461052857600080fd5b8063409e2205116101d4578063544c465c11610198578063544c465c1461043e5780635c975abb1461045157806373d23b6e1461045c578063782f5b071461046f5780637f1ad2041461048257600080fd5b8063409e22051461038f578063427dc913146103b657806349d5e604146103c95780634b95a52e146103f05780634d30372d1461041b57600080fd5b80632f2ff15d1161021b5780632f2ff15d1461032a57806336568abe1461033f57806337107fc7146103525780633b49b7ed146103745780633f4ba83a1461038757600080fd5b806301ffc9a71461025857806310088fbc14610280578063117a5b90146102a8578063248a9ca3146102cc5780632d3e8c93146102fe575b600080fd5b61026b6102663660046123d8565b61066f565b60405190151581526020015b60405180910390f35b61029361028e366004612402565b6106a6565b60408051928352602083019190915201610277565b6102bb6102b636600461242e565b6106d4565b604051610277959493929190612497565b6102f06102da36600461242e565b6000908152600160208190526040909120015490565b604051908152602001610277565b60055461031590600160a81b900463ffffffff1681565b60405163ffffffff9091168152602001610277565b61033d6103383660046124ed565b610799565b005b61033d61034d3660046124ed565b6107c4565b61036561036036600461270e565b610847565b60405161027793929190612820565b61026b61038236600461284e565b6109a0565b61033d6109f4565b61029361039d36600461242e565b6007602052600090815260409020805460019091015482565b61033d6103c4366004612880565b610a65565b6102f07f9b82d2f38fbdf13006bfa741767f793d917e063392737837b580c1c2b1e0bab381565b600454610403906001600160a01b031681565b6040516001600160a01b039091168152602001610277565b61026b61042936600461242e565b60086020526000908152604090205460ff1681565b6102f061044c36600461242e565b610a91565b60005460ff1661026b565b61033d61046a36600461289d565b610ab4565b61026b61047d3660046128ce565b610bb1565b6104a06104903660046128fa565b50600a546001600160401b031690565b6040516001600160401b039091168152602001610277565b6104ed6104c6366004612880565b6040805160ff83166020820152606091016040516020818303038152906040529050919050565b604051610277919061292e565b61033d610bd1565b600554610403906001600160a01b031681565b61033d610523366004612941565b610c40565b61033d61053636600461295e565b610caf565b61026b6105493660046124ed565b610cdf565b6102f0600081565b6102f0670de0b6b3a764000081565b61033d610573366004612941565b610d0a565b61033d610586366004612982565b610d85565b61059e6105993660046129fe565b610e01565b60405160ff9091168152602001610277565b6102f07f2f660b522cd66c3fe8eabbd9815ae97246faa2cf642722f997fcefd13b6a67b681565b6102f060095481565b61033d6105ee366004612a32565b610e17565b61033d6106013660046124ed565b610e49565b600a546104a0906001600160401b031681565b61033d61062736600461242e565b610e6f565b61033d61063a366004612a58565b6111eb565b6102f060035481565b60055461059e90600160a01b900460ff1681565b6102f061066a366004612ad6565b611261565b60006001600160e01b03198216637965db0b60e01b14806106a057506301ffc9a760e01b6001600160e01b03198316145b92915050565b6000806106b38385612b0a565b9150816106c08487612b0a565b6106ca9190612b21565b9050935093915050565b6006602052600090815260409020805460018201805460ff8316936101009093046001600160a01b031692919061070a90612b34565b80601f016020809104026020016040519081016040528092919081815260200182805461073690612b34565b80156107835780601f1061075857610100808354040283529160200191610783565b820191906000526020600020905b81548152906001019060200180831161076657829003601f168201915b5050505050908060020154908060030154905085565b600082815260016020819052604090912001546107b5816114ed565b6107bf83836114f7565b505050565b6001600160a01b03811633146108395760405162461bcd60e51b815260206004820152602f60248201527f416363657373436f6e74726f6c3a2063616e206f6e6c792072656e6f756e636560448201526e103937b632b9903337b91039b2b63360891b60648201526084015b60405180910390fd5b6108438282611562565b5050565b6000806060866000015160ff166001600160401b0381111561086b5761086b61251d565b604051908082528060200260200182016040528015610894578160200160208202803683370190505b509050866000015160ff16915060006108b08860400151610e01565b905060006108c18960600151610a91565b905060005b896000015160ff168160ff161015610993576108fe838a8360ff16815181106108f1576108f1612b6e565b6020026020010151610bb1565b1561093f5760608a01516109129083612b21565b848260ff168151811061092757610927612b6e565b602090810291909101015261093c8287612b84565b95505b610969868b606001518360016109559190612b97565b60ff166109629190612b0a565b8a8a6109a0565b1561098357610979816001612b97565b60ff169450610993565b61098c81612bb0565b90506108c6565b5050509450945094915050565b600082158015906109b057508385115b156109c957826109c08587612b21565b101590506109ec565b81158015906109d757508484115b156109ec57816109e78686612b21565b101590505b949350505050565b610a1e7f9b82d2f38fbdf13006bfa741767f793d917e063392737837b580c1c2b1e0bab333610cdf565b610a5b5760405162461bcd60e51b815260206004820152600e60248201526d47414d453a204e6f74207465616d60901b6044820152606401610830565b610a636115c9565b565b6000610a70816114ed565b506005805460ff909216600160a01b0260ff60a01b19909216919091179055565b6000670de0b6b3a764000060095483610aaa9190612b0a565b6106a09190612be5565b610abf600033610cdf565b610adb5760405162461bcd60e51b815260040161083090612bf9565b670de0b6b3a7640000821015610b4f5760405162461bcd60e51b815260206004820152603360248201527f5f6d756c7469706c6965722073686f756c6420626520677265617465722074686044820152720c2dc40dee440cae2eac2d840e8de4062ca627606b1b6064820152608401610830565b6009829055600a805467ffffffffffffffff19166001600160401b0383169081179091556040805184815260208101929092527f150be625147ff92f56f1ffa4ab11fa44455939dd902738a3f54729f9b8018882910160405180910390a15050565b60008260ff16600114610bc5578115610bca565b816001145b9392505050565b610bfb7f9b82d2f38fbdf13006bfa741767f793d917e063392737837b580c1c2b1e0bab333610cdf565b610c385760405162461bcd60e51b815260206004820152600e60248201526d47414d453a204e6f74207465616d60901b6044820152606401610830565b610a6361161b565b610c4b600033610cdf565b610c675760405162461bcd60e51b815260040161083090612bf9565b600480546001600160a01b0319166001600160a01b038316179055610cac7f2f660b522cd66c3fe8eabbd9815ae97246faa2cf642722f997fcefd13b6a67b682610799565b50565b610cba600033610cdf565b610cd65760405162461bcd60e51b815260040161083090612bf9565b61ffff16600355565b60009182526001602090815260408084206001600160a01b0393909316845291905290205460ff1690565b610d15600033610cdf565b610d315760405162461bcd60e51b815260040161083090612bf9565b600580546001600160a01b0319166001600160a01b0383169081179091556040519081527fa908db00c4502bbe936c6ac99cb6d67f0636790d9b238cfddab0139153f5eb749060200160405180910390a150565b816000610d9182610e01565b905060ff81161580610da657508060ff166001145b610de95760405162461bcd60e51b815260206004820152601460248201527310da1bda58d9481a5cdb89dd08185b1b1bddd95960621b6044820152606401610830565b610df7888888888888611658565b5050505050505050565b6000818060200190518101906106a09190612c26565b6000610e22816114ed565b506005805463ffffffff909216600160a81b0263ffffffff60a81b19909216919091179055565b60008281526001602081905260409091200154610e65816114ed565b6107bf8383611562565b6002805403610e905760405162461bcd60e51b815260040161083090612c43565b60028055600081815260086020526040902054819060ff1615610ee95760405162461bcd60e51b815260206004820152601160248201527011d85b59481a5cc818dbdb5c1b195d1959607a1b6044820152606401610830565b6000818152600860209081526040808320805460ff1916600190811790915585845260068352818420825160c081018452815460ff811682526001600160a01b03610100909104169481019490945290810180549192840191610f4b90612b34565b80601f0160208091040260200160405190810160405280929190818152602001828054610f7790612b34565b8015610fc45780601f10610f9957610100808354040283529160200191610fc4565b820191906000526020600020905b815481529060010190602001808311610fa757829003601f168201915b50505050508152602001600282015481526020016003820154815260200160048201600280602002604051908101604052809291908260028015611027576020028201915b81546001600160a01b03168152600190910190602001808311611009575b50505050508152505090506110393390565b6001600160a01b031681602001516001600160a01b03161461108b5760405162461bcd60e51b815260206004820152600b60248201526a27b7363c90383630bcb2b960a91b6044820152606401610830565b600554608082015142916110ad91600160a81b90910463ffffffff1690612b84565b106110fa5760405162461bcd60e51b815260206004820152601a60248201527f47616d65206973206e6f7420726566756e6461626c65207965740000000000006044820152606401610830565b600083815260066020526040812080546001600160a81b0319168155906111246001830182612331565b5060006002820181905560038201819055600482018190556005918201555460a082015151825160608401516001600160a01b0390931692634154aede92916111729160ff90911690612b0a565b60208501516040516001600160e01b031960e086901b1681526001600160a01b0393841660048201526024810192909252919091166044820152606401600060405180830381600087803b1580156111c957600080fd5b505af11580156111dd573d6000803e3d6000fd5b505060016002555050505050565b6112157f2f660b522cd66c3fe8eabbd9815ae97246faa2cf642722f997fcefd13b6a67b633610cdf565b6112565760405162461bcd60e51b815260206004820152601260248201527129219d102737ba103930b73237b6b4bd32b960711b6044820152606401610830565b6107bf838383611ab6565b6000826001600160a01b031663313ce5676040518163ffffffff1660e01b8152600401602060405180830381865afa1580156112a1573d6000803e3d6000fd5b505050506040513d601f19601f820116820180604052508101906112c59190612c26565b6112d090600a612d5e565b6005546040516341976e0960e01b81526001600160a01b038681166004830152909116906341976e0990602401602060405180830381865afa15801561131a573d6000803e3d6000fd5b505050506040513d601f19601f8201168201806040525081019061133e9190612d6d565b6113489084612b0a565b610bca9190612be5565b60606000611361836002612b0a565b61136c906002612b84565b6001600160401b038111156113835761138361251d565b6040519080825280601f01601f1916602001820160405280156113ad576020820181803683370190505b509050600360fc1b816000815181106113c8576113c8612b6e565b60200101906001600160f81b031916908160001a905350600f60fb1b816001815181106113f7576113f7612b6e565b60200101906001600160f81b031916908160001a905350600061141b846002612b0a565b611426906001612b84565b90505b600181111561149e576f181899199a1a9b1b9c1cb0b131b232b360811b85600f166010811061145a5761145a612b6e565b1a60f81b82828151811061147057611470612b6e565b60200101906001600160f81b031916908160001a90535060049490941c9361149781612d86565b9050611429565b508315610bca5760405162461bcd60e51b815260206004820181905260248201527f537472696e67733a20686578206c656e67746820696e73756666696369656e746044820152606401610830565b610cac8133611e0c565b6115018282610cdf565b6108435760008281526001602081815260408084206001600160a01b0386168086529252808420805460ff19169093179092559051339285917f2f8788117e7eff1d82e926ec794901d17c78024a50270940304540a733656f0d9190a45050565b61156c8282610cdf565b156108435760008281526001602090815260408083206001600160a01b0385168085529252808320805460ff1916905551339285917ff6391f5c32d9c69d2a47ea670b442974b53935d1edc7fd64eb21e047a839171b9190a45050565b6115d1611e70565b6000805460ff191690557f5db9ee0a495bf2e6ff9c91a7834c1ba4fdd244a5e8aa4e537bd38aeae4b073aa335b6040516001600160a01b03909116815260200160405180910390a1565b611623611eb9565b6000805460ff191660011790557f62e78cea01bee320cd4e420270b5ea74000d11b0c9f74754ebdbfc544b05a2586115fe3390565b8460ff16600081116116a35760405162461bcd60e51b815260206004820152601460248201527347616d6520636f756e74206f75742d72616e676560601b6044820152606401610830565b600554600160a01b900460ff168111156116f65760405162461bcd60e51b815260206004820152601460248201527347616d6520636f756e74206f75742d72616e676560601b6044820152606401610830565b81518760006117058383611261565b60055460405163a8e3925760e01b81523060048201529192506001600160a01b03169063a8e3925790602401602060405180830381865afa15801561174e573d6000803e3d6000fd5b505050506040513d601f19601f820116820180604052508101906117729190612d6d565b8110156117b75760405162461bcd60e51b815260206004820152601360248201527247414d453a20576167657220746f6f206c6f7760681b6044820152606401610830565b600560009054906101000a90046001600160a01b03166001600160a01b0316638ac402596040518163ffffffff1660e01b8152600401602060405180830381865afa15801561180a573d6000803e3d6000fd5b505050506040513d601f19601f8201168201806040525081019061182e9190612d6d565b8111156118745760405162461bcd60e51b815260206004820152601460248201527308e829a8a7440aec2cecae440e8dede40d0d2ced60631b6044820152606401610830565b61187c611eb9565b600280540361189d5760405162461bcd60e51b815260040161083090612c43565b600280553360006118ad8b611eff565b6005549091506001600160a01b03166382b9be1a8860006020020151848f8f60ff166118d99190612b0a565b6040516001600160e01b031960e086901b1681526001600160a01b0393841660048201529290911660248301526044820152606401600060405180830381600087803b15801561192857600080fd5b505af115801561193c573d6000803e3d6000fd5b505050506040518060c001604052808c60ff168152602001836001600160a01b031681526020018981526020018d8152602001428152602001888152506006600083815260200190815260200160002060008201518160000160006101000a81548160ff021916908360ff16021790555060208201518160000160016101000a8154816001600160a01b0302191690836001600160a01b0316021790555060408201518160010190816119ef9190612deb565b50606082015181600201556080820151816003015560a082015181600401906002611a1b92919061236b565b50505089151580611a2b57508815155b15611a5e576040805180820182528b815260208082018c8152600085815260079092529290209051815590516001909101555b816001600160a01b03167f4eb2df9ddc67bd535fefe0a4420b0439b48f28eaf990ef434f94694d52e8b943828e8a604051611a9b93929190612edc565b60405180910390a25050600160025550505050505050505050565b600083815260066020526040902054839061010090046001600160a01b0316611b175760405162461bcd60e51b815260206004820152601360248201527211d85b59481a5cc81b9bdd0818dc99585d1959606a1b6044820152606401610830565b600084815260086020526040902054849060ff1615611b6c5760405162461bcd60e51b815260206004820152601160248201527011d85b59481a5cc818dbdb5c1b195d1959607a1b6044820152606401610830565b6000818152600860205260409020805460ff1916600117905560025460011901611ba85760405162461bcd60e51b815260040161083090612c43565b600280556000858152600660209081526040808320815160c081018352815460ff8116825261010090046001600160a01b0316938101939093526001810180549192840191611bf690612b34565b80601f0160208091040260200160405190810160405280929190818152602001828054611c2290612b34565b8015611c6f5780601f10611c4457610100808354040283529160200191611c6f565b820191906000526020600020905b815481529060010190602001808311611c5257829003601f168201915b50505050508152602001600282015481526020016003820154815260200160048201600280602002604051908101604052809291908260028015611cd2576020028201915b81546001600160a01b03168152600190910190602001808311611cb4575b5050509190925250505060008781526007602090815260408083208151808301909252805482526001015491810191909152919250611d12838888611f7e565b90506000806000611d2d868587600001518860200151610847565b92509250925085602001516001600160a01b03167fa0c6d43553c751eac6408fb8830cce1d25ac333ad47e35f29671b726e8e911648c8860600151611d798a8763ffffffff1689611fbf565b87878a88604051611d909796959493929190612ef7565b60405180910390a260008b815260066020526040812080546001600160a81b031916815590611dc26001830182612331565b600060028301819055600383018190556004830181905560058301555050506000998a52505060076020525050604086208681556001908101969096555050506002929092555050565b611e168282610cdf565b61084357611e2e816001600160a01b03166014611352565b611e39836020611352565b604051602001611e4a929190612f50565b60408051601f198184030181529082905262461bcd60e51b82526108309160040161292e565b60005460ff16610a635760405162461bcd60e51b815260206004820152601460248201527314185d5cd8589b194e881b9bdd081c185d5cd95960621b6044820152606401610830565b60005460ff1615610a635760405162461bcd60e51b815260206004820152601060248201526f14185d5cd8589b194e881c185d5cd95960821b6044820152606401610830565b600480546003546040516336f71c3f60e01b815260ff85169381019390935260248301526000916001600160a01b03909116906336f71c3f906044016020604051808303816000875af1158015611f5a573d6000803e3d6000fd5b505050506040513d601f19601f820116820180604052508101906106a09190612d6d565b60606109ec8383808060200260200160405190810160405280939291908181526020018383602002808284376000920191909152506002925061225d915050565b6000806000611fda866000015160ff168688606001516106a6565b60055460a08901515160208a0151600a5460408051633005989b60e11b81526001600160a01b0394851660048201529284166024840152604483018790526001600160401b03909116606483015251949650929450169163600b31369160848082019260009290919082900301818387803b15801561205857600080fd5b505af115801561206c573d6000803e3d6000fd5b505060055460a08901515160208a01516040516303d1db8560e31b81526001600160a01b03928316600482015260248101889052908216604482015291169250631e8edc289150606401600060405180830381600087803b1580156120d057600080fd5b505af11580156120e4573d6000803e3d6000fd5b50505050806000146121695760055460a0870151516020880151604051631d2adf0f60e01b81526001600160a01b039283166004820152908216602482015260448101849052911690631d2adf0f90606401600060405180830381600087803b15801561215057600080fd5b505af1158015612164573d6000803e3d6000fd5b505050505b836000036121e15760055460a087015151604051631af5a19360e21b81526001600160a01b03918216600482015260248101859052911690636bd6864c90604401600060405180830381600087803b1580156121c457600080fd5b505af11580156121d8573d6000803e3d6000fd5b50505050612252565b60055460a087015160208801516040516353a2418b60e11b81526001600160a01b039093169263a74483169261221f92909187908a90600401612fc5565b600060405180830381600087803b15801561223957600080fd5b505af115801561224d573d6000803e3d6000fd5b505050505b509091119392505050565b6060600083516001600160401b0381111561227a5761227a61251d565b6040519080825280602002602001820160405280156122a3578160200160208202803683370190505b50905060005b8451811015612304576122d58582815181106122c7576122c7612b6e565b60200260200101518561230c565b8282815181106122e7576122e7612b6e565b6020908102919091010152806122fc81612ff7565b9150506122a9565b509392505050565b6000808263ffffffff16116123215782610bca565b610bca63ffffffff831684613010565b50805461233d90612b34565b6000825580601f1061234d575050565b601f016020900490600052602060002090810190610cac91906123c3565b82600281019282156123b3579160200282015b828111156123b357825182546001600160a01b0319166001600160a01b0390911617825560209092019160019091019061237e565b506123bf9291506123c3565b5090565b5b808211156123bf57600081556001016123c4565b6000602082840312156123ea57600080fd5b81356001600160e01b031981168114610bca57600080fd5b60008060006060848603121561241757600080fd5b505081359360208301359350604090920135919050565b60006020828403121561244057600080fd5b5035919050565b60005b8381101561246257818101518382015260200161244a565b50506000910152565b60008151808452612483816020860160208601612447565b601f01601f19169290920160200192915050565b60ff861681526001600160a01b038516602082015260a0604082018190526000906124c49083018661246b565b606083019490945250608001529392505050565b6001600160a01b0381168114610cac57600080fd5b6000806040838503121561250057600080fd5b823591506020830135612512816124d8565b809150509250929050565b634e487b7160e01b600052604160045260246000fd5b604051601f8201601f191681016001600160401b038111828210171561255b5761255b61251d565b604052919050565b60ff81168114610cac57600080fd5b600082601f83011261258357600080fd5b81356001600160401b0381111561259c5761259c61251d565b6125af601f8201601f1916602001612533565b8181528460208386010111156125c457600080fd5b816020850160208301376000918101602001919091529392505050565b600082601f8301126125f257600080fd5b604051604081018181106001600160401b03821117156126145761261461251d565b806040525080604084018581111561262b57600080fd5b845b8181101561264e578035612640816124d8565b83526020928301920161262d565b509195945050505050565b600060e0828403121561266b57600080fd5b60405160c081016001600160401b03828210818311171561268e5761268e61251d565b81604052829350843591506126a282612563565b9082526020840135906126b4826124d8565b81602084015260408501359150808211156126ce57600080fd5b506126db85828601612572565b60408301525060608301356060820152608083013560808201526127028460a085016125e1565b60a08201525092915050565b6000806000806080858703121561272457600080fd5b84356001600160401b038082111561273b57600080fd5b61274788838901612659565b955060209150818701358181111561275e57600080fd5b8701601f8101891361276f57600080fd5b8035828111156127815761278161251d565b8060051b9250612792848401612533565b818152928201840192848101908b8511156127ac57600080fd5b928501925b848410156127ca578335825292850192908501906127b1565b989b989a505050506040870135966060013595945050505050565b600081518084526020808501945080840160005b83811015612815578151875295820195908201906001016127f9565b509495945050505050565b83815263ffffffff8316602082015260606040820152600061284560608301846127e5565b95945050505050565b6000806000806080858703121561286457600080fd5b5050823594602084013594506040840135936060013592509050565b60006020828403121561289257600080fd5b8135610bca81612563565b600080604083850312156128b057600080fd5b8235915060208301356001600160401b038116811461251257600080fd5b600080604083850312156128e157600080fd5b82356128ec81612563565b946020939093013593505050565b60006020828403121561290c57600080fd5b81356001600160401b0381111561292257600080fd5b6109ec84828501612659565b602081526000610bca602083018461246b565b60006020828403121561295357600080fd5b8135610bca816124d8565b60006020828403121561297057600080fd5b813561ffff81168114610bca57600080fd5b60008060008060008060e0878903121561299b57600080fd5b8635955060208701356129ad81612563565b9450604087013593506060870135925060808701356001600160401b038111156129d657600080fd5b6129e289828a01612572565b9250506129f28860a089016125e1565b90509295509295509295565b600060208284031215612a1057600080fd5b81356001600160401b03811115612a2657600080fd5b6109ec84828501612572565b600060208284031215612a4457600080fd5b813563ffffffff81168114610bca57600080fd5b600080600060408486031215612a6d57600080fd5b8335925060208401356001600160401b0380821115612a8b57600080fd5b818601915086601f830112612a9f57600080fd5b813581811115612aae57600080fd5b8760208260051b8501011115612ac357600080fd5b6020830194508093505050509250925092565b60008060408385031215612ae957600080fd5b82356128ec816124d8565b634e487b7160e01b600052601160045260246000fd5b80820281158282048414176106a0576106a0612af4565b818103818111156106a0576106a0612af4565b600181811c90821680612b4857607f821691505b602082108103612b6857634e487b7160e01b600052602260045260246000fd5b50919050565b634e487b7160e01b600052603260045260246000fd5b808201808211156106a0576106a0612af4565b60ff81811683821601908111156106a0576106a0612af4565b600060ff821660ff8103612bc657612bc6612af4565b60010192915050565b634e487b7160e01b600052601260045260246000fd5b600082612bf457612bf4612bcf565b500490565b6020808252601390820152724143433a204e6f7420676f7665726e616e636560681b604082015260600190565b600060208284031215612c3857600080fd5b8151610bca81612563565b6020808252601f908201527f5265656e7472616e637947756172643a207265656e7472616e742063616c6c00604082015260600190565b600181815b80851115612cb5578160001904821115612c9b57612c9b612af4565b80851615612ca857918102915b93841c9390800290612c7f565b509250929050565b600082612ccc575060016106a0565b81612cd9575060006106a0565b8160018114612cef5760028114612cf957612d15565b60019150506106a0565b60ff841115612d0a57612d0a612af4565b50506001821b6106a0565b5060208310610133831016604e8410600b8410161715612d38575081810a6106a0565b612d428383612c7a565b8060001904821115612d5657612d56612af4565b029392505050565b6000610bca60ff841683612cbd565b600060208284031215612d7f57600080fd5b5051919050565b600081612d9557612d95612af4565b506000190190565b601f8211156107bf57600081815260208120601f850160051c81016020861015612dc45750805b601f850160051c820191505b81811015612de357828155600101612dd0565b505050505050565b81516001600160401b03811115612e0457612e0461251d565b612e1881612e128454612b34565b84612d9d565b602080601f831160018114612e4d5760008415612e355750858301515b600019600386901b1c1916600185901b178555612de3565b600085815260208120601f198616915b82811015612e7c57888601518255948401946001909101908401612e5d565b5085821015612e9a5787850151600019600388901b60f8161c191681555b5050505050600190811b01905550565b8060005b6002811015612ed65781516001600160a01b0316845260209384019390910190600101612eae565b50505050565b83815260208101839052608081016109ec6040830184612eaa565b878152866020820152851515604082015284606082015263ffffffff8416608082015260e060a08201526000612f3060e08301856127e5565b82810360c0840152612f4281856127e5565b9a9950505050505050505050565b7f416363657373436f6e74726f6c3a206163636f756e7420000000000000000000815260008351612f88816017850160208801612447565b7001034b99036b4b9b9b4b733903937b6329607d1b6017918401918201528351612fb9816028840160208801612447565b01602801949350505050565b60a08101612fd38287612eaa565b6001600160a01b039490941660408201526060810192909252608090910152919050565b60006001820161300957613009612af4565b5060010190565b60008261301f5761301f612bcf565b50069056fea26469706673582212208bfa64de3ab39873c0a8027578cd13fb588e8793828da43c8ab3123c3a5fa4a964736f6c63430008110033","linkReferences":{}},"methodIdentifiers":{"DEFAULT_ADMIN_ROLE()":"a217fddf","PRECISION()":"aaf5eb68","RANDOMIZER_ROLE()":"bf193005","TEAM_ROLE()":"49d5e604","_computeDollarValue(address,uint256)":"f7137e77","bet(uint256,uint8,uint256,uint256,bytes,address[2])":"bb4149e0","calcReward(uint256)":"544c465c","calcWager(uint256,uint256,uint256)":"10088fbc","changeRandomizerRouter(address)":"8f130d50","completedGames(uint256)":"4d30372d","decodeGameData(bytes)":"bda9a844","encodeGameData(uint8)":"80d4dcd5","games(uint256)":"117a5b90","getHouseEdge((uint8,address,bytes,uint256,uint256,address[2]))":"7f1ad204","getRoleAdmin(bytes32)":"248a9ca3","grantRole(bytes32,address)":"2f2ff15d","hasRole(bytes32,address)":"91d14854","houseEdge()":"d667dcd7","isWon(uint8,uint256)":"782f5b07","maxGameCount()":"e9f9b2d7","minConfirmations()":"e7c4393e","options(uint256)":"409e2205","pause()":"8456cb59","paused()":"5c975abb","play((uint8,address,bytes,uint256,uint256,address[2]),uint256[],uint256,uint256)":"37107fc7","randomizerCallback(uint256,uint256[])":"e5199bb8","randomizerRouter()":"4b95a52e","refundCooldown()":"2d3e8c93","refundGame(uint256)":"d7260cba","renounceRole(bytes32,address)":"36568abe","revokeRole(bytes32,address)":"d547741f","setMinConfirmations(uint16)":"9104a03d","setVaultManager(address)":"b543503e","shouldStop(uint256,uint256,uint256,uint256)":"3b49b7ed","supportsInterface(bytes4)":"01ffc9a7","unpause()":"3f4ba83a","updateMaxGameCount(uint8)":"427dc913","updateRefundCooldown(uint32)":"d1adfff4","updateWinMultiplier(uint256,uint64)":"73d23b6e","vaultManager()":"8a4adf24","winMultiplier()":"cf24141a"},"id":9}