{"abi":[{"type":"constructor","inputs":[{"name":"_router","type":"address","internalType":"contract IRandomizerRouter"}],"stateMutability":"nonpayable"},{"type":"function","name":"DEFAULT_ADMIN_ROLE","inputs":[],"outputs":[{"name":"","type":"bytes32","internalType":"bytes32"}],"stateMutability":"view"},{"type":"function","name":"PRECISION","inputs":[],"outputs":[{"name":"","type":"uint256","internalType":"uint256"}],"stateMutability":"view"},{"type":"function","name":"RANDOMIZER_ROLE","inputs":[],"outputs":[{"name":"","type":"bytes32","internalType":"bytes32"}],"stateMutability":"view"},{"type":"function","name":"TEAM_ROLE","inputs":[],"outputs":[{"name":"","type":"bytes32","internalType":"bytes32"}],"stateMutability":"view"},{"type":"function","name":"_computeDollarValue","inputs":[{"name":"_token","type":"address","internalType":"address"},{"name":"_wager","type":"uint256","internalType":"uint256"}],"outputs":[{"name":"_wagerInDollar","type":"uint256","internalType":"uint256"}],"stateMutability":"view"},{"type":"function","name":"bet","inputs":[{"name":"_wager","type":"uint256","internalType":"uint256"},{"name":"_count","type":"uint8","internalType":"uint8"},{"name":"_stopGain","type":"uint256","internalType":"uint256"},{"name":"_stopLoss","type":"uint256","internalType":"uint256"},{"name":"_gameData","type":"bytes","internalType":"bytes"},{"name":"_tokens","type":"address[2]","internalType":"address[2]"}],"outputs":[],"stateMutability":"nonpayable"},{"type":"function","name":"calcReward","inputs":[{"name":"_choice","type":"uint256","internalType":"uint256"},{"name":"_over","type":"bool","internalType":"bool"},{"name":"_wager","type":"uint256","internalType":"uint256"}],"outputs":[{"name":"reward_","type":"uint256","internalType":"uint256"}],"stateMutability":"view"},{"type":"function","name":"calcSelectionRange","inputs":[{"name":"_choice","type":"uint256","internalType":"uint256"},{"name":"_over","type":"bool","internalType":"bool"}],"outputs":[{"name":"selectionRange_","type":"uint256","internalType":"uint256"}],"stateMutability":"pure"},{"type":"function","name":"calcWager","inputs":[{"name":"_count","type":"uint256","internalType":"uint256"},{"name":"_usedCount","type":"uint256","internalType":"uint256"},{"name":"_wager","type":"uint256","internalType":"uint256"}],"outputs":[{"name":"usedWager_","type":"uint256","internalType":"uint256"},{"name":"unusedWager_","type":"uint256","internalType":"uint256"}],"stateMutability":"pure"},{"type":"function","name":"calcWinMultiplier","inputs":[{"name":"_choice","type":"uint256","internalType":"uint256"},{"name":"_over","type":"bool","internalType":"bool"}],"outputs":[{"name":"winMultiplier_","type":"uint256","internalType":"uint256"}],"stateMutability":"view"},{"type":"function","name":"changeRandomizerRouter","inputs":[{"name":"_randomizerRouter","type":"address","internalType":"contract IRandomizerRouter"}],"outputs":[],"stateMutability":"nonpayable"},{"type":"function","name":"completedGames","inputs":[{"name":"","type":"uint256","internalType":"uint256"}],"outputs":[{"name":"","type":"bool","internalType":"bool"}],"stateMutability":"view"},{"type":"function","name":"decodeGameData","inputs":[{"name":"_gameData","type":"bytes","internalType":"bytes"}],"outputs":[{"name":"","type":"uint8","internalType":"uint8"},{"name":"","type":"bool","internalType":"bool"}],"stateMutability":"pure"},{"type":"function","name":"encodeGameData","inputs":[{"name":"_choice","type":"uint8","internalType":"uint8"},{"name":"_over","type":"bool","internalType":"bool"}],"outputs":[{"name":"","type":"bytes","internalType":"bytes"}],"stateMutability":"pure"},{"type":"function","name":"games","inputs":[{"name":"","type":"uint256","internalType":"uint256"}],"outputs":[{"name":"count","type":"uint8","internalType":"uint8"},{"name":"player","type":"address","internalType":"address"},{"name":"gameData","type":"bytes","internalType":"bytes"},{"name":"wager","type":"uint256","internalType":"uint256"},{"name":"startTime","type":"uint256","internalType":"uint256"}],"stateMutability":"view"},{"type":"function","name":"getHouseEdge","inputs":[{"name":"","type":"tuple","internalType":"struct CommonSolo.Game","components":[{"name":"count","type":"uint8","internalType":"uint8"},{"name":"player","type":"address","internalType":"address"},{"name":"gameData","type":"bytes","internalType":"bytes"},{"name":"wager","type":"uint256","internalType":"uint256"},{"name":"startTime","type":"uint256","internalType":"uint256"},{"name":"tokens","type":"address[2]","internalType":"address[2]"}]}],"outputs":[{"name":"edge_","type":"uint64","internalType":"uint64"}],"stateMutability":"view"},{"type":"function","name":"getRoleAdmin","inputs":[{"name":"role","type":"bytes32","internalType":"bytes32"}],"outputs":[{"name":"","type":"bytes32","internalType":"bytes32"}],"stateMutability":"view"},{"type":"function","name":"grantRole","inputs":[{"name":"role","type":"bytes32","internalType":"bytes32"},{"name":"account","type":"address","internalType":"address"}],"outputs":[],"stateMutability":"nonpayable"},{"type":"function","name":"hasRole","inputs":[{"name":"role","type":"bytes32","internalType":"bytes32"},{"name":"account","type":"address","internalType":"address"}],"outputs":[{"name":"","type":"bool","internalType":"bool"}],"stateMutability":"view"},{"type":"function","name":"houseEdge","inputs":[],"outputs":[{"name":"","type":"uint64","internalType":"uint64"}],"stateMutability":"view"},{"type":"function","name":"houseEdgeMultiplier","inputs":[],"outputs":[{"name":"","type":"uint256","internalType":"uint256"}],"stateMutability":"view"},{"type":"function","name":"isWon","inputs":[{"name":"_over","type":"bool","internalType":"bool"},{"name":"_choice","type":"uint16","internalType":"uint16"},{"name":"_result","type":"uint256","internalType":"uint256"}],"outputs":[{"name":"won_","type":"bool","internalType":"bool"}],"stateMutability":"pure"},{"type":"function","name":"maxGameCount","inputs":[],"outputs":[{"name":"","type":"uint8","internalType":"uint8"}],"stateMutability":"view"},{"type":"function","name":"minConfirmations","inputs":[],"outputs":[{"name":"","type":"uint256","internalType":"uint256"}],"stateMutability":"view"},{"type":"function","name":"options","inputs":[{"name":"","type":"uint256","internalType":"uint256"}],"outputs":[{"name":"stopGain","type":"uint256","internalType":"uint256"},{"name":"stopLoss","type":"uint256","internalType":"uint256"}],"stateMutability":"view"},{"type":"function","name":"pause","inputs":[],"outputs":[],"stateMutability":"nonpayable"},{"type":"function","name":"paused","inputs":[],"outputs":[{"name":"","type":"bool","internalType":"bool"}],"stateMutability":"view"},{"type":"function","name":"play","inputs":[{"name":"_game","type":"tuple","internalType":"struct CommonSolo.Game","components":[{"name":"count","type":"uint8","internalType":"uint8"},{"name":"player","type":"address","internalType":"address"},{"name":"gameData","type":"bytes","internalType":"bytes"},{"name":"wager","type":"uint256","internalType":"uint256"},{"name":"startTime","type":"uint256","internalType":"uint256"},{"name":"tokens","type":"address[2]","internalType":"address[2]"}]},{"name":"_resultNumbers","type":"uint256[]","internalType":"uint256[]"},{"name":"_stopGain","type":"uint256","internalType":"uint256"},{"name":"_stopLoss","type":"uint256","internalType":"uint256"}],"outputs":[{"name":"payout_","type":"uint256","internalType":"uint256"},{"name":"playedGameCount_","type":"uint32","internalType":"uint32"},{"name":"payouts_","type":"uint256[]","internalType":"uint256[]"}],"stateMutability":"view"},{"type":"function","name":"randomizerCallback","inputs":[{"name":"_requestId","type":"uint256","internalType":"uint256"},{"name":"_rngList","type":"uint256[]","internalType":"uint256[]"}],"outputs":[],"stateMutability":"nonpayable"},{"type":"function","name":"randomizerRouter","inputs":[],"outputs":[{"name":"","type":"address","internalType":"contract IRandomizerRouter"}],"stateMutability":"view"},{"type":"function","name":"range","inputs":[],"outputs":[{"name":"","type":"uint32","internalType":"uint32"}],"stateMutability":"view"},{"type":"function","name":"refundCooldown","inputs":[],"outputs":[{"name":"","type":"uint32","internalType":"uint32"}],"stateMutability":"view"},{"type":"function","name":"refundGame","inputs":[{"name":"_requestId","type":"uint256","internalType":"uint256"}],"outputs":[],"stateMutability":"nonpayable"},{"type":"function","name":"renounceRole","inputs":[{"name":"role","type":"bytes32","internalType":"bytes32"},{"name":"account","type":"address","internalType":"address"}],"outputs":[],"stateMutability":"nonpayable"},{"type":"function","name":"revokeRole","inputs":[{"name":"role","type":"bytes32","internalType":"bytes32"},{"name":"account","type":"address","internalType":"address"}],"outputs":[],"stateMutability":"nonpayable"},{"type":"function","name":"setMinConfirmations","inputs":[{"name":"_minConfirmations","type":"uint16","internalType":"uint16"}],"outputs":[],"stateMutability":"nonpayable"},{"type":"function","name":"setVaultManager","inputs":[{"name":"_vaultManager","type":"address","internalType":"contract IVaultManager"}],"outputs":[],"stateMutability":"nonpayable"},{"type":"function","name":"shouldStop","inputs":[{"name":"_total","type":"uint256","internalType":"uint256"},{"name":"_wager","type":"uint256","internalType":"uint256"},{"name":"_stopGain","type":"uint256","internalType":"uint256"},{"name":"_stopLoss","type":"uint256","internalType":"uint256"}],"outputs":[{"name":"stop_","type":"bool","internalType":"bool"}],"stateMutability":"pure"},{"type":"function","name":"supportsInterface","inputs":[{"name":"interfaceId","type":"bytes4","internalType":"bytes4"}],"outputs":[{"name":"","type":"bool","internalType":"bool"}],"stateMutability":"view"},{"type":"function","name":"unpause","inputs":[],"outputs":[],"stateMutability":"nonpayable"},{"type":"function","name":"updateHouseEdge","inputs":[{"name":"_multiplier","type":"uint256","internalType":"uint256"},{"name":"_houseEdge","type":"uint64","internalType":"uint64"}],"outputs":[],"stateMutability":"nonpayable"},{"type":"function","name":"updateMaxGameCount","inputs":[{"name":"_maxGameCount","type":"uint8","internalType":"uint8"}],"outputs":[],"stateMutability":"nonpayable"},{"type":"function","name":"updateRefundCooldown","inputs":[{"name":"_refundCooldown","type":"uint32","internalType":"uint32"}],"outputs":[],"stateMutability":"nonpayable"},{"type":"function","name":"vaultManager","inputs":[],"outputs":[{"name":"","type":"address","internalType":"contract IVaultManager"}],"stateMutability":"view"},{"type":"event","name":"Created","inputs":[{"name":"player","type":"address","indexed":true,"internalType":"address"},{"name":"requestId","type":"uint256","indexed":false,"internalType":"uint256"},{"name":"wager","type":"uint256","indexed":false,"internalType":"uint256"},{"name":"tokens","type":"address[2]","indexed":false,"internalType":"address[2]"}],"anonymous":false},{"type":"event","name":"Paused","inputs":[{"name":"account","type":"address","indexed":false,"internalType":"address"}],"anonymous":false},{"type":"event","name":"RoleAdminChanged","inputs":[{"name":"role","type":"bytes32","indexed":true,"internalType":"bytes32"},{"name":"previousAdminRole","type":"bytes32","indexed":true,"internalType":"bytes32"},{"name":"newAdminRole","type":"bytes32","indexed":true,"internalType":"bytes32"}],"anonymous":false},{"type":"event","name":"RoleGranted","inputs":[{"name":"role","type":"bytes32","indexed":true,"internalType":"bytes32"},{"name":"account","type":"address","indexed":true,"internalType":"address"},{"name":"sender","type":"address","indexed":true,"internalType":"address"}],"anonymous":false},{"type":"event","name":"RoleRevoked","inputs":[{"name":"role","type":"bytes32","indexed":true,"internalType":"bytes32"},{"name":"account","type":"address","indexed":true,"internalType":"address"},{"name":"sender","type":"address","indexed":true,"internalType":"address"}],"anonymous":false},{"type":"event","name":"Settled","inputs":[{"name":"player","type":"address","indexed":true,"internalType":"address"},{"name":"requestId","type":"uint256","indexed":false,"internalType":"uint256"},{"name":"wager","type":"uint256","indexed":false,"internalType":"uint256"},{"name":"won","type":"bool","indexed":false,"internalType":"bool"},{"name":"payout","type":"uint256","indexed":false,"internalType":"uint256"},{"name":"playedGameCount","type":"uint32","indexed":false,"internalType":"uint32"},{"name":"numbers","type":"uint256[]","indexed":false,"internalType":"uint256[]"},{"name":"payouts","type":"uint256[]","indexed":false,"internalType":"uint256[]"}],"anonymous":false},{"type":"event","name":"Unpaused","inputs":[{"name":"account","type":"address","indexed":false,"internalType":"address"}],"anonymous":false},{"type":"event","name":"UpdateHouseEdge","inputs":[{"name":"multiplier","type":"uint256","indexed":false,"internalType":"uint256"},{"name":"houseEdge","type":"uint64","indexed":false,"internalType":"uint64"}],"anonymous":false},{"type":"event","name":"VaultManagerChange","inputs":[{"name":"vaultManager","type":"address","indexed":false,"internalType":"address"}],"anonymous":false}],"bytecode":{"object":"0x608060405260038055600580546207081960a21b64ffffffffff60a01b199091161790556009805463ffffffff19166064179055670d99a8cec7e20000600a55600b80546001600160401b03191660c81790553480156200005f57600080fd5b506040516200382538038062003825833981016040819052620000829162000484565b6000805460ff191681558190819081906200009e9033620000b8565b6001600255620000ae81620000c8565b505050506200060f565b620000c4828262000171565b5050565b620000d5600033620001df565b620001275760405162461bcd60e51b815260206004820152601360248201527f4143433a204e6f7420676f7665726e616e63650000000000000000000000000060448201526064015b60405180910390fd5b600480546001600160a01b0319166001600160a01b0383161790556200016e7f2f660b522cd66c3fe8eabbd9815ae97246faa2cf642722f997fcefd13b6a67b6826200020c565b50565b6200017d8282620001df565b620000c45760008281526001602081815260408084206001600160a01b0386168086529252808420805460ff19169093179092559051339285917f2f8788117e7eff1d82e926ec794901d17c78024a50270940304540a733656f0d9190a45050565b60008281526001602090815260408083206001600160a01b038516845290915290205460ff165b92915050565b600082815260016020819052604090912001546200022a816200023b565b62000236838362000171565b505050565b6200016e81336200024d8282620001df565b620000c45762000273816001600160a01b03166014620002c460201b620014011760201c565b6200028983602062001401620002c4821b17811c565b6040516020016200029c929190620004d5565b60408051601f198184030181529082905262461bcd60e51b82526200011e916004016200054e565b60606000620002d583600262000599565b620002e2906002620005b3565b6001600160401b03811115620002fc57620002fc620005c9565b6040519080825280601f01601f19166020018201604052801562000327576020820181803683370190505b509050600360fc1b81600081518110620003455762000345620005df565b60200101906001600160f81b031916908160001a905350600f60fb1b81600181518110620003775762000377620005df565b60200101906001600160f81b031916908160001a90535060006200039d84600262000599565b620003aa906001620005b3565b90505b60018111156200042c576f181899199a1a9b1b9c1cb0b131b232b360811b85600f1660108110620003e257620003e2620005df565b1a60f81b828281518110620003fb57620003fb620005df565b60200101906001600160f81b031916908160001a90535060049490941c936200042481620005f5565b9050620003ad565b5083156200047d5760405162461bcd60e51b815260206004820181905260248201527f537472696e67733a20686578206c656e67746820696e73756666696369656e7460448201526064016200011e565b9392505050565b6000602082840312156200049757600080fd5b81516001600160a01b03811681146200047d57600080fd5b60005b83811015620004cc578181015183820152602001620004b2565b50506000910152565b7f416363657373436f6e74726f6c3a206163636f756e74200000000000000000008152600083516200050f816017850160208801620004af565b7001034b99036b4b9b9b4b733903937b6329607d1b601791840191820152835162000542816028840160208801620004af565b01602801949350505050565b60208152600082518060208401526200056f816040850160208701620004af565b601f01601f19169190910160400192915050565b634e487b7160e01b600052601160045260246000fd5b808202811582820484141762000206576200020662000583565b8082018082111562000206576200020662000583565b634e487b7160e01b600052604160045260246000fd5b634e487b7160e01b600052603260045260246000fd5b60008162000607576200060762000583565b506000190190565b613206806200061f6000396000f3fe608060405234801561001057600080fd5b50600436106102745760003560e01c80638a4adf2411610151578063ca55f755116100c3578063d7260cba11610087578063d7260cba14610669578063e5199bb81461067c578063e7c4393e1461068f578063e97206a914610698578063e9f9b2d7146106a8578063f7137e77146106ce57600080fd5b8063ca55f755146105d9578063d1adfff41461061d578063d5280da014610630578063d547741f14610643578063d667dcd71461065657600080fd5b8063a217fddf11610115578063a217fddf14610549578063aaf5eb6814610551578063b543503e14610560578063bb4149e014610573578063bda9a84414610586578063bf193005146105b257600080fd5b80638a4adf24146104f45780638f130d50146105075780638f5350cb1461051a5780639104a03d1461052357806391d148541461053657600080fd5b80633f4ba83a116101ea5780634b95a52e116101ae5780634b95a52e1461044a5780634d30372d146104755780635c975abb146104985780637f1ad204146104a35780638225cd52146104d95780638456cb59146104ec57600080fd5b80633f4ba83a146103ce578063409e2205146103d6578063427dc913146103fd57806346dc6e801461041057806349d5e6041461042357600080fd5b80632c868b571161023c5780632c868b57146103325780632d3e8c93146103455780632f2ff15d1461037157806336568abe1461038657806337107fc7146103995780633b49b7ed146103bb57600080fd5b806301ffc9a71461027957806310088fbc146102a1578063117a5b90146102c957806311dbc193146102ed578063248a9ca31461030e575b600080fd5b61028c61028736600461248e565b6106e1565b60405190151581526020015b60405180910390f35b6102b46102af3660046124b8565b610718565b60408051928352602083019190915201610298565b6102dc6102d73660046124e4565b610746565b60405161029895949392919061254d565b6103006102fb36600461259c565b61080b565b604051908152602001610298565b61030061031c3660046124e4565b6000908152600160208190526040909120015490565b61030061034036600461259c565b610867565b60055461035c90600160a81b900463ffffffff1681565b60405163ffffffff9091168152602001610298565b61038461037f3660046125e1565b610881565b005b6103846103943660046125e1565b6108ac565b6103ac6103a73660046127f7565b61092f565b60405161029893929190612909565b61028c6103c9366004612937565b610a9c565b610384610af0565b6102b46103e43660046124e4565b6007602052600090815260409020805460019091015482565b61038461040b366004612969565b610b61565b61028c61041e36600461299d565b610b8d565b6103007f9b82d2f38fbdf13006bfa741767f793d917e063392737837b580c1c2b1e0bab381565b60045461045d906001600160a01b031681565b6040516001600160a01b039091168152602001610298565b61028c6104833660046124e4565b60086020526000908152604090205460ff1681565b60005460ff1661028c565b6104c16104b13660046129db565b50600b546001600160401b031690565b6040516001600160401b039091168152602001610298565b6103846104e7366004612a0f565b610bc8565b610384610c51565b60055461045d906001600160a01b031681565b610384610515366004612a40565b610cc0565b610300600a5481565b610384610531366004612a5d565b610d2f565b61028c6105443660046125e1565b610d5f565b610300600081565b610300670de0b6b3a764000081565b61038461056e366004612a40565b610d8a565b610384610581366004612a78565b610e05565b610599610594366004612af4565b610e87565b6040805160ff9093168352901515602083015201610298565b6103007f2f660b522cd66c3fe8eabbd9815ae97246faa2cf642722f997fcefd13b6a67b681565b6106106105e7366004612b28565b6040805160ff939093166020840152901515828201528051808303820181526060909201905290565b6040516102989190612b56565b61038461062b366004612b69565b610ea7565b61030061063e366004612b8f565b610ed9565b6103846106513660046125e1565b610f02565b600b546104c1906001600160401b031681565b6103846106773660046124e4565b610f28565b61038461068a366004612bc7565b6112a4565b61030060035481565b60095461035c9063ffffffff1681565b6005546106bc90600160a01b900460ff1681565b60405160ff9091168152602001610298565b6103006106dc366004612c45565b61131a565b60006001600160e01b03198216637965db0b60e01b148061071257506301ffc9a760e01b6001600160e01b03198316145b92915050565b6000806107258385612c87565b9150816107328487612c87565b61073c9190612c9e565b9050935093915050565b6006602052600090815260409020805460018201805460ff8316936101009093046001600160a01b031692919061077c90612cb1565b80601f01602080910402602001604051908101604052809291908181526020018280546107a890612cb1565b80156107f55780601f106107ca576101008083540402835291602001916107f5565b820191906000526020600020905b8154815290600101906020018083116107d857829003601f168201915b5050505050908060020154908060030154905085565b60006108178383610867565b60095461083390670de0b6b3a76400009063ffffffff16612c87565b61083d9190612d01565b9050670de0b6b3a7640000600a54826108569190612c87565b6108609190612d01565b9392505050565b60008115610876575081610712565b610860836064612c9e565b6000828152600160208190526040909120015461089d8161159c565b6108a783836115a6565b505050565b6001600160a01b03811633146109215760405162461bcd60e51b815260206004820152602f60248201527f416363657373436f6e74726f6c3a2063616e206f6e6c792072656e6f756e636560448201526e103937b632b9903337b91039b2b63360891b60648201526084015b60405180910390fd5b61092b8282611611565b5050565b6000806060866000015160ff166001600160401b0381111561095357610953612606565b60405190808252806020026020018201604052801561097c578160200160208202803683370190505b509050866000015160ff1691506000806109998960400151610e87565b9150915060006109b18360ff16838c60600151610ed9565b905060005b8a6000015160ff168160ff161015610a8e576109f9838560ff168c8460ff16815181106109e5576109e5612d15565b6020026020010151600161041e9190612d2b565b15610a3a5760608b0151610a0d9083612c9e565b858260ff1681518110610a2257610a22612d15565b6020908102919091010152610a378288612d2b565b96505b610a64878c60600151836001610a509190612d3e565b60ff16610a5d9190612c87565b8b8b610a9c565b15610a7e57610a74816001612d3e565b60ff169550610a8e565b610a8781612d57565b90506109b6565b505050509450945094915050565b60008215801590610aac57508385115b15610ac55782610abc8587612c9e565b10159050610ae8565b8115801590610ad357508484115b15610ae85781610ae38686612c9e565b101590505b949350505050565b610b1a7f9b82d2f38fbdf13006bfa741767f793d917e063392737837b580c1c2b1e0bab333610d5f565b610b575760405162461bcd60e51b815260206004820152600e60248201526d47414d453a204e6f74207465616d60901b6044820152606401610918565b610b5f611678565b565b6000610b6c8161159c565b506005805460ff909216600160a01b0260ff60a01b19909216919091179055565b600083610bae578261ffff168210158015610ba9575060648211155b610ae8565b60018210158015610ae857505061ffff9091161015919050565b610bd3600033610d5f565b610bef5760405162461bcd60e51b815260040161091890612d76565b600a829055600b805467ffffffffffffffff19166001600160401b0383169081179091556040805184815260208101929092527f150be625147ff92f56f1ffa4ab11fa44455939dd902738a3f54729f9b8018882910160405180910390a15050565b610c7b7f9b82d2f38fbdf13006bfa741767f793d917e063392737837b580c1c2b1e0bab333610d5f565b610cb85760405162461bcd60e51b815260206004820152600e60248201526d47414d453a204e6f74207465616d60901b6044820152606401610918565b610b5f6116ca565b610ccb600033610d5f565b610ce75760405162461bcd60e51b815260040161091890612d76565b600480546001600160a01b0319166001600160a01b038316179055610d2c7f2f660b522cd66c3fe8eabbd9815ae97246faa2cf642722f997fcefd13b6a67b682610881565b50565b610d3a600033610d5f565b610d565760405162461bcd60e51b815260040161091890612d76565b61ffff16600355565b60009182526001602090815260408084206001600160a01b0393909316845291905290205460ff1690565b610d95600033610d5f565b610db15760405162461bcd60e51b815260040161091890612d76565b600580546001600160a01b0319166001600160a01b0383169081179091556040519081527fa908db00c4502bbe936c6ac99cb6d67f0636790d9b238cfddab0139153f5eb749060200160405180910390a150565b816000610e1182610e87565b50905060058160ff1610158015610e2c5750605f8160ff1611155b610e6f5760405162461bcd60e51b815260206004820152601460248201527310da1bda58d9481a5cdb89dd08185b1b1bddd95960621b6044820152606401610918565b610e7d888888888888611707565b5050505050505050565b60008082806020019051810190610e9e9190612da3565b91509150915091565b6000610eb28161159c565b506005805463ffffffff909216600160a81b0263ffffffff60a81b19909216919091179055565b6000670de0b6b3a7640000610eee858561080b565b610ef89084612c87565b610ae89190612d01565b60008281526001602081905260409091200154610f1e8161159c565b6108a78383611611565b6002805403610f495760405162461bcd60e51b815260040161091890612dd2565b60028055600081815260086020526040902054819060ff1615610fa25760405162461bcd60e51b815260206004820152601160248201527011d85b59481a5cc818dbdb5c1b195d1959607a1b6044820152606401610918565b6000818152600860209081526040808320805460ff1916600190811790915585845260068352818420825160c081018452815460ff811682526001600160a01b0361010090910416948101949094529081018054919284019161100490612cb1565b80601f016020809104026020016040519081016040528092919081815260200182805461103090612cb1565b801561107d5780601f106110525761010080835404028352916020019161107d565b820191906000526020600020905b81548152906001019060200180831161106057829003601f168201915b505050505081526020016002820154815260200160038201548152602001600482016002806020026040519081016040528092919082600280156110e0576020028201915b81546001600160a01b031681526001909101906020018083116110c2575b50505050508152505090506110f23390565b6001600160a01b031681602001516001600160a01b0316146111445760405162461bcd60e51b815260206004820152600b60248201526a27b7363c90383630bcb2b960a91b6044820152606401610918565b6005546080820151429161116691600160a81b90910463ffffffff1690612d2b565b106111b35760405162461bcd60e51b815260206004820152601a60248201527f47616d65206973206e6f7420726566756e6461626c65207965740000000000006044820152606401610918565b600083815260066020526040812080546001600160a81b0319168155906111dd60018301826123e7565b5060006002820181905560038201819055600482018190556005918201555460a082015151825160608401516001600160a01b0390931692634154aede929161122b9160ff90911690612c87565b60208501516040516001600160e01b031960e086901b1681526001600160a01b0393841660048201526024810192909252919091166044820152606401600060405180830381600087803b15801561128257600080fd5b505af1158015611296573d6000803e3d6000fd5b505060016002555050505050565b6112ce7f2f660b522cd66c3fe8eabbd9815ae97246faa2cf642722f997fcefd13b6a67b633610d5f565b61130f5760405162461bcd60e51b815260206004820152601260248201527129219d102737ba103930b73237b6b4bd32b960711b6044820152606401610918565b6108a7838383611b65565b6000826001600160a01b031663313ce5676040518163ffffffff1660e01b8152600401602060405180830381865afa15801561135a573d6000803e3d6000fd5b505050506040513d601f19601f8201168201806040525081019061137e9190612e09565b61138990600a612f0a565b6005546040516341976e0960e01b81526001600160a01b038681166004830152909116906341976e0990602401602060405180830381865afa1580156113d3573d6000803e3d6000fd5b505050506040513d601f19601f820116820180604052508101906113f79190612f19565b6108569084612c87565b60606000611410836002612c87565b61141b906002612d2b565b6001600160401b0381111561143257611432612606565b6040519080825280601f01601f19166020018201604052801561145c576020820181803683370190505b509050600360fc1b8160008151811061147757611477612d15565b60200101906001600160f81b031916908160001a905350600f60fb1b816001815181106114a6576114a6612d15565b60200101906001600160f81b031916908160001a90535060006114ca846002612c87565b6114d5906001612d2b565b90505b600181111561154d576f181899199a1a9b1b9c1cb0b131b232b360811b85600f166010811061150957611509612d15565b1a60f81b82828151811061151f5761151f612d15565b60200101906001600160f81b031916908160001a90535060049490941c9361154681612f32565b90506114d8565b5083156108605760405162461bcd60e51b815260206004820181905260248201527f537472696e67733a20686578206c656e67746820696e73756666696369656e746044820152606401610918565b610d2c8133611ebb565b6115b08282610d5f565b61092b5760008281526001602081815260408084206001600160a01b0386168086529252808420805460ff19169093179092559051339285917f2f8788117e7eff1d82e926ec794901d17c78024a50270940304540a733656f0d9190a45050565b61161b8282610d5f565b1561092b5760008281526001602090815260408083206001600160a01b0385168085529252808320805460ff1916905551339285917ff6391f5c32d9c69d2a47ea670b442974b53935d1edc7fd64eb21e047a839171b9190a45050565b611680611f1f565b6000805460ff191690557f5db9ee0a495bf2e6ff9c91a7834c1ba4fdd244a5e8aa4e537bd38aeae4b073aa335b6040516001600160a01b03909116815260200160405180910390a1565b6116d2611f68565b6000805460ff191660011790557f62e78cea01bee320cd4e420270b5ea74000d11b0c9f74754ebdbfc544b05a2586116ad3390565b8460ff16600081116117525760405162461bcd60e51b815260206004820152601460248201527347616d6520636f756e74206f75742d72616e676560601b6044820152606401610918565b600554600160a01b900460ff168111156117a55760405162461bcd60e51b815260206004820152601460248201527347616d6520636f756e74206f75742d72616e676560601b6044820152606401610918565b81518760006117b4838361131a565b60055460405163a8e3925760e01b81523060048201529192506001600160a01b03169063a8e3925790602401602060405180830381865afa1580156117fd573d6000803e3d6000fd5b505050506040513d601f19601f820116820180604052508101906118219190612f19565b8110156118665760405162461bcd60e51b815260206004820152601360248201527247414d453a20576167657220746f6f206c6f7760681b6044820152606401610918565b600560009054906101000a90046001600160a01b03166001600160a01b0316638ac402596040518163ffffffff1660e01b8152600401602060405180830381865afa1580156118b9573d6000803e3d6000fd5b505050506040513d601f19601f820116820180604052508101906118dd9190612f19565b8111156119235760405162461bcd60e51b815260206004820152601460248201527308e829a8a7440aec2cecae440e8dede40d0d2ced60631b6044820152606401610918565b61192b611f68565b600280540361194c5760405162461bcd60e51b815260040161091890612dd2565b6002805533600061195c8b611fae565b6005549091506001600160a01b03166382b9be1a8860006020020151848f8f60ff166119889190612c87565b6040516001600160e01b031960e086901b1681526001600160a01b0393841660048201529290911660248301526044820152606401600060405180830381600087803b1580156119d757600080fd5b505af11580156119eb573d6000803e3d6000fd5b505050506040518060c001604052808c60ff168152602001836001600160a01b031681526020018981526020018d8152602001428152602001888152506006600083815260200190815260200160002060008201518160000160006101000a81548160ff021916908360ff16021790555060208201518160000160016101000a8154816001600160a01b0302191690836001600160a01b031602179055506040820151816001019081611a9e9190612f97565b50606082015181600201556080820151816003015560a082015181600401906002611aca929190612421565b50505089151580611ada57508815155b15611b0d576040805180820182528b815260208082018c8152600085815260079092529290209051815590516001909101555b816001600160a01b03167f4eb2df9ddc67bd535fefe0a4420b0439b48f28eaf990ef434f94694d52e8b943828e8a604051611b4a93929190613088565b60405180910390a25050600160025550505050505050505050565b600083815260066020526040902054839061010090046001600160a01b0316611bc65760405162461bcd60e51b815260206004820152601360248201527211d85b59481a5cc81b9bdd0818dc99585d1959606a1b6044820152606401610918565b600084815260086020526040902054849060ff1615611c1b5760405162461bcd60e51b815260206004820152601160248201527011d85b59481a5cc818dbdb5c1b195d1959607a1b6044820152606401610918565b6000818152600860205260409020805460ff1916600117905560025460011901611c575760405162461bcd60e51b815260040161091890612dd2565b600280556000858152600660209081526040808320815160c081018352815460ff8116825261010090046001600160a01b0316938101939093526001810180549192840191611ca590612cb1565b80601f0160208091040260200160405190810160405280929190818152602001828054611cd190612cb1565b8015611d1e5780601f10611cf357610100808354040283529160200191611d1e565b820191906000526020600020905b815481529060010190602001808311611d0157829003601f168201915b50505050508152602001600282015481526020016003820154815260200160048201600280602002604051908101604052809291908260028015611d81576020028201915b81546001600160a01b03168152600190910190602001808311611d63575b5050509190925250505060008781526007602090815260408083208151808301909252805482526001015491810191909152919250611dc183888861202d565b90506000806000611ddc86858760000151886020015161092f565b92509250925085602001516001600160a01b03167fa0c6d43553c751eac6408fb8830cce1d25ac333ad47e35f29671b726e8e911648c8860600151611e288a8763ffffffff1689612075565b87878a88604051611e3f97969594939291906130a3565b60405180910390a260008b815260066020526040812080546001600160a81b031916815590611e7160018301826123e7565b600060028301819055600383018190556004830181905560058301555050506000998a52505060076020525050604086208681556001908101969096555050506002929092555050565b611ec58282610d5f565b61092b57611edd816001600160a01b03166014611401565b611ee8836020611401565b604051602001611ef99291906130fc565b60408051601f198184030181529082905262461bcd60e51b825261091891600401612b56565b60005460ff16610b5f5760405162461bcd60e51b815260206004820152601460248201527314185d5cd8589b194e881b9bdd081c185d5cd95960621b6044820152606401610918565b60005460ff1615610b5f5760405162461bcd60e51b815260206004820152601060248201526f14185d5cd8589b194e881c185d5cd95960821b6044820152606401610918565b600480546003546040516336f71c3f60e01b815260ff85169381019390935260248301526000916001600160a01b03909116906336f71c3f906044016020604051808303816000875af1158015612009573d6000803e3d6000fd5b505050506040513d601f19601f820116820180604052508101906107129190612f19565b6060610ae88383808060200260200160405190810160405280939291908181526020018383602002808284376000920191909152505060095463ffffffff1691506123139050565b6000806000612090866000015160ff16868860600151610718565b60055460a08901515160208a0151600b5460408051633005989b60e11b81526001600160a01b0394851660048201529284166024840152604483018790526001600160401b03909116606483015251949650929450169163600b31369160848082019260009290919082900301818387803b15801561210e57600080fd5b505af1158015612122573d6000803e3d6000fd5b505060055460a08901515160208a01516040516303d1db8560e31b81526001600160a01b03928316600482015260248101889052908216604482015291169250631e8edc289150606401600060405180830381600087803b15801561218657600080fd5b505af115801561219a573d6000803e3d6000fd5b505050508060001461221f5760055460a0870151516020880151604051631d2adf0f60e01b81526001600160a01b039283166004820152908216602482015260448101849052911690631d2adf0f90606401600060405180830381600087803b15801561220657600080fd5b505af115801561221a573d6000803e3d6000fd5b505050505b836000036122975760055460a087015151604051631af5a19360e21b81526001600160a01b03918216600482015260248101859052911690636bd6864c90604401600060405180830381600087803b15801561227a57600080fd5b505af115801561228e573d6000803e3d6000fd5b50505050612308565b60055460a087015160208801516040516353a2418b60e11b81526001600160a01b039093169263a7448316926122d592909187908a90600401613171565b600060405180830381600087803b1580156122ef57600080fd5b505af1158015612303573d6000803e3d6000fd5b505050505b509091119392505050565b6060600083516001600160401b0381111561233057612330612606565b604051908082528060200260200182016040528015612359578160200160208202803683370190505b50905060005b84518110156123ba5761238b85828151811061237d5761237d612d15565b6020026020010151856123c2565b82828151811061239d5761239d612d15565b6020908102919091010152806123b2816131a3565b91505061235f565b509392505050565b6000808263ffffffff16116123d75782610860565b61086063ffffffff8316846131bc565b5080546123f390612cb1565b6000825580601f10612403575050565b601f016020900490600052602060002090810190610d2c9190612479565b8260028101928215612469579160200282015b8281111561246957825182546001600160a01b0319166001600160a01b03909116178255602090920191600190910190612434565b50612475929150612479565b5090565b5b80821115612475576000815560010161247a565b6000602082840312156124a057600080fd5b81356001600160e01b03198116811461086057600080fd5b6000806000606084860312156124cd57600080fd5b505081359360208301359350604090920135919050565b6000602082840312156124f657600080fd5b5035919050565b60005b83811015612518578181015183820152602001612500565b50506000910152565b600081518084526125398160208601602086016124fd565b601f01601f19169290920160200192915050565b60ff861681526001600160a01b038516602082015260a06040820181905260009061257a90830186612521565b606083019490945250608001529392505050565b8015158114610d2c57600080fd5b600080604083850312156125af57600080fd5b8235915060208301356125c18161258e565b809150509250929050565b6001600160a01b0381168114610d2c57600080fd5b600080604083850312156125f457600080fd5b8235915060208301356125c1816125cc565b634e487b7160e01b600052604160045260246000fd5b604051601f8201601f191681016001600160401b038111828210171561264457612644612606565b604052919050565b60ff81168114610d2c57600080fd5b600082601f83011261266c57600080fd5b81356001600160401b0381111561268557612685612606565b612698601f8201601f191660200161261c565b8181528460208386010111156126ad57600080fd5b816020850160208301376000918101602001919091529392505050565b600082601f8301126126db57600080fd5b604051604081018181106001600160401b03821117156126fd576126fd612606565b806040525080604084018581111561271457600080fd5b845b81811015612737578035612729816125cc565b835260209283019201612716565b509195945050505050565b600060e0828403121561275457600080fd5b60405160c081016001600160401b03828210818311171561277757612777612606565b816040528293508435915061278b8261264c565b90825260208401359061279d826125cc565b81602084015260408501359150808211156127b757600080fd5b506127c48582860161265b565b60408301525060608301356060820152608083013560808201526127eb8460a085016126ca565b60a08201525092915050565b6000806000806080858703121561280d57600080fd5b84356001600160401b038082111561282457600080fd5b61283088838901612742565b955060209150818701358181111561284757600080fd5b8701601f8101891361285857600080fd5b80358281111561286a5761286a612606565b8060051b925061287b84840161261c565b818152928201840192848101908b85111561289557600080fd5b928501925b848410156128b35783358252928501929085019061289a565b989b989a505050506040870135966060013595945050505050565b600081518084526020808501945080840160005b838110156128fe578151875295820195908201906001016128e2565b509495945050505050565b83815263ffffffff8316602082015260606040820152600061292e60608301846128ce565b95945050505050565b6000806000806080858703121561294d57600080fd5b5050823594602084013594506040840135936060013592509050565b60006020828403121561297b57600080fd5b81356108608161264c565b803561ffff8116811461299857600080fd5b919050565b6000806000606084860312156129b257600080fd5b83356129bd8161258e565b92506129cb60208501612986565b9150604084013590509250925092565b6000602082840312156129ed57600080fd5b81356001600160401b03811115612a0357600080fd5b610ae884828501612742565b60008060408385031215612a2257600080fd5b8235915060208301356001600160401b03811681146125c157600080fd5b600060208284031215612a5257600080fd5b8135610860816125cc565b600060208284031215612a6f57600080fd5b61086082612986565b60008060008060008060e08789031215612a9157600080fd5b863595506020870135612aa38161264c565b9450604087013593506060870135925060808701356001600160401b03811115612acc57600080fd5b612ad889828a0161265b565b925050612ae88860a089016126ca565b90509295509295509295565b600060208284031215612b0657600080fd5b81356001600160401b03811115612b1c57600080fd5b610ae88482850161265b565b60008060408385031215612b3b57600080fd5b8235612b468161264c565b915060208301356125c18161258e565b6020815260006108606020830184612521565b600060208284031215612b7b57600080fd5b813563ffffffff8116811461086057600080fd5b600080600060608486031215612ba457600080fd5b833592506020840135612bb68161258e565b929592945050506040919091013590565b600080600060408486031215612bdc57600080fd5b8335925060208401356001600160401b0380821115612bfa57600080fd5b818601915086601f830112612c0e57600080fd5b813581811115612c1d57600080fd5b8760208260051b8501011115612c3257600080fd5b6020830194508093505050509250925092565b60008060408385031215612c5857600080fd5b8235612c63816125cc565b946020939093013593505050565b634e487b7160e01b600052601160045260246000fd5b808202811582820484141761071257610712612c71565b8181038181111561071257610712612c71565b600181811c90821680612cc557607f821691505b602082108103612ce557634e487b7160e01b600052602260045260246000fd5b50919050565b634e487b7160e01b600052601260045260246000fd5b600082612d1057612d10612ceb565b500490565b634e487b7160e01b600052603260045260246000fd5b8082018082111561071257610712612c71565b60ff818116838216019081111561071257610712612c71565b600060ff821660ff8103612d6d57612d6d612c71565b60010192915050565b6020808252601390820152724143433a204e6f7420676f7665726e616e636560681b604082015260600190565b60008060408385031215612db657600080fd5b8251612dc18161264c565b60208401519092506125c18161258e565b6020808252601f908201527f5265656e7472616e637947756172643a207265656e7472616e742063616c6c00604082015260600190565b600060208284031215612e1b57600080fd5b81516108608161264c565b600181815b80851115612e61578160001904821115612e4757612e47612c71565b80851615612e5457918102915b93841c9390800290612e2b565b509250929050565b600082612e7857506001610712565b81612e8557506000610712565b8160018114612e9b5760028114612ea557612ec1565b6001915050610712565b60ff841115612eb657612eb6612c71565b50506001821b610712565b5060208310610133831016604e8410600b8410161715612ee4575081810a610712565b612eee8383612e26565b8060001904821115612f0257612f02612c71565b029392505050565b600061086060ff841683612e69565b600060208284031215612f2b57600080fd5b5051919050565b600081612f4157612f41612c71565b506000190190565b601f8211156108a757600081815260208120601f850160051c81016020861015612f705750805b601f850160051c820191505b81811015612f8f57828155600101612f7c565b505050505050565b81516001600160401b03811115612fb057612fb0612606565b612fc481612fbe8454612cb1565b84612f49565b602080601f831160018114612ff95760008415612fe15750858301515b600019600386901b1c1916600185901b178555612f8f565b600085815260208120601f198616915b8281101561302857888601518255948401946001909101908401613009565b50858210156130465787850151600019600388901b60f8161c191681555b5050505050600190811b01905550565b8060005b60028110156130825781516001600160a01b031684526020938401939091019060010161305a565b50505050565b8381526020810183905260808101610ae86040830184613056565b878152866020820152851515604082015284606082015263ffffffff8416608082015260e060a082015260006130dc60e08301856128ce565b82810360c08401526130ee81856128ce565b9a9950505050505050505050565b7f416363657373436f6e74726f6c3a206163636f756e74200000000000000000008152600083516131348160178501602088016124fd565b7001034b99036b4b9b9b4b733903937b6329607d1b60179184019182015283516131658160288401602088016124fd565b01602801949350505050565b60a0810161317f8287613056565b6001600160a01b039490941660408201526060810192909252608090910152919050565b6000600182016131b5576131b5612c71565b5060010190565b6000826131cb576131cb612ceb565b50069056fea2646970667358221220f5c1e3ca4ef460df9e9adee0b38db9dd8f7702da2b4a478c30c22b3911f7647464736f6c63430008110033","linkReferences":{}},"methodIdentifiers":{"DEFAULT_ADMIN_ROLE()":"a217fddf","PRECISION()":"aaf5eb68","RANDOMIZER_ROLE()":"bf193005","TEAM_ROLE()":"49d5e604","_computeDollarValue(address,uint256)":"f7137e77","bet(uint256,uint8,uint256,uint256,bytes,address[2])":"bb4149e0","calcReward(uint256,bool,uint256)":"d5280da0","calcSelectionRange(uint256,bool)":"2c868b57","calcWager(uint256,uint256,uint256)":"10088fbc","calcWinMultiplier(uint256,bool)":"11dbc193","changeRandomizerRouter(address)":"8f130d50","completedGames(uint256)":"4d30372d","decodeGameData(bytes)":"bda9a844","encodeGameData(uint8,bool)":"ca55f755","games(uint256)":"117a5b90","getHouseEdge((uint8,address,bytes,uint256,uint256,address[2]))":"7f1ad204","getRoleAdmin(bytes32)":"248a9ca3","grantRole(bytes32,address)":"2f2ff15d","hasRole(bytes32,address)":"91d14854","houseEdge()":"d667dcd7","houseEdgeMultiplier()":"8f5350cb","isWon(bool,uint16,uint256)":"46dc6e80","maxGameCount()":"e9f9b2d7","minConfirmations()":"e7c4393e","options(uint256)":"409e2205","pause()":"8456cb59","paused()":"5c975abb","play((uint8,address,bytes,uint256,uint256,address[2]),uint256[],uint256,uint256)":"37107fc7","randomizerCallback(uint256,uint256[])":"e5199bb8","randomizerRouter()":"4b95a52e","range()":"e97206a9","refundCooldown()":"2d3e8c93","refundGame(uint256)":"d7260cba","renounceRole(bytes32,address)":"36568abe","revokeRole(bytes32,address)":"d547741f","setMinConfirmations(uint16)":"9104a03d","setVaultManager(address)":"b543503e","shouldStop(uint256,uint256,uint256,uint256)":"3b49b7ed","supportsInterface(bytes4)":"01ffc9a7","unpause()":"3f4ba83a","updateHouseEdge(uint256,uint64)":"8225cd52","updateMaxGameCount(uint8)":"427dc913","updateRefundCooldown(uint32)":"d1adfff4","vaultManager()":"8a4adf24"},"id":15}