{"abi":[{"type":"constructor","inputs":[{"name":"_randomizer","type":"address","internalType":"contract IRandomizer"}],"stateMutability":"nonpayable"},{"type":"function","name":"CONSUMER_ROLE","inputs":[],"outputs":[{"name":"","type":"bytes32","internalType":"bytes32"}],"stateMutability":"view"},{"type":"function","name":"DEFAULT_ADMIN_ROLE","inputs":[],"outputs":[{"name":"","type":"bytes32","internalType":"bytes32"}],"stateMutability":"view"},{"type":"function","name":"PROVIDER_ROLE","inputs":[],"outputs":[{"name":"","type":"bytes32","internalType":"bytes32"}],"stateMutability":"view"},{"type":"function","name":"RANDOMIZER_ROLE","inputs":[],"outputs":[{"name":"","type":"bytes32","internalType":"bytes32"}],"stateMutability":"view"},{"type":"function","name":"ROUTER_ROLE","inputs":[],"outputs":[{"name":"","type":"bytes32","internalType":"bytes32"}],"stateMutability":"view"},{"type":"function","name":"TEAM_ROLE","inputs":[],"outputs":[{"name":"","type":"bytes32","internalType":"bytes32"}],"stateMutability":"view"},{"type":"function","name":"callbackGasLimit","inputs":[],"outputs":[{"name":"","type":"uint32","internalType":"uint32"}],"stateMutability":"view"},{"type":"function","name":"changeRandomizer","inputs":[{"name":"_randomizer","type":"address","internalType":"contract IRandomizer"}],"outputs":[],"stateMutability":"nonpayable"},{"type":"function","name":"counts","inputs":[{"name":"","type":"uint256","internalType":"uint256"}],"outputs":[{"name":"","type":"uint32","internalType":"uint32"}],"stateMutability":"view"},{"type":"function","name":"getRoleAdmin","inputs":[{"name":"role","type":"bytes32","internalType":"bytes32"}],"outputs":[{"name":"","type":"bytes32","internalType":"bytes32"}],"stateMutability":"view"},{"type":"function","name":"grantRole","inputs":[{"name":"role","type":"bytes32","internalType":"bytes32"},{"name":"account","type":"address","internalType":"address"}],"outputs":[],"stateMutability":"nonpayable"},{"type":"function","name":"hasRole","inputs":[{"name":"role","type":"bytes32","internalType":"bytes32"},{"name":"account","type":"address","internalType":"address"}],"outputs":[{"name":"","type":"bool","internalType":"bool"}],"stateMutability":"view"},{"type":"function","name":"randomizer","inputs":[],"outputs":[{"name":"","type":"address","internalType":"contract IRandomizer"}],"stateMutability":"view"},{"type":"function","name":"randomizerCallback","inputs":[{"name":"_requestId","type":"uint256","internalType":"uint256"},{"name":"_value","type":"bytes32","internalType":"bytes32"}],"outputs":[],"stateMutability":"nonpayable"},{"type":"function","name":"renounceRole","inputs":[{"name":"role","type":"bytes32","internalType":"bytes32"},{"name":"account","type":"address","internalType":"address"}],"outputs":[],"stateMutability":"nonpayable"},{"type":"function","name":"request","inputs":[{"name":"_routerRequestId","type":"uint256","internalType":"uint256"},{"name":"_count","type":"uint32","internalType":"uint32"},{"name":"","type":"uint256","internalType":"uint256"}],"outputs":[{"name":"requestId_","type":"uint256","internalType":"uint256"}],"stateMutability":"nonpayable"},{"type":"function","name":"revokeRole","inputs":[{"name":"role","type":"bytes32","internalType":"bytes32"},{"name":"account","type":"address","internalType":"address"}],"outputs":[],"stateMutability":"nonpayable"},{"type":"function","name":"router","inputs":[],"outputs":[{"name":"","type":"address","internalType":"contract IRandomizerRouter"}],"stateMutability":"view"},{"type":"function","name":"routerRequestIds","inputs":[{"name":"","type":"uint256","internalType":"uint256"}],"outputs":[{"name":"","type":"uint256","internalType":"uint256"}],"stateMutability":"view"},{"type":"function","name":"setCallbackGasLimit","inputs":[{"name":"_callbackGasLimit","type":"uint32","internalType":"uint32"}],"outputs":[],"stateMutability":"nonpayable"},{"type":"function","name":"setRouter","inputs":[{"name":"_router","type":"address","internalType":"contract IRandomizerRouter"}],"outputs":[],"stateMutability":"nonpayable"},{"type":"function","name":"supportsInterface","inputs":[{"name":"interfaceId","type":"bytes4","internalType":"bytes4"}],"outputs":[{"name":"","type":"bool","internalType":"bool"}],"stateMutability":"view"},{"type":"event","name":"RoleAdminChanged","inputs":[{"name":"role","type":"bytes32","indexed":true,"internalType":"bytes32"},{"name":"previousAdminRole","type":"bytes32","indexed":true,"internalType":"bytes32"},{"name":"newAdminRole","type":"bytes32","indexed":true,"internalType":"bytes32"}],"anonymous":false},{"type":"event","name":"RoleGranted","inputs":[{"name":"role","type":"bytes32","indexed":true,"internalType":"bytes32"},{"name":"account","type":"address","indexed":true,"internalType":"address"},{"name":"sender","type":"address","indexed":true,"internalType":"address"}],"anonymous":false},{"type":"event","name":"RoleRevoked","inputs":[{"name":"role","type":"bytes32","indexed":true,"internalType":"bytes32"},{"name":"account","type":"address","indexed":true,"internalType":"address"},{"name":"sender","type":"address","indexed":true,"internalType":"address"}],"anonymous":false},{"type":"event","name":"VaultManagerChange","inputs":[{"name":"vaultManager","type":"address","indexed":false,"internalType":"address"}],"anonymous":false}],"bytecode":{"object":"0x60806040526002805463ffffffff60a01b19166201312d60a61b1790553480156200002957600080fd5b5060405162001759380380620017598339810160408190526200004c916200045b565b6200005960003362000078565b6200006660003362000078565b620000718162000088565b50620005e6565b62000084828262000131565b5050565b62000095600033620001b9565b620000e75760405162461bcd60e51b815260206004820152601360248201527f524e443a204e6f7420676f7665726e616e63650000000000000000000000000060448201526064015b60405180910390fd5b600280546001600160a01b0319166001600160a01b0383161790556200012e7f2f660b522cd66c3fe8eabbd9815ae97246faa2cf642722f997fcefd13b6a67b682620001e4565b50565b6200013d8282620001b9565b62000084576000828152602081815260408083206001600160a01b03851684529091529020805460ff19166001179055620001753390565b6001600160a01b0316816001600160a01b0316837f2f8788117e7eff1d82e926ec794901d17c78024a50270940304540a733656f0d60405160405180910390a45050565b6000828152602081815260408083206001600160a01b038516845290915290205460ff165b92915050565b600082815260208190526040902060010154620002018162000212565b6200020d838362000131565b505050565b6200012e8133620002248282620001b9565b62000084576200024a816001600160a01b031660146200029b60201b620008881760201c565b62000260836020620008886200029b821b17811c565b60405160200162000273929190620004ac565b60408051601f198184030181529082905262461bcd60e51b8252620000de9160040162000525565b60606000620002ac83600262000570565b620002b99060026200058a565b6001600160401b03811115620002d357620002d3620005a0565b6040519080825280601f01601f191660200182016040528015620002fe576020820181803683370190505b509050600360fc1b816000815181106200031c576200031c620005b6565b60200101906001600160f81b031916908160001a905350600f60fb1b816001815181106200034e576200034e620005b6565b60200101906001600160f81b031916908160001a90535060006200037484600262000570565b620003819060016200058a565b90505b600181111562000403576f181899199a1a9b1b9c1cb0b131b232b360811b85600f1660108110620003b957620003b9620005b6565b1a60f81b828281518110620003d257620003d2620005b6565b60200101906001600160f81b031916908160001a90535060049490941c93620003fb81620005cc565b905062000384565b508315620004545760405162461bcd60e51b815260206004820181905260248201527f537472696e67733a20686578206c656e67746820696e73756666696369656e746044820152606401620000de565b9392505050565b6000602082840312156200046e57600080fd5b81516001600160a01b03811681146200045457600080fd5b60005b83811015620004a357818101518382015260200162000489565b50506000910152565b7f416363657373436f6e74726f6c3a206163636f756e7420000000000000000000815260008351620004e681601785016020880162000486565b7001034b99036b4b9b9b4b733903937b6329607d1b60179184019182015283516200051981602884016020880162000486565b01602801949350505050565b60208152600082518060208401526200054681604085016020870162000486565b601f01601f19169190910160400192915050565b634e487b7160e01b600052601160045260246000fd5b8082028115828204841417620001de57620001de6200055a565b80820180821115620001de57620001de6200055a565b634e487b7160e01b600052604160045260246000fd5b634e487b7160e01b600052603260045260246000fd5b600081620005de57620005de6200055a565b506000190190565b61116380620005f66000396000f3fe608060405234801561001057600080fd5b50600436106101425760003560e01c80636020345e116100b8578063c0d786551161007c578063c0d786551461032b578063d547741f1461033e578063dc715d1b14610351578063ebe93caf14610377578063f10fb5841461038a578063f887ea40146103b557600080fd5b80636020345e146102b657806391d14854146102d6578063a217fddf146102e9578063a4eb718c146102f1578063bf1930051461030457600080fd5b80632f2ff15d1161010a5780632f2ff15d1461020657806330d643b51461021b57806336568abe1461024257806349d5e604146102555780634bc02da61461027c57806353d45f5f146102a357600080fd5b806301ffc9a714610147578063072418ae1461016f578063248a9ca31461019057806324c20a34146101b357806324f74697146101da575b600080fd5b61015a610155366004610db1565b6103d0565b60405190151581526020015b60405180910390f35b61018261017d366004610df4565b610407565b604051908152602001610166565b61018261019e366004610e29565b60009081526020819052604090206001015490565b6101827f4a3debffbb5bc5d4c738c3d8b74da2daa7589500e8c18ed2d6a9a12a34a3116181565b6002546101f190600160a01b900463ffffffff1681565b60405163ffffffff9091168152602001610166565b610219610214366004610e57565b61052c565b005b6101827feb4fd9f47c063b511700e1c8e94e2fa4088ffca1fdcef1e60edf1beecd1b2e6481565b610219610250366004610e57565b610556565b6101827f9b82d2f38fbdf13006bfa741767f793d917e063392737837b580c1c2b1e0bab381565b6101827fee129e6fb492ad85e7c4d99e24facc6412bb957226fd6e1ff5efa1d2c0569e9c81565b6102196102b1366004610e87565b6105d4565b6101826102c4366004610e29565b60036020526000908152604090205481565b61015a6102e4366004610e57565b610643565b610182600081565b6102196102ff366004610ea4565b61066c565b6101827f2f660b522cd66c3fe8eabbd9815ae97246faa2cf642722f997fcefd13b6a67b681565b610219610339366004610e87565b6106b9565b61021961034c366004610e57565b610730565b6101f161035f366004610e29565b60046020526000908152604090205463ffffffff1681565b610219610385366004610ebf565b610755565b60025461039d906001600160a01b031681565b6040516001600160a01b039091168152602001610166565b60015461039d9064010000000090046001600160a01b031681565b60006001600160e01b03198216637965db0b60e01b148061040157506301ffc9a760e01b6001600160e01b03198316145b92915050565b60006104337feb4fd9f47c063b511700e1c8e94e2fa4088ffca1fdcef1e60edf1beecd1b2e6433610643565b6104765760405162461bcd60e51b815260206004820152600f60248201526e2928291d102737ba103937baba32b960891b60448201526064015b60405180910390fd5b60025460405163d845a4b360e01b8152600160a01b820463ffffffff1660048201526001600160a01b039091169063d845a4b3906024016020604051808303816000875af11580156104cc573d6000803e3d6000fd5b505050506040513d601f19601f820116820180604052508101906104f09190610ee1565b6000818152600460209081526040808320805463ffffffff191663ffffffff989098169790971790965560039052939093209390935550919050565b60008281526020819052604090206001015461054781610a2b565b6105518383610a35565b505050565b6001600160a01b03811633146105c65760405162461bcd60e51b815260206004820152602f60248201527f416363657373436f6e74726f6c3a2063616e206f6e6c792072656e6f756e636560448201526e103937b632b9903337b91039b2b63360891b606482015260840161046d565b6105d08282610ab9565b5050565b6105df600033610643565b6105fb5760405162461bcd60e51b815260040161046d90610efa565b600280546001600160a01b0319166001600160a01b0383161790556106407f2f660b522cd66c3fe8eabbd9815ae97246faa2cf642722f997fcefd13b6a67b68261052c565b50565b6000918252602082815260408084206001600160a01b0393909316845291905290205460ff1690565b610677600033610643565b6106935760405162461bcd60e51b815260040161046d90610efa565b6002805463ffffffff909216600160a01b0263ffffffff60a01b19909216919091179055565b6106c4600033610643565b6106e05760405162461bcd60e51b815260040161046d90610efa565b60018054640100000000600160c01b0319166401000000006001600160a01b038416021790556106407feb4fd9f47c063b511700e1c8e94e2fa4088ffca1fdcef1e60edf1beecd1b2e648261052c565b60008281526020819052604090206001015461074b81610a2b565b6105518383610ab9565b61077f7f2f660b522cd66c3fe8eabbd9815ae97246faa2cf642722f997fcefd13b6a67b633610643565b6107c15760405162461bcd60e51b81526020600482015260136024820152722928291d102737ba103930b73237b6b4bd32b960691b604482015260640161046d565b60008281526004602052604081205463ffffffff16908167ffffffffffffffff8111156107f0576107f0610f27565b604051908082528060200260200182016040528015610819578160200160208202803683370190505b5090508263ffffffff831660010361085057808260008151811061083f5761083f610f3d565b60200260200101818152505061085f565b61085c81846000610b1e565b91505b6108698583610c4f565b505050600091825250600460205260409020805463ffffffff19169055565b60606000610897836002610f69565b6108a2906002610f80565b67ffffffffffffffff8111156108ba576108ba610f27565b6040519080825280601f01601f1916602001820160405280156108e4576020820181803683370190505b509050600360fc1b816000815181106108ff576108ff610f3d565b60200101906001600160f81b031916908160001a905350600f60fb1b8160018151811061092e5761092e610f3d565b60200101906001600160f81b031916908160001a9053506000610952846002610f69565b61095d906001610f80565b90505b60018111156109d5576f181899199a1a9b1b9c1cb0b131b232b360811b85600f166010811061099157610991610f3d565b1a60f81b8282815181106109a7576109a7610f3d565b60200101906001600160f81b031916908160001a90535060049490941c936109ce81610f93565b9050610960565b508315610a245760405162461bcd60e51b815260206004820181905260248201527f537472696e67733a20686578206c656e67746820696e73756666696369656e74604482015260640161046d565b9392505050565b6106408133610cde565b610a3f8282610643565b6105d0576000828152602081815260408083206001600160a01b03851684529091529020805460ff19166001179055610a753390565b6001600160a01b0316816001600160a01b0316837f2f8788117e7eff1d82e926ec794901d17c78024a50270940304540a733656f0d60405160405180910390a45050565b610ac38282610643565b156105d0576000828152602081815260408083206001600160a01b0385168085529252808320805460ff1916905551339285917ff6391f5c32d9c69d2a47ea670b442974b53935d1edc7fd64eb21e047a839171b9190a45050565b606060008363ffffffff1667ffffffffffffffff811115610b4157610b41610f27565b604051908082528060200260200182016040528015610b6a578160200160208202803683370190505b506001805491925063ffffffff90911690610b858786610d42565b83600081518110610b9857610b98610f3d565b6020026020010181815250505b8563ffffffff168163ffffffff1614610c0957610bd4610bce88610bc98486610faa565b610d67565b86610d42565b838263ffffffff1681518110610bec57610bec610f3d565b602090810291909101015280610c0181610fce565b915050610ba5565b60018054829190600090610c2490849063ffffffff16610faa565b92506101000a81548163ffffffff021916908363ffffffff1602179055508293505050509392505050565b6000828152600360205260409081902054600154915163526fbe5560e01b8152909164010000000090046001600160a01b03169063526fbe5590610c999084908690600401610ff1565b600060405180830381600087803b158015610cb357600080fd5b505af1158015610cc7573d6000803e3d6000fd5b505050600093845250506003602052506040812055565b610ce88282610643565b6105d057610d00816001600160a01b03166014610888565b610d0b836020610888565b604051602001610d1c929190611063565b60408051601f198184030181529082905262461bcd60e51b825261046d916004016110d8565b6000808263ffffffff1611610d575782610a24565b610a2463ffffffff83168461110b565b60008282604051602001610d9292919091825260e01b6001600160e01b031916602082015260240190565b60408051601f1981840301815291905280516020909101209392505050565b600060208284031215610dc357600080fd5b81356001600160e01b031981168114610a2457600080fd5b803563ffffffff81168114610def57600080fd5b919050565b600080600060608486031215610e0957600080fd5b83359250610e1960208501610ddb565b9150604084013590509250925092565b600060208284031215610e3b57600080fd5b5035919050565b6001600160a01b038116811461064057600080fd5b60008060408385031215610e6a57600080fd5b823591506020830135610e7c81610e42565b809150509250929050565b600060208284031215610e9957600080fd5b8135610a2481610e42565b600060208284031215610eb657600080fd5b610a2482610ddb565b60008060408385031215610ed257600080fd5b50508035926020909101359150565b600060208284031215610ef357600080fd5b5051919050565b602080825260139082015272524e443a204e6f7420676f7665726e616e636560681b604082015260600190565b634e487b7160e01b600052604160045260246000fd5b634e487b7160e01b600052603260045260246000fd5b634e487b7160e01b600052601160045260246000fd5b808202811582820484141761040157610401610f53565b8082018082111561040157610401610f53565b600081610fa257610fa2610f53565b506000190190565b63ffffffff818116838216019080821115610fc757610fc7610f53565b5092915050565b600063ffffffff808316818103610fe757610fe7610f53565b6001019392505050565b6000604082018483526020604081850152818551808452606086019150828701935060005b8181101561103257845183529383019391830191600101611016565b5090979650505050505050565b60005b8381101561105a578181015183820152602001611042565b50506000910152565b7f416363657373436f6e74726f6c3a206163636f756e742000000000000000000081526000835161109b81601785016020880161103f565b7001034b99036b4b9b9b4b733903937b6329607d1b60179184019182015283516110cc81602884016020880161103f565b01602801949350505050565b60208152600082518060208401526110f781604085016020870161103f565b601f01601f19169190910160400192915050565b60008261112857634e487b7160e01b600052601260045260246000fd5b50069056fea2646970667358221220c2c80ca8be949d60754bd9690fc3747b3b071d40e0317dc552d8de48f2d0eaf164736f6c63430008110033","linkReferences":{}},"methodIdentifiers":{"CONSUMER_ROLE()":"4bc02da6","DEFAULT_ADMIN_ROLE()":"a217fddf","PROVIDER_ROLE()":"24c20a34","RANDOMIZER_ROLE()":"bf193005","ROUTER_ROLE()":"30d643b5","TEAM_ROLE()":"49d5e604","callbackGasLimit()":"24f74697","changeRandomizer(address)":"53d45f5f","counts(uint256)":"dc715d1b","getRoleAdmin(bytes32)":"248a9ca3","grantRole(bytes32,address)":"2f2ff15d","hasRole(bytes32,address)":"91d14854","randomizer()":"f10fb584","randomizerCallback(uint256,bytes32)":"ebe93caf","renounceRole(bytes32,address)":"36568abe","request(uint256,uint32,uint256)":"072418ae","revokeRole(bytes32,address)":"d547741f","router()":"f887ea40","routerRequestIds(uint256)":"6020345e","setCallbackGasLimit(uint32)":"a4eb718c","setRouter(address)":"c0d78655","supportsInterface(bytes4)":"01ffc9a7"},"id":32}