{"abi":[{"type":"function","name":"BASIS_POINTS","inputs":[],"outputs":[{"name":"","type":"uint32","internalType":"uint32"}],"stateMutability":"view"},{"type":"function","name":"DEFAULT_ADMIN_ROLE","inputs":[],"outputs":[{"name":"","type":"bytes32","internalType":"bytes32"}],"stateMutability":"view"},{"type":"function","name":"GAME_ROLE","inputs":[],"outputs":[{"name":"","type":"bytes32","internalType":"bytes32"}],"stateMutability":"view"},{"type":"function","name":"PRECISION","inputs":[],"outputs":[{"name":"","type":"uint256","internalType":"uint256"}],"stateMutability":"view"},{"type":"function","name":"VAULT_ROLE","inputs":[],"outputs":[{"name":"","type":"bytes32","internalType":"bytes32"}],"stateMutability":"view"},{"type":"function","name":"escrow","inputs":[{"name":"_token","type":"address","internalType":"address"},{"name":"_sender","type":"address","internalType":"address"},{"name":"_amount","type":"uint256","internalType":"uint256"}],"outputs":[],"stateMutability":"nonpayable"},{"type":"function","name":"feeCollector","inputs":[],"outputs":[{"name":"","type":"address","internalType":"contract IFeeCollector"}],"stateMutability":"view"},{"type":"function","name":"getEscrowedTokens","inputs":[{"name":"_token","type":"address","internalType":"address"},{"name":"_amount","type":"uint256","internalType":"uint256"}],"outputs":[],"stateMutability":"nonpayable"},{"type":"function","name":"getEscrowedValue","inputs":[],"outputs":[{"name":"pendingWagerValue_","type":"uint256","internalType":"uint256"}],"stateMutability":"view"},{"type":"function","name":"getMaxWager","inputs":[],"outputs":[{"name":"maxWager_","type":"uint256","internalType":"uint256"}],"stateMutability":"view"},{"type":"function","name":"getMinWager","inputs":[{"name":"_game","type":"address","internalType":"address"}],"outputs":[{"name":"","type":"uint256","internalType":"uint256"}],"stateMutability":"view"},{"type":"function","name":"getPrice","inputs":[{"name":"_token","type":"address","internalType":"address"}],"outputs":[{"name":"price_","type":"uint256","internalType":"uint256"}],"stateMutability":"view"},{"type":"function","name":"getRoleAdmin","inputs":[{"name":"role","type":"bytes32","internalType":"bytes32"}],"outputs":[{"name":"","type":"bytes32","internalType":"bytes32"}],"stateMutability":"view"},{"type":"function","name":"getWhitelistedTokens","inputs":[],"outputs":[{"name":"whitelistedTokenList_","type":"address[]","internalType":"address[]"}],"stateMutability":"view"},{"type":"function","name":"grantRole","inputs":[{"name":"role","type":"bytes32","internalType":"bytes32"},{"name":"account","type":"address","internalType":"address"}],"outputs":[],"stateMutability":"nonpayable"},{"type":"function","name":"hasRole","inputs":[{"name":"role","type":"bytes32","internalType":"bytes32"},{"name":"account","type":"address","internalType":"address"}],"outputs":[{"name":"","type":"bool","internalType":"bool"}],"stateMutability":"view"},{"type":"function","name":"maxWagerPercent","inputs":[],"outputs":[{"name":"","type":"uint256","internalType":"uint256"}],"stateMutability":"view"},{"type":"function","name":"minWagers","inputs":[{"name":"","type":"address","internalType":"address"}],"outputs":[{"name":"","type":"uint256","internalType":"uint256"}],"stateMutability":"view"},{"type":"function","name":"mintVestedWINR","inputs":[{"name":"_input","type":"address","internalType":"address"},{"name":"_amount","type":"uint256","internalType":"uint256"},{"name":"_recipient","type":"address","internalType":"address"}],"outputs":[],"stateMutability":"nonpayable"},{"type":"function","name":"pause","inputs":[],"outputs":[],"stateMutability":"nonpayable"},{"type":"function","name":"paused","inputs":[],"outputs":[{"name":"","type":"bool","internalType":"bool"}],"stateMutability":"view"},{"type":"function","name":"payback","inputs":[{"name":"_token","type":"address","internalType":"address"},{"name":"_recipient","type":"address","internalType":"address"},{"name":"_amount","type":"uint256","internalType":"uint256"}],"outputs":[],"stateMutability":"nonpayable"},{"type":"function","name":"payin","inputs":[{"name":"_token","type":"address","internalType":"address"},{"name":"_escrowAmount","type":"uint256","internalType":"uint256"}],"outputs":[],"stateMutability":"nonpayable"},{"type":"function","name":"payout","inputs":[{"name":"_tokens","type":"address[2]","internalType":"address[2]"},{"name":"_recipient","type":"address","internalType":"address"},{"name":"_escrowAmount","type":"uint256","internalType":"uint256"},{"name":"_totalAmount","type":"uint256","internalType":"uint256"}],"outputs":[],"stateMutability":"nonpayable"},{"type":"function","name":"priceFeed","inputs":[],"outputs":[{"name":"","type":"address","internalType":"contract IPriceFeed"}],"stateMutability":"view"},{"type":"function","name":"referralStorage","inputs":[],"outputs":[{"name":"","type":"address","internalType":"contract IReferralStorage"}],"stateMutability":"view"},{"type":"function","name":"refund","inputs":[{"name":"_token","type":"address","internalType":"address"},{"name":"_amount","type":"uint256","internalType":"uint256"},{"name":"_player","type":"address","internalType":"address"}],"outputs":[],"stateMutability":"nonpayable"},{"type":"function","name":"removeReferralReward","inputs":[{"name":"_token","type":"address","internalType":"address"},{"name":"_player","type":"address","internalType":"address"},{"name":"_amount","type":"uint256","internalType":"uint256"},{"name":"_houseEdge","type":"uint64","internalType":"uint64"}],"outputs":[],"stateMutability":"nonpayable"},{"type":"function","name":"renounceRole","inputs":[{"name":"role","type":"bytes32","internalType":"bytes32"},{"name":"account","type":"address","internalType":"address"}],"outputs":[],"stateMutability":"nonpayable"},{"type":"function","name":"revokeRole","inputs":[{"name":"role","type":"bytes32","internalType":"bytes32"},{"name":"account","type":"address","internalType":"address"}],"outputs":[],"stateMutability":"nonpayable"},{"type":"function","name":"setFeeCollector","inputs":[{"name":"_feeCollector","type":"address","internalType":"contract IFeeCollector"}],"outputs":[],"stateMutability":"nonpayable"},{"type":"function","name":"setMaxWagerPercent","inputs":[{"name":"_maxWagerPercent","type":"uint256","internalType":"uint256"}],"outputs":[],"stateMutability":"nonpayable"},{"type":"function","name":"setMinWagers","inputs":[{"name":"_games","type":"address[]","internalType":"address[]"},{"name":"_minWagers","type":"uint256[]","internalType":"uint256[]"}],"outputs":[],"stateMutability":"nonpayable"},{"type":"function","name":"setPriceFeed","inputs":[{"name":"_priceFeed","type":"address","internalType":"contract IPriceFeed"}],"outputs":[],"stateMutability":"nonpayable"},{"type":"function","name":"setReferralReward","inputs":[{"name":"_token","type":"address","internalType":"address"},{"name":"_player","type":"address","internalType":"address"},{"name":"_amount","type":"uint256","internalType":"uint256"},{"name":"_houseEdge","type":"uint64","internalType":"uint64"}],"outputs":[],"stateMutability":"nonpayable"},{"type":"function","name":"setReferralStorage","inputs":[{"name":"_referralStorage","type":"address","internalType":"contract IReferralStorage"}],"outputs":[],"stateMutability":"nonpayable"},{"type":"function","name":"setTokenManager","inputs":[{"name":"_tokenManager","type":"address","internalType":"contract ITokenManager"}],"outputs":[],"stateMutability":"nonpayable"},{"type":"function","name":"setVault","inputs":[{"name":"_vault","type":"address","internalType":"contract IVault"}],"outputs":[],"stateMutability":"nonpayable"},{"type":"function","name":"setWhitelistedGame","inputs":[{"name":"_game","type":"address","internalType":"address"}],"outputs":[],"stateMutability":"nonpayable"},{"type":"function","name":"setWhitelistedTokens","inputs":[{"name":"_nextTokens","type":"address[]","internalType":"address[]"}],"outputs":[],"stateMutability":"nonpayable"},{"type":"function","name":"setWlp","inputs":[{"name":"_wlp","type":"address","internalType":"contract IERC20"}],"outputs":[],"stateMutability":"nonpayable"},{"type":"function","name":"supportsInterface","inputs":[{"name":"interfaceId","type":"bytes4","internalType":"bytes4"}],"outputs":[{"name":"","type":"bool","internalType":"bool"}],"stateMutability":"view"},{"type":"function","name":"tokenManager","inputs":[],"outputs":[{"name":"","type":"address","internalType":"contract ITokenManager"}],"stateMutability":"view"},{"type":"function","name":"totalEscrowTokens","inputs":[{"name":"","type":"address","internalType":"address"}],"outputs":[{"name":"","type":"uint256","internalType":"uint256"}],"stateMutability":"view"},{"type":"function","name":"transferIn","inputs":[{"name":"_token","type":"address","internalType":"address"},{"name":"_sender","type":"address","internalType":"address"},{"name":"_amount","type":"uint256","internalType":"uint256"}],"outputs":[],"stateMutability":"nonpayable"},{"type":"function","name":"transferOut","inputs":[{"name":"_token","type":"address","internalType":"address"},{"name":"_recipient","type":"address","internalType":"address"},{"name":"_amount","type":"uint256","internalType":"uint256"}],"outputs":[],"stateMutability":"nonpayable"},{"type":"function","name":"unpause","inputs":[],"outputs":[],"stateMutability":"nonpayable"},{"type":"function","name":"unsetWhitelistedGame","inputs":[{"name":"_game","type":"address","internalType":"address"}],"outputs":[],"stateMutability":"nonpayable"},{"type":"function","name":"vault","inputs":[],"outputs":[{"name":"","type":"address","internalType":"contract IVault"}],"stateMutability":"view"},{"type":"function","name":"whitelistedGames","inputs":[{"name":"","type":"address","internalType":"address"}],"outputs":[{"name":"","type":"bool","internalType":"bool"}],"stateMutability":"view"},{"type":"function","name":"whitelistedTokenList","inputs":[{"name":"","type":"uint256","internalType":"uint256"}],"outputs":[{"name":"","type":"address","internalType":"address"}],"stateMutability":"view"},{"type":"function","name":"whitelistedTokens","inputs":[{"name":"","type":"address","internalType":"address"}],"outputs":[{"name":"","type":"bool","internalType":"bool"}],"stateMutability":"view"},{"type":"function","name":"wlp","inputs":[],"outputs":[{"name":"","type":"address","internalType":"contract IERC20"}],"stateMutability":"view"},{"type":"event","name":"Escrow","inputs":[{"name":"sender","type":"address","indexed":false,"internalType":"address"},{"name":"token","type":"address","indexed":false,"internalType":"address"},{"name":"amount","type":"uint256","indexed":false,"internalType":"uint256"}],"anonymous":false},{"type":"event","name":"GameAdded","inputs":[{"name":"game","type":"address","indexed":false,"internalType":"address"}],"anonymous":false},{"type":"event","name":"GameRemoved","inputs":[{"name":"game","type":"address","indexed":false,"internalType":"address"}],"anonymous":false},{"type":"event","name":"MaxWagerPercentChanged","inputs":[{"name":"percent","type":"uint256","indexed":false,"internalType":"uint256"}],"anonymous":false},{"type":"event","name":"Paused","inputs":[{"name":"account","type":"address","indexed":false,"internalType":"address"}],"anonymous":false},{"type":"event","name":"Payback","inputs":[{"name":"recipient","type":"address","indexed":false,"internalType":"address"},{"name":"token","type":"address","indexed":false,"internalType":"address"},{"name":"amount","type":"uint256","indexed":false,"internalType":"uint256"}],"anonymous":false},{"type":"event","name":"Refunded","inputs":[{"name":"game","type":"address","indexed":false,"internalType":"address"},{"name":"player","type":"address","indexed":false,"internalType":"address"},{"name":"token","type":"address","indexed":false,"internalType":"address"},{"name":"amount","type":"uint256","indexed":false,"internalType":"uint256"}],"anonymous":false},{"type":"event","name":"RoleAdminChanged","inputs":[{"name":"role","type":"bytes32","indexed":true,"internalType":"bytes32"},{"name":"previousAdminRole","type":"bytes32","indexed":true,"internalType":"bytes32"},{"name":"newAdminRole","type":"bytes32","indexed":true,"internalType":"bytes32"}],"anonymous":false},{"type":"event","name":"RoleGranted","inputs":[{"name":"role","type":"bytes32","indexed":true,"internalType":"bytes32"},{"name":"account","type":"address","indexed":true,"internalType":"address"},{"name":"sender","type":"address","indexed":true,"internalType":"address"}],"anonymous":false},{"type":"event","name":"RoleRevoked","inputs":[{"name":"role","type":"bytes32","indexed":true,"internalType":"bytes32"},{"name":"account","type":"address","indexed":true,"internalType":"address"},{"name":"sender","type":"address","indexed":true,"internalType":"address"}],"anonymous":false},{"type":"event","name":"TokensUpdated","inputs":[{"name":"tokens","type":"address[]","indexed":false,"internalType":"address[]"}],"anonymous":false},{"type":"event","name":"Unpaused","inputs":[{"name":"account","type":"address","indexed":false,"internalType":"address"}],"anonymous":false},{"type":"event","name":"Withdraw","inputs":[{"name":"token","type":"address","indexed":false,"internalType":"address"},{"name":"amount","type":"uint256","indexed":false,"internalType":"uint256"}],"anonymous":false}],"bytecode":{"object":"0x608060405266038d7ea4c680006009553480156200001c57600080fd5b506000805460ff1916815562000033903362000039565b620000c2565b60008281526001602090815260408083206001600160a01b038516845290915290205460ff16620000be5760008281526001602081815260408084206001600160a01b0386168086529252808420805460ff19169093179092559051339285917f2f8788117e7eff1d82e926ec794901d17c78024a50270940304540a733656f0d9190a45b5050565b612bda80620000d26000396000f3fe608060405234801561001057600080fd5b50600436106103265760003560e01c80637f40d41f116101b8578063ae4d7f9a11610104578063daf9c210116100a2578063e3fc534c1161007c578063e3fc534c1461073b578063e4652f491461074e578063fbfa77cf14610761578063fe1e83751461077457600080fd5b8063daf9c210146106e5578063e1f1c4a714610708578063e26f79001461072657600080fd5b8063c415b95c116100de578063c415b95c146106a3578063cc75d5af146106b6578063d547741f146106bf578063dac516fe146106d257600080fd5b8063ae4d7f9a1461066a578063bddff7491461067d578063c038b1141461069057600080fd5b80639a0bf14a11610171578063a74483161161014b578063a74483161461060a578063a8e392571461061d578063aaf5eb6814610646578063ab4007061461065557600080fd5b80639a0bf14a146105dc578063a217fddf146105ef578063a42dce80146105f757600080fd5b80637f40d41f1461057157806382b9be1a146105915780638456cb59146105a45780638ac40259146105ac57806391d14854146105b457806398c4f1ac146105c757600080fd5b806341976e09116102775780636bc9340c11610230578063724e78da1161020a578063724e78da14610525578063741bef1a1461053857806375fc04351461054b5780637cb2b79c1461055e57600080fd5b80636bc9340c146104dc5780636bd6864c146104ef5780636cdd1d571461050257600080fd5b806341976e09146104725780634e5870ed146104855780635988f9a5146104985780635c975abb146104ab578063600b3136146104b65780636817031b146104c957600080fd5b8063248a9ca3116102e45780632f2ff15d116102be5780632f2ff15d1461043157806336568abe146104445780633f4ba83a146104575780634154aede1461045f57600080fd5b8063248a9ca3146103e75780632661ab371461040b5780632a709b141461041e57600080fd5b80626cc35e1461032b57806301ffc9a71461035b578063078d3b791461037e5780631d2adf0f146103935780631e8edc28146103a657806321aa67ac146103b9575b600080fd5b60085461033e906001600160a01b031681565b6040516001600160a01b0390911681526020015b60405180910390f35b61036e6103693660046122c0565b61077c565b6040519015158152602001610352565b61039161038c36600461230f565b6107b3565b005b6103916103a136600461230f565b610844565b6103916103b4366004612350565b6108cd565b6103d96103c7366004612392565b600c6020526000908152604090205481565b604051908152602001610352565b6103d96103f53660046123af565b6000908152600160208190526040909120015490565b610391610419366004612414565b610975565b60065461033e906001600160a01b031681565b61039161043f366004612480565b610a65565b610391610452366004612480565b610a90565b610391610b0e565b61039161046d366004612350565b610b3f565b6103d9610480366004612392565b610c3f565b610391610493366004612392565b610cae565b6103916104a63660046124f7565b610d45565b60005460ff1661036e565b6103916104c43660046125a9565b610ef5565b6103916104d7366004612392565b610ff4565b6103916104ea3660046123af565b611087565b6103916104fd366004612609565b6110e3565b61036e610510366004612392565b600a6020526000908152604090205460ff1681565b610391610533366004612392565b611185565b60045461033e906001600160a01b031681565b610391610559366004612392565b6111ce565b61039161056c366004612392565b611261565b6103d961057f366004612392565b600d6020526000908152604090205481565b61039161059f36600461230f565b6112aa565b6103916113d4565b6103d9611403565b61036e6105c2366004612480565b6114cb565b6103d9600080516020612b6583398151915281565b60025461033e906001600160a01b031681565b6103d9600081565b610391610605366004612392565b6114f6565b610391610618366004612635565b61153f565b6103d961062b366004612392565b6001600160a01b03166000908152600c602052604090205490565b6103d9670de0b6b3a764000081565b6103d9600080516020612b8583398151915281565b610391610678366004612392565b6115e3565b61033e61068b3660046123af565b61162c565b61039161069e366004612392565b611656565b60055461033e906001600160a01b031681565b6103d960095481565b6103916106cd366004612480565b61169f565b6103916106e0366004612609565b6116c5565b61036e6106f3366004612392565b600b6020526000908152604090205460ff1681565b61071161271081565b60405163ffffffff9091168152602001610352565b61072e6117b6565b60405161035291906126dd565b6103916107493660046125a9565b611818565b61039161075c36600461230f565b6118b0565b60035461033e906001600160a01b031681565b6103d9611933565b60006001600160e01b03198216637965db0b60e01b14806107ad57506301ffc9a760e01b6001600160e01b03198316145b92915050565b6107cb600080516020612b85833981519152336114cb565b6107f05760405162461bcd60e51b81526004016107e79061272a565b60405180910390fd5b6001600160a01b0383166000908152600b6020526040902054839060ff1661082a5760405162461bcd60e51b81526004016107e790612750565b61083e6001600160a01b0385168484611b04565b50505050565b61085c600080516020612b85833981519152336114cb565b6108785760405162461bcd60e51b81526004016107e79061272a565b6108828382611b67565b61088d8383836107b3565b7ffc2d2b4b3ad857c1c0893799f86b421efff822709b26de93df5709671f4841ca8284836040516108c09392919061277b565b60405180910390a1505050565b6108e5600080516020612b85833981519152336114cb565b6109015760405162461bcd60e51b81526004016107e79061272a565b6006546040516303d1db8560e31b81526001600160a01b03858116600483015260248201859052838116604483015290911690631e8edc28906064015b600060405180830381600087803b15801561095857600080fd5b505af115801561096c573d6000803e3d6000fd5b50505050505050565b6109806000336114cb565b61099c5760405162461bcd60e51b81526004016107e79061279f565b8281146109e35760405162461bcd60e51b815260206004820152601560248201527413195b99dd1a1cc81b5d5cdd08189948195c5d585b605a1b60448201526064016107e7565b60005b83811015610a5e57828282818110610a0057610a006127cb565b90506020020135600c6000878785818110610a1d57610a1d6127cb565b9050602002016020810190610a329190612392565b6001600160a01b0316815260208101919091526040016000205580610a56816127f7565b9150506109e6565b5050505050565b60008281526001602081905260409091200154610a8181611b98565b610a8b8383611ba2565b505050565b6001600160a01b0381163314610b005760405162461bcd60e51b815260206004820152602f60248201527f416363657373436f6e74726f6c3a2063616e206f6e6c792072656e6f756e636560448201526e103937b632b9903337b91039b2b63360891b60648201526084016107e7565b610b0a8282611c0d565b5050565b610b196000336114cb565b610b355760405162461bcd60e51b81526004016107e79061279f565b610b3d611c74565b565b610b57600080516020612b85833981519152336114cb565b610b735760405162461bcd60e51b81526004016107e79061272a565b610b7d8383611b67565b60065460405163f4a277bd60e01b81526001600160a01b038581166004830152602482018590529091169063f4a277bd90604401600060405180830381600087803b158015610bcb57600080fd5b505af1158015610bdf573d6000803e3d6000fd5b50505050610bee8382846107b3565b7fb7c482f0c0b7ad56e2c7004be448a8ead98a8bbe84675fd80b273563099f856033604080516001600160a01b039283168152828516602082015291861690820152606081018490526080016108c0565b600354604051630b612ffb60e21b81526001600160a01b0383811660048301526000921690632d84bfec90602401602060405180830381865afa158015610c8a573d6000803e3d6000fd5b505050506040513d601f19601f820116820180604052508101906107ad9190612810565b610cb96000336114cb565b610cd55760405162461bcd60e51b81526004016107e79061279f565b610ced600080516020612b858339815191528261169f565b6001600160a01b0381166000818152600a6020908152604091829020805460ff1916905590519182527f79e522c2ccc4f9a35ab9a2d60c7a3d2ea971f1fe148f392afef6283a3f9395f191015b60405180910390a150565b610d506000336114cb565b610d6c5760405162461bcd60e51b81526004016107e79061279f565b60006007805480602002602001604051908101604052809291908181526020018280548015610dc457602002820191906000526020600020905b81546001600160a01b03168152600190910190602001808311610da6575b5050505050905060076000610dd99190612230565b60005b8151811015610e3857600b6000838381518110610dfb57610dfb6127cb565b6020908102919091018101516001600160a01b03168252810191909152604001600020805460ff1916905580610e30816127f7565b915050610ddc565b508151610e4c90600790602085019061224e565b5060005b8251811015610eb8576001600b600060078481548110610e7257610e726127cb565b6000918252602080832091909101546001600160a01b031683528201929092526040019020805460ff191691151591909117905580610eb0816127f7565b915050610e50565b507f3ca096a4c913a6f222a557151d17832dddab787e6ddf59063cab45e15b9a9fac6007604051610ee99190612829565b60405180910390a15050565b610f0d600080516020612b85833981519152336114cb565b610f295760405162461bcd60e51b81526004016107e79061272a565b6001600160a01b0384166000908152600b6020526040902054849060ff16610f635760405162461bcd60e51b81526004016107e790612750565b8215610a5e576008546001600160a01b0316635472ad038587612710610f9367ffffffffffffffff88168961286d565b610f9d9190612884565b6040518463ffffffff1660e01b8152600401610fbb9392919061277b565b600060405180830381600087803b158015610fd557600080fd5b505af1158015610fe9573d6000803e3d6000fd5b505050505050505050565b610fff6000336114cb565b61101b5760405162461bcd60e51b81526004016107e79061279f565b6003546001600160a01b0316156110515760035461105190600080516020612b65833981519152906001600160a01b031661169f565b600380546001600160a01b0319166001600160a01b038316179055611084600080516020612b6583398151915282610a65565b50565b6110926000336114cb565b6110ae5760405162461bcd60e51b81526004016107e79061279f565b60098190556040518181527f56f049cdbf5dea44c01ae8db35953a8192abb0becf4f7caa0b814af2bf09980790602001610d3a565b6110fb600080516020612b85833981519152336114cb565b6111175760405162461bcd60e51b81526004016107e79061272a565b6001600160a01b0382166000908152600b6020526040902054829060ff166111515760405162461bcd60e51b81526004016107e790612750565b6003546040516317c11f0360e11b81526001600160a01b0390911690632f823e069061093e9086903090879060040161277b565b6111906000336114cb565b6111ac5760405162461bcd60e51b81526004016107e79061279f565b600480546001600160a01b0319166001600160a01b0392909216919091179055565b6111d96000336114cb565b6111f55760405162461bcd60e51b81526004016107e79061279f565b61120d600080516020612b8583398151915282610a65565b6001600160a01b0381166000818152600a6020908152604091829020805460ff1916600117905590519182527f8fa5def8b409da8bf0a822ecd1f672c8cc17808f45d671cd1a5d2fb0d7fe02ad9101610d3a565b61126c6000336114cb565b6112885760405162461bcd60e51b81526004016107e79061279f565b600680546001600160a01b0319166001600160a01b0392909216919091179055565b6112c2600080516020612b85833981519152336114cb565b6112de5760405162461bcd60e51b81526004016107e79061272a565b6001600160a01b0383166000908152600b6020526040902054839060ff166113185760405162461bcd60e51b81526004016107e790612750565b6113228483611cc6565b600654604051631b0d752160e21b81526001600160a01b0386811660048301526024820185905290911690636c35d48490604401600060405180830381600087803b15801561137057600080fd5b505af1158015611384573d6000803e3d6000fd5b505050506113938484846118b0565b7f812c3251d8b2cd027716a7651ace6f9167d7fba4db9eb10df2e0cfe8b7fa48c98385846040516113c69392919061277b565b60405180910390a150505050565b6113df6000336114cb565b6113fb5760405162461bcd60e51b81526004016107e79061279f565b610b3d611cee565b6000670de0b6b3a7640000600954600360009054906101000a90046001600160a01b03166001600160a01b03166359bf5d396040518163ffffffff1660e01b8152600401602060405180830381865afa158015611464573d6000803e3d6000fd5b505050506040513d601f19601f820116820180604052508101906114889190612810565b611492919061286d565b61149c9190612884565b905060006114a8611933565b9050808211156114c2576114bc81836128a6565b91505090565b600091505b5090565b60009182526001602090815260408084206001600160a01b0393909316845291905290205460ff1690565b6115016000336114cb565b61151d5760405162461bcd60e51b81526004016107e79061279f565b600580546001600160a01b0319166001600160a01b0392909216919091179055565b611557600080516020612b85833981519152336114cb565b6115735760405162461bcd60e51b81526004016107e79061272a565b60035460405163f5e45a5560e01b81526001600160a01b039091169063f5e45a55906115ab90879030908790899088906004016128b9565b600060405180830381600087803b1580156115c557600080fd5b505af11580156115d9573d6000803e3d6000fd5b5050505050505050565b6115ee6000336114cb565b61160a5760405162461bcd60e51b81526004016107e79061279f565b600880546001600160a01b0319166001600160a01b0392909216919091179055565b6007818154811061163c57600080fd5b6000918252602090912001546001600160a01b0316905081565b6116616000336114cb565b61167d5760405162461bcd60e51b81526004016107e79061279f565b600280546001600160a01b0319166001600160a01b0392909216919091179055565b600082815260016020819052604090912001546116bb81611b98565b610a8b8383611c0d565b6116dd600080516020612b65833981519152336114cb565b6117195760405162461bcd60e51b815260206004820152600d60248201526c15934e88139bdd081d985d5b1d609a1b60448201526064016107e7565b6001600160a01b0382166000908152600b6020526040902054829060ff166117535760405162461bcd60e51b81526004016107e790612750565b61175d8383611b67565b600354611777906001600160a01b03858116911684611b04565b604080516001600160a01b0385168152602081018490527f884edad9ce6fa2440d8a54cc123490eb96d2768479d49ff9c7366125a942436491016108c0565b6060600780548060200260200160405190810160405280929190818152602001828054801561180e57602002820191906000526020600020905b81546001600160a01b031681526001909101906020018083116117f0575b5050505050905090565b611830600080516020612b85833981519152336114cb565b61184c5760405162461bcd60e51b81526004016107e79061272a565b6001600160a01b0384166000908152600b6020526040902054849060ff166118865760405162461bcd60e51b81526004016107e790612750565b6008546001600160a01b0316635505ed0e8587612710610f9367ffffffffffffffff88168961286d565b6118c8600080516020612b85833981519152336114cb565b6118e45760405162461bcd60e51b81526004016107e79061272a565b6001600160a01b0383166000908152600b6020526040902054839060ff1661191e5760405162461bcd60e51b81526004016107e790612750565b61083e6001600160a01b038516843085611d2b565b600080600780548060200260200160405190810160405280929190818152602001828054801561198c57602002820191906000526020600020905b81546001600160a01b0316815260019091019060200180831161196e575b5050505050905060005b8151811015611aff578181815181106119b1576119b16127cb565b60200260200101516001600160a01b031663313ce5676040518163ffffffff1660e01b8152600401602060405180830381865afa1580156119f6573d6000803e3d6000fd5b505050506040513d601f19601f82011682018060405250810190611a1a919061291a565b611a2590600a612a21565b611a47838381518110611a3a57611a3a6127cb565b6020026020010151610c3f565b838381518110611a5957611a596127cb565b60209081029190910101516040516370a0823160e01b81523060048201526001600160a01b03909116906370a0823190602401602060405180830381865afa158015611aa9573d6000803e3d6000fd5b505050506040513d601f19601f82011682018060405250810190611acd9190612810565b611ad7919061286d565b611ae19190612884565b611aeb9084612a30565b925080611af7816127f7565b915050611996565b505090565b6040516001600160a01b038316602482015260448101829052610a8b90849063a9059cbb60e01b906064015b60408051601f198184030181529190526020810180516001600160e01b03166001600160e01b031990931692909217909152611d4c565b6001600160a01b0382166000908152600d602052604081208054839290611b8f9084906128a6565b90915550505050565b6110848133611e1e565b611bac82826114cb565b610b0a5760008281526001602081815260408084206001600160a01b0386168086529252808420805460ff19169093179092559051339285917f2f8788117e7eff1d82e926ec794901d17c78024a50270940304540a733656f0d9190a45050565b611c1782826114cb565b15610b0a5760008281526001602090815260408083206001600160a01b0385168085529252808320805460ff1916905551339285917ff6391f5c32d9c69d2a47ea670b442974b53935d1edc7fd64eb21e047a839171b9190a45050565b611c7c611e82565b6000805460ff191690557f5db9ee0a495bf2e6ff9c91a7834c1ba4fdd244a5e8aa4e537bd38aeae4b073aa335b6040516001600160a01b03909116815260200160405180910390a1565b6001600160a01b0382166000908152600d602052604081208054839290611b8f908490612a30565b611cf6611ecb565b6000805460ff191660011790557f62e78cea01bee320cd4e420270b5ea74000d11b0c9f74754ebdbfc544b05a258611ca93390565b61083e846323b872dd60e01b858585604051602401611b309392919061277b565b6000611da1826040518060400160405280602081526020017f5361666545524332303a206c6f772d6c6576656c2063616c6c206661696c6564815250856001600160a01b0316611f119092919063ffffffff16565b805190915015610a8b5780806020019051810190611dbf9190612a43565b610a8b5760405162461bcd60e51b815260206004820152602a60248201527f5361666545524332303a204552433230206f7065726174696f6e20646964206e6044820152691bdd081cdd58d8d9595960b21b60648201526084016107e7565b611e2882826114cb565b610b0a57611e40816001600160a01b03166014611f2a565b611e4b836020611f2a565b604051602001611e5c929190612a89565b60408051601f198184030181529082905262461bcd60e51b82526107e791600401612afe565b60005460ff16610b3d5760405162461bcd60e51b815260206004820152601460248201527314185d5cd8589b194e881b9bdd081c185d5cd95960621b60448201526064016107e7565b60005460ff1615610b3d5760405162461bcd60e51b815260206004820152601060248201526f14185d5cd8589b194e881c185d5cd95960821b60448201526064016107e7565b6060611f2084846000856120c6565b90505b9392505050565b60606000611f3983600261286d565b611f44906002612a30565b67ffffffffffffffff811115611f5c57611f5c6124b0565b6040519080825280601f01601f191660200182016040528015611f86576020820181803683370190505b509050600360fc1b81600081518110611fa157611fa16127cb565b60200101906001600160f81b031916908160001a905350600f60fb1b81600181518110611fd057611fd06127cb565b60200101906001600160f81b031916908160001a9053506000611ff484600261286d565b611fff906001612a30565b90505b6001811115612077576f181899199a1a9b1b9c1cb0b131b232b360811b85600f1660108110612033576120336127cb565b1a60f81b828281518110612049576120496127cb565b60200101906001600160f81b031916908160001a90535060049490941c9361207081612b31565b9050612002565b508315611f235760405162461bcd60e51b815260206004820181905260248201527f537472696e67733a20686578206c656e67746820696e73756666696369656e7460448201526064016107e7565b6060824710156121275760405162461bcd60e51b815260206004820152602660248201527f416464726573733a20696e73756666696369656e742062616c616e636520666f6044820152651c8818d85b1b60d21b60648201526084016107e7565b6001600160a01b0385163b61217e5760405162461bcd60e51b815260206004820152601d60248201527f416464726573733a2063616c6c20746f206e6f6e2d636f6e747261637400000060448201526064016107e7565b600080866001600160a01b0316858760405161219a9190612b48565b60006040518083038185875af1925050503d80600081146121d7576040519150601f19603f3d011682016040523d82523d6000602084013e6121dc565b606091505b50915091506121ec8282866121f7565b979650505050505050565b60608315612206575081611f23565b8251156122165782518084602001fd5b8160405162461bcd60e51b81526004016107e79190612afe565b508054600082559060005260206000209081019061108491906122ab565b8280548282559060005260206000209081019282156122a3579160200282015b828111156122a357825182546001600160a01b0319166001600160a01b0390911617825560209092019160019091019061226e565b506114c79291505b5b808211156114c757600081556001016122ac565b6000602082840312156122d257600080fd5b81356001600160e01b031981168114611f2357600080fd5b6001600160a01b038116811461108457600080fd5b803561230a816122ea565b919050565b60008060006060848603121561232457600080fd5b833561232f816122ea565b9250602084013561233f816122ea565b929592945050506040919091013590565b60008060006060848603121561236557600080fd5b8335612370816122ea565b9250602084013591506040840135612387816122ea565b809150509250925092565b6000602082840312156123a457600080fd5b8135611f23816122ea565b6000602082840312156123c157600080fd5b5035919050565b60008083601f8401126123da57600080fd5b50813567ffffffffffffffff8111156123f257600080fd5b6020830191508360208260051b850101111561240d57600080fd5b9250929050565b6000806000806040858703121561242a57600080fd5b843567ffffffffffffffff8082111561244257600080fd5b61244e888389016123c8565b9096509450602087013591508082111561246757600080fd5b50612474878288016123c8565b95989497509550505050565b6000806040838503121561249357600080fd5b8235915060208301356124a5816122ea565b809150509250929050565b634e487b7160e01b600052604160045260246000fd5b604051601f8201601f1916810167ffffffffffffffff811182821017156124ef576124ef6124b0565b604052919050565b6000602080838503121561250a57600080fd5b823567ffffffffffffffff8082111561252257600080fd5b818501915085601f83011261253657600080fd5b813581811115612548576125486124b0565b8060051b91506125598483016124c6565b818152918301840191848101908884111561257357600080fd5b938501935b8385101561259d578435925061258d836122ea565b8282529385019390850190612578565b98975050505050505050565b600080600080608085870312156125bf57600080fd5b84356125ca816122ea565b935060208501356125da816122ea565b925060408501359150606085013567ffffffffffffffff811681146125fe57600080fd5b939692955090935050565b6000806040838503121561261c57600080fd5b8235612627816122ea565b946020939093013593505050565b60008060008060a0858703121561264b57600080fd5b85601f86011261265a57600080fd5b6040516040810181811067ffffffffffffffff8211171561267d5761267d6124b0565b806040525080604087018881111561269457600080fd5b875b818110156126b75780356126a9816122ea565b835260209283019201612696565b508296506126c4816122ff565b9699969850505050606085013594608001359392505050565b6020808252825182820181905260009190848201906040850190845b8181101561271e5783516001600160a01b0316835292840192918401916001016126f9565b50909695505050505050565b6020808252600c908201526b564d3a204e6f742067616d6560a01b604082015260600190565b6020808252601190820152702b269d103ab735b737bbb7103a37b5b2b760791b604082015260600190565b6001600160a01b039384168152919092166020820152604081019190915260600190565b602080825260129082015271564d3a204e6f7420676f7665726e616e636560701b604082015260600190565b634e487b7160e01b600052603260045260246000fd5b634e487b7160e01b600052601160045260246000fd5b600060018201612809576128096127e1565b5060010190565b60006020828403121561282257600080fd5b5051919050565b6020808252825482820181905260008481528281209092916040850190845b8181101561271e5783546001600160a01b031683526001938401939285019201612848565b80820281158282048414176107ad576107ad6127e1565b6000826128a157634e487b7160e01b600052601260045260246000fd5b500490565b818103818111156107ad576107ad6127e1565b60c08101818760005b60028110156128ea5781516001600160a01b03168352602092830192909101906001016128c2565b5050506001600160a01b039586166040830152606082019490945291909316608082015260a00191909152919050565b60006020828403121561292c57600080fd5b815160ff81168114611f2357600080fd5b600181815b8085111561297857816000190482111561295e5761295e6127e1565b8085161561296b57918102915b93841c9390800290612942565b509250929050565b60008261298f575060016107ad565b8161299c575060006107ad565b81600181146129b257600281146129bc576129d8565b60019150506107ad565b60ff8411156129cd576129cd6127e1565b50506001821b6107ad565b5060208310610133831016604e8410600b84101617156129fb575081810a6107ad565b612a05838361293d565b8060001904821115612a1957612a196127e1565b029392505050565b6000611f2360ff841683612980565b808201808211156107ad576107ad6127e1565b600060208284031215612a5557600080fd5b81518015158114611f2357600080fd5b60005b83811015612a80578181015183820152602001612a68565b50506000910152565b7f416363657373436f6e74726f6c3a206163636f756e7420000000000000000000815260008351612ac1816017850160208801612a65565b7001034b99036b4b9b9b4b733903937b6329607d1b6017918401918201528351612af2816028840160208801612a65565b01602801949350505050565b6020815260008251806020840152612b1d816040850160208701612a65565b601f01601f19169190910160400192915050565b600081612b4057612b406127e1565b506000190190565b60008251612b5a818460208701612a65565b919091019291505056fe68fc488efe30251cadb6ac88bdeef3f1a5e6048808baf387258d1d78e986720cd13d8e3c8822ff4d0a39994f3616e22d61c97585cee7a1baf4e9a875726b5f15a26469706673582212207686db7baa778582cea5b8d11864e9359aa40c9e156a1499e803dbdab1b4995764736f6c63430008110033","linkReferences":{}},"methodIdentifiers":{"BASIS_POINTS()":"e1f1c4a7","DEFAULT_ADMIN_ROLE()":"a217fddf","GAME_ROLE()":"ab400706","PRECISION()":"aaf5eb68","VAULT_ROLE()":"98c4f1ac","escrow(address,address,uint256)":"82b9be1a","feeCollector()":"c415b95c","getEscrowedTokens(address,uint256)":"dac516fe","getEscrowedValue()":"fe1e8375","getMaxWager()":"8ac40259","getMinWager(address)":"a8e39257","getPrice(address)":"41976e09","getRoleAdmin(bytes32)":"248a9ca3","getWhitelistedTokens()":"e26f7900","grantRole(bytes32,address)":"2f2ff15d","hasRole(bytes32,address)":"91d14854","maxWagerPercent()":"cc75d5af","minWagers(address)":"21aa67ac","mintVestedWINR(address,uint256,address)":"1e8edc28","pause()":"8456cb59","paused()":"5c975abb","payback(address,address,uint256)":"1d2adf0f","payin(address,uint256)":"6bd6864c","payout(address[2],address,uint256,uint256)":"a7448316","priceFeed()":"741bef1a","referralStorage()":"006cc35e","refund(address,uint256,address)":"4154aede","removeReferralReward(address,address,uint256,uint64)":"e3fc534c","renounceRole(bytes32,address)":"36568abe","revokeRole(bytes32,address)":"d547741f","setFeeCollector(address)":"a42dce80","setMaxWagerPercent(uint256)":"6bc9340c","setMinWagers(address[],uint256[])":"2661ab37","setPriceFeed(address)":"724e78da","setReferralReward(address,address,uint256,uint64)":"600b3136","setReferralStorage(address)":"ae4d7f9a","setTokenManager(address)":"7cb2b79c","setVault(address)":"6817031b","setWhitelistedGame(address)":"75fc0435","setWhitelistedTokens(address[])":"5988f9a5","setWlp(address)":"c038b114","supportsInterface(bytes4)":"01ffc9a7","tokenManager()":"2a709b14","totalEscrowTokens(address)":"7f40d41f","transferIn(address,address,uint256)":"e4652f49","transferOut(address,address,uint256)":"078d3b79","unpause()":"3f4ba83a","unsetWhitelistedGame(address)":"4e5870ed","vault()":"fbfa77cf","whitelistedGames(address)":"6cdd1d57","whitelistedTokenList(uint256)":"bddff749","whitelistedTokens(address)":"daf9c210","wlp()":"9a0bf14a"},"id":1}