{"abi":[{"type":"constructor","inputs":[{"name":"_router","type":"address","internalType":"contract IRandomizerRouter"}],"stateMutability":"nonpayable"},{"type":"function","name":"DEFAULT_ADMIN_ROLE","inputs":[],"outputs":[{"name":"","type":"bytes32","internalType":"bytes32"}],"stateMutability":"view"},{"type":"function","name":"PRECISION","inputs":[],"outputs":[{"name":"","type":"uint256","internalType":"uint256"}],"stateMutability":"view"},{"type":"function","name":"RANDOMIZER_ROLE","inputs":[],"outputs":[{"name":"","type":"bytes32","internalType":"bytes32"}],"stateMutability":"view"},{"type":"function","name":"TEAM_ROLE","inputs":[],"outputs":[{"name":"","type":"bytes32","internalType":"bytes32"}],"stateMutability":"view"},{"type":"function","name":"_computeDollarValue","inputs":[{"name":"_token","type":"address","internalType":"address"},{"name":"_wager","type":"uint256","internalType":"uint256"}],"outputs":[{"name":"_wagerInDollar","type":"uint256","internalType":"uint256"}],"stateMutability":"view"},{"type":"function","name":"bet","inputs":[{"name":"_wager","type":"uint256","internalType":"uint256"},{"name":"_count","type":"uint8","internalType":"uint8"},{"name":"_stopGain","type":"uint256","internalType":"uint256"},{"name":"_stopLoss","type":"uint256","internalType":"uint256"},{"name":"_gameData","type":"bytes","internalType":"bytes"},{"name":"_tokens","type":"address[2]","internalType":"address[2]"}],"outputs":[],"stateMutability":"nonpayable"},{"type":"function","name":"calcReward","inputs":[{"name":"_rows","type":"uint32","internalType":"uint32"},{"name":"_index","type":"uint32","internalType":"uint32"},{"name":"_wager","type":"uint256","internalType":"uint256"}],"outputs":[{"name":"reward_","type":"uint256","internalType":"uint256"}],"stateMutability":"view"},{"type":"function","name":"calcWager","inputs":[{"name":"_count","type":"uint256","internalType":"uint256"},{"name":"_usedCount","type":"uint256","internalType":"uint256"},{"name":"_wager","type":"uint256","internalType":"uint256"}],"outputs":[{"name":"usedWager_","type":"uint256","internalType":"uint256"},{"name":"unusedWager_","type":"uint256","internalType":"uint256"}],"stateMutability":"pure"},{"type":"function","name":"changeRandomizerRouter","inputs":[{"name":"_randomizerRouter","type":"address","internalType":"contract IRandomizerRouter"}],"outputs":[],"stateMutability":"nonpayable"},{"type":"function","name":"completedGames","inputs":[{"name":"","type":"uint256","internalType":"uint256"}],"outputs":[{"name":"","type":"bool","internalType":"bool"}],"stateMutability":"view"},{"type":"function","name":"decodeGameData","inputs":[{"name":"_gameData","type":"bytes","internalType":"bytes"}],"outputs":[{"name":"","type":"uint32","internalType":"uint32"}],"stateMutability":"pure"},{"type":"function","name":"encodeGameData","inputs":[{"name":"_rows","type":"uint32","internalType":"uint32"}],"outputs":[{"name":"","type":"bytes","internalType":"bytes"}],"stateMutability":"pure"},{"type":"function","name":"games","inputs":[{"name":"","type":"uint256","internalType":"uint256"}],"outputs":[{"name":"count","type":"uint8","internalType":"uint8"},{"name":"player","type":"address","internalType":"address"},{"name":"gameData","type":"bytes","internalType":"bytes"},{"name":"wager","type":"uint256","internalType":"uint256"},{"name":"startTime","type":"uint256","internalType":"uint256"}],"stateMutability":"view"},{"type":"function","name":"getHouseEdge","inputs":[{"name":"_game","type":"tuple","internalType":"struct CommonSolo.Game","components":[{"name":"count","type":"uint8","internalType":"uint8"},{"name":"player","type":"address","internalType":"address"},{"name":"gameData","type":"bytes","internalType":"bytes"},{"name":"wager","type":"uint256","internalType":"uint256"},{"name":"startTime","type":"uint256","internalType":"uint256"},{"name":"tokens","type":"address[2]","internalType":"address[2]"}]}],"outputs":[{"name":"edge_","type":"uint64","internalType":"uint64"}],"stateMutability":"view"},{"type":"function","name":"getMultiplier","inputs":[{"name":"_rows","type":"uint32","internalType":"uint32"},{"name":"_index","type":"uint32","internalType":"uint32"}],"outputs":[{"name":"multiplier_","type":"uint32","internalType":"uint32"}],"stateMutability":"view"},{"type":"function","name":"getMultipliers","inputs":[{"name":"_rows","type":"uint32","internalType":"uint32"}],"outputs":[{"name":"multipliers_","type":"uint32[]","internalType":"uint32[]"}],"stateMutability":"view"},{"type":"function","name":"getRoleAdmin","inputs":[{"name":"role","type":"bytes32","internalType":"bytes32"}],"outputs":[{"name":"","type":"bytes32","internalType":"bytes32"}],"stateMutability":"view"},{"type":"function","name":"grantRole","inputs":[{"name":"role","type":"bytes32","internalType":"bytes32"},{"name":"account","type":"address","internalType":"address"}],"outputs":[],"stateMutability":"nonpayable"},{"type":"function","name":"hasRole","inputs":[{"name":"role","type":"bytes32","internalType":"bytes32"},{"name":"account","type":"address","internalType":"address"}],"outputs":[{"name":"","type":"bool","internalType":"bool"}],"stateMutability":"view"},{"type":"function","name":"houseEdges","inputs":[{"name":"","type":"uint32","internalType":"uint32"}],"outputs":[{"name":"","type":"uint64","internalType":"uint64"}],"stateMutability":"view"},{"type":"function","name":"maxGameCount","inputs":[],"outputs":[{"name":"","type":"uint8","internalType":"uint8"}],"stateMutability":"view"},{"type":"function","name":"minConfirmations","inputs":[],"outputs":[{"name":"","type":"uint256","internalType":"uint256"}],"stateMutability":"view"},{"type":"function","name":"multipliers","inputs":[{"name":"","type":"uint32","internalType":"uint32"},{"name":"","type":"uint256","internalType":"uint256"}],"outputs":[{"name":"","type":"uint32","internalType":"uint32"}],"stateMutability":"view"},{"type":"function","name":"options","inputs":[{"name":"","type":"uint256","internalType":"uint256"}],"outputs":[{"name":"stopGain","type":"uint256","internalType":"uint256"},{"name":"stopLoss","type":"uint256","internalType":"uint256"}],"stateMutability":"view"},{"type":"function","name":"pause","inputs":[],"outputs":[],"stateMutability":"nonpayable"},{"type":"function","name":"paused","inputs":[],"outputs":[{"name":"","type":"bool","internalType":"bool"}],"stateMutability":"view"},{"type":"function","name":"play","inputs":[{"name":"_game","type":"tuple","internalType":"struct CommonSolo.Game","components":[{"name":"count","type":"uint8","internalType":"uint8"},{"name":"player","type":"address","internalType":"address"},{"name":"gameData","type":"bytes","internalType":"bytes"},{"name":"wager","type":"uint256","internalType":"uint256"},{"name":"startTime","type":"uint256","internalType":"uint256"},{"name":"tokens","type":"address[2]","internalType":"address[2]"}]},{"name":"_resultNumbers","type":"uint256[]","internalType":"uint256[]"},{"name":"_stopGain","type":"uint256","internalType":"uint256"},{"name":"_stopLoss","type":"uint256","internalType":"uint256"}],"outputs":[{"name":"payout_","type":"uint256","internalType":"uint256"},{"name":"playedGameCount_","type":"uint32","internalType":"uint32"},{"name":"payouts_","type":"uint256[]","internalType":"uint256[]"}],"stateMutability":"view"},{"type":"function","name":"randomizerCallback","inputs":[{"name":"_requestId","type":"uint256","internalType":"uint256"},{"name":"_rngList","type":"uint256[]","internalType":"uint256[]"}],"outputs":[],"stateMutability":"nonpayable"},{"type":"function","name":"randomizerRouter","inputs":[],"outputs":[{"name":"","type":"address","internalType":"contract IRandomizerRouter"}],"stateMutability":"view"},{"type":"function","name":"refundCooldown","inputs":[],"outputs":[{"name":"","type":"uint32","internalType":"uint32"}],"stateMutability":"view"},{"type":"function","name":"refundGame","inputs":[{"name":"_requestId","type":"uint256","internalType":"uint256"}],"outputs":[],"stateMutability":"nonpayable"},{"type":"function","name":"renounceRole","inputs":[{"name":"role","type":"bytes32","internalType":"bytes32"},{"name":"account","type":"address","internalType":"address"}],"outputs":[],"stateMutability":"nonpayable"},{"type":"function","name":"revokeRole","inputs":[{"name":"role","type":"bytes32","internalType":"bytes32"},{"name":"account","type":"address","internalType":"address"}],"outputs":[],"stateMutability":"nonpayable"},{"type":"function","name":"rowLimits","inputs":[],"outputs":[{"name":"min","type":"uint32","internalType":"uint32"},{"name":"max","type":"uint32","internalType":"uint32"}],"stateMutability":"view"},{"type":"function","name":"setMinConfirmations","inputs":[{"name":"_minConfirmations","type":"uint16","internalType":"uint16"}],"outputs":[],"stateMutability":"nonpayable"},{"type":"function","name":"setVaultManager","inputs":[{"name":"_vaultManager","type":"address","internalType":"contract IVaultManager"}],"outputs":[],"stateMutability":"nonpayable"},{"type":"function","name":"shouldStop","inputs":[{"name":"_total","type":"uint256","internalType":"uint256"},{"name":"_wager","type":"uint256","internalType":"uint256"},{"name":"_stopGain","type":"uint256","internalType":"uint256"},{"name":"_stopLoss","type":"uint256","internalType":"uint256"}],"outputs":[{"name":"stop_","type":"bool","internalType":"bool"}],"stateMutability":"pure"},{"type":"function","name":"supportsInterface","inputs":[{"name":"interfaceId","type":"bytes4","internalType":"bytes4"}],"outputs":[{"name":"","type":"bool","internalType":"bool"}],"stateMutability":"view"},{"type":"function","name":"unpause","inputs":[],"outputs":[],"stateMutability":"nonpayable"},{"type":"function","name":"updateMaxGameCount","inputs":[{"name":"_maxGameCount","type":"uint8","internalType":"uint8"}],"outputs":[],"stateMutability":"nonpayable"},{"type":"function","name":"updateMultipliers","inputs":[{"name":"_index","type":"uint32","internalType":"uint32"},{"name":"_multipliers","type":"uint32[]","internalType":"uint32[]"},{"name":"_houseEdge","type":"uint64","internalType":"uint64"}],"outputs":[],"stateMutability":"nonpayable"},{"type":"function","name":"updateRefundCooldown","inputs":[{"name":"_refundCooldown","type":"uint32","internalType":"uint32"}],"outputs":[],"stateMutability":"nonpayable"},{"type":"function","name":"updateRowLimits","inputs":[{"name":"_min","type":"uint32","internalType":"uint32"},{"name":"_max","type":"uint32","internalType":"uint32"}],"outputs":[],"stateMutability":"nonpayable"},{"type":"function","name":"vaultManager","inputs":[],"outputs":[{"name":"","type":"address","internalType":"contract IVaultManager"}],"stateMutability":"view"},{"type":"event","name":"Created","inputs":[{"name":"player","type":"address","indexed":true,"internalType":"address"},{"name":"requestId","type":"uint256","indexed":false,"internalType":"uint256"},{"name":"wager","type":"uint256","indexed":false,"internalType":"uint256"},{"name":"tokens","type":"address[2]","indexed":false,"internalType":"address[2]"}],"anonymous":false},{"type":"event","name":"Paused","inputs":[{"name":"account","type":"address","indexed":false,"internalType":"address"}],"anonymous":false},{"type":"event","name":"RoleAdminChanged","inputs":[{"name":"role","type":"bytes32","indexed":true,"internalType":"bytes32"},{"name":"previousAdminRole","type":"bytes32","indexed":true,"internalType":"bytes32"},{"name":"newAdminRole","type":"bytes32","indexed":true,"internalType":"bytes32"}],"anonymous":false},{"type":"event","name":"RoleGranted","inputs":[{"name":"role","type":"bytes32","indexed":true,"internalType":"bytes32"},{"name":"account","type":"address","indexed":true,"internalType":"address"},{"name":"sender","type":"address","indexed":true,"internalType":"address"}],"anonymous":false},{"type":"event","name":"RoleRevoked","inputs":[{"name":"role","type":"bytes32","indexed":true,"internalType":"bytes32"},{"name":"account","type":"address","indexed":true,"internalType":"address"},{"name":"sender","type":"address","indexed":true,"internalType":"address"}],"anonymous":false},{"type":"event","name":"Settled","inputs":[{"name":"player","type":"address","indexed":true,"internalType":"address"},{"name":"requestId","type":"uint256","indexed":false,"internalType":"uint256"},{"name":"wager","type":"uint256","indexed":false,"internalType":"uint256"},{"name":"won","type":"bool","indexed":false,"internalType":"bool"},{"name":"payout","type":"uint256","indexed":false,"internalType":"uint256"},{"name":"playedGameCount","type":"uint32","indexed":false,"internalType":"uint32"},{"name":"numbers","type":"uint256[]","indexed":false,"internalType":"uint256[]"},{"name":"payouts","type":"uint256[]","indexed":false,"internalType":"uint256[]"}],"anonymous":false},{"type":"event","name":"Unpaused","inputs":[{"name":"account","type":"address","indexed":false,"internalType":"address"}],"anonymous":false},{"type":"event","name":"VaultManagerChange","inputs":[{"name":"vaultManager","type":"address","indexed":false,"internalType":"address"}],"anonymous":false}],"bytecode":{"object":"0x600380556005805464ffffffffff60a01b19166207081960a21b17905560c06040526006608052600c60a052600a80546001600160401b031916640c000000061790553480156200004f57600080fd5b50604051620042b9380380620042b9833981016040819052620000729162000a65565b6000805460ff191681558190819081906200008e9033620005ce565b60016002556200009e81620005de565b50506040805160e0810182526103e880825260646020808401829052604694840185905260286060850152608084019490945260a083015260c08201526006600052600b9091526200011591507f0387e9d1203691d8e3362a7e4c6723de358a4010d7f31ecbec3fbfc61d1c75fc9060076200099a565b5060408051610100810182526105dc80825260fa60208084018290526046948401859052602860608501819052608085015260a084019490945260c083015260e08201526007600052600b90915262000192907ff5559028dc9ba50d75343c779b2f75e13a84a14662932fc67a486f263ca31a969060086200099a565b5060408051610120810182526108028082526101906020808401829052605a948401859052603c606085018190526028608086015260a085015260c084019490945260e08301526101008201526008600052600b90915262000218907f71f482bdabd1ea844d62c952b094e632959690d7448ca2aab34034ec985693589060096200099a565b5060408051610140810182526111948082526103206020808401829052605a948401859052603c6060850181905260286080860181905260a086015260c085015260e08401949094526101008301526101208201526009600052600b909152620002a6907fe12d5ff10640a555479d85b7ab5f83b5dbd3cf6ac615eec77e24e0984b75a03890600a6200099a565b50604080516101608101825261125c808252610320602080840182905260c8948401859052605a60608501819052603c60808601819052602860a087015260c086015260e0850152610100840194909452610120830152610140820152600a600052600b918290526200033c917fc47c2f4ab42fe2617dd76ca1eb9781d09fced5e5671df71824e2f8a8f694e02491906200099a565b5060408051610180810182526119648082526106a46020808401829052610190948401859052605a60608501819052603c60808601819052602860a0870181905260c087015260e0860152610100850152610120840194909452610140830152610160820152600b6000819052909152620003db907fe8056e2ed8943b7f61a5f0dc88c79a5a6cec2bb36a7bd11ce130f2961c6320b990600c6200099a565b50604080516101a081018252611b58808252610640602080840182905261012c94840185905260c860608501819052605a60808601819052603c60a08701819052602860c088015260e0870152610100860152610120850152610140840194909452610160830152610180820152600c600052600b90915262000482907f765e72d9703c9804ad76c7d0af52f5313041ea56bb31a328e17fea205151b5ea90600d6200099a565b5050600c60208190527f980f427e00e74f6d338adfccc7468518c8c8ea00836d0dce98c5fe154e17bf2b80546001600160401b03199081166101d4179091557fdae089abd7155aa13ce498edb0d7a7156b783d015031f10c9a3d4f5fcb518971805482166101b51790557f5ff1be3842b54290a9d10674244dae5848d2371b5314790c54805c086586e1df8054821660d31790557f2fb3c9afecd3f0d43923381d3e9f60168c039b98f0b7120382e81b682b7bc3168054821660e21790557f9e6c92d7be355807bd948171438a5e65aaf9e4c36f1405c1b9ca25d27c4ea3a08054821660ce1790557f6a9911425952520efa6de3784a0ac63c35d3c5bb392028ea0beb0dc41a1919578054821660ca9081179091556000929092527f37877ab6ac9e279d19a4db3294b259b5a4163c0ed597627ae79e33d80cde4db88054909116909117905562000bf0565b620005da828262000687565b5050565b620005eb600033620006f5565b6200063d5760405162461bcd60e51b815260206004820152601360248201527f4143433a204e6f7420676f7665726e616e63650000000000000000000000000060448201526064015b60405180910390fd5b600480546001600160a01b0319166001600160a01b038316179055620006847f2f660b522cd66c3fe8eabbd9815ae97246faa2cf642722f997fcefd13b6a67b68262000722565b50565b620006938282620006f5565b620005da5760008281526001602081815260408084206001600160a01b0386168086529252808420805460ff19169093179092559051339285917f2f8788117e7eff1d82e926ec794901d17c78024a50270940304540a733656f0d9190a45050565b60008281526001602090815260408083206001600160a01b038516845290915290205460ff165b92915050565b60008281526001602081905260409091200154620007408162000751565b6200074c838362000687565b505050565b620006848133620007638282620006f5565b620005da5762000789816001600160a01b03166014620007da60201b620016c21760201c565b6200079f836020620016c2620007da821b17811c565b604051602001620007b292919062000ab6565b60408051601f198184030181529082905262461bcd60e51b8252620006349160040162000b2f565b60606000620007eb83600262000b7a565b620007f890600262000b94565b6001600160401b0381111562000812576200081262000baa565b6040519080825280601f01601f1916602001820160405280156200083d576020820181803683370190505b509050600360fc1b816000815181106200085b576200085b62000bc0565b60200101906001600160f81b031916908160001a905350600f60fb1b816001815181106200088d576200088d62000bc0565b60200101906001600160f81b031916908160001a9053506000620008b384600262000b7a565b620008c090600162000b94565b90505b600181111562000942576f181899199a1a9b1b9c1cb0b131b232b360811b85600f1660108110620008f857620008f862000bc0565b1a60f81b82828151811062000911576200091162000bc0565b60200101906001600160f81b031916908160001a90535060049490941c936200093a8162000bd6565b9050620008c3565b508315620009935760405162461bcd60e51b815260206004820181905260248201527f537472696e67733a20686578206c656e67746820696e73756666696369656e74604482015260640162000634565b9392505050565b8280548282559060005260206000209060070160089004810192821562000a3c5791602002820160005b8382111562000a0857835183826101000a81548163ffffffff021916908361ffff1602179055509260200192600401602081600301049283019260010302620009c4565b801562000a3a5782816101000a81549063ffffffff021916905560040160208160030104928301926001030262000a08565b505b5062000a4a92915062000a4e565b5090565b5b8082111562000a4a576000815560010162000a4f565b60006020828403121562000a7857600080fd5b81516001600160a01b03811681146200099357600080fd5b60005b8381101562000aad57818101518382015260200162000a93565b50506000910152565b7f416363657373436f6e74726f6c3a206163636f756e742000000000000000000081526000835162000af081601785016020880162000a90565b7001034b99036b4b9b9b4b733903937b6329607d1b601791840191820152835162000b2381602884016020880162000a90565b01602801949350505050565b602081526000825180602084015262000b5081604085016020870162000a90565b601f01601f19169190910160400192915050565b634e487b7160e01b600052601160045260246000fd5b80820281158282048414176200071c576200071c62000b64565b808201808211156200071c576200071c62000b64565b634e487b7160e01b600052604160045260246000fd5b634e487b7160e01b600052603260045260246000fd5b60008162000be85762000be862000b64565b506000190190565b6136b98062000c006000396000f3fe608060405234801561001057600080fd5b50600436106102745760003560e01c80638a4adf2411610151578063c8061216116100c3578063e5199bb811610087578063e5199bb81461068c578063e7c4393e1461069f578063e9f9b2d7146106a8578063ebf71b41146106ce578063ee037772146106e1578063f7137e771461070157600080fd5b8063c8061216146105fb578063d13b95ad1461060e578063d1adfff414610653578063d547741f14610666578063d7260cba1461067957600080fd5b8063a217fddf11610115578063a217fddf14610584578063aaf5eb681461058c578063b543503e1461059b578063bb4149e0146105ae578063bda9a844146105c1578063bf193005146105d457600080fd5b80638a4adf24146105255780638f130d50146105385780639104a03d1461054b57806391d148541461055e5780639e2785b01461057157600080fd5b80633b49b7ed116101ea5780634b95a52e116101ae5780634b95a52e1461049e5780634d30372d146104c95780635c975abb146104ec57806373a4302d146104f75780637f1ad2041461050a5780638456cb591461051d57600080fd5b80633b49b7ed146104225780633f4ba83a14610435578063409e22051461043d578063427dc9131461046457806349d5e6041461047757600080fd5b8063248a9ca31161023c578063248a9ca31461034e5780632d3e8c93146103805780632f2ff15d14610397578063311d3c83146103ac57806336568abe146103ed57806337107fc71461040057600080fd5b806301ffc9a71461027957806310088fbc146102a1578063117a5b90146102c95780631bad7512146102ed5780631e59e61914610326575b600080fd5b61028c610287366004612807565b610714565b60405190151581526020015b60405180910390f35b6102b46102af366004612831565b61074b565b60408051928352602083019190915201610298565b6102dc6102d736600461285d565b610779565b6040516102989594939291906128c6565b600a546103099063ffffffff8082169164010000000090041682565b6040805163ffffffff938416815292909116602083015201610298565b610339610334366004612919565b61083e565b60405163ffffffff9091168152602001610298565b61037261035c36600461285d565b6000908152600160208190526040909120015490565b604051908152602001610298565b60055461033990600160a81b900463ffffffff1681565b6103aa6103a536600461295a565b610887565b005b6103d56103ba36600461298a565b600c602052600090815260409020546001600160401b031681565b6040516001600160401b039091168152602001610298565b6103aa6103fb36600461295a565b6108b2565b61041361040e366004612bbb565b610935565b60405161029893929190612cc3565b61028c610430366004612cf1565b610afc565b6103aa610b50565b6102b461044b36600461285d565b6007602052600090815260409020805460019091015482565b6103aa610472366004612d23565b610bc1565b6103727f9b82d2f38fbdf13006bfa741767f793d917e063392737837b580c1c2b1e0bab381565b6004546104b1906001600160a01b031681565b6040516001600160a01b039091168152602001610298565b61028c6104d736600461285d565b60086020526000908152604090205460ff1681565b60005460ff1661028c565b610339610505366004612d40565b610bed565b6103d5610518366004612d6e565b610c53565b6103aa610c88565b6005546104b1906001600160a01b031681565b6103aa610546366004612da2565b610cf7565b6103aa610559366004612dbf565b610d66565b61028c61056c36600461295a565b610d96565b61037261057f366004612de3565b610dc1565b610372600081565b610372670de0b6b3a764000081565b6103aa6105a9366004612da2565b610de9565b6103aa6105bc366004612e24565b610e64565b6103396105cf366004612ea0565b610ef8565b6103727f2f660b522cd66c3fe8eabbd9815ae97246faa2cf642722f997fcefd13b6a67b681565b6103aa610609366004612d40565b610f0e565b61064661061c36600461298a565b6040805163ffffffff83166020820152606091016040516020818303038152906040529050919050565b6040516102989190612ed4565b6103aa61066136600461298a565b611004565b6103aa61067436600461295a565b611036565b6103aa61068736600461285d565b61105c565b6103aa61069a366004612ee7565b6113d8565b61037260035481565b6005546106bc90600160a01b900460ff1681565b60405160ff9091168152602001610298565b6103aa6106dc366004612f81565b61144e565b6106f46106ef36600461298a565b611535565b604051610298919061303f565b61037261070f366004613089565b6115ca565b60006001600160e01b03198216637965db0b60e01b148061074557506301ffc9a760e01b6001600160e01b03198316145b92915050565b60008061075883856130bd565b91508161076584876130bd565b61076f91906130d4565b9050935093915050565b6006602052600090815260409020805460018201805460ff8316936101009093046001600160a01b03169291906107af906130e7565b80601f01602080910402602001604051908101604052809291908181526020018280546107db906130e7565b80156108285780601f106107fd57610100808354040283529160200191610828565b820191906000526020600020905b81548152906001019060200180831161080b57829003601f168201915b5050505050908060020154908060030154905085565b600b602052816000526040600020818154811061085a57600080fd5b9060005260206000209060089182820401919006600402915091509054906101000a900463ffffffff1681565b600082815260016020819052604090912001546108a38161185d565b6108ad8383611867565b505050565b6001600160a01b03811633146109275760405162461bcd60e51b815260206004820152602f60248201527f416363657373436f6e74726f6c3a2063616e206f6e6c792072656e6f756e636560448201526e103937b632b9903337b91039b2b63360891b60648201526084015b60405180910390fd5b61093182826118d2565b5050565b6000806060866000015160ff166001600160401b03811115610959576109596129a7565b604051908082528060200260200182016040528015610982578160200160208202803683370190505b509050866000015160ff169150600061099e8860400151610ef8565b9050806000805b89518163ffffffff161015610aee57898163ffffffff16815181106109cc576109cc613121565b60200260200101516000036109ed57826109e581613137565b9350506109fb565b826109f781613157565b9350505b83610a0782600161317a565b610a1191906131b4565b63ffffffff16600003610adc57610a2884826131d7565b9150610a4384610a396002866131d7565b8d60600151610dc1565b858363ffffffff1681518110610a5b57610a5b613121565b602002602001018181525050848263ffffffff1681518110610a7f57610a7f613121565b602002602001015187610a9291906131fa565b9650610ac1878c60600151846001610aaa919061317a565b63ffffffff16610aba91906130bd565b8b8b610afc565b15610ad857610ad182600161317a565b9550610aee565b8392505b80610ae681613157565b9150506109a5565b505050509450945094915050565b60008215801590610b0c57508385115b15610b255782610b1c85876130d4565b10159050610b48565b8115801590610b3357508484115b15610b485781610b4386866130d4565b101590505b949350505050565b610b7a7f9b82d2f38fbdf13006bfa741767f793d917e063392737837b580c1c2b1e0bab333610d96565b610bb75760405162461bcd60e51b815260206004820152600e60248201526d47414d453a204e6f74207465616d60901b604482015260640161091e565b610bbf611939565b565b6000610bcc8161185d565b506005805460ff909216600160a01b0260ff60a01b19909216919091179055565b6000600b60008463ffffffff1663ffffffff1681526020019081526020016000208263ffffffff1681548110610c2557610c25613121565b90600052602060002090600891828204019190066004029054906101000a900463ffffffff16905092915050565b600080610c638360400151610ef8565b63ffffffff166000908152600c60205260409020546001600160401b03169392505050565b610cb27f9b82d2f38fbdf13006bfa741767f793d917e063392737837b580c1c2b1e0bab333610d96565b610cef5760405162461bcd60e51b815260206004820152600e60248201526d47414d453a204e6f74207465616d60901b604482015260640161091e565b610bbf61198b565b610d02600033610d96565b610d1e5760405162461bcd60e51b815260040161091e9061320d565b600480546001600160a01b0319166001600160a01b038316179055610d637f2f660b522cd66c3fe8eabbd9815ae97246faa2cf642722f997fcefd13b6a67b682610887565b50565b610d71600033610d96565b610d8d5760405162461bcd60e51b815260040161091e9061320d565b61ffff16600355565b60009182526001602090815260408084206001600160a01b0393909316845291905290205460ff1690565b60006064610dcf8585610bed565b610ddf9063ffffffff16846130bd565b610b48919061323a565b610df4600033610d96565b610e105760405162461bcd60e51b815260040161091e9061320d565b600580546001600160a01b0319166001600160a01b0383169081179091556040519081527fa908db00c4502bbe936c6ac99cb6d67f0636790d9b238cfddab0139153f5eb749060200160405180910390a150565b816000610e7082610ef8565b600a5490915063ffffffff90811690821610801590610ea35750600a5463ffffffff640100000000909104811690821611155b610ee05760405162461bcd60e51b815260206004820152600e60248201526d526f7773206f75742d72616e676560901b604482015260640161091e565b610eee8888888888886119c8565b5050505050505050565b600081806020019051810190610745919061324e565b610f19600033610d96565b610f355760405162461bcd60e51b815260040161091e9061320d565b815b8163ffffffff168163ffffffff161015610fbf5763ffffffff81166000908152600b60205260408120549003610faf5760405162461bcd60e51b815260206004820152601960248201527f6d756c7469706c6965727320646f65736e277420657869737400000000000000604482015260640161091e565b610fb881613157565b9050610f37565b506040805180820190915263ffffffff928316808252919092166020909201829052600a805467ffffffffffffffff1916909117640100000000909202919091179055565b600061100f8161185d565b506005805463ffffffff909216600160a81b0263ffffffff60a81b19909216919091179055565b600082815260016020819052604090912001546110528161185d565b6108ad83836118d2565b600280540361107d5760405162461bcd60e51b815260040161091e9061326b565b60028055600081815260086020526040902054819060ff16156110d65760405162461bcd60e51b815260206004820152601160248201527011d85b59481a5cc818dbdb5c1b195d1959607a1b604482015260640161091e565b6000818152600860209081526040808320805460ff1916600190811790915585845260068352818420825160c081018452815460ff811682526001600160a01b03610100909104169481019490945290810180549192840191611138906130e7565b80601f0160208091040260200160405190810160405280929190818152602001828054611164906130e7565b80156111b15780601f10611186576101008083540402835291602001916111b1565b820191906000526020600020905b81548152906001019060200180831161119457829003601f168201915b50505050508152602001600282015481526020016003820154815260200160048201600280602002604051908101604052809291908260028015611214576020028201915b81546001600160a01b031681526001909101906020018083116111f6575b50505050508152505090506112263390565b6001600160a01b031681602001516001600160a01b0316146112785760405162461bcd60e51b815260206004820152600b60248201526a27b7363c90383630bcb2b960a91b604482015260640161091e565b6005546080820151429161129a91600160a81b90910463ffffffff16906131fa565b106112e75760405162461bcd60e51b815260206004820152601a60248201527f47616d65206973206e6f7420726566756e6461626c6520796574000000000000604482015260640161091e565b600083815260066020526040812080546001600160a81b03191681559061131160018301826126c1565b5060006002820181905560038201819055600482018190556005918201555460a082015151825160608401516001600160a01b0390931692634154aede929161135f9160ff909116906130bd565b60208501516040516001600160e01b031960e086901b1681526001600160a01b0393841660048201526024810192909252919091166044820152606401600060405180830381600087803b1580156113b657600080fd5b505af11580156113ca573d6000803e3d6000fd5b505060016002555050505050565b6114027f2f660b522cd66c3fe8eabbd9815ae97246faa2cf642722f997fcefd13b6a67b633610d96565b6114435760405162461bcd60e51b815260206004820152601260248201527129219d102737ba103930b73237b6b4bd32b960711b604482015260640161091e565b6108ad838383611e26565b611459600033610d96565b6114755760405162461bcd60e51b815260040161091e9061320d565b61148083600161317a565b63ffffffff168251146114d55760405162461bcd60e51b815260206004820181905260248201527f696e73756666696369656e74205f6d756c7469706c69657273206c656e677468604482015260640161091e565b63ffffffff83166000908152600b6020908152604090912083516114fb928501906126fb565b5063ffffffff929092166000908152600c60205260409020805467ffffffffffffffff19166001600160401b039093169290921790915550565b63ffffffff81166000908152600b60209081526040918290208054835181840281018401909452808452606093928301828280156115be57602002820191906000526020600020906000905b82829054906101000a900463ffffffff1663ffffffff16815260200190600401906020826003010492830192600103820291508084116115815790505b50505050509050919050565b6000826001600160a01b031663313ce5676040518163ffffffff1660e01b8152600401602060405180830381865afa15801561160a573d6000803e3d6000fd5b505050506040513d601f19601f8201168201806040525081019061162e91906132a2565b61163990600a6133a3565b6005546040516341976e0960e01b81526001600160a01b038681166004830152909116906341976e0990602401602060405180830381865afa158015611683573d6000803e3d6000fd5b505050506040513d601f19601f820116820180604052508101906116a791906133b2565b6116b190846130bd565b6116bb919061323a565b9392505050565b606060006116d18360026130bd565b6116dc9060026131fa565b6001600160401b038111156116f3576116f36129a7565b6040519080825280601f01601f19166020018201604052801561171d576020820181803683370190505b509050600360fc1b8160008151811061173857611738613121565b60200101906001600160f81b031916908160001a905350600f60fb1b8160018151811061176757611767613121565b60200101906001600160f81b031916908160001a905350600061178b8460026130bd565b6117969060016131fa565b90505b600181111561180e576f181899199a1a9b1b9c1cb0b131b232b360811b85600f16601081106117ca576117ca613121565b1a60f81b8282815181106117e0576117e0613121565b60200101906001600160f81b031916908160001a90535060049490941c93611807816133cb565b9050611799565b5083156116bb5760405162461bcd60e51b815260206004820181905260248201527f537472696e67733a20686578206c656e67746820696e73756666696369656e74604482015260640161091e565b610d63813361217c565b6118718282610d96565b6109315760008281526001602081815260408084206001600160a01b0386168086529252808420805460ff19169093179092559051339285917f2f8788117e7eff1d82e926ec794901d17c78024a50270940304540a733656f0d9190a45050565b6118dc8282610d96565b156109315760008281526001602090815260408083206001600160a01b0385168085529252808320805460ff1916905551339285917ff6391f5c32d9c69d2a47ea670b442974b53935d1edc7fd64eb21e047a839171b9190a45050565b6119416121e0565b6000805460ff191690557f5db9ee0a495bf2e6ff9c91a7834c1ba4fdd244a5e8aa4e537bd38aeae4b073aa335b6040516001600160a01b03909116815260200160405180910390a1565b611993612229565b6000805460ff191660011790557f62e78cea01bee320cd4e420270b5ea74000d11b0c9f74754ebdbfc544b05a25861196e3390565b8460ff1660008111611a135760405162461bcd60e51b815260206004820152601460248201527347616d6520636f756e74206f75742d72616e676560601b604482015260640161091e565b600554600160a01b900460ff16811115611a665760405162461bcd60e51b815260206004820152601460248201527347616d6520636f756e74206f75742d72616e676560601b604482015260640161091e565b8151876000611a7583836115ca565b60055460405163a8e3925760e01b81523060048201529192506001600160a01b03169063a8e3925790602401602060405180830381865afa158015611abe573d6000803e3d6000fd5b505050506040513d601f19601f82011682018060405250810190611ae291906133b2565b811015611b275760405162461bcd60e51b815260206004820152601360248201527247414d453a20576167657220746f6f206c6f7760681b604482015260640161091e565b600560009054906101000a90046001600160a01b03166001600160a01b0316638ac402596040518163ffffffff1660e01b8152600401602060405180830381865afa158015611b7a573d6000803e3d6000fd5b505050506040513d601f19601f82011682018060405250810190611b9e91906133b2565b811115611be45760405162461bcd60e51b815260206004820152601460248201527308e829a8a7440aec2cecae440e8dede40d0d2ced60631b604482015260640161091e565b611bec612229565b6002805403611c0d5760405162461bcd60e51b815260040161091e9061326b565b60028055336000611c1d8b61226f565b6005549091506001600160a01b03166382b9be1a8860006020020151848f8f60ff16611c4991906130bd565b6040516001600160e01b031960e086901b1681526001600160a01b0393841660048201529290911660248301526044820152606401600060405180830381600087803b158015611c9857600080fd5b505af1158015611cac573d6000803e3d6000fd5b505050506040518060c001604052808c60ff168152602001836001600160a01b031681526020018981526020018d8152602001428152602001888152506006600083815260200190815260200160002060008201518160000160006101000a81548160ff021916908360ff16021790555060208201518160000160016101000a8154816001600160a01b0302191690836001600160a01b031602179055506040820151816001019081611d5f9190613430565b50606082015181600201556080820151816003015560a082015181600401906002611d8b9291906127aa565b50505089151580611d9b57508815155b15611dce576040805180820182528b815260208082018c8152600085815260079092529290209051815590516001909101555b816001600160a01b03167f4eb2df9ddc67bd535fefe0a4420b0439b48f28eaf990ef434f94694d52e8b943828e8a604051611e0b93929190613521565b60405180910390a25050600160025550505050505050505050565b600083815260066020526040902054839061010090046001600160a01b0316611e875760405162461bcd60e51b815260206004820152601360248201527211d85b59481a5cc81b9bdd0818dc99585d1959606a1b604482015260640161091e565b600084815260086020526040902054849060ff1615611edc5760405162461bcd60e51b815260206004820152601160248201527011d85b59481a5cc818dbdb5c1b195d1959607a1b604482015260640161091e565b6000818152600860205260409020805460ff1916600117905560025460011901611f185760405162461bcd60e51b815260040161091e9061326b565b600280556000858152600660209081526040808320815160c081018352815460ff8116825261010090046001600160a01b0316938101939093526001810180549192840191611f66906130e7565b80601f0160208091040260200160405190810160405280929190818152602001828054611f92906130e7565b8015611fdf5780601f10611fb457610100808354040283529160200191611fdf565b820191906000526020600020905b815481529060010190602001808311611fc257829003601f168201915b50505050508152602001600282015481526020016003820154815260200160048201600280602002604051908101604052809291908260028015612042576020028201915b81546001600160a01b03168152600190910190602001808311612024575b50505091909252505050600087815260076020908152604080832081518083019092528054825260010154918101919091529192506120828388886122ee565b9050600080600061209d868587600001518860200151610935565b92509250925085602001516001600160a01b03167fa0c6d43553c751eac6408fb8830cce1d25ac333ad47e35f29671b726e8e911648c88606001516120e98a8763ffffffff1689612415565b87878a88604051612100979695949392919061353c565b60405180910390a260008b815260066020526040812080546001600160a81b03191681559061213260018301826126c1565b600060028301819055600383018190556004830181905560058301555050506000998a52505060076020525050604086208681556001908101969096555050506002929092555050565b6121868282610d96565b6109315761219e816001600160a01b031660146116c2565b6121a98360206116c2565b6040516020016121ba929190613595565b60408051601f198184030181529082905262461bcd60e51b825261091e91600401612ed4565b60005460ff16610bbf5760405162461bcd60e51b815260206004820152601460248201527314185d5cd8589b194e881b9bdd081c185d5cd95960621b604482015260640161091e565b60005460ff1615610bbf5760405162461bcd60e51b815260206004820152601060248201526f14185d5cd8589b194e881c185d5cd95960821b604482015260640161091e565b600480546003546040516336f71c3f60e01b815260ff85169381019390935260248301526000916001600160a01b03909116906336f71c3f906044016020604051808303816000875af11580156122ca573d6000803e3d6000fd5b505050506040513d601f19601f8201168201806040525081019061074591906133b2565b606060006122ff8560400151610ef8565b855190915061231290829060ff1661360a565b63ffffffff166001600160401b0381111561232f5761232f6129a7565b604051908082528060200260200182016040528015612358578160200160208202803683370190505b50915060008060005b60ff811686111561240a5786868260ff1681811061238157612381613121565b905060200201359250838160ff16612399919061360a565b915060005b8463ffffffff168160ff1610156123f9578060ff166001901b8416868463ffffffff16815181106123d1576123d1613121565b60209081029190910101526123e760018461317a565b92506123f281613632565b905061239e565b5061240381613632565b9050612361565b505050509392505050565b6000806000612430866000015160ff1686886060015161074b565b60055460a08901515160208a01519395509193506001600160a01b03169163600b313691908561245f8b610c53565b6040516001600160e01b031960e087901b1681526001600160a01b03948516600482015293909216602484015260448301526001600160401b03166064820152608401600060405180830381600087803b1580156124bc57600080fd5b505af11580156124d0573d6000803e3d6000fd5b505060055460a08901515160208a01516040516303d1db8560e31b81526001600160a01b03928316600482015260248101889052908216604482015291169250631e8edc289150606401600060405180830381600087803b15801561253457600080fd5b505af1158015612548573d6000803e3d6000fd5b50505050806000146125cd5760055460a0870151516020880151604051631d2adf0f60e01b81526001600160a01b039283166004820152908216602482015260448101849052911690631d2adf0f90606401600060405180830381600087803b1580156125b457600080fd5b505af11580156125c8573d6000803e3d6000fd5b505050505b836000036126455760055460a087015151604051631af5a19360e21b81526001600160a01b03918216600482015260248101859052911690636bd6864c90604401600060405180830381600087803b15801561262857600080fd5b505af115801561263c573d6000803e3d6000fd5b505050506126b6565b60055460a087015160208801516040516353a2418b60e11b81526001600160a01b039093169263a74483169261268392909187908a90600401613651565b600060405180830381600087803b15801561269d57600080fd5b505af11580156126b1573d6000803e3d6000fd5b505050505b509091119392505050565b5080546126cd906130e7565b6000825580601f106126dd575050565b601f016020900490600052602060002090810190610d6391906127f2565b8280548282559060005260206000209060070160089004810192821561279a5791602002820160005b8382111561276857835183826101000a81548163ffffffff021916908363ffffffff1602179055509260200192600401602081600301049283019260010302612724565b80156127985782816101000a81549063ffffffff0219169055600401602081600301049283019260010302612768565b505b506127a69291506127f2565b5090565b826002810192821561279a579160200282015b8281111561279a57825182546001600160a01b0319166001600160a01b039091161782556020909201916001909101906127bd565b5b808211156127a657600081556001016127f3565b60006020828403121561281957600080fd5b81356001600160e01b0319811681146116bb57600080fd5b60008060006060848603121561284657600080fd5b505081359360208301359350604090920135919050565b60006020828403121561286f57600080fd5b5035919050565b60005b83811015612891578181015183820152602001612879565b50506000910152565b600081518084526128b2816020860160208601612876565b601f01601f19169290920160200192915050565b60ff861681526001600160a01b038516602082015260a0604082018190526000906128f39083018661289a565b606083019490945250608001529392505050565b63ffffffff81168114610d6357600080fd5b6000806040838503121561292c57600080fd5b823561293781612907565b946020939093013593505050565b6001600160a01b0381168114610d6357600080fd5b6000806040838503121561296d57600080fd5b82359150602083013561297f81612945565b809150509250929050565b60006020828403121561299c57600080fd5b81356116bb81612907565b634e487b7160e01b600052604160045260246000fd5b604051601f8201601f191681016001600160401b03811182821017156129e5576129e56129a7565b604052919050565b60ff81168114610d6357600080fd5b600082601f830112612a0d57600080fd5b81356001600160401b03811115612a2657612a266129a7565b612a39601f8201601f19166020016129bd565b818152846020838601011115612a4e57600080fd5b816020850160208301376000918101602001919091529392505050565b600082601f830112612a7c57600080fd5b604051604081018181106001600160401b0382111715612a9e57612a9e6129a7565b8060405250806040840185811115612ab557600080fd5b845b81811015612ad8578035612aca81612945565b835260209283019201612ab7565b509195945050505050565b600060e08284031215612af557600080fd5b60405160c081016001600160401b038282108183111715612b1857612b186129a7565b8160405282935084359150612b2c826129ed565b908252602084013590612b3e82612945565b8160208401526040850135915080821115612b5857600080fd5b50612b65858286016129fc565b6040830152506060830135606082015260808301356080820152612b8c8460a08501612a6b565b60a08201525092915050565b60006001600160401b03821115612bb157612bb16129a7565b5060051b60200190565b60008060008060808587031215612bd157600080fd5b84356001600160401b0380821115612be857600080fd5b612bf488838901612ae3565b9550602091508187013581811115612c0b57600080fd5b87019050601f81018813612c1e57600080fd5b8035612c31612c2c82612b98565b6129bd565b81815260059190911b8201830190838101908a831115612c5057600080fd5b928401925b82841015612c6e57833582529284019290840190612c55565b979a97995050505060408601359560600135949350505050565b600081518084526020808501945080840160005b83811015612cb857815187529582019590820190600101612c9c565b509495945050505050565b83815263ffffffff83166020820152606060408201526000612ce86060830184612c88565b95945050505050565b60008060008060808587031215612d0757600080fd5b5050823594602084013594506040840135936060013592509050565b600060208284031215612d3557600080fd5b81356116bb816129ed565b60008060408385031215612d5357600080fd5b8235612d5e81612907565b9150602083013561297f81612907565b600060208284031215612d8057600080fd5b81356001600160401b03811115612d9657600080fd5b610b4884828501612ae3565b600060208284031215612db457600080fd5b81356116bb81612945565b600060208284031215612dd157600080fd5b813561ffff811681146116bb57600080fd5b600080600060608486031215612df857600080fd5b8335612e0381612907565b92506020840135612e1381612907565b929592945050506040919091013590565b60008060008060008060e08789031215612e3d57600080fd5b863595506020870135612e4f816129ed565b9450604087013593506060870135925060808701356001600160401b03811115612e7857600080fd5b612e8489828a016129fc565b925050612e948860a08901612a6b565b90509295509295509295565b600060208284031215612eb257600080fd5b81356001600160401b03811115612ec857600080fd5b610b48848285016129fc565b6020815260006116bb602083018461289a565b600080600060408486031215612efc57600080fd5b8335925060208401356001600160401b0380821115612f1a57600080fd5b818601915086601f830112612f2e57600080fd5b813581811115612f3d57600080fd5b8760208260051b8501011115612f5257600080fd5b6020830194508093505050509250925092565b80356001600160401b0381168114612f7c57600080fd5b919050565b600080600060608486031215612f9657600080fd5b8335612fa181612907565b92506020848101356001600160401b03811115612fbd57600080fd5b8501601f81018713612fce57600080fd5b8035612fdc612c2c82612b98565b81815260059190911b82018301908381019089831115612ffb57600080fd5b928401925b8284101561302257833561301381612907565b82529284019290840190613000565b809650505050505061303660408501612f65565b90509250925092565b6020808252825182820181905260009190848201906040850190845b8181101561307d57835163ffffffff168352928401929184019160010161305b565b50909695505050505050565b6000806040838503121561309c57600080fd5b823561293781612945565b634e487b7160e01b600052601160045260246000fd5b8082028115828204841417610745576107456130a7565b81810381811115610745576107456130a7565b600181811c908216806130fb57607f821691505b60208210810361311b57634e487b7160e01b600052602260045260246000fd5b50919050565b634e487b7160e01b600052603260045260246000fd5b600063ffffffff82168061314d5761314d6130a7565b6000190192915050565b600063ffffffff808316818103613170576131706130a7565b6001019392505050565b63ffffffff818116838216019080821115613197576131976130a7565b5092915050565b634e487b7160e01b600052601260045260246000fd5b600063ffffffff808416806131cb576131cb61319e565b92169190910692915050565b600063ffffffff808416806131ee576131ee61319e565b92169190910492915050565b80820180821115610745576107456130a7565b6020808252601390820152724143433a204e6f7420676f7665726e616e636560681b604082015260600190565b6000826132495761324961319e565b500490565b60006020828403121561326057600080fd5b81516116bb81612907565b6020808252601f908201527f5265656e7472616e637947756172643a207265656e7472616e742063616c6c00604082015260600190565b6000602082840312156132b457600080fd5b81516116bb816129ed565b600181815b808511156132fa5781600019048211156132e0576132e06130a7565b808516156132ed57918102915b93841c93908002906132c4565b509250929050565b60008261331157506001610745565b8161331e57506000610745565b8160018114613334576002811461333e5761335a565b6001915050610745565b60ff84111561334f5761334f6130a7565b50506001821b610745565b5060208310610133831016604e8410600b841016171561337d575081810a610745565b61338783836132bf565b806000190482111561339b5761339b6130a7565b029392505050565b60006116bb60ff841683613302565b6000602082840312156133c457600080fd5b5051919050565b6000816133da576133da6130a7565b506000190190565b601f8211156108ad57600081815260208120601f850160051c810160208610156134095750805b601f850160051c820191505b8181101561342857828155600101613415565b505050505050565b81516001600160401b03811115613449576134496129a7565b61345d8161345784546130e7565b846133e2565b602080601f831160018114613492576000841561347a5750858301515b600019600386901b1c1916600185901b178555613428565b600085815260208120601f198616915b828110156134c1578886015182559484019460019091019084016134a2565b50858210156134df5787850151600019600388901b60f8161c191681555b5050505050600190811b01905550565b8060005b600281101561351b5781516001600160a01b03168452602093840193909101906001016134f3565b50505050565b8381526020810183905260808101610b4860408301846134ef565b878152866020820152851515604082015284606082015263ffffffff8416608082015260e060a0820152600061357560e0830185612c88565b82810360c08401526135878185612c88565b9a9950505050505050505050565b7f416363657373436f6e74726f6c3a206163636f756e74200000000000000000008152600083516135cd816017850160208801612876565b7001034b99036b4b9b9b4b733903937b6329607d1b60179184019182015283516135fe816028840160208801612876565b01602801949350505050565b63ffffffff81811683821602808216919082811461362a5761362a6130a7565b505092915050565b600060ff821660ff8103613648576136486130a7565b60010192915050565b60a0810161365f82876134ef565b6001600160a01b03949094166040820152606081019290925260809091015291905056fea26469706673582212209bb06fd39fdff68d782bfc188ef5eade70aa9a677cca1e85087734b47b98e15564736f6c63430008110033","linkReferences":{}},"methodIdentifiers":{"DEFAULT_ADMIN_ROLE()":"a217fddf","PRECISION()":"aaf5eb68","RANDOMIZER_ROLE()":"bf193005","TEAM_ROLE()":"49d5e604","_computeDollarValue(address,uint256)":"f7137e77","bet(uint256,uint8,uint256,uint256,bytes,address[2])":"bb4149e0","calcReward(uint32,uint32,uint256)":"9e2785b0","calcWager(uint256,uint256,uint256)":"10088fbc","changeRandomizerRouter(address)":"8f130d50","completedGames(uint256)":"4d30372d","decodeGameData(bytes)":"bda9a844","encodeGameData(uint32)":"d13b95ad","games(uint256)":"117a5b90","getHouseEdge((uint8,address,bytes,uint256,uint256,address[2]))":"7f1ad204","getMultiplier(uint32,uint32)":"73a4302d","getMultipliers(uint32)":"ee037772","getRoleAdmin(bytes32)":"248a9ca3","grantRole(bytes32,address)":"2f2ff15d","hasRole(bytes32,address)":"91d14854","houseEdges(uint32)":"311d3c83","maxGameCount()":"e9f9b2d7","minConfirmations()":"e7c4393e","multipliers(uint32,uint256)":"1e59e619","options(uint256)":"409e2205","pause()":"8456cb59","paused()":"5c975abb","play((uint8,address,bytes,uint256,uint256,address[2]),uint256[],uint256,uint256)":"37107fc7","randomizerCallback(uint256,uint256[])":"e5199bb8","randomizerRouter()":"4b95a52e","refundCooldown()":"2d3e8c93","refundGame(uint256)":"d7260cba","renounceRole(bytes32,address)":"36568abe","revokeRole(bytes32,address)":"d547741f","rowLimits()":"1bad7512","setMinConfirmations(uint16)":"9104a03d","setVaultManager(address)":"b543503e","shouldStop(uint256,uint256,uint256,uint256)":"3b49b7ed","supportsInterface(bytes4)":"01ffc9a7","unpause()":"3f4ba83a","updateMaxGameCount(uint8)":"427dc913","updateMultipliers(uint32,uint32[],uint64)":"ebf71b41","updateRefundCooldown(uint32)":"d1adfff4","updateRowLimits(uint32,uint32)":"c8061216","vaultManager()":"8a4adf24"},"id":13}