{"abi":[{"type":"constructor","inputs":[{"name":"_router","type":"address","internalType":"contract IRandomizerRouter"}],"stateMutability":"nonpayable"},{"type":"function","name":"DEFAULT_ADMIN_ROLE","inputs":[],"outputs":[{"name":"","type":"bytes32","internalType":"bytes32"}],"stateMutability":"view"},{"type":"function","name":"PRECISION","inputs":[],"outputs":[{"name":"","type":"uint256","internalType":"uint256"}],"stateMutability":"view"},{"type":"function","name":"RANDOMIZER_ROLE","inputs":[],"outputs":[{"name":"","type":"bytes32","internalType":"bytes32"}],"stateMutability":"view"},{"type":"function","name":"TEAM_ROLE","inputs":[],"outputs":[{"name":"","type":"bytes32","internalType":"bytes32"}],"stateMutability":"view"},{"type":"function","name":"_computeDollarValue","inputs":[{"name":"_token","type":"address","internalType":"address"},{"name":"_wager","type":"uint256","internalType":"uint256"}],"outputs":[{"name":"_wagerInDollar","type":"uint256","internalType":"uint256"}],"stateMutability":"view"},{"type":"function","name":"bet","inputs":[{"name":"_wager","type":"uint256","internalType":"uint256"},{"name":"_multiplier","type":"uint256","internalType":"uint256"},{"name":"_tokens","type":"address[2]","internalType":"address[2]"}],"outputs":[],"stateMutability":"nonpayable"},{"type":"function","name":"calcReward","inputs":[{"name":"_wager","type":"uint256","internalType":"uint256"},{"name":"_multiplier","type":"uint256","internalType":"uint256"}],"outputs":[{"name":"reward_","type":"uint256","internalType":"uint256"}],"stateMutability":"pure"},{"type":"function","name":"changeRandomizerRouter","inputs":[{"name":"_randomizerRouter","type":"address","internalType":"contract IRandomizerRouter"}],"outputs":[],"stateMutability":"nonpayable"},{"type":"function","name":"claim","inputs":[{"name":"_gameId","type":"uint256","internalType":"uint256"}],"outputs":[],"stateMutability":"nonpayable"},{"type":"function","name":"claimBatch","inputs":[{"name":"_gameId","type":"uint256","internalType":"uint256"},{"name":"_players","type":"address[]","internalType":"address[]"}],"outputs":[],"stateMutability":"nonpayable"},{"type":"function","name":"claims","inputs":[{"name":"","type":"uint256","internalType":"uint256"},{"name":"","type":"address","internalType":"address"}],"outputs":[{"name":"","type":"bool","internalType":"bool"}],"stateMutability":"view"},{"type":"function","name":"config","inputs":[],"outputs":[{"name":"minMultiplier","type":"uint16","internalType":"uint16"},{"name":"maxMultiplier","type":"uint16","internalType":"uint16"},{"name":"duration","type":"uint16","internalType":"uint16"},{"name":"cooldown","type":"uint16","internalType":"uint16"}],"stateMutability":"view"},{"type":"function","name":"currentGameId","inputs":[],"outputs":[{"name":"","type":"uint256","internalType":"uint256"}],"stateMutability":"view"},{"type":"function","name":"games","inputs":[{"name":"","type":"uint256","internalType":"uint256"}],"outputs":[{"name":"status","type":"uint8","internalType":"enum Moon.Status"},{"name":"startTime","type":"uint256","internalType":"uint256"},{"name":"multiplier","type":"uint256","internalType":"uint256"}],"stateMutability":"view"},{"type":"function","name":"getParticipant","inputs":[{"name":"_gameId","type":"uint256","internalType":"uint256"},{"name":"_player","type":"address","internalType":"address"}],"outputs":[{"name":"index_","type":"uint256","internalType":"uint256"},{"name":"bet_","type":"tuple","internalType":"struct Moon.Bet","components":[{"name":"multiplier","type":"uint256","internalType":"uint256"},{"name":"amount","type":"uint256","internalType":"uint256"},{"name":"tokens","type":"address[2]","internalType":"address[2]"}]}],"stateMutability":"view"},{"type":"function","name":"getResult","inputs":[{"name":"_random","type":"uint256","internalType":"uint256"}],"outputs":[{"name":"multiplier_","type":"uint256","internalType":"uint256"}],"stateMutability":"view"},{"type":"function","name":"getRoleAdmin","inputs":[{"name":"role","type":"bytes32","internalType":"bytes32"}],"outputs":[{"name":"","type":"bytes32","internalType":"bytes32"}],"stateMutability":"view"},{"type":"function","name":"grantRole","inputs":[{"name":"role","type":"bytes32","internalType":"bytes32"},{"name":"account","type":"address","internalType":"address"}],"outputs":[],"stateMutability":"nonpayable"},{"type":"function","name":"hasRole","inputs":[{"name":"role","type":"bytes32","internalType":"bytes32"},{"name":"account","type":"address","internalType":"address"}],"outputs":[{"name":"","type":"bool","internalType":"bool"}],"stateMutability":"view"},{"type":"function","name":"houseEdge","inputs":[],"outputs":[{"name":"","type":"uint64","internalType":"uint64"}],"stateMutability":"view"},{"type":"function","name":"minConfirmations","inputs":[],"outputs":[{"name":"","type":"uint256","internalType":"uint256"}],"stateMutability":"view"},{"type":"function","name":"participantIndex","inputs":[{"name":"","type":"uint256","internalType":"uint256"},{"name":"","type":"address","internalType":"address"}],"outputs":[{"name":"","type":"uint256","internalType":"uint256"}],"stateMutability":"view"},{"type":"function","name":"participants","inputs":[{"name":"","type":"uint256","internalType":"uint256"},{"name":"","type":"uint256","internalType":"uint256"}],"outputs":[{"name":"multiplier","type":"uint256","internalType":"uint256"},{"name":"amount","type":"uint256","internalType":"uint256"}],"stateMutability":"view"},{"type":"function","name":"pause","inputs":[],"outputs":[],"stateMutability":"nonpayable"},{"type":"function","name":"paused","inputs":[],"outputs":[{"name":"","type":"bool","internalType":"bool"}],"stateMutability":"view"},{"type":"function","name":"randomizerCallback","inputs":[{"name":"_requestId","type":"uint256","internalType":"uint256"},{"name":"_rngList","type":"uint256[]","internalType":"uint256[]"}],"outputs":[],"stateMutability":"nonpayable"},{"type":"function","name":"randomizerRouter","inputs":[],"outputs":[{"name":"","type":"address","internalType":"contract IRandomizerRouter"}],"stateMutability":"view"},{"type":"function","name":"refundCooldown","inputs":[],"outputs":[{"name":"","type":"uint32","internalType":"uint32"}],"stateMutability":"view"},{"type":"function","name":"refundGame","inputs":[{"name":"_gameId","type":"uint256","internalType":"uint256"}],"outputs":[],"stateMutability":"nonpayable"},{"type":"function","name":"refunds","inputs":[{"name":"","type":"uint256","internalType":"uint256"},{"name":"","type":"address","internalType":"address"}],"outputs":[{"name":"","type":"bool","internalType":"bool"}],"stateMutability":"view"},{"type":"function","name":"renounceRole","inputs":[{"name":"role","type":"bytes32","internalType":"bytes32"},{"name":"account","type":"address","internalType":"address"}],"outputs":[],"stateMutability":"nonpayable"},{"type":"function","name":"requestGamePair","inputs":[{"name":"","type":"uint256","internalType":"uint256"}],"outputs":[{"name":"","type":"uint256","internalType":"uint256"}],"stateMutability":"view"},{"type":"function","name":"revokeRole","inputs":[{"name":"role","type":"bytes32","internalType":"bytes32"},{"name":"account","type":"address","internalType":"address"}],"outputs":[],"stateMutability":"nonpayable"},{"type":"function","name":"setMinConfirmations","inputs":[{"name":"_minConfirmations","type":"uint16","internalType":"uint16"}],"outputs":[],"stateMutability":"nonpayable"},{"type":"function","name":"setVaultManager","inputs":[{"name":"_vaultManager","type":"address","internalType":"contract IVaultManager"}],"outputs":[],"stateMutability":"nonpayable"},{"type":"function","name":"supportsInterface","inputs":[{"name":"interfaceId","type":"bytes4","internalType":"bytes4"}],"outputs":[{"name":"","type":"bool","internalType":"bool"}],"stateMutability":"view"},{"type":"function","name":"totalAmounts","inputs":[{"name":"","type":"uint256","internalType":"uint256"},{"name":"","type":"address","internalType":"address"}],"outputs":[{"name":"","type":"uint256","internalType":"uint256"}],"stateMutability":"view"},{"type":"function","name":"unpause","inputs":[],"outputs":[],"stateMutability":"nonpayable"},{"type":"function","name":"updateConfig","inputs":[{"name":"_config","type":"tuple","internalType":"struct Moon.Configuration","components":[{"name":"minMultiplier","type":"uint16","internalType":"uint16"},{"name":"maxMultiplier","type":"uint16","internalType":"uint16"},{"name":"duration","type":"uint16","internalType":"uint16"},{"name":"cooldown","type":"uint16","internalType":"uint16"}]}],"outputs":[],"stateMutability":"nonpayable"},{"type":"function","name":"updateHouseEdge","inputs":[{"name":"_houseEdge","type":"uint64","internalType":"uint64"}],"outputs":[],"stateMutability":"nonpayable"},{"type":"function","name":"updateRefundCooldown","inputs":[{"name":"_refundCooldown","type":"uint32","internalType":"uint32"}],"outputs":[],"stateMutability":"nonpayable"},{"type":"function","name":"vaultManager","inputs":[],"outputs":[{"name":"","type":"address","internalType":"contract IVaultManager"}],"stateMutability":"view"},{"type":"event","name":"Claimed","inputs":[{"name":"player","type":"address","indexed":true,"internalType":"address"},{"name":"gameId","type":"uint256","indexed":false,"internalType":"uint256"}],"anonymous":false},{"type":"event","name":"ClaimedBatch","inputs":[{"name":"gameId","type":"uint256","indexed":true,"internalType":"uint256"},{"name":"players","type":"address[]","indexed":false,"internalType":"address[]"}],"anonymous":false},{"type":"event","name":"Created","inputs":[{"name":"gameId","type":"uint256","indexed":true,"internalType":"uint256"},{"name":"startTime","type":"uint256","indexed":false,"internalType":"uint256"}],"anonymous":false},{"type":"event","name":"Participated","inputs":[{"name":"gameId","type":"uint256","indexed":true,"internalType":"uint256"},{"name":"player","type":"address","indexed":false,"internalType":"address"},{"name":"amount","type":"uint256","indexed":false,"internalType":"uint256"},{"name":"multiplier","type":"uint256","indexed":false,"internalType":"uint256"},{"name":"tokens","type":"address[2]","indexed":false,"internalType":"address[2]"}],"anonymous":false},{"type":"event","name":"Paused","inputs":[{"name":"account","type":"address","indexed":false,"internalType":"address"}],"anonymous":false},{"type":"event","name":"RoleAdminChanged","inputs":[{"name":"role","type":"bytes32","indexed":true,"internalType":"bytes32"},{"name":"previousAdminRole","type":"bytes32","indexed":true,"internalType":"bytes32"},{"name":"newAdminRole","type":"bytes32","indexed":true,"internalType":"bytes32"}],"anonymous":false},{"type":"event","name":"RoleGranted","inputs":[{"name":"role","type":"bytes32","indexed":true,"internalType":"bytes32"},{"name":"account","type":"address","indexed":true,"internalType":"address"},{"name":"sender","type":"address","indexed":true,"internalType":"address"}],"anonymous":false},{"type":"event","name":"RoleRevoked","inputs":[{"name":"role","type":"bytes32","indexed":true,"internalType":"bytes32"},{"name":"account","type":"address","indexed":true,"internalType":"address"},{"name":"sender","type":"address","indexed":true,"internalType":"address"}],"anonymous":false},{"type":"event","name":"Settled","inputs":[{"name":"gameId","type":"uint256","indexed":true,"internalType":"uint256"},{"name":"multiplier","type":"uint256","indexed":false,"internalType":"uint256"}],"anonymous":false},{"type":"event","name":"Unpaused","inputs":[{"name":"account","type":"address","indexed":false,"internalType":"address"}],"anonymous":false},{"type":"event","name":"UpdateHouseEdge","inputs":[{"name":"houseEdge","type":"uint64","indexed":false,"internalType":"uint64"}],"anonymous":false},{"type":"event","name":"VaultManagerChange","inputs":[{"name":"vaultManager","type":"address","indexed":false,"internalType":"address"}],"anonymous":false}],"bytecode":{"object":"0x6003805560058054600160a01b600160e01b031916601960a31b179055600060065560078054611c2063ffffffff19909116179055610100604052606460805261271060a052601460c052601e60e052600e80546001600160401b031916661e0014271000641790553480156200007557600080fd5b506040516200374a3803806200374a833981016040819052620000989162000497565b6000805460ff1916815581908190620000b29033620000cb565b6001600255620000c281620000db565b50505062000622565b620000d7828262000184565b5050565b620000e8600033620001f2565b6200013a5760405162461bcd60e51b815260206004820152601360248201527f4143433a204e6f7420676f7665726e616e63650000000000000000000000000060448201526064015b60405180910390fd5b600480546001600160a01b0319166001600160a01b038316179055620001817f2f660b522cd66c3fe8eabbd9815ae97246faa2cf642722f997fcefd13b6a67b6826200021f565b50565b620001908282620001f2565b620000d75760008281526001602081815260408084206001600160a01b0386168086529252808420805460ff19169093179092559051339285917f2f8788117e7eff1d82e926ec794901d17c78024a50270940304540a733656f0d9190a45050565b60008281526001602090815260408083206001600160a01b038516845290915290205460ff165b92915050565b600082815260016020819052604090912001546200023d816200024e565b62000249838362000184565b505050565b620001818133620002608282620001f2565b620000d75762000286816001600160a01b03166014620002d760201b62001a341760201c565b6200029c83602062001a34620002d7821b17811c565b604051602001620002af929190620004e8565b60408051601f198184030181529082905262461bcd60e51b8252620001319160040162000561565b60606000620002e8836002620005ac565b620002f5906002620005c6565b6001600160401b038111156200030f576200030f620005dc565b6040519080825280601f01601f1916602001820160405280156200033a576020820181803683370190505b509050600360fc1b81600081518110620003585762000358620005f2565b60200101906001600160f81b031916908160001a905350600f60fb1b816001815181106200038a576200038a620005f2565b60200101906001600160f81b031916908160001a9053506000620003b0846002620005ac565b620003bd906001620005c6565b90505b60018111156200043f576f181899199a1a9b1b9c1cb0b131b232b360811b85600f1660108110620003f557620003f5620005f2565b1a60f81b8282815181106200040e576200040e620005f2565b60200101906001600160f81b031916908160001a90535060049490941c93620004378162000608565b9050620003c0565b508315620004905760405162461bcd60e51b815260206004820181905260248201527f537472696e67733a20686578206c656e67746820696e73756666696369656e74604482015260640162000131565b9392505050565b600060208284031215620004aa57600080fd5b81516001600160a01b03811681146200049057600080fd5b60005b83811015620004df578181015183820152602001620004c5565b50506000910152565b7f416363657373436f6e74726f6c3a206163636f756e742000000000000000000081526000835162000522816017850160208801620004c2565b7001034b99036b4b9b9b4b733903937b6329607d1b601791840191820152835162000555816028840160208801620004c2565b01602801949350505050565b602081526000825180602084015262000582816040850160208701620004c2565b601f01601f19169190910160400192915050565b634e487b7160e01b600052601160045260246000fd5b808202811582820484141762000219576200021962000596565b8082018082111562000219576200021962000596565b634e487b7160e01b600052604160045260246000fd5b634e487b7160e01b600052603260045260246000fd5b6000816200061a576200061a62000596565b506000190190565b61311880620006326000396000f3fe608060405234801561001057600080fd5b506004361061025e5760003560e01c80638a4adf2411610146578063bf193005116100c3578063e5199bb811610087578063e5199bb81461067f578063e7c4393e14610692578063e84f0cc01461069b578063f6913a76146106ae578063f7137e77146106ce578063fe24a0fc146106e157600080fd5b8063bf193005146105ed578063d1adfff414610614578063d547741f14610627578063d667dcd71461063a578063d7260cba1461066c57600080fd5b8063a217fddf1161010a578063a217fddf14610585578063a777bad41461058d578063aaf5eb68146105a0578063ace25895146105af578063b543503e146105da57600080fd5b80638a4adf24146105265780638f130d50146105395780639104a03d1461054c57806391d148541461055f578063995e43391461057257600080fd5b80633f4ba83a116101df578063536a3ddc116101a3578063536a3ddc146104745780635c975abb1461047d57806379502c551461048857806381fb1fb4146104e35780638456cb591461050b57806389d9dd4f1461051357600080fd5b80633f4ba83a146103c1578063435290f5146103c9578063454cc4bc146103f457806349d5e604146104225780634b95a52e1461044957600080fd5b80632f2ff15d116102265780632f2ff15d1461035257806335f3ad7a1461036757806336568abe14610388578063379607f51461039b5780633cc6db73146103ae57600080fd5b806301ffc9a714610263578063117a5b901461028b5780631da4c66b146102cd578063248a9ca3146102fb5780632d3e8c931461032d575b600080fd5b61027661027136600461274d565b6106f4565b60405190151581526020015b60405180910390f35b6102be610299366004612777565b60086020526000908152604090208054600182015460029092015460ff909116919083565b604051610282939291906127a6565b6102766102db3660046127f1565b600a60209081526000928352604080842090915290825290205460ff1681565b61031f610309366004612777565b6000908152600160208190526040909120015490565b604051908152602001610282565b60075461033d9063ffffffff1681565b60405163ffffffff9091168152602001610282565b6103656103603660046127f1565b61072b565b005b61037a6103753660046127f1565b610756565b604051610282929190612821565b6103656103963660046127f1565b610840565b6103656103a9366004612777565b6108c3565b6103656103bc3660046128e3565b610a2d565b610365610ca1565b61031f6103d73660046127f1565b600b60209081526000928352604080842090915290825290205481565b6102766104023660046127f1565b600d60209081526000928352604080842090915290825290205460ff1681565b61031f7f9b82d2f38fbdf13006bfa741767f793d917e063392737837b580c1c2b1e0bab381565b60045461045c906001600160a01b031681565b6040516001600160a01b039091168152602001610282565b61031f60065481565b60005460ff16610276565b600e546104b59061ffff808216916201000081048216916401000000008204811691600160301b90041684565b6040805161ffff95861681529385166020850152918416918301919091529091166060820152608001610282565b6104f66104f136600461298d565b610d12565b60408051928352602083019190915201610282565b610365610d4e565b61031f61052136600461298d565b610dbd565b60055461045c906001600160a01b031681565b6103656105473660046129af565b610df4565b61036561055a3660046129e3565b610e63565b61027661056d3660046127f1565b610e93565b61031f610580366004612777565b610ebe565b61031f600081565b61036561059b3660046129fe565b610f84565b61031f670de0b6b3a764000081565b61031f6105bd3660046127f1565b600c60209081526000928352604080842090915290825290205481565b6103656105e83660046129af565b611016565b61031f7f2f660b522cd66c3fe8eabbd9815ae97246faa2cf642722f997fcefd13b6a67b681565b610365610622366004612a7a565b611092565b6103656106353660046127f1565b6110ba565b60055461065490600160a01b90046001600160401b031681565b6040516001600160401b039091168152602001610282565b61036561067a366004612777565b6110e0565b61036561068d366004612aa0565b6113cf565b61031f60035481565b6103656106a9366004612b1e565b611445565b61031f6106bc366004612777565b600f6020526000908152604090205481565b61031f6106dc366004612b47565b6114c7565b6103656106ef366004612b73565b6115ae565b60006001600160e01b03198216637965db0b60e01b148061072557506301ffc9a760e01b6001600160e01b03198316145b92915050565b6000828152600160208190526040909120015461074781611bcf565b6107518383611bd9565b505050565b600061076061269c565b6000848152600c602090815260408083206001600160a01b03871684529091529020549150811561083957610796600183612bc6565b6000858152600960205260409020805491935090839081106107ba576107ba612bd9565b906000526020600020906004020160405180606001604052908160008201548152602001600182015481526020016002820160028060200260405190810160405280929190826002801561082d576020028201915b81546001600160a01b0316815260019091019060200180831161080f575b50505050508152505090505b9250929050565b6001600160a01b03811633146108b55760405162461bcd60e51b815260206004820152602f60248201527f416363657373436f6e74726f6c3a2063616e206f6e6c792072656e6f756e636560448201526e103937b632b9903337b91039b2b63360891b60648201526084015b60405180910390fd5b6108bf8282611c44565b5050565b60028054036108e45760405162461bcd60e51b81526004016108ac90612bef565b600280556000818152600a602090815260408083203380855292529091205460ff161561094a5760405162461bcd60e51b81526020600482015260146024820152731353d3ce88105b1c9958591e4818db185a5b595960621b60448201526064016108ac565b60006109568383610756565b6000858152600860205260409020600201548151919350101590506109a95760405162461bcd60e51b81526020600482015260096024820152681353d3ce88131bdcdd60ba1b60448201526064016108ac565b6000838152600a602090815260408083206001600160a01b03861684529091529020805460ff191660011790556109e08282611cab565b816001600160a01b03167fd8138f8a3f377c5259ca548e70e4c2de94f129f5a11036a15b69513cba2b426a84604051610a1b91815260200190565b60405180910390a25050600160025550565b6002805403610a4e5760405162461bcd60e51b81526004016108ac90612bef565b600280556000828152600860205260408082208151606081019092528054829060ff166003811115610a8257610a82612790565b6003811115610a9357610a93612790565b8152600182015460208201526002909101546040909101529050600381516003811115610ac257610ac2612790565b14610b0f5760405162461bcd60e51b815260206004820152601960248201527f4d4f4f3a2047616d65206973206e6f742066696e69736865640000000000000060448201526064016108ac565b60005b8251811015610c70576000838281518110610b2f57610b2f612bd9565b602002602001015190506000610b5e86868581518110610b5157610b51612bd9565b6020026020010151610756565b6000888152600a602090815260408083206001600160a01b038816845290915290205490925060ff16159050610bcd5760405162461bcd60e51b81526020600482015260146024820152731353d3ce88105b1c9958591e4818db185a5b595960621b60448201526064016108ac565b6040840151815111801590610c0557506000868152600a602090815260408083206001600160a01b038616845290915290205460ff16155b15610c5d576000868152600a602090815260408083206001600160a01b03861684529091529020805460ff191660011790558451610c5d90869085908110610c4f57610c4f612bd9565b602002602001015182611cab565b505080610c6990612c26565b9050610b12565b50827f07f38d323c09aae3f16ee05790d617fc47606c94a98ec699c62860bcb17a06e383604051610a1b9190612c3f565b610ccb7f9b82d2f38fbdf13006bfa741767f793d917e063392737837b580c1c2b1e0bab333610e93565b610d085760405162461bcd60e51b815260206004820152600e60248201526d47414d453a204e6f74207465616d60901b60448201526064016108ac565b610d10611d38565b565b60096020528160005260406000208181548110610d2e57600080fd5b600091825260209091206004909102018054600190910154909250905082565b610d787f9b82d2f38fbdf13006bfa741767f793d917e063392737837b580c1c2b1e0bab333610e93565b610db55760405162461bcd60e51b815260206004820152600e60248201526d47414d453a204e6f74207465616d60901b60448201526064016108ac565b610d10611d8a565b6000670de0b6b3a7640000610dd983662386f26fc10000612c8c565b610de39085612c8c565b610ded9190612cb9565b9392505050565b610dff600033610e93565b610e1b5760405162461bcd60e51b81526004016108ac90612ccd565b600480546001600160a01b0319166001600160a01b038316179055610e607f2f660b522cd66c3fe8eabbd9815ae97246faa2cf642722f997fcefd13b6a67b68261072b565b50565b610e6e600033610e93565b610e8a5760405162461bcd60e51b81526004016108ac90612ccd565b61ffff16600355565b60009182526001602090815260408084206001600160a01b0393909316845291905290205460ff1690565b600e5460009061ffff6201000082048116918391610ef7918691610ee3911685612cfa565b610eee906001612d1c565b61ffff16611dc7565b90506000610f06606484612d37565b61ffff16905081610f18826064612c8c565b610f229190612bc6565b82610f3161ffff861684612c8c565b610f3b9190612bc6565b610f459190612cb9565b9350610f52856042611dc7565b600003610f6457506001949350505050565b83600003610f7c575050600e5461ffff169392505050565b505050919050565b610f8f600033610e93565b610fab5760405162461bcd60e51b81526004016108ac90612ccd565b8051600e80546020840151604085015160609095015161ffff908116600160301b0267ffff00000000000019968216640100000000029690961667ffffffff0000000019928216620100000263ffffffff199094169190951617919091171691909117919091179055565b611021600033610e93565b61103d5760405162461bcd60e51b81526004016108ac90612ccd565b600580546001600160a01b0319166001600160a01b0383169081179091556040519081527fa908db00c4502bbe936c6ac99cb6d67f0636790d9b238cfddab0139153f5eb74906020015b60405180910390a150565b600061109d81611bcf565b506007805463ffffffff191663ffffffff92909216919091179055565b600082815260016020819052604090912001546110d681611bcf565b6107518383611c44565b60028054036111015760405162461bcd60e51b81526004016108ac90612bef565b600280553360006111128383610756565b600085815260086020526040808220815160608101909252805493955091935091829060ff16600381111561114957611149612790565b600381111561115a5761115a612790565b815260018201546020808301919091526002909201546040909101526007549082015191925042916111929163ffffffff1690612d58565b106111df5760405162461bcd60e51b815260206004820152601a60248201527f47616d65206973206e6f7420726566756e6461626c652079657400000000000060448201526064016108ac565b6003815160038111156111f4576111f4612790565b036112325760405162461bcd60e51b815260206004820152600e60248201526d11d85b594818dbdb5c1b195d195960921b60448201526064016108ac565b6000848152600d602090815260408083206001600160a01b038716845290915290205460ff16156112985760405162461bcd60e51b815260206004820152601060248201526f105b1c9958591e481c99599d5b99195960821b60448201526064016108ac565b6000848152600d602090815260408083206001600160a01b0387811680865291845293829020805460ff1916600117905560055486830151519387015192516320aa576f60e11b815293851660048501526024840192909252604483015290911690634154aede90606401600060405180830381600087803b15801561131d57600080fd5b505af1158015611331573d6000803e3d6000fd5b505060055460408581015151602087015191516338ff14d360e21b81526001600160a01b03918216600482015288821660248201526044810192909252600160a01b83046001600160401b03166064830152909116925063e3fc534c9150608401600060405180830381600087803b1580156113ac57600080fd5b505af11580156113c0573d6000803e3d6000fd5b50506001600255505050505050565b6113f97f2f660b522cd66c3fe8eabbd9815ae97246faa2cf642722f997fcefd13b6a67b633610e93565b61143a5760405162461bcd60e51b815260206004820152601260248201527129219d102737ba103930b73237b6b4bd32b960711b60448201526064016108ac565b610751838383611dec565b611450600033610e93565b61146c5760405162461bcd60e51b81526004016108ac90612ccd565b6005805467ffffffffffffffff60a01b1916600160a01b6001600160401b038416908102919091179091556040519081527f6a0c74d2a2f78a7af3b6da5a6ae0321cc6d9b6271a7544a895e01d6bf1916e2c90602001611087565b6000826001600160a01b031663313ce5676040518163ffffffff1660e01b8152600401602060405180830381865afa158015611507573d6000803e3d6000fd5b505050506040513d601f19601f8201168201806040525081019061152b9190612d6b565b61153690600a612e72565b6005546040516341976e0960e01b81526001600160a01b038681166004830152909116906341976e0990602401602060405180830381865afa158015611580573d6000803e3d6000fd5b505050506040513d601f19601f820116820180604052508101906115a49190612e81565b610de39084612c8c565b60028054036115cf5760405162461bcd60e51b81526004016108ac90612bef565b600280556115e060208201826129af565b8360006115ed83836114c7565b60055460405163a8e3925760e01b81523060048201529192506001600160a01b03169063a8e3925790602401602060405180830381865afa158015611636573d6000803e3d6000fd5b505050506040513d601f19601f8201168201806040525081019061165a9190612e81565b81101561169f5760405162461bcd60e51b815260206004820152601360248201527247414d453a20576167657220746f6f206c6f7760681b60448201526064016108ac565b600560009054906101000a90046001600160a01b03166001600160a01b0316638ac402596040518163ffffffff1660e01b8152600401602060405180830381865afa1580156116f2573d6000803e3d6000fd5b505050506040513d601f19601f820116820180604052508101906117169190612e81565b81111561175c5760405162461bcd60e51b815260206004820152601460248201527308e829a8a7440aec2cecae440e8dede40d0d2ced60631b60448201526064016108ac565b600e54859061ffff1681116117ab5760405162461bcd60e51b81526020600482015260156024820152744d4f4f3a2043686f696365206f75742d72616e676560581b60448201526064016108ac565b600e5462010000900461ffff168111156117ff5760405162461bcd60e51b81526020600482015260156024820152744d4f4f3a2043686f696365206f75742d72616e676560581b60448201526064016108ac565b611807612159565b61180f61219f565b600e5460065460009081526008602052604081206001015490916118409164010000000090910461ffff1690612d58565b90508042106118845760405162461bcd60e51b815260206004820152601060248201526f1353d3ce8811d85b594818db1bdcd95960821b60448201526064016108ac565b6006546000908152600c6020908152604080832033808552925290912054156118e85760405162461bcd60e51b81526020600482015260166024820152754d4f4f3a204265742063616e6e6f74206368616e676560501b60448201526064016108ac565b6040805180820182526119179183918c918b9060029083908390808284376000920191909152506122f5915050565b60096000600654815260200190815260200160002060405180606001604052808a81526020018b815260200189600280602002604051908101604052809291908260026020028082843760009201829052509290935250835460018181018655948252602091829020845160049092020190815590830151938101939093555060408101519091906119af90600280840191906126c2565b505060068054600090815260096020908152604080832054600c83528184206001600160a01b03881685529092529182902055905490519091507f390dac195598db7a5ba1347d1991c90c103c0f39c9bd6a7caae1a6cef0efde3f90611a1c9084908d908d908d90612e9a565b60405180910390a25050600160025550505050505050565b60606000611a43836002612c8c565b611a4e906002612d58565b6001600160401b03811115611a6557611a6561287a565b6040519080825280601f01601f191660200182016040528015611a8f576020820181803683370190505b509050600360fc1b81600081518110611aaa57611aaa612bd9565b60200101906001600160f81b031916908160001a905350600f60fb1b81600181518110611ad957611ad9612bd9565b60200101906001600160f81b031916908160001a9053506000611afd846002612c8c565b611b08906001612d58565b90505b6001811115611b80576f181899199a1a9b1b9c1cb0b131b232b360811b85600f1660108110611b3c57611b3c612bd9565b1a60f81b828281518110611b5257611b52612bd9565b60200101906001600160f81b031916908160001a90535060049490941c93611b7981612efa565b9050611b0b565b508315610ded5760405162461bcd60e51b815260206004820181905260248201527f537472696e67733a20686578206c656e67746820696e73756666696369656e7460448201526064016108ac565b610e60813361249e565b611be38282610e93565b6108bf5760008281526001602081815260408084206001600160a01b0386168086529252808420805460ff19169093179092559051339285917f2f8788117e7eff1d82e926ec794901d17c78024a50270940304540a733656f0d9190a45050565b611c4e8282610e93565b156108bf5760008281526001602090815260408083206001600160a01b0385168085529252808320805460ff1916905551339285917ff6391f5c32d9c69d2a47ea670b442974b53935d1edc7fd64eb21e047a839171b9190a45050565b6000611cbf82602001518360000151610dbd565b600554604080850151602086015191516353a2418b60e11b81529394506001600160a01b039092169263a744831692611d019290918891908790600401612f11565b600060405180830381600087803b158015611d1b57600080fd5b505af1158015611d2f573d6000803e3d6000fd5b50505050505050565b611d40612502565b6000805460ff191690557f5db9ee0a495bf2e6ff9c91a7834c1ba4fdd244a5e8aa4e537bd38aeae4b073aa335b6040516001600160a01b03909116815260200160405180910390a1565b611d92612159565b6000805460ff191660011790557f62e78cea01bee320cd4e420270b5ea74000d11b0c9f74754ebdbfc544b05a258611d6d3390565b6000808263ffffffff1611611ddc5782610ded565b610ded63ffffffff831684612f69565b6000838152600f602090815260408083205480845260089092529091206007546001820154611e219163ffffffff1690612d58565b4210611e8d5760405162461bcd60e51b815260206004820152603560248201527f4d4f4f3a2046756c46696c6c206973206e6f7420616c6c6f776564206166746560448201527439103a3432903932b33ab7321031b7b7b63237bbb760591b60648201526084016108ac565b600082815260096020908152604080832080548251818502810185019093528083529192909190849084015b82821015611f3a57600084815260209081902060408051606081018252600486029092018054835260018101549383019390935280518082018083529293929184019160028085019182845b81546001600160a01b03168152600190910190602001808311611f055750505050508152505081526020019060010190611eb9565b5050505090506000600560009054906101000a90046001600160a01b031690506000816001600160a01b031663e26f79006040518163ffffffff1660e01b8152600401600060405180830381865afa158015611f9a573d6000803e3d6000fd5b505050506040513d6000823e601f3d908101601f19168201604052611fc29190810190612f7d565b9050611fe687876000818110611fda57611fda612bd9565b90506020020135610ebe565b6002850155835460ff1916600317845560008080805b845181101561210d5784818151811061201757612017612bd9565b602002602001015193506120308860020154858961254b565b60008a8152600b602090815260408083206001600160a01b038916845290915290205493509150818311156120fd576001600160a01b038616636bd6864c856120798587612bc6565b6040516001600160e01b031960e085901b1681526001600160a01b0390921660048301526024820152604401600060405180830381600087803b1580156120bf57600080fd5b505af11580156120d3573d6000803e3d6000fd5b50505060008a8152600b602090815260408083206001600160a01b03891684529091529020839055505b61210681612c26565b9050611ffc565b50877ff5b268a3ff315cc44ccceeef86259c9e8eef81ceecb14001543809115380dd62886002015460405161214491815260200190565b60405180910390a25050505050505050505050565b60005460ff1615610d105760405162461bcd60e51b815260206004820152601060248201526f14185d5cd8589b194e881c185d5cd95960821b60448201526064016108ac565b600654600e54600082815260086020526040812060010154909161ffff600160301b82048116926121db92640100000000900490911690612d58565b6121e59190612d58565b9050428181111561075157826121fa81612c26565b600e54909450849150600f9060009061222b9060019061222690640100000000900461ffff1687612d58565b61261e565b81526020019081526020016000208190555060405180606001604052806001600381111561225b5761225b612790565b815260208082018490526000604092830181905286815260089091522081518154829060ff1916600183600381111561229657612296612790565b02179055506020820151600182015560409182015160029091015560068490555183907f644ed1b9c015f81d5487c81fca09b9c4ab92aab7d2e18b1bbc4a8ea6107bff2b906122e89084815260200190565b60405180910390a2505050565b600554815160405163415cdf0d60e11b81526001600160a01b03918216600482015285821660248201526044810185905291169081906382b9be1a90606401600060405180830381600087803b15801561234e57600080fd5b505af1158015612362573d6000803e3d6000fd5b505083516040516303d1db8560e31b81526001600160a01b0391821660048201526024810187905287821660448201529084169250631e8edc289150606401600060405180830381600087803b1580156123bb57600080fd5b505af11580156123cf573d6000803e3d6000fd5b50508351600554604051633005989b60e11b81526001600160a01b0392831660048201528883166024820152604481018890526001600160401b03600160a01b909204919091166064820152908416925063600b31369150608401600060405180830381600087803b15801561244457600080fd5b505af1158015612458573d6000803e3d6000fd5b50506006546000908152600b6020908152604080832087516001600160a01b0316845290915281208054879450909250612493908490612d58565b909155505050505050565b6124a88282610e93565b6108bf576124c0816001600160a01b03166014611a34565b6124cb836020611a34565b6040516020016124dc92919061303a565b60408051601f198184030181529082905262461bcd60e51b82526108ac916004016130af565b60005460ff16610d105760405162461bcd60e51b815260206004820152601460248201527314185d5cd8589b194e881b9bdd081c185d5cd95960621b60448201526064016108ac565b6000805b8251811015612616578483828151811061256b5761256b612bd9565b602002602001015160000151111580156125ca575082818151811061259257612592612bd9565b6020026020010151604001516000600281106125b0576125b0612bd9565b60200201516001600160a01b0316846001600160a01b0316145b156125ff578281815181106125e1576125e1612bd9565b602002602001015160200151826125f89190612d58565b9150612604565b612616565b8061260e81612c26565b91505061254f565b509392505050565b6004805460405163132db6d560e31b815260ff851692810192909252602482018390526000916001600160a01b039091169063996db6a8906044016020604051808303816000875af1158015612678573d6000803e3d6000fd5b505050506040513d601f19601f82011682018060405250810190610ded9190612e81565b604051806060016040528060008152602001600081526020016126bd61271a565b905290565b826002810192821561270a579160200282015b8281111561270a57825182546001600160a01b0319166001600160a01b039091161782556020909201916001909101906126d5565b50612716929150612738565b5090565b60405180604001604052806002906020820280368337509192915050565b5b808211156127165760008155600101612739565b60006020828403121561275f57600080fd5b81356001600160e01b031981168114610ded57600080fd5b60006020828403121561278957600080fd5b5035919050565b634e487b7160e01b600052602160045260246000fd5b60608101600485106127c857634e487b7160e01b600052602160045260246000fd5b938152602081019290925260409091015290565b6001600160a01b0381168114610e6057600080fd5b6000806040838503121561280457600080fd5b823591506020830135612816816127dc565b809150509250929050565b600060a082019050838252602083518184015280840151604084015260408401516060840160005b600281101561286f5782516001600160a01b031682529183019190830190600101612849565b505050509392505050565b634e487b7160e01b600052604160045260246000fd5b604051601f8201601f191681016001600160401b03811182821017156128b8576128b861287a565b604052919050565b60006001600160401b038211156128d9576128d961287a565b5060051b60200190565b600080604083850312156128f657600080fd5b823591506020808401356001600160401b0381111561291457600080fd5b8401601f8101861361292557600080fd5b8035612938612933826128c0565b612890565b81815260059190911b8201830190838101908883111561295757600080fd5b928401925b8284101561297e57833561296f816127dc565b8252928401929084019061295c565b80955050505050509250929050565b600080604083850312156129a057600080fd5b50508035926020909101359150565b6000602082840312156129c157600080fd5b8135610ded816127dc565b803561ffff811681146129de57600080fd5b919050565b6000602082840312156129f557600080fd5b610ded826129cc565b600060808284031215612a1057600080fd5b604051608081018181106001600160401b0382111715612a3257612a3261287a565b604052612a3e836129cc565b8152612a4c602084016129cc565b6020820152612a5d604084016129cc565b6040820152612a6e606084016129cc565b60608201529392505050565b600060208284031215612a8c57600080fd5b813563ffffffff81168114610ded57600080fd5b600080600060408486031215612ab557600080fd5b8335925060208401356001600160401b0380821115612ad357600080fd5b818601915086601f830112612ae757600080fd5b813581811115612af657600080fd5b8760208260051b8501011115612b0b57600080fd5b6020830194508093505050509250925092565b600060208284031215612b3057600080fd5b81356001600160401b0381168114610ded57600080fd5b60008060408385031215612b5a57600080fd5b8235612b65816127dc565b946020939093013593505050565b600080600060808486031215612b8857600080fd5b833592506020840135915084608085011115612ba357600080fd5b6040840190509250925092565b634e487b7160e01b600052601160045260246000fd5b8181038181111561072557610725612bb0565b634e487b7160e01b600052603260045260246000fd5b6020808252601f908201527f5265656e7472616e637947756172643a207265656e7472616e742063616c6c00604082015260600190565b600060018201612c3857612c38612bb0565b5060010190565b6020808252825182820181905260009190848201906040850190845b81811015612c805783516001600160a01b031683529284019291840191600101612c5b565b50909695505050505050565b808202811582820484141761072557610725612bb0565b634e487b7160e01b600052601260045260246000fd5b600082612cc857612cc8612ca3565b500490565b6020808252601390820152724143433a204e6f7420676f7665726e616e636560681b604082015260600190565b61ffff828116828216039080821115612d1557612d15612bb0565b5092915050565b61ffff818116838216019080821115612d1557612d15612bb0565b600061ffff80841680612d4c57612d4c612ca3565b92169190910492915050565b8082018082111561072557610725612bb0565b600060208284031215612d7d57600080fd5b815160ff81168114610ded57600080fd5b600181815b80851115612dc9578160001904821115612daf57612daf612bb0565b80851615612dbc57918102915b93841c9390800290612d93565b509250929050565b600082612de057506001610725565b81612ded57506000610725565b8160018114612e035760028114612e0d57612e29565b6001915050610725565b60ff841115612e1e57612e1e612bb0565b50506001821b610725565b5060208310610133831016604e8410600b8410161715612e4c575081810a610725565b612e568383612d8e565b8060001904821115612e6a57612e6a612bb0565b029392505050565b6000610ded60ff841683612dd1565b600060208284031215612e9357600080fd5b5051919050565b6001600160a01b03858116825260208083018690526040830185905260a083019190606084018560005b6002811015612eec578135612ed8816127dc565b851683529183019190830190600101612ec4565b505050505095945050505050565b600081612f0957612f09612bb0565b506000190190565b60a08101818660005b6002811015612f425781516001600160a01b0316835260209283019290910190600101612f1a565b5050506001600160a01b039490941660408201526060810192909252608090910152919050565b600082612f7857612f78612ca3565b500690565b60006020808385031215612f9057600080fd5b82516001600160401b03811115612fa657600080fd5b8301601f81018513612fb757600080fd5b8051612fc5612933826128c0565b81815260059190911b82018301908381019087831115612fe457600080fd5b928401925b8284101561300b578351612ffc816127dc565b82529284019290840190612fe9565b979650505050505050565b60005b83811015613031578181015183820152602001613019565b50506000910152565b7f416363657373436f6e74726f6c3a206163636f756e7420000000000000000000815260008351613072816017850160208801613016565b7001034b99036b4b9b9b4b733903937b6329607d1b60179184019182015283516130a3816028840160208801613016565b01602801949350505050565b60208152600082518060208401526130ce816040850160208701613016565b601f01601f1916919091016040019291505056fea2646970667358221220fb0657beb6c2a5748f5d077fa4985c4a956403ac18d0dacf3a1701d86f437cf064736f6c63430008110033","linkReferences":{}},"methodIdentifiers":{"DEFAULT_ADMIN_ROLE()":"a217fddf","PRECISION()":"aaf5eb68","RANDOMIZER_ROLE()":"bf193005","TEAM_ROLE()":"49d5e604","_computeDollarValue(address,uint256)":"f7137e77","bet(uint256,uint256,address[2])":"fe24a0fc","calcReward(uint256,uint256)":"89d9dd4f","changeRandomizerRouter(address)":"8f130d50","claim(uint256)":"379607f5","claimBatch(uint256,address[])":"3cc6db73","claims(uint256,address)":"1da4c66b","config()":"79502c55","currentGameId()":"536a3ddc","games(uint256)":"117a5b90","getParticipant(uint256,address)":"35f3ad7a","getResult(uint256)":"995e4339","getRoleAdmin(bytes32)":"248a9ca3","grantRole(bytes32,address)":"2f2ff15d","hasRole(bytes32,address)":"91d14854","houseEdge()":"d667dcd7","minConfirmations()":"e7c4393e","participantIndex(uint256,address)":"ace25895","participants(uint256,uint256)":"81fb1fb4","pause()":"8456cb59","paused()":"5c975abb","randomizerCallback(uint256,uint256[])":"e5199bb8","randomizerRouter()":"4b95a52e","refundCooldown()":"2d3e8c93","refundGame(uint256)":"d7260cba","refunds(uint256,address)":"454cc4bc","renounceRole(bytes32,address)":"36568abe","requestGamePair(uint256)":"f6913a76","revokeRole(bytes32,address)":"d547741f","setMinConfirmations(uint16)":"9104a03d","setVaultManager(address)":"b543503e","supportsInterface(bytes4)":"01ffc9a7","totalAmounts(uint256,address)":"435290f5","unpause()":"3f4ba83a","updateConfig((uint16,uint16,uint16,uint16))":"a777bad4","updateHouseEdge(uint64)":"e84f0cc0","updateRefundCooldown(uint32)":"d1adfff4","vaultManager()":"8a4adf24"},"id":7}