{"abi":[{"type":"constructor","inputs":[{"name":"_randomizerRouter","type":"address","internalType":"contract IRandomizerRouter"}],"stateMutability":"nonpayable"},{"type":"function","name":"DEFAULT_ADMIN_ROLE","inputs":[],"outputs":[{"name":"","type":"bytes32","internalType":"bytes32"}],"stateMutability":"view"},{"type":"function","name":"PRECISION","inputs":[],"outputs":[{"name":"","type":"uint256","internalType":"uint256"}],"stateMutability":"view"},{"type":"function","name":"RANDOMIZER_ROLE","inputs":[],"outputs":[{"name":"","type":"bytes32","internalType":"bytes32"}],"stateMutability":"view"},{"type":"function","name":"TEAM_ROLE","inputs":[],"outputs":[{"name":"","type":"bytes32","internalType":"bytes32"}],"stateMutability":"view"},{"type":"function","name":"_computeDollarValue","inputs":[{"name":"_token","type":"address","internalType":"address"},{"name":"_wager","type":"uint256","internalType":"uint256"}],"outputs":[{"name":"_wagerInDollar","type":"uint256","internalType":"uint256"}],"stateMutability":"view"},{"type":"function","name":"amounts","inputs":[{"name":"","type":"bytes","internalType":"bytes"}],"outputs":[{"name":"","type":"uint256","internalType":"uint256"}],"stateMutability":"view"},{"type":"function","name":"bet","inputs":[{"name":"_wager","type":"uint256","internalType":"uint256"},{"name":"_color","type":"uint8","internalType":"enum Wheel.Color"},{"name":"_tokens","type":"address[2]","internalType":"address[2]"}],"outputs":[],"stateMutability":"nonpayable"},{"type":"function","name":"calcReward","inputs":[{"name":"_wager","type":"uint256","internalType":"uint256"},{"name":"_color","type":"uint8","internalType":"enum Wheel.Color"}],"outputs":[{"name":"reward_","type":"uint256","internalType":"uint256"}],"stateMutability":"view"},{"type":"function","name":"changeRandomizerRouter","inputs":[{"name":"_randomizerRouter","type":"address","internalType":"contract IRandomizerRouter"}],"outputs":[],"stateMutability":"nonpayable"},{"type":"function","name":"claim","inputs":[{"name":"_gameId","type":"uint256","internalType":"uint256"}],"outputs":[],"stateMutability":"nonpayable"},{"type":"function","name":"claimBatch","inputs":[{"name":"_gameId","type":"uint256","internalType":"uint256"},{"name":"_players","type":"address[]","internalType":"address[]"}],"outputs":[],"stateMutability":"nonpayable"},{"type":"function","name":"claims","inputs":[{"name":"","type":"uint256","internalType":"uint256"},{"name":"","type":"address","internalType":"address"}],"outputs":[{"name":"","type":"bool","internalType":"bool"}],"stateMutability":"view"},{"type":"function","name":"config","inputs":[],"outputs":[{"name":"duration","type":"uint16","internalType":"uint16"},{"name":"cooldown","type":"uint16","internalType":"uint16"},{"name":"unitHeight","type":"uint64","internalType":"uint64"},{"name":"range","type":"uint64","internalType":"uint64"}],"stateMutability":"view"},{"type":"function","name":"currentGameId","inputs":[],"outputs":[{"name":"","type":"uint256","internalType":"uint256"}],"stateMutability":"view"},{"type":"function","name":"games","inputs":[{"name":"","type":"uint256","internalType":"uint256"}],"outputs":[{"name":"color","type":"uint8","internalType":"enum Wheel.Color"},{"name":"status","type":"uint8","internalType":"enum Wheel.Status"},{"name":"startTime","type":"uint256","internalType":"uint256"}],"stateMutability":"view"},{"type":"function","name":"getCurrentGame","inputs":[],"outputs":[{"name":"","type":"tuple","internalType":"struct Wheel.Game","components":[{"name":"color","type":"uint8","internalType":"enum Wheel.Color"},{"name":"status","type":"uint8","internalType":"enum Wheel.Status"},{"name":"startTime","type":"uint256","internalType":"uint256"}]}],"stateMutability":"view"},{"type":"function","name":"getRoleAdmin","inputs":[{"name":"role","type":"bytes32","internalType":"bytes32"}],"outputs":[{"name":"","type":"bytes32","internalType":"bytes32"}],"stateMutability":"view"},{"type":"function","name":"getUnit","inputs":[{"name":"_random","type":"uint256","internalType":"uint256"}],"outputs":[{"name":"angle_","type":"uint64","internalType":"uint64"},{"name":"index_","type":"uint64","internalType":"uint64"}],"stateMutability":"view"},{"type":"function","name":"grantRole","inputs":[{"name":"role","type":"bytes32","internalType":"bytes32"},{"name":"account","type":"address","internalType":"address"}],"outputs":[],"stateMutability":"nonpayable"},{"type":"function","name":"hasRole","inputs":[{"name":"role","type":"bytes32","internalType":"bytes32"},{"name":"account","type":"address","internalType":"address"}],"outputs":[{"name":"","type":"bool","internalType":"bool"}],"stateMutability":"view"},{"type":"function","name":"houseEdge","inputs":[],"outputs":[{"name":"","type":"uint64","internalType":"uint64"}],"stateMutability":"view"},{"type":"function","name":"minConfirmations","inputs":[],"outputs":[{"name":"","type":"uint256","internalType":"uint256"}],"stateMutability":"view"},{"type":"function","name":"multipliers","inputs":[{"name":"","type":"uint8","internalType":"enum Wheel.Color"}],"outputs":[{"name":"","type":"uint64","internalType":"uint64"}],"stateMutability":"view"},{"type":"function","name":"participants","inputs":[{"name":"","type":"uint256","internalType":"uint256"},{"name":"","type":"address","internalType":"address"}],"outputs":[{"name":"color","type":"uint8","internalType":"enum Wheel.Color"},{"name":"amount","type":"uint256","internalType":"uint256"}],"stateMutability":"view"},{"type":"function","name":"pause","inputs":[],"outputs":[],"stateMutability":"nonpayable"},{"type":"function","name":"paused","inputs":[],"outputs":[{"name":"","type":"bool","internalType":"bool"}],"stateMutability":"view"},{"type":"function","name":"randomizerCallback","inputs":[{"name":"_requestId","type":"uint256","internalType":"uint256"},{"name":"_rngList","type":"uint256[]","internalType":"uint256[]"}],"outputs":[],"stateMutability":"nonpayable"},{"type":"function","name":"randomizerRouter","inputs":[],"outputs":[{"name":"","type":"address","internalType":"contract IRandomizerRouter"}],"stateMutability":"view"},{"type":"function","name":"refundCooldown","inputs":[],"outputs":[{"name":"","type":"uint32","internalType":"uint32"}],"stateMutability":"view"},{"type":"function","name":"refundGame","inputs":[{"name":"_gameId","type":"uint256","internalType":"uint256"}],"outputs":[],"stateMutability":"nonpayable"},{"type":"function","name":"refunds","inputs":[{"name":"","type":"uint256","internalType":"uint256"},{"name":"","type":"address","internalType":"address"}],"outputs":[{"name":"","type":"bool","internalType":"bool"}],"stateMutability":"view"},{"type":"function","name":"renounceRole","inputs":[{"name":"role","type":"bytes32","internalType":"bytes32"},{"name":"account","type":"address","internalType":"address"}],"outputs":[],"stateMutability":"nonpayable"},{"type":"function","name":"requestGamePair","inputs":[{"name":"","type":"uint256","internalType":"uint256"}],"outputs":[{"name":"","type":"uint256","internalType":"uint256"}],"stateMutability":"view"},{"type":"function","name":"revokeRole","inputs":[{"name":"role","type":"bytes32","internalType":"bytes32"},{"name":"account","type":"address","internalType":"address"}],"outputs":[],"stateMutability":"nonpayable"},{"type":"function","name":"setMinConfirmations","inputs":[{"name":"_minConfirmations","type":"uint16","internalType":"uint16"}],"outputs":[],"stateMutability":"nonpayable"},{"type":"function","name":"setVaultManager","inputs":[{"name":"_vaultManager","type":"address","internalType":"contract IVaultManager"}],"outputs":[],"stateMutability":"nonpayable"},{"type":"function","name":"startTime","inputs":[],"outputs":[{"name":"","type":"uint64","internalType":"uint64"}],"stateMutability":"view"},{"type":"function","name":"supportsInterface","inputs":[{"name":"interfaceId","type":"bytes4","internalType":"bytes4"}],"outputs":[{"name":"","type":"bool","internalType":"bool"}],"stateMutability":"view"},{"type":"function","name":"totalAmounts","inputs":[{"name":"","type":"uint256","internalType":"uint256"},{"name":"","type":"address","internalType":"address"}],"outputs":[{"name":"","type":"uint256","internalType":"uint256"}],"stateMutability":"view"},{"type":"function","name":"units","inputs":[{"name":"","type":"uint256","internalType":"uint256"}],"outputs":[{"name":"","type":"uint8","internalType":"enum Wheel.Color"}],"stateMutability":"view"},{"type":"function","name":"unpause","inputs":[],"outputs":[],"stateMutability":"nonpayable"},{"type":"function","name":"updateColorMultiplier","inputs":[{"name":"_color","type":"uint8","internalType":"enum Wheel.Color"},{"name":"_multiplier","type":"uint64","internalType":"uint64"}],"outputs":[],"stateMutability":"nonpayable"},{"type":"function","name":"updateConfigAndUnits","inputs":[{"name":"_config","type":"tuple","internalType":"struct Wheel.Configuration","components":[{"name":"duration","type":"uint16","internalType":"uint16"},{"name":"cooldown","type":"uint16","internalType":"uint16"},{"name":"unitHeight","type":"uint64","internalType":"uint64"},{"name":"range","type":"uint64","internalType":"uint64"}]},{"name":"_units","type":"uint8[]","internalType":"enum Wheel.Color[]"}],"outputs":[],"stateMutability":"nonpayable"},{"type":"function","name":"updateHouseEdge","inputs":[{"name":"_houseEdge","type":"uint64","internalType":"uint64"}],"outputs":[],"stateMutability":"nonpayable"},{"type":"function","name":"updaterefundCooldown","inputs":[{"name":"_refundCooldown","type":"uint32","internalType":"uint32"}],"outputs":[],"stateMutability":"nonpayable"},{"type":"function","name":"vaultManager","inputs":[],"outputs":[{"name":"","type":"address","internalType":"contract IVaultManager"}],"stateMutability":"view"},{"type":"event","name":"Claimed","inputs":[{"name":"player","type":"address","indexed":true,"internalType":"address"},{"name":"gameId","type":"uint256","indexed":false,"internalType":"uint256"}],"anonymous":false},{"type":"event","name":"ClaimedBatch","inputs":[{"name":"gameId","type":"uint256","indexed":true,"internalType":"uint256"},{"name":"players","type":"address[]","indexed":false,"internalType":"address[]"}],"anonymous":false},{"type":"event","name":"Created","inputs":[{"name":"gameId","type":"uint256","indexed":true,"internalType":"uint256"},{"name":"startTime","type":"uint256","indexed":false,"internalType":"uint256"}],"anonymous":false},{"type":"event","name":"Participated","inputs":[{"name":"gameId","type":"uint256","indexed":true,"internalType":"uint256"},{"name":"player","type":"address","indexed":false,"internalType":"address"},{"name":"amount","type":"uint256","indexed":false,"internalType":"uint256"},{"name":"color","type":"uint8","indexed":false,"internalType":"enum Wheel.Color"},{"name":"tokens","type":"address[2]","indexed":false,"internalType":"address[2]"}],"anonymous":false},{"type":"event","name":"Paused","inputs":[{"name":"account","type":"address","indexed":false,"internalType":"address"}],"anonymous":false},{"type":"event","name":"RoleAdminChanged","inputs":[{"name":"role","type":"bytes32","indexed":true,"internalType":"bytes32"},{"name":"previousAdminRole","type":"bytes32","indexed":true,"internalType":"bytes32"},{"name":"newAdminRole","type":"bytes32","indexed":true,"internalType":"bytes32"}],"anonymous":false},{"type":"event","name":"RoleGranted","inputs":[{"name":"role","type":"bytes32","indexed":true,"internalType":"bytes32"},{"name":"account","type":"address","indexed":true,"internalType":"address"},{"name":"sender","type":"address","indexed":true,"internalType":"address"}],"anonymous":false},{"type":"event","name":"RoleRevoked","inputs":[{"name":"role","type":"bytes32","indexed":true,"internalType":"bytes32"},{"name":"account","type":"address","indexed":true,"internalType":"address"},{"name":"sender","type":"address","indexed":true,"internalType":"address"}],"anonymous":false},{"type":"event","name":"Settled","inputs":[{"name":"gameId","type":"uint256","indexed":true,"internalType":"uint256"},{"name":"color","type":"uint8","indexed":false,"internalType":"enum Wheel.Color"},{"name":"angle","type":"uint64","indexed":false,"internalType":"uint64"}],"anonymous":false},{"type":"event","name":"Unpaused","inputs":[{"name":"account","type":"address","indexed":false,"internalType":"address"}],"anonymous":false},{"type":"event","name":"UpdateHouseEdge","inputs":[{"name":"houseEdge","type":"uint64","indexed":false,"internalType":"uint64"}],"anonymous":false},{"type":"event","name":"VaultManagerChange","inputs":[{"name":"vaultManager","type":"address","indexed":false,"internalType":"address"}],"anonymous":false}],"bytecode":{"object":"0x6003805560058054600160a01b600160e01b031916601960a31b179055600060085560098054611c2063ffffffff199091161790556101006040526014608052601e60a0526213c68060c0526303c8fe8060e052601080546001600160a01b0319166f03c8fe80000000000013c680001e00141790553480156200008257600080fd5b506040516200418138038062004181833981016040819052620000a591620007b0565b6000805460ff1916815581908190620000bf90336200030f565b6001600255620000cf816200031f565b505060116020527f251164fe1d8864fe5e86082eae9c288bc2b58695a4d28538dfe86e9e4f17558580546112c06001600160401b0319918216179091557f9bfbaa59f8e10e7868f8b402de9d605a390c45ddaebd8c9de3c6f31e733c87ff805482166102581790557f08037d7b151cc412d25674a4e66b334d9ae9d2e5517a7feaae5cdb828bf1c628805461012c908316179055600160008190527f17bc176d2408558f6e4111feebc3cab4e16b63e967be91cde721f4c8a488b552805490921660c817909155604080516106208101909152908190815260200160028152602001600181526020016003815260200160018152602001600281526020016001815260200160028152602001600181526020016003815260200160018152602001600281526020016001815260200160028152602001600181526020016003815260200160018152602001600281526020016001815260200160028152602001600181526020016003815260200160018152602001600281526020016001815260200160028152602001600181526020016003815260200160018152602001600281526020016001815260200160038152602001600181526020016002815260200160018152602001600281526020016001815260200160038152602001600181526020016002815260200160018152602001600281526020016001815260200160038152602001600181526020016002815260200160018152602001600281526020016004905262000307906007906031620006db565b505062000951565b6200031b8282620003c8565b5050565b6200032c60003362000436565b6200037e5760405162461bcd60e51b815260206004820152601360248201527f4143433a204e6f7420676f7665726e616e63650000000000000000000000000060448201526064015b60405180910390fd5b600480546001600160a01b0319166001600160a01b038316179055620003c57f2f660b522cd66c3fe8eabbd9815ae97246faa2cf642722f997fcefd13b6a67b68262000463565b50565b620003d4828262000436565b6200031b5760008281526001602081815260408084206001600160a01b0386168086529252808420805460ff19169093179092559051339285917f2f8788117e7eff1d82e926ec794901d17c78024a50270940304540a733656f0d9190a45050565b60008281526001602090815260408083206001600160a01b038516845290915290205460ff165b92915050565b60008281526001602081905260409091200154620004818162000492565b6200048d8383620003c8565b505050565b620003c58133620004a4828262000436565b6200031b57620004ca816001600160a01b031660146200051b60201b62001e821760201c565b620004e083602062001e826200051b821b17811c565b604051602001620004f392919062000817565b60408051601f198184030181529082905262461bcd60e51b8252620003759160040162000890565b606060006200052c836002620008db565b62000539906002620008f5565b6001600160401b038111156200055357620005536200090b565b6040519080825280601f01601f1916602001820160405280156200057e576020820181803683370190505b509050600360fc1b816000815181106200059c576200059c62000921565b60200101906001600160f81b031916908160001a905350600f60fb1b81600181518110620005ce57620005ce62000921565b60200101906001600160f81b031916908160001a9053506000620005f4846002620008db565b62000601906001620008f5565b90505b600181111562000683576f181899199a1a9b1b9c1cb0b131b232b360811b85600f166010811062000639576200063962000921565b1a60f81b82828151811062000652576200065262000921565b60200101906001600160f81b031916908160001a90535060049490941c936200067b8162000937565b905062000604565b508315620006d45760405162461bcd60e51b815260206004820181905260248201527f537472696e67733a20686578206c656e67746820696e73756666696369656e74604482015260640162000375565b9392505050565b82805482825590600052602060002090601f01602090048101928215620007875791602002820160005b838211156200075657835183826101000a81548160ff02191690836004811115620007345762000734620007db565b0217905550926020019260010160208160000104928301926001030262000705565b8015620007855782816101000a81549060ff021916905560010160208160000104928301926001030262000756565b505b506200079592915062000799565b5090565b5b808211156200079557600081556001016200079a565b600060208284031215620007c357600080fd5b81516001600160a01b0381168114620006d457600080fd5b634e487b7160e01b600052602160045260246000fd5b60005b838110156200080e578181015183820152602001620007f4565b50506000910152565b7f416363657373436f6e74726f6c3a206163636f756e742000000000000000000081526000835162000851816017850160208801620007f1565b7001034b99036b4b9b9b4b733903937b6329607d1b601791840191820152835162000884816028840160208801620007f1565b01602801949350505050565b6020815260008251806020840152620008b1816040850160208701620007f1565b601f01601f19169190910160400192915050565b634e487b7160e01b600052601160045260246000fd5b80820281158282048414176200045d576200045d620008c5565b808201808211156200045d576200045d620008c5565b634e487b7160e01b600052604160045260246000fd5b634e487b7160e01b600052603260045260246000fd5b600081620009495762000949620008c5565b506000190190565b61382080620009616000396000f3fe608060405234801561001057600080fd5b506004361061028a5760003560e01c806379502c551161015c578063b543503e116100ce578063e5199bb811610087578063e5199bb814610750578063e5fba6cc14610763578063e7c4393e14610783578063e84f0cc01461078c578063f6913a761461079f578063f7137e77146107bf57600080fd5b8063b543503e146106c3578063bf193005146106d6578063ca47970d146106fd578063d547741f14610710578063d667dcd714610723578063d7260cba1461073d57600080fd5b806391d148541161012057806391d148541461063057806392870d9414610643578063968d901b1461066c578063a217fddf14610681578063a353572914610689578063aaf5eb68146106b457600080fd5b806379502c55146105845780638456cb59146105ef5780638a4adf24146105f75780638f130d501461060a5780639104a03d1461061d57600080fd5b8063377ec8fd1161020057806349d5e604116101b957806349d5e604146104e05780634b95a52e146105075780634f66413414610532578063536a3ddc146105455780635c975abb1461054e57806378e979251461055957600080fd5b8063377ec8fd14610446578063379607f5146104595780633cc6db731461046c5780633f4ba83a1461047f578063435290f514610487578063454cc4bc146104b257600080fd5b80631655bfbe116102525780631655bfbe146103685780631da4c66b1461039b578063248a9ca3146103c95780632d3e8c93146103fb5780632f2ff15d1461042057806336568abe1461043357600080fd5b806301ffc9a71461028f57806302e060c6146102b757806305009259146102fd578063117a5b9014610312578063151925be14610355575b600080fd5b6102a261029d366004612bba565b6107d2565b60405190151581526020015b60405180910390f35b6102ef6102c5366004612bf9565b600e6020908152600092835260408084209091529082529020805460019091015460ff9091169082565b6040516102ae929190612c53565b61031061030b366004612cc8565b610809565b005b610346610320366004612d6a565b600a602052600090815260409020805460019091015460ff808316926101009004169083565b6040516102ae93929190612d93565b610310610363366004612dd1565b610bd5565b61037b610376366004612d6a565b610c5a565b604080516001600160401b039384168152929091166020830152016102ae565b6102a26103a9366004612bf9565b600d60209081526000928352604080842090915290825290205460ff1681565b6103ed6103d7366004612d6a565b6000908152600160208190526040909120015490565b6040519081526020016102ae565b60095461040b9063ffffffff1681565b60405163ffffffff90911681526020016102ae565b61031061042e366004612bf9565b610ce2565b610310610441366004612bf9565b610d0d565b610310610454366004612e48565b610d8b565b610310610467366004612d6a565b610f3b565b61031061047a366004612ec5565b611242565b610310611579565b6103ed610495366004612bf9565b600f60209081526000928352604080842090915290825290205481565b6102a26104c0366004612bf9565b600c60209081526000928352604080842090915290825290205460ff1681565b6103ed7f9b82d2f38fbdf13006bfa741767f793d917e063392737837b580c1c2b1e0bab381565b60045461051a906001600160a01b031681565b6040516001600160a01b0390911681526020016102ae565b610310610540366004612f6f565b6115ea565b6103ed60085481565b60005460ff166102a2565b60065461056c906001600160401b031681565b6040516001600160401b0390911681526020016102ae565b6010546105ba9061ffff80821691620100008104909116906001600160401b036401000000008204811691600160601b90041684565b6040805161ffff95861681529490931660208501526001600160401b03918216928401929092521660608201526080016102ae565b610310611612565b60055461051a906001600160a01b031681565b610310610618366004612f95565b611681565b61031061062b366004612fc2565b6116f0565b6102a261063e366004612bf9565b611720565b61056c610651366004612fdf565b6011602052600090815260409020546001600160401b031681565b61067461174b565b6040516102ae9190612ffa565b6103ed600081565b6103ed61069736600461302e565b8051602081830181018051600b8252928201919093012091525481565b6103ed670de0b6b3a764000081565b6103106106d1366004612f95565b61183f565b6103ed7f2f660b522cd66c3fe8eabbd9815ae97246faa2cf642722f997fcefd13b6a67b681565b6103ed61070b3660046130c2565b6118bb565b61031061071e366004612bf9565b61191b565b60055461056c90600160a01b90046001600160401b031681565b61031061074b366004612d6a565b611941565b61031061075e3660046130ee565b611c6f565b610776610771366004612d6a565b611ce5565b6040516102ae9190613120565b6103ed60035481565b61031061079a36600461312e565b611d19565b6103ed6107ad366004612d6a565b60126020526000908152604090205481565b6103ed6107cd36600461314b565b611d9b565b60006001600160e01b03198216637965db0b60e01b148061080357506301ffc9a760e01b6001600160e01b03198316145b92915050565b60028054036108335760405162461bcd60e51b815260040161082a90613177565b60405180910390fd5b6002805580518360006108468383611d9b565b60055460405163a8e3925760e01b81523060048201529192506001600160a01b03169063a8e3925790602401602060405180830381865afa15801561088f573d6000803e3d6000fd5b505050506040513d601f19601f820116820180604052508101906108b391906131c4565b8110156108f85760405162461bcd60e51b815260206004820152601360248201527247414d453a20576167657220746f6f206c6f7760681b604482015260640161082a565b600560009054906101000a90046001600160a01b03166001600160a01b0316638ac402596040518163ffffffff1660e01b8152600401602060405180830381865afa15801561094b573d6000803e3d6000fd5b505050506040513d601f19601f8201168201806040525081019061096f91906131c4565b8111156109b55760405162461bcd60e51b815260206004820152601460248201527308e829a8a7440aec2cecae440e8dede40d0d2ced60631b604482015260640161082a565b6109bd61201d565b6109c5612063565b6010546008546000908152600a602052604081206001015490916109ef9161ffff909116906131f3565b9050804210610a335760405162461bcd60e51b815260206004820152601060248201526f15d2114e8811d85b594818db1bdcd95960821b604482015260640161082a565b6000866004811115610a4757610a47612c29565b03610a855760405162461bcd60e51b815260206004820152600e60248201526d21b437b7b9b290309031b7b637b960911b604482015260640161082a565b6008546000818152600e602090815260408083203380855292529091206001015490919015610aea5760405162461bcd60e51b81526020600482015260116024820152704265742063616e6e6f74206368616e676560781b604482015260640161082a565b610af6828a8a8a6121ab565b6040518060600160405280896004811115610b1357610b13612c29565b815260208082018c905260409182018a90526000848152600e82528281206001600160a01b03871682529091522081518154829060ff19166001836004811115610b5f57610b5f612c29565b0217905550602082015160018201556040820151610b839060028084019190612a92565b50905050807fd1a40d721ebfc551c72f337c5915444f60130b31bee22bc1267bf2cad4102d68838b8b8b604051610bbd9493929190613232565b60405180910390a25050600160025550505050505050565b610be0600033611720565b610bfc5760405162461bcd60e51b815260040161082a9061326c565b8060116000846004811115610c1357610c13612c29565b6004811115610c2457610c24612c29565b815260200190815260200160002060006101000a8154816001600160401b0302191690836001600160401b031602179055505050565b6040805160808101825260105461ffff80821683526201000082041660208301526001600160401b036401000000008204811693830193909352600160601b9004909116606082018190526000918291610cb490856132af565b6040820151909350610cc681856132c3565b610cd090856132e9565b610cda9190613310565b915050915091565b60008281526001602081905260409091200154610cfe81612390565b610d08838361239a565b505050565b6001600160a01b0381163314610d7d5760405162461bcd60e51b815260206004820152602f60248201527f416363657373436f6e74726f6c3a2063616e206f6e6c792072656e6f756e636560448201526e103937b632b9903337b91039b2b63360891b606482015260840161082a565b610d878282612405565b5050565b610d96600033611720565b610db25760405162461bcd60e51b815260040161082a9061326c565b610dba61246c565b610dca606084016040850161312e565b6001600160401b0316600003610e225760405162461bcd60e51b815260206004820152601e60248201527f5748453a20756e6974206865696768742063616e2774206265207a65726f0000604482015260640161082a565b610e32608084016060850161312e565b6001600160401b0316600003610e8a5760405162461bcd60e51b815260206004820152601860248201527f5748453a2072616e67652063616e2774206265207a65726f0000000000000000604482015260640161082a565b80610e9b606085016040860161312e565b610eab608086016060870161312e565b610eb59190613310565b6001600160401b031614610f195760405162461bcd60e51b815260206004820152602560248201527f5748453a20646f6573206e6f74206d61746368207769746820756e697473206c6044820152640cadccee8d60db1b606482015260840161082a565b826010610f268282613336565b50610f35905060078383612aea565b50505050565b6002805403610f5c5760405162461bcd60e51b815260040161082a90613177565b600280556000818152600a602052604080822081516060810190925280543393929190829060ff166004811115610f9557610f95612c29565b6004811115610fa657610fa6612c29565b81528154602090910190610100900460ff166003811115610fc957610fc9612c29565b6003811115610fda57610fda612c29565b8152600191909101546020918201526000858152600e825260408082206001600160a01b038716835290925281812082516060810190935280549394509092829060ff16600481111561102f5761102f612c29565b600481111561104057611040612c29565b8152600182015460208201526040805180820180835291909201919060028085019182845b81546001600160a01b0316815260019091019060200180831161106557505050919092525050506000858152600d602090815260408083206001600160a01b038816845290915290205490915060ff16156110f95760405162461bcd60e51b815260206004820152601460248201527315d2114e88105b1c9958591e4818db185a5b595960621b604482015260640161082a565b60038260200151600381111561111157611111612c29565b1461115e5760405162461bcd60e51b815260206004820152601860248201527f47616d65206861736e27742066696e6973686564207965740000000000000000604482015260640161082a565b8151600481111561117157611171612c29565b8151600481111561118457611184612c29565b146111bd5760405162461bcd60e51b815260206004820152600960248201526815d2114e88131bdcdd60ba1b604482015260640161082a565b6000848152600d602090815260408083206001600160a01b03871684529091529020805460ff191660011790556111f483826124b5565b826001600160a01b03167fd8138f8a3f377c5259ca548e70e4c2de94f129f5a11036a15b69513cba2b426a8560405161122f91815260200190565b60405180910390a2505060016002555050565b60028054036112635760405162461bcd60e51b815260040161082a90613177565b600280556000828152600a60205260408082208151606081019092528054829060ff16600481111561129757611297612c29565b60048111156112a8576112a8612c29565b81528154602090910190610100900460ff1660038111156112cb576112cb612c29565b60038111156112dc576112dc612c29565b815260019190910154602090910152905060038160200151600381111561130557611305612c29565b146113525760405162461bcd60e51b815260206004820152601960248201527f5748453a2047616d65206973206e6f742066696e697368656400000000000000604482015260640161082a565b60005b8251811015611536576000838281518110611372576113726131ae565b6020908102919091018101516000878152600e835260408082206001600160a01b03841683529093528281208351606081019094528054929450909291829060ff1660048111156113c5576113c5612c29565b60048111156113d6576113d6612c29565b8152600182015460208201526040805180820180835291909201919060028085019182845b81546001600160a01b031681526001909101906020018083116113fb57505050919092525050506000878152600d602090815260408083206001600160a01b038716845290915290205490915060ff161561148f5760405162461bcd60e51b815260206004820152601460248201527315d2114e88105b1c9958591e4818db185a5b595960621b604482015260640161082a565b805160048111156114a2576114a2612c29565b845160048111156114b5576114b5612c29565b1480156114e557506000868152600d602090815260408083206001600160a01b038616845290915290205460ff16155b15611521576000868152600d602090815260408083206001600160a01b03861684529091529020805460ff1916600117905561152182826124b5565b5050808061152e906133f8565b915050611355565b50827f07f38d323c09aae3f16ee05790d617fc47606c94a98ec699c62860bcb17a06e3836040516115679190613411565b60405180910390a25050600160025550565b6115a37f9b82d2f38fbdf13006bfa741767f793d917e063392737837b580c1c2b1e0bab333611720565b6115e05760405162461bcd60e51b815260206004820152600e60248201526d47414d453a204e6f74207465616d60901b604482015260640161082a565b6115e8612539565b565b60006115f581612390565b506009805463ffffffff191663ffffffff92909216919091179055565b61163c7f9b82d2f38fbdf13006bfa741767f793d917e063392737837b580c1c2b1e0bab333611720565b6116795760405162461bcd60e51b815260206004820152600e60248201526d47414d453a204e6f74207465616d60901b604482015260640161082a565b6115e861258b565b61168c600033611720565b6116a85760405162461bcd60e51b815260040161082a9061326c565b600480546001600160a01b0319166001600160a01b0383161790556116ed7f2f660b522cd66c3fe8eabbd9815ae97246faa2cf642722f997fcefd13b6a67b682610ce2565b50565b6116fb600033611720565b6117175760405162461bcd60e51b815260040161082a9061326c565b61ffff16600355565b60009182526001602090815260408084206001600160a01b0393909316845291905290205460ff1690565b6117706040805160608101909152806000815260200160008152602001600081525090565b6008546000908152600a60205260408082208151606081019092528054829060ff1660048111156117a3576117a3612c29565b60048111156117b4576117b4612c29565b81528154602090910190610100900460ff1660038111156117d7576117d7612c29565b60038111156117e8576117e8612c29565b815260019190910154602090910152601054604082015191925061ffff160142811180159061182c575060018260200151600381111561182a5761182a612c29565b145b1561183957600260208301525b50919050565b61184a600033611720565b6118665760405162461bcd60e51b815260040161082a9061326c565b600580546001600160a01b0319166001600160a01b0383169081179091556040519081527fa908db00c4502bbe936c6ac99cb6d67f0636790d9b238cfddab0139153f5eb74906020015b60405180910390a150565b60006064601160008460048111156118d5576118d5612c29565b60048111156118e6576118e6612c29565b815260208101919091526040016000205461190a906001600160401b03168561345e565b6119149190613475565b9392505050565b6000828152600160208190526040909120015461193781612390565b610d088383612405565b60028054036119625760405162461bcd60e51b815260040161082a90613177565b600280556000818152600e6020908152604080832033808552908352818420858552600a909352818420825160608101909352805491949291829060ff1660048111156119b1576119b1612c29565b60048111156119c2576119c2612c29565b81528154602090910190610100900460ff1660038111156119e5576119e5612c29565b60038111156119f6576119f6612c29565b81526001919091015460209091015260095460408201519192504291611a229163ffffffff16906131f3565b10611a6f5760405162461bcd60e51b815260206004820152601a60248201527f47616d65206973206e6f7420726566756e6461626c6520796574000000000000604482015260640161082a565b600381602001516003811115611a8757611a87612c29565b03611ac55760405162461bcd60e51b815260206004820152600e60248201526d11d85b594818dbdb5c1b195d195960921b604482015260640161082a565b6000848152600c602090815260408083206001600160a01b038716845290915290205460ff1615611b2b5760405162461bcd60e51b815260206004820152601060248201526f105b1c9958591e481c99599d5b99195960821b604482015260640161082a565b6000848152600c602090815260408083206001600160a01b03808816855292528220805460ff191660011790556005541690634154aede90600285010154600185015460405160e084901b6001600160e01b03191681526001600160a01b03928316600482015260248101919091529086166044820152606401600060405180830381600087803b158015611bbf57600080fd5b505af1158015611bd3573d6000803e3d6000fd5b5050600554600285015460018601546040516338ff14d360e21b81526001600160a01b039283166004820152888316602482015260448101919091526001600160401b03600160a01b84041660648201529116925063e3fc534c9150608401600060405180830381600087803b158015611c4c57600080fd5b505af1158015611c60573d6000803e3d6000fd5b50506001600255505050505050565b611c997f2f660b522cd66c3fe8eabbd9815ae97246faa2cf642722f997fcefd13b6a67b633611720565b611cda5760405162461bcd60e51b815260206004820152601260248201527129219d102737ba103930b73237b6b4bd32b960711b604482015260640161082a565b610d088383836125c8565b60078181548110611cf557600080fd5b9060005260206000209060209182820401919006915054906101000a900460ff1681565b611d24600033611720565b611d405760405162461bcd60e51b815260040161082a9061326c565b6005805467ffffffffffffffff60a01b1916600160a01b6001600160401b038416908102919091179091556040519081527f6a0c74d2a2f78a7af3b6da5a6ae0321cc6d9b6271a7544a895e01d6bf1916e2c906020016118b0565b6000826001600160a01b031663313ce5676040518163ffffffff1660e01b8152600401602060405180830381865afa158015611ddb573d6000803e3d6000fd5b505050506040513d601f19601f82011682018060405250810190611dff9190613489565b611e0a90600a613590565b6005546040516341976e0960e01b81526001600160a01b038681166004830152909116906341976e0990602401602060405180830381865afa158015611e54573d6000803e3d6000fd5b505050506040513d601f19601f82011682018060405250810190611e7891906131c4565b61190a908461345e565b60606000611e9183600261345e565b611e9c9060026131f3565b6001600160401b03811115611eb357611eb3612c82565b6040519080825280601f01601f191660200182016040528015611edd576020820181803683370190505b509050600360fc1b81600081518110611ef857611ef86131ae565b60200101906001600160f81b031916908160001a905350600f60fb1b81600181518110611f2757611f276131ae565b60200101906001600160f81b031916908160001a9053506000611f4b84600261345e565b611f569060016131f3565b90505b6001811115611fce576f181899199a1a9b1b9c1cb0b131b232b360811b85600f1660108110611f8a57611f8a6131ae565b1a60f81b828281518110611fa057611fa06131ae565b60200101906001600160f81b031916908160001a90535060049490941c93611fc78161359f565b9050611f59565b5083156119145760405162461bcd60e51b815260206004820181905260248201527f537472696e67733a20686578206c656e67746820696e73756666696369656e74604482015260640161082a565b60005460ff16156115e85760405162461bcd60e51b815260206004820152601060248201526f14185d5cd8589b194e881c185d5cd95960821b604482015260640161082a565b6008546010546000828152600a6020526040812060010154909161ffff6201000082048116926120979291909116906131f3565b6120a191906131f3565b90504281811115610d0857826120b6816133f8565b601054909450600091506120da906001906120d59061ffff16856131f3565b612981565b600081815260126020526040808220879055805160608101909152919250819081526020016001815260209081018490526000868152600a9091526040902081518154829060ff1916600183600481111561213757612137612c29565b021790555060208201518154829061ff00191661010083600381111561215f5761215f612c29565b02179055506040918201516001909101555182815284907f644ed1b9c015f81d5487c81fca09b9c4ab92aab7d2e18b1bbc4a8ea6107bff2b9060200160405180910390a2505050600855565b60055460085482516001600160a01b03909216916000916121cc91866129ff565b6008546000908152600f6020908152604080832087516001600160a01b0316845290915290819020805488019055519091508590600b9061220e9084906135da565b908152604051602091819003919091018120805492909201909155835163415cdf0d60e11b82526001600160a01b0390811660048301528781166024830152604482018790528316906382b9be1a90606401600060405180830381600087803b15801561227a57600080fd5b505af115801561228e573d6000803e3d6000fd5b505084516040516303d1db8560e31b81526001600160a01b0391821660048201526024810189905289821660448201529085169250631e8edc289150606401600060405180830381600087803b1580156122e757600080fd5b505af11580156122fb573d6000803e3d6000fd5b50508451600554604051633005989b60e11b81526001600160a01b0392831660048201528a83166024820152604481018a90526001600160401b03600160a01b909204919091166064820152908516925063600b31369150608401600060405180830381600087803b15801561237057600080fd5b505af1158015612384573d6000803e3d6000fd5b50505050505050505050565b6116ed8133612a2e565b6123a48282611720565b610d875760008281526001602081815260408084206001600160a01b0386168086529252808420805460ff19169093179092559051339285917f2f8788117e7eff1d82e926ec794901d17c78024a50270940304540a733656f0d9190a45050565b61240f8282611720565b15610d875760008281526001602090815260408083206001600160a01b0385168085529252808320805460ff1916905551339285917ff6391f5c32d9c69d2a47ea670b442974b53935d1edc7fd64eb21e047a839171b9190a45050565b60005460ff166115e85760405162461bcd60e51b815260206004820152601460248201527314185d5cd8589b194e881b9bdd081c185d5cd95960621b604482015260640161082a565b6005546040820151602083015183516001600160a01b039093169263a7448316929186916124e49082906118bb565b6040518563ffffffff1660e01b815260040161250394939291906135f6565b600060405180830381600087803b15801561251d57600080fd5b505af1158015612531573d6000803e3d6000fd5b505050505050565b61254161246c565b6000805460ff191690557f5db9ee0a495bf2e6ff9c91a7834c1ba4fdd244a5e8aa4e537bd38aeae4b073aa335b6040516001600160a01b03909116815260200160405180910390a1565b61259361201d565b6000805460ff191660011790557f62e78cea01bee320cd4e420270b5ea74000d11b0c9f74754ebdbfc544b05a25861256e3390565b60008381526012602052604090205460016000828152600a6020526040902054610100900460ff16600381111561260157612601612c29565b146126435760405162461bcd60e51b815260206004820152601260248201527115d2114e8811d85b5948199a5b9a5cda195960721b604482015260640161082a565b6009546000828152600a60205260409020600101546126689163ffffffff16906131f3565b42106126d45760405162461bcd60e51b815260206004820152603560248201527f5748453a2046756c46696c6c206973206e6f7420616c6c6f776564206166746560448201527439103a3432903932b33ab7321031b7b7b63237bbb760591b606482015260840161082a565b6000806126f9858560008181106126ed576126ed6131ae565b90506020020135610c5a565b9150915060006007826001600160401b03168154811061271b5761271b6131ae565b6000918252602080832090820401546005546040805162e26f7960e81b81529051601f9094166101000a90920460ff1694506001600160a01b03169291839163e26f790091600480830192869291908290030181865afa158015612783573d6000803e3d6000fd5b505050506040513d6000823e601f3d908101601f191682016040526127ab9190810190613628565b9050606060008080805b85518160ff1610156128ea57858160ff16815181106127d6576127d66131ae565b602002602001015193506127eb8b858a6129ff565b9450600b856040516127fd91906135da565b90815260408051602092819003830190205460008e8152600f84528281206001600160a01b03891682529093529120549093509150828211156128da576005546001600160a01b0316636bd6864c8561285686866136c1565b6040516001600160e01b031960e085901b1681526001600160a01b0390921660048301526024820152604401600060405180830381600087803b15801561289c57600080fd5b505af11580156128b0573d6000803e3d6000fd5b50505060008c8152600f602090815260408083206001600160a01b03891684529091529020849055505b6128e3816136d4565b90506127b5565b5060008a8152600a60205260409020805488919060ff1916600183600481111561291657612916612c29565b021790555060008a8152600a602052604090819020805461ff001916610300179055518a907fe5bc23cf592f7d95decdd5672b6055411b5ea236611adf7262b6b1ee87c70b059061296a908a908d906136f3565b60405180910390a250505050505050505050505050565b6004805460405163132db6d560e31b815260ff851692810192909252602482018390526000916001600160a01b039091169063996db6a8906044016020604051808303816000875af11580156129db573d6000803e3d6000fd5b505050506040513d601f19601f8201168201806040525081019061191491906131c4565b6060838383604051602001612a1693929190613717565b60405160208183030381529060405290509392505050565b612a388282611720565b610d8757612a50816001600160a01b03166014611e82565b612a5b836020611e82565b604051602001612a6c929190613742565b60408051601f198184030181529082905262461bcd60e51b825261082a916004016137b7565b8260028101928215612ada579160200282015b82811115612ada57825182546001600160a01b0319166001600160a01b03909116178255602090920191600190910190612aa5565b50612ae6929150612ba5565b5090565b82805482825590600052602060002090601f01602090048101928215612ada5791602002820160005b83821115612b6f578335600481118015612b2c57600080fd5b5083826101000a81548160ff02191690836004811115612b4e57612b4e612c29565b02179055509260200192600101602081600001049283019260010302612b13565b8015612b9c5782816101000a81549060ff0219169055600101602081600001049283019260010302612b6f565b5050612ae69291505b5b80821115612ae65760008155600101612ba6565b600060208284031215612bcc57600080fd5b81356001600160e01b03198116811461191457600080fd5b6001600160a01b03811681146116ed57600080fd5b60008060408385031215612c0c57600080fd5b823591506020830135612c1e81612be4565b809150509250929050565b634e487b7160e01b600052602160045260246000fd5b60058110612c4f57612c4f612c29565b9052565b60408101612c618285612c3f565b8260208301529392505050565b803560058110612c7d57600080fd5b919050565b634e487b7160e01b600052604160045260246000fd5b604051601f8201601f191681016001600160401b0381118282101715612cc057612cc0612c82565b604052919050565b600080600060808486031215612cdd57600080fd5b833592506020612cee818601612c6e565b925085605f860112612cff57600080fd5b604051604081018181106001600160401b0382111715612d2157612d21612c82565b604052806080870188811115612d3657600080fd5b604088015b81811015612d5b578035612d4e81612be4565b8352918401918401612d3b565b50505080925050509250925092565b600060208284031215612d7c57600080fd5b5035919050565b60048110612c4f57612c4f612c29565b60608101612da18286612c3f565b612dae6020830185612d83565b826040830152949350505050565b6001600160401b03811681146116ed57600080fd5b60008060408385031215612de457600080fd5b612ded83612c6e565b91506020830135612c1e81612dbc565b60008083601f840112612e0f57600080fd5b5081356001600160401b03811115612e2657600080fd5b6020830191508360208260051b8501011115612e4157600080fd5b9250929050565b600080600083850360a0811215612e5e57600080fd5b6080811215612e6c57600080fd5b5083925060808401356001600160401b03811115612e8957600080fd5b612e9586828701612dfd565b9497909650939450505050565b60006001600160401b03821115612ebb57612ebb612c82565b5060051b60200190565b60008060408385031215612ed857600080fd5b823591506020808401356001600160401b03811115612ef657600080fd5b8401601f81018613612f0757600080fd5b8035612f1a612f1582612ea2565b612c98565b81815260059190911b82018301908381019088831115612f3957600080fd5b928401925b82841015612f60578335612f5181612be4565b82529284019290840190612f3e565b80955050505050509250929050565b600060208284031215612f8157600080fd5b813563ffffffff8116811461191457600080fd5b600060208284031215612fa757600080fd5b813561191481612be4565b61ffff811681146116ed57600080fd5b600060208284031215612fd457600080fd5b813561191481612fb2565b600060208284031215612ff157600080fd5b61191482612c6e565b600060608201905061300d828451612c3f565b602083015161301f6020840182612d83565b50604092830151919092015290565b6000602080838503121561304157600080fd5b82356001600160401b038082111561305857600080fd5b818501915085601f83011261306c57600080fd5b81358181111561307e5761307e612c82565b613090601f8201601f19168501612c98565b915080825286848285010111156130a657600080fd5b8084840185840137600090820190930192909252509392505050565b600080604083850312156130d557600080fd5b823591506130e560208401612c6e565b90509250929050565b60008060006040848603121561310357600080fd5b8335925060208401356001600160401b03811115612e8957600080fd5b602081016108038284612c3f565b60006020828403121561314057600080fd5b813561191481612dbc565b6000806040838503121561315e57600080fd5b823561316981612be4565b946020939093013593505050565b6020808252601f908201527f5265656e7472616e637947756172643a207265656e7472616e742063616c6c00604082015260600190565b634e487b7160e01b600052603260045260246000fd5b6000602082840312156131d657600080fd5b5051919050565b634e487b7160e01b600052601160045260246000fd5b80820180821115610803576108036131dd565b8060005b6002811015610f355781516001600160a01b031684526020938401939091019060010161320a565b6001600160a01b03851681526020810184905260a081016132566040830185612c3f565b6132636060830184613206565b95945050505050565b6020808252601390820152724143433a204e6f7420676f7665726e616e636560681b604082015260600190565b634e487b7160e01b600052601260045260246000fd5b6000826132be576132be613299565b500690565b60006001600160401b03808416806132dd576132dd613299565b92169190910692915050565b6001600160401b03828116828216039080821115613309576133096131dd565b5092915050565b60006001600160401b038084168061332a5761332a613299565b92169190910492915050565b813561334181612fb2565b61ffff8116905081548161ffff198216178355602084013561336281612fb2565b63ffff00008160101b169050808363ffffffff19841617178455604085013561338a81612dbc565b6bffffffffffffffff000000008160201b169050836bffffffffffffffffffffffff19841617935080848317178555606086013592506133c983612dbc565b67ffffffffffffffff60601b1993909316179190911760609190911b67ffffffffffffffff60601b1617905550565b60006001820161340a5761340a6131dd565b5060010190565b6020808252825182820181905260009190848201906040850190845b818110156134525783516001600160a01b03168352928401929184019160010161342d565b50909695505050505050565b8082028115828204841417610803576108036131dd565b60008261348457613484613299565b500490565b60006020828403121561349b57600080fd5b815160ff8116811461191457600080fd5b600181815b808511156134e75781600019048211156134cd576134cd6131dd565b808516156134da57918102915b93841c93908002906134b1565b509250929050565b6000826134fe57506001610803565b8161350b57506000610803565b8160018114613521576002811461352b57613547565b6001915050610803565b60ff84111561353c5761353c6131dd565b50506001821b610803565b5060208310610133831016604e8410600b841016171561356a575081810a610803565b61357483836134ac565b8060001904821115613588576135886131dd565b029392505050565b600061191460ff8416836134ef565b6000816135ae576135ae6131dd565b506000190190565b60005b838110156135d15781810151838201526020016135b9565b50506000910152565b600082516135ec8184602087016135b6565b9190910192915050565b60a081016136048287613206565b6001600160a01b039490941660408201526060810192909252608090910152919050565b6000602080838503121561363b57600080fd5b82516001600160401b0381111561365157600080fd5b8301601f8101851361366257600080fd5b8051613670612f1582612ea2565b81815260059190911b8201830190838101908783111561368f57600080fd5b928401925b828410156136b65783516136a781612be4565b82529284019290840190613694565b979650505050505050565b81810381811115610803576108036131dd565b600060ff821660ff81036136ea576136ea6131dd565b60010192915050565b604081016137018285612c3f565b6001600160401b03831660208301529392505050565b8381526001600160a01b03831660208201526060810161373a6040830184612c3f565b949350505050565b7f416363657373436f6e74726f6c3a206163636f756e742000000000000000000081526000835161377a8160178501602088016135b6565b7001034b99036b4b9b9b4b733903937b6329607d1b60179184019182015283516137ab8160288401602088016135b6565b01602801949350505050565b60208152600082518060208401526137d68160408501602087016135b6565b601f01601f1916919091016040019291505056fea2646970667358221220929db5dbfcdefbfad6e460ab494fbbe0c7c236c26c2f884e366c6d8a64682dc064736f6c63430008110033","linkReferences":{}},"methodIdentifiers":{"DEFAULT_ADMIN_ROLE()":"a217fddf","PRECISION()":"aaf5eb68","RANDOMIZER_ROLE()":"bf193005","TEAM_ROLE()":"49d5e604","_computeDollarValue(address,uint256)":"f7137e77","amounts(bytes)":"a3535729","bet(uint256,uint8,address[2])":"05009259","calcReward(uint256,uint8)":"ca47970d","changeRandomizerRouter(address)":"8f130d50","claim(uint256)":"379607f5","claimBatch(uint256,address[])":"3cc6db73","claims(uint256,address)":"1da4c66b","config()":"79502c55","currentGameId()":"536a3ddc","games(uint256)":"117a5b90","getCurrentGame()":"968d901b","getRoleAdmin(bytes32)":"248a9ca3","getUnit(uint256)":"1655bfbe","grantRole(bytes32,address)":"2f2ff15d","hasRole(bytes32,address)":"91d14854","houseEdge()":"d667dcd7","minConfirmations()":"e7c4393e","multipliers(uint8)":"92870d94","participants(uint256,address)":"02e060c6","pause()":"8456cb59","paused()":"5c975abb","randomizerCallback(uint256,uint256[])":"e5199bb8","randomizerRouter()":"4b95a52e","refundCooldown()":"2d3e8c93","refundGame(uint256)":"d7260cba","refunds(uint256,address)":"454cc4bc","renounceRole(bytes32,address)":"36568abe","requestGamePair(uint256)":"f6913a76","revokeRole(bytes32,address)":"d547741f","setMinConfirmations(uint16)":"9104a03d","setVaultManager(address)":"b543503e","startTime()":"78e97925","supportsInterface(bytes4)":"01ffc9a7","totalAmounts(uint256,address)":"435290f5","units(uint256)":"e5fba6cc","unpause()":"3f4ba83a","updateColorMultiplier(uint8,uint64)":"151925be","updateConfigAndUnits((uint16,uint16,uint64,uint64),uint8[])":"377ec8fd","updateHouseEdge(uint64)":"e84f0cc0","updaterefundCooldown(uint32)":"4f664134","vaultManager()":"8a4adf24"},"id":8}