{"abi":[{"type":"constructor","inputs":[{"name":"_router","type":"address","internalType":"contract IRandomizerRouter"}],"stateMutability":"nonpayable"},{"type":"function","name":"DEFAULT_ADMIN_ROLE","inputs":[],"outputs":[{"name":"","type":"bytes32","internalType":"bytes32"}],"stateMutability":"view"},{"type":"function","name":"PRECISION","inputs":[],"outputs":[{"name":"","type":"uint256","internalType":"uint256"}],"stateMutability":"view"},{"type":"function","name":"RANDOMIZER_ROLE","inputs":[],"outputs":[{"name":"","type":"bytes32","internalType":"bytes32"}],"stateMutability":"view"},{"type":"function","name":"TEAM_ROLE","inputs":[],"outputs":[{"name":"","type":"bytes32","internalType":"bytes32"}],"stateMutability":"view"},{"type":"function","name":"_computeDollarValue","inputs":[{"name":"_token","type":"address","internalType":"address"},{"name":"_wager","type":"uint256","internalType":"uint256"}],"outputs":[{"name":"_wagerInDollar","type":"uint256","internalType":"uint256"}],"stateMutability":"view"},{"type":"function","name":"bet","inputs":[{"name":"_wager","type":"uint256","internalType":"uint256"},{"name":"_count","type":"uint8","internalType":"uint8"},{"name":"_stopGain","type":"uint256","internalType":"uint256"},{"name":"_stopLoss","type":"uint256","internalType":"uint256"},{"name":"_gameData","type":"bytes","internalType":"bytes"},{"name":"_tokens","type":"address[2]","internalType":"address[2]"}],"outputs":[],"stateMutability":"nonpayable"},{"type":"function","name":"calcReward","inputs":[{"name":"_wager","type":"uint256","internalType":"uint256"},{"name":"_multiplier","type":"uint256","internalType":"uint256"}],"outputs":[{"name":"reward_","type":"uint256","internalType":"uint256"}],"stateMutability":"pure"},{"type":"function","name":"calcWager","inputs":[{"name":"_count","type":"uint256","internalType":"uint256"},{"name":"_usedCount","type":"uint256","internalType":"uint256"},{"name":"_wager","type":"uint256","internalType":"uint256"}],"outputs":[{"name":"usedWager_","type":"uint256","internalType":"uint256"},{"name":"unusedWager_","type":"uint256","internalType":"uint256"}],"stateMutability":"pure"},{"type":"function","name":"changeRandomizerRouter","inputs":[{"name":"_randomizerRouter","type":"address","internalType":"contract IRandomizerRouter"}],"outputs":[],"stateMutability":"nonpayable"},{"type":"function","name":"completedGames","inputs":[{"name":"","type":"uint256","internalType":"uint256"}],"outputs":[{"name":"","type":"bool","internalType":"bool"}],"stateMutability":"view"},{"type":"function","name":"config","inputs":[],"outputs":[{"name":"minMultiplier","type":"uint32","internalType":"uint32"},{"name":"maxMultiplier","type":"uint32","internalType":"uint32"}],"stateMutability":"view"},{"type":"function","name":"decodeGameData","inputs":[{"name":"_gameData","type":"bytes","internalType":"bytes"}],"outputs":[{"name":"","type":"uint32","internalType":"uint32"}],"stateMutability":"pure"},{"type":"function","name":"encodeGameData","inputs":[{"name":"_choice","type":"uint32","internalType":"uint32"}],"outputs":[{"name":"","type":"bytes","internalType":"bytes"}],"stateMutability":"pure"},{"type":"function","name":"games","inputs":[{"name":"","type":"uint256","internalType":"uint256"}],"outputs":[{"name":"count","type":"uint8","internalType":"uint8"},{"name":"player","type":"address","internalType":"address"},{"name":"gameData","type":"bytes","internalType":"bytes"},{"name":"wager","type":"uint256","internalType":"uint256"},{"name":"startTime","type":"uint256","internalType":"uint256"}],"stateMutability":"view"},{"type":"function","name":"getHouseEdge","inputs":[{"name":"","type":"tuple","internalType":"struct CommonSolo.Game","components":[{"name":"count","type":"uint8","internalType":"uint8"},{"name":"player","type":"address","internalType":"address"},{"name":"gameData","type":"bytes","internalType":"bytes"},{"name":"wager","type":"uint256","internalType":"uint256"},{"name":"startTime","type":"uint256","internalType":"uint256"},{"name":"tokens","type":"address[2]","internalType":"address[2]"}]}],"outputs":[{"name":"edge_","type":"uint64","internalType":"uint64"}],"stateMutability":"view"},{"type":"function","name":"getRoleAdmin","inputs":[{"name":"role","type":"bytes32","internalType":"bytes32"}],"outputs":[{"name":"","type":"bytes32","internalType":"bytes32"}],"stateMutability":"view"},{"type":"function","name":"grantRole","inputs":[{"name":"role","type":"bytes32","internalType":"bytes32"},{"name":"account","type":"address","internalType":"address"}],"outputs":[],"stateMutability":"nonpayable"},{"type":"function","name":"hasRole","inputs":[{"name":"role","type":"bytes32","internalType":"bytes32"},{"name":"account","type":"address","internalType":"address"}],"outputs":[{"name":"","type":"bool","internalType":"bool"}],"stateMutability":"view"},{"type":"function","name":"houseEdge","inputs":[],"outputs":[{"name":"","type":"uint64","internalType":"uint64"}],"stateMutability":"view"},{"type":"function","name":"isWon","inputs":[{"name":"_choice","type":"uint256","internalType":"uint256"},{"name":"_result","type":"uint256","internalType":"uint256"}],"outputs":[{"name":"won_","type":"bool","internalType":"bool"}],"stateMutability":"pure"},{"type":"function","name":"maxGameCount","inputs":[],"outputs":[{"name":"","type":"uint8","internalType":"uint8"}],"stateMutability":"view"},{"type":"function","name":"minConfirmations","inputs":[],"outputs":[{"name":"","type":"uint256","internalType":"uint256"}],"stateMutability":"view"},{"type":"function","name":"options","inputs":[{"name":"","type":"uint256","internalType":"uint256"}],"outputs":[{"name":"stopGain","type":"uint256","internalType":"uint256"},{"name":"stopLoss","type":"uint256","internalType":"uint256"}],"stateMutability":"view"},{"type":"function","name":"pause","inputs":[],"outputs":[],"stateMutability":"nonpayable"},{"type":"function","name":"paused","inputs":[],"outputs":[{"name":"","type":"bool","internalType":"bool"}],"stateMutability":"view"},{"type":"function","name":"play","inputs":[{"name":"_game","type":"tuple","internalType":"struct CommonSolo.Game","components":[{"name":"count","type":"uint8","internalType":"uint8"},{"name":"player","type":"address","internalType":"address"},{"name":"gameData","type":"bytes","internalType":"bytes"},{"name":"wager","type":"uint256","internalType":"uint256"},{"name":"startTime","type":"uint256","internalType":"uint256"},{"name":"tokens","type":"address[2]","internalType":"address[2]"}]},{"name":"_resultNumbers","type":"uint256[]","internalType":"uint256[]"},{"name":"_stopGain","type":"uint256","internalType":"uint256"},{"name":"_stopLoss","type":"uint256","internalType":"uint256"}],"outputs":[{"name":"payout_","type":"uint256","internalType":"uint256"},{"name":"playedGameCount_","type":"uint32","internalType":"uint32"},{"name":"payouts_","type":"uint256[]","internalType":"uint256[]"}],"stateMutability":"pure"},{"type":"function","name":"randomizerCallback","inputs":[{"name":"_requestId","type":"uint256","internalType":"uint256"},{"name":"_rngList","type":"uint256[]","internalType":"uint256[]"}],"outputs":[],"stateMutability":"nonpayable"},{"type":"function","name":"randomizerRouter","inputs":[],"outputs":[{"name":"","type":"address","internalType":"contract IRandomizerRouter"}],"stateMutability":"view"},{"type":"function","name":"refundCooldown","inputs":[],"outputs":[{"name":"","type":"uint32","internalType":"uint32"}],"stateMutability":"view"},{"type":"function","name":"refundGame","inputs":[{"name":"_requestId","type":"uint256","internalType":"uint256"}],"outputs":[],"stateMutability":"nonpayable"},{"type":"function","name":"renounceRole","inputs":[{"name":"role","type":"bytes32","internalType":"bytes32"},{"name":"account","type":"address","internalType":"address"}],"outputs":[],"stateMutability":"nonpayable"},{"type":"function","name":"revokeRole","inputs":[{"name":"role","type":"bytes32","internalType":"bytes32"},{"name":"account","type":"address","internalType":"address"}],"outputs":[],"stateMutability":"nonpayable"},{"type":"function","name":"setMinConfirmations","inputs":[{"name":"_minConfirmations","type":"uint16","internalType":"uint16"}],"outputs":[],"stateMutability":"nonpayable"},{"type":"function","name":"setVaultManager","inputs":[{"name":"_vaultManager","type":"address","internalType":"contract IVaultManager"}],"outputs":[],"stateMutability":"nonpayable"},{"type":"function","name":"shouldStop","inputs":[{"name":"_total","type":"uint256","internalType":"uint256"},{"name":"_wager","type":"uint256","internalType":"uint256"},{"name":"_stopGain","type":"uint256","internalType":"uint256"},{"name":"_stopLoss","type":"uint256","internalType":"uint256"}],"outputs":[{"name":"stop_","type":"bool","internalType":"bool"}],"stateMutability":"pure"},{"type":"function","name":"supportsInterface","inputs":[{"name":"interfaceId","type":"bytes4","internalType":"bytes4"}],"outputs":[{"name":"","type":"bool","internalType":"bool"}],"stateMutability":"view"},{"type":"function","name":"unpause","inputs":[],"outputs":[],"stateMutability":"nonpayable"},{"type":"function","name":"updateConfig","inputs":[{"name":"_config","type":"tuple","internalType":"struct Limbo.Configuration","components":[{"name":"minMultiplier","type":"uint32","internalType":"uint32"},{"name":"maxMultiplier","type":"uint32","internalType":"uint32"}]}],"outputs":[],"stateMutability":"nonpayable"},{"type":"function","name":"updateHouseEdge","inputs":[{"name":"_houseEdge","type":"uint64","internalType":"uint64"}],"outputs":[],"stateMutability":"nonpayable"},{"type":"function","name":"updateMaxGameCount","inputs":[{"name":"_maxGameCount","type":"uint8","internalType":"uint8"}],"outputs":[],"stateMutability":"nonpayable"},{"type":"function","name":"updateRefundCooldown","inputs":[{"name":"_refundCooldown","type":"uint32","internalType":"uint32"}],"outputs":[],"stateMutability":"nonpayable"},{"type":"function","name":"vaultManager","inputs":[],"outputs":[{"name":"","type":"address","internalType":"contract IVaultManager"}],"stateMutability":"view"},{"type":"event","name":"Created","inputs":[{"name":"player","type":"address","indexed":true,"internalType":"address"},{"name":"requestId","type":"uint256","indexed":false,"internalType":"uint256"},{"name":"wager","type":"uint256","indexed":false,"internalType":"uint256"},{"name":"tokens","type":"address[2]","indexed":false,"internalType":"address[2]"}],"anonymous":false},{"type":"event","name":"Paused","inputs":[{"name":"account","type":"address","indexed":false,"internalType":"address"}],"anonymous":false},{"type":"event","name":"RoleAdminChanged","inputs":[{"name":"role","type":"bytes32","indexed":true,"internalType":"bytes32"},{"name":"previousAdminRole","type":"bytes32","indexed":true,"internalType":"bytes32"},{"name":"newAdminRole","type":"bytes32","indexed":true,"internalType":"bytes32"}],"anonymous":false},{"type":"event","name":"RoleGranted","inputs":[{"name":"role","type":"bytes32","indexed":true,"internalType":"bytes32"},{"name":"account","type":"address","indexed":true,"internalType":"address"},{"name":"sender","type":"address","indexed":true,"internalType":"address"}],"anonymous":false},{"type":"event","name":"RoleRevoked","inputs":[{"name":"role","type":"bytes32","indexed":true,"internalType":"bytes32"},{"name":"account","type":"address","indexed":true,"internalType":"address"},{"name":"sender","type":"address","indexed":true,"internalType":"address"}],"anonymous":false},{"type":"event","name":"Settled","inputs":[{"name":"player","type":"address","indexed":true,"internalType":"address"},{"name":"requestId","type":"uint256","indexed":false,"internalType":"uint256"},{"name":"wager","type":"uint256","indexed":false,"internalType":"uint256"},{"name":"won","type":"bool","indexed":false,"internalType":"bool"},{"name":"payout","type":"uint256","indexed":false,"internalType":"uint256"},{"name":"playedGameCount","type":"uint32","indexed":false,"internalType":"uint32"},{"name":"numbers","type":"uint256[]","indexed":false,"internalType":"uint256[]"},{"name":"payouts","type":"uint256[]","indexed":false,"internalType":"uint256[]"}],"anonymous":false},{"type":"event","name":"Unpaused","inputs":[{"name":"account","type":"address","indexed":false,"internalType":"address"}],"anonymous":false},{"type":"event","name":"UpdateHouseEdge","inputs":[{"name":"houseEdge","type":"uint64","indexed":false,"internalType":"uint64"}],"anonymous":false},{"type":"event","name":"VaultManagerChange","inputs":[{"name":"vaultManager","type":"address","indexed":false,"internalType":"address"}],"anonymous":false}],"bytecode":{"object":"0x60038055600580546207081960a21b64ffffffffff60a01b1990911617905560c0604052606460805261271060a05260098054652710000000646001600160401b031991821617909155600a805490911660c81790553480156200006257600080fd5b506040516200393638038062003936833981016040819052620000859162000487565b6000805460ff19168155819081908190620000a19033620000bb565b6001600255620000b181620000cb565b5050505062000612565b620000c7828262000174565b5050565b620000d8600033620001e2565b6200012a5760405162461bcd60e51b815260206004820152601360248201527f4143433a204e6f7420676f7665726e616e63650000000000000000000000000060448201526064015b60405180910390fd5b600480546001600160a01b0319166001600160a01b038316179055620001717f2f660b522cd66c3fe8eabbd9815ae97246faa2cf642722f997fcefd13b6a67b6826200020f565b50565b620001808282620001e2565b620000c75760008281526001602081815260408084206001600160a01b0386168086529252808420805460ff19169093179092559051339285917f2f8788117e7eff1d82e926ec794901d17c78024a50270940304540a733656f0d9190a45050565b60008281526001602090815260408083206001600160a01b038516845290915290205460ff165b92915050565b600082815260016020819052604090912001546200022d816200023e565b62000239838362000174565b505050565b620001718133620002508282620001e2565b620000c75762000276816001600160a01b03166014620002c760201b6200139a1760201c565b6200028c8360206200139a620002c7821b17811c565b6040516020016200029f929190620004d8565b60408051601f198184030181529082905262461bcd60e51b8252620001219160040162000551565b60606000620002d88360026200059c565b620002e5906002620005b6565b6001600160401b03811115620002ff57620002ff620005cc565b6040519080825280601f01601f1916602001820160405280156200032a576020820181803683370190505b509050600360fc1b81600081518110620003485762000348620005e2565b60200101906001600160f81b031916908160001a905350600f60fb1b816001815181106200037a576200037a620005e2565b60200101906001600160f81b031916908160001a9053506000620003a08460026200059c565b620003ad906001620005b6565b90505b60018111156200042f576f181899199a1a9b1b9c1cb0b131b232b360811b85600f1660108110620003e557620003e5620005e2565b1a60f81b828281518110620003fe57620003fe620005e2565b60200101906001600160f81b031916908160001a90535060049490941c936200042781620005f8565b9050620003b0565b508315620004805760405162461bcd60e51b815260206004820181905260248201527f537472696e67733a20686578206c656e67746820696e73756666696369656e74604482015260640162000121565b9392505050565b6000602082840312156200049a57600080fd5b81516001600160a01b03811681146200048057600080fd5b60005b83811015620004cf578181015183820152602001620004b5565b50506000910152565b7f416363657373436f6e74726f6c3a206163636f756e742000000000000000000081526000835162000512816017850160208801620004b2565b7001034b99036b4b9b9b4b733903937b6329607d1b601791840191820152835162000545816028840160208801620004b2565b01602801949350505050565b602081526000825180602084015262000572816040850160208701620004b2565b601f01601f19169190910160400192915050565b634e487b7160e01b600052601160045260246000fd5b808202811582820484141762000209576200020962000586565b8082018082111562000209576200020962000586565b634e487b7160e01b600052604160045260246000fd5b634e487b7160e01b600052603260045260246000fd5b6000816200060a576200060a62000586565b506000190190565b61331480620006226000396000f3fe608060405234801561001057600080fd5b506004361061025e5760003560e01c80638a4adf2411610146578063bf193005116100c3578063d7260cba11610087578063d7260cba14610645578063e5199bb814610658578063e7c4393e1461066b578063e84f0cc014610674578063e9f9b2d714610687578063f7137e77146106ad57600080fd5b8063bf193005146105a0578063d13b95ad146105c7578063d1adfff41461060c578063d547741f1461061f578063d667dcd71461063257600080fd5b8063aaf5eb681161010a578063aaf5eb6814610545578063b543503e14610554578063b663de3414610567578063bb4149e01461057a578063bda9a8441461058d57600080fd5b80638a4adf24146104f15780638f130d50146105045780639104a03d1461051757806391d148541461052a578063a217fddf1461053d57600080fd5b8063409e2205116101df5780635c975abb116101a35780635c975abb146104495780636899f46d1461045457806379502c55146104675780637f1ad204146104a05780638456cb59146104d657806389d9dd4f146104de57600080fd5b8063409e22051461039a578063427dc913146103c157806349d5e604146103d45780634b95a52e146103fb5780634d30372d1461042657600080fd5b80632f2ff15d116102265780632f2ff15d1461033557806336568abe1461034a57806337107fc71461035d5780633b49b7ed1461037f5780633f4ba83a1461039257600080fd5b806301ffc9a71461026357806310088fbc1461028b578063117a5b90146102b3578063248a9ca3146102d75780632d3e8c9314610309575b600080fd5b6102766102713660046125c2565b6106c0565b60405190151581526020015b60405180910390f35b61029e6102993660046125ec565b6106f7565b60408051928352602083019190915201610282565b6102c66102c1366004612618565b610725565b604051610282959493929190612681565b6102fb6102e5366004612618565b6000908152600160208190526040909120015490565b604051908152602001610282565b60055461032090600160a81b900463ffffffff1681565b60405163ffffffff9091168152602001610282565b6103486103433660046126d7565b6107ea565b005b6103486103583660046126d7565b610815565b61037061036b366004612901565b610898565b60405161028293929190612a13565b61027661038d366004612a41565b6109f8565b610348610a4c565b61029e6103a8366004612618565b6007602052600090815260409020805460019091015482565b6103486103cf366004612a73565b610abd565b6102fb7f9b82d2f38fbdf13006bfa741767f793d917e063392737837b580c1c2b1e0bab381565b60045461040e906001600160a01b031681565b6040516001600160a01b039091168152602001610282565b610276610434366004612618565b60086020526000908152604090205460ff1681565b60005460ff16610276565b610348610462366004612aa2565b610ae9565b6009546104839063ffffffff8082169164010000000090041682565b6040805163ffffffff938416815292909116602083015201610282565b6104be6104ae366004612ae3565b50600a546001600160401b031690565b6040516001600160401b039091168152602001610282565b610348610b46565b6102fb6104ec366004612b17565b610bb5565b60055461040e906001600160a01b031681565b610348610512366004612b39565b610bec565b610348610525366004612b56565b610c5b565b6102766105383660046126d7565b610c8b565b6102fb600081565b6102fb670de0b6b3a764000081565b610348610562366004612b39565b610cb6565b610276610575366004612b17565b610d32565b610348610588366004612b7a565b610d43565b61032061059b366004612bf6565b610ddd565b6102fb7f2f660b522cd66c3fe8eabbd9815ae97246faa2cf642722f997fcefd13b6a67b681565b6105ff6105d5366004612c2a565b6040805163ffffffff83166020820152606091016040516020818303038152906040529050919050565b6040516102829190612c47565b61034861061a366004612c2a565b610df3565b61034861062d3660046126d7565b610e25565b600a546104be906001600160401b031681565b610348610653366004612618565b610e4b565b610348610666366004612c5a565b6111c7565b6102fb60035481565b610348610682366004612cd8565b61123d565b60055461069b90600160a01b900460ff1681565b60405160ff9091168152602001610282565b6102fb6106bb366004612d01565b6112b3565b60006001600160e01b03198216637965db0b60e01b14806106f157506301ffc9a760e01b6001600160e01b03198316145b92915050565b6000806107048385612d43565b9150816107118487612d43565b61071b9190612d5a565b9050935093915050565b6006602052600090815260409020805460018201805460ff8316936101009093046001600160a01b031692919061075b90612d6d565b80601f016020809104026020016040519081016040528092919081815260200182805461078790612d6d565b80156107d45780601f106107a9576101008083540402835291602001916107d4565b820191906000526020600020905b8154815290600101906020018083116107b757829003601f168201915b5050505050908060020154908060030154905085565b6000828152600160208190526040909120015461080681611535565b610810838361153f565b505050565b6001600160a01b038116331461088a5760405162461bcd60e51b815260206004820152602f60248201527f416363657373436f6e74726f6c3a2063616e206f6e6c792072656e6f756e636560448201526e103937b632b9903337b91039b2b63360891b60648201526084015b60405180910390fd5b61089482826115aa565b5050565b6000806060866000015160ff166001600160401b038111156108bc576108bc612707565b6040519080825280602002602001820160405280156108e5578160200160208202803683370190505b509050866000015160ff16915060006109018860400151610ddd565b63ffffffff1690506000610919896060015183610bb5565b905060005b896000015160ff168160ff1610156109eb57610956838a8360ff168151811061094957610949612da7565b6020026020010151610d32565b156109975760608a015161096a9083612d5a565b848260ff168151811061097f5761097f612da7565b60209081029190910101526109948287612dbd565b95505b6109c1868b606001518360016109ad9190612dd0565b60ff166109ba9190612d43565b8a8a6109f8565b156109db576109d1816001612dd0565b60ff1694506109eb565b6109e481612de9565b905061091e565b5050509450945094915050565b60008215801590610a0857508385115b15610a215782610a188587612d5a565b10159050610a44565b8115801590610a2f57508484115b15610a445781610a3f8686612d5a565b101590505b949350505050565b610a767f9b82d2f38fbdf13006bfa741767f793d917e063392737837b580c1c2b1e0bab333610c8b565b610ab35760405162461bcd60e51b815260206004820152600e60248201526d47414d453a204e6f74207465616d60901b6044820152606401610881565b610abb611611565b565b6000610ac881611535565b506005805460ff909216600160a01b0260ff60a01b19909216919091179055565b610af4600033610c8b565b610b105760405162461bcd60e51b815260040161088190612e08565b80516009805460209093015163ffffffff9081166401000000000267ffffffffffffffff19909416921691909117919091179055565b610b707f9b82d2f38fbdf13006bfa741767f793d917e063392737837b580c1c2b1e0bab333610c8b565b610bad5760405162461bcd60e51b815260206004820152600e60248201526d47414d453a204e6f74207465616d60901b6044820152606401610881565b610abb611663565b6000670de0b6b3a7640000610bd183662386f26fc10000612d43565b610bdb9085612d43565b610be59190612e4b565b9392505050565b610bf7600033610c8b565b610c135760405162461bcd60e51b815260040161088190612e08565b600480546001600160a01b0319166001600160a01b038316179055610c587f2f660b522cd66c3fe8eabbd9815ae97246faa2cf642722f997fcefd13b6a67b6826107ea565b50565b610c66600033610c8b565b610c825760405162461bcd60e51b815260040161088190612e08565b61ffff16600355565b60009182526001602090815260408084206001600160a01b0393909316845291905290205460ff1690565b610cc1600033610c8b565b610cdd5760405162461bcd60e51b815260040161088190612e08565b600580546001600160a01b0319166001600160a01b0383169081179091556040519081527fa908db00c4502bbe936c6ac99cb6d67f0636790d9b238cfddab0139153f5eb74906020015b60405180910390a150565b60008183116106f1575060016106f1565b816000610d4f82610ddd565b60095490915063ffffffff90811690821610801590610d82575060095463ffffffff640100000000909104811690821611155b610dc55760405162461bcd60e51b815260206004820152601460248201527310da1bda58d9481a5cdb89dd08185b1b1bddd95960621b6044820152606401610881565b610dd38888888888886116a0565b5050505050505050565b6000818060200190518101906106f19190612e5f565b6000610dfe81611535565b506005805463ffffffff909216600160a81b0263ffffffff60a81b19909216919091179055565b60008281526001602081905260409091200154610e4181611535565b61081083836115aa565b6002805403610e6c5760405162461bcd60e51b815260040161088190612e7c565b60028055600081815260086020526040902054819060ff1615610ec55760405162461bcd60e51b815260206004820152601160248201527011d85b59481a5cc818dbdb5c1b195d1959607a1b6044820152606401610881565b6000818152600860209081526040808320805460ff1916600190811790915585845260068352818420825160c081018452815460ff811682526001600160a01b03610100909104169481019490945290810180549192840191610f2790612d6d565b80601f0160208091040260200160405190810160405280929190818152602001828054610f5390612d6d565b8015610fa05780601f10610f7557610100808354040283529160200191610fa0565b820191906000526020600020905b815481529060010190602001808311610f8357829003601f168201915b50505050508152602001600282015481526020016003820154815260200160048201600280602002604051908101604052809291908260028015611003576020028201915b81546001600160a01b03168152600190910190602001808311610fe5575b50505050508152505090506110153390565b6001600160a01b031681602001516001600160a01b0316146110675760405162461bcd60e51b815260206004820152600b60248201526a27b7363c90383630bcb2b960a91b6044820152606401610881565b6005546080820151429161108991600160a81b90910463ffffffff1690612dbd565b106110d65760405162461bcd60e51b815260206004820152601a60248201527f47616d65206973206e6f7420726566756e6461626c65207965740000000000006044820152606401610881565b600083815260066020526040812080546001600160a81b031916815590611100600183018261251b565b5060006002820181905560038201819055600482018190556005918201555460a082015151825160608401516001600160a01b0390931692634154aede929161114e9160ff90911690612d43565b60208501516040516001600160e01b031960e086901b1681526001600160a01b0393841660048201526024810192909252919091166044820152606401600060405180830381600087803b1580156111a557600080fd5b505af11580156111b9573d6000803e3d6000fd5b505060016002555050505050565b6111f17f2f660b522cd66c3fe8eabbd9815ae97246faa2cf642722f997fcefd13b6a67b633610c8b565b6112325760405162461bcd60e51b815260206004820152601260248201527129219d102737ba103930b73237b6b4bd32b960711b6044820152606401610881565b610810838383611afe565b611248600033610c8b565b6112645760405162461bcd60e51b815260040161088190612e08565b600a805467ffffffffffffffff19166001600160401b0383169081179091556040519081527f6a0c74d2a2f78a7af3b6da5a6ae0321cc6d9b6271a7544a895e01d6bf1916e2c90602001610d27565b6000826001600160a01b031663313ce5676040518163ffffffff1660e01b8152600401602060405180830381865afa1580156112f3573d6000803e3d6000fd5b505050506040513d601f19601f820116820180604052508101906113179190612eb3565b61132290600a612fb4565b6005546040516341976e0960e01b81526001600160a01b038681166004830152909116906341976e0990602401602060405180830381865afa15801561136c573d6000803e3d6000fd5b505050506040513d601f19601f820116820180604052508101906113909190612fc3565b610bdb9084612d43565b606060006113a9836002612d43565b6113b4906002612dbd565b6001600160401b038111156113cb576113cb612707565b6040519080825280601f01601f1916602001820160405280156113f5576020820181803683370190505b509050600360fc1b8160008151811061141057611410612da7565b60200101906001600160f81b031916908160001a905350600f60fb1b8160018151811061143f5761143f612da7565b60200101906001600160f81b031916908160001a9053506000611463846002612d43565b61146e906001612dbd565b90505b60018111156114e6576f181899199a1a9b1b9c1cb0b131b232b360811b85600f16601081106114a2576114a2612da7565b1a60f81b8282815181106114b8576114b8612da7565b60200101906001600160f81b031916908160001a90535060049490941c936114df81612fdc565b9050611471565b508315610be55760405162461bcd60e51b815260206004820181905260248201527f537472696e67733a20686578206c656e67746820696e73756666696369656e746044820152606401610881565b610c588133611e54565b6115498282610c8b565b6108945760008281526001602081815260408084206001600160a01b0386168086529252808420805460ff19169093179092559051339285917f2f8788117e7eff1d82e926ec794901d17c78024a50270940304540a733656f0d9190a45050565b6115b48282610c8b565b156108945760008281526001602090815260408083206001600160a01b0385168085529252808320805460ff1916905551339285917ff6391f5c32d9c69d2a47ea670b442974b53935d1edc7fd64eb21e047a839171b9190a45050565b611619611eb8565b6000805460ff191690557f5db9ee0a495bf2e6ff9c91a7834c1ba4fdd244a5e8aa4e537bd38aeae4b073aa335b6040516001600160a01b03909116815260200160405180910390a1565b61166b611f01565b6000805460ff191660011790557f62e78cea01bee320cd4e420270b5ea74000d11b0c9f74754ebdbfc544b05a2586116463390565b8460ff16600081116116eb5760405162461bcd60e51b815260206004820152601460248201527347616d6520636f756e74206f75742d72616e676560601b6044820152606401610881565b600554600160a01b900460ff1681111561173e5760405162461bcd60e51b815260206004820152601460248201527347616d6520636f756e74206f75742d72616e676560601b6044820152606401610881565b815187600061174d83836112b3565b60055460405163a8e3925760e01b81523060048201529192506001600160a01b03169063a8e3925790602401602060405180830381865afa158015611796573d6000803e3d6000fd5b505050506040513d601f19601f820116820180604052508101906117ba9190612fc3565b8110156117ff5760405162461bcd60e51b815260206004820152601360248201527247414d453a20576167657220746f6f206c6f7760681b6044820152606401610881565b600560009054906101000a90046001600160a01b03166001600160a01b0316638ac402596040518163ffffffff1660e01b8152600401602060405180830381865afa158015611852573d6000803e3d6000fd5b505050506040513d601f19601f820116820180604052508101906118769190612fc3565b8111156118bc5760405162461bcd60e51b815260206004820152601460248201527308e829a8a7440aec2cecae440e8dede40d0d2ced60631b6044820152606401610881565b6118c4611f01565b60028054036118e55760405162461bcd60e51b815260040161088190612e7c565b600280553360006118f58b611f47565b6005549091506001600160a01b03166382b9be1a8860006020020151848f8f60ff166119219190612d43565b6040516001600160e01b031960e086901b1681526001600160a01b0393841660048201529290911660248301526044820152606401600060405180830381600087803b15801561197057600080fd5b505af1158015611984573d6000803e3d6000fd5b505050506040518060c001604052808c60ff168152602001836001600160a01b031681526020018981526020018d8152602001428152602001888152506006600083815260200190815260200160002060008201518160000160006101000a81548160ff021916908360ff16021790555060208201518160000160016101000a8154816001600160a01b0302191690836001600160a01b031602179055506040820151816001019081611a379190613041565b50606082015181600201556080820151816003015560a082015181600401906002611a63929190612555565b50505089151580611a7357508815155b15611aa6576040805180820182528b815260208082018c8152600085815260079092529290209051815590516001909101555b816001600160a01b03167f4eb2df9ddc67bd535fefe0a4420b0439b48f28eaf990ef434f94694d52e8b943828e8a604051611ae393929190613132565b60405180910390a25050600160025550505050505050505050565b600083815260066020526040902054839061010090046001600160a01b0316611b5f5760405162461bcd60e51b815260206004820152601360248201527211d85b59481a5cc81b9bdd0818dc99585d1959606a1b6044820152606401610881565b600084815260086020526040902054849060ff1615611bb45760405162461bcd60e51b815260206004820152601160248201527011d85b59481a5cc818dbdb5c1b195d1959607a1b6044820152606401610881565b6000818152600860205260409020805460ff1916600117905560025460011901611bf05760405162461bcd60e51b815260040161088190612e7c565b600280556000858152600660209081526040808320815160c081018352815460ff8116825261010090046001600160a01b0316938101939093526001810180549192840191611c3e90612d6d565b80601f0160208091040260200160405190810160405280929190818152602001828054611c6a90612d6d565b8015611cb75780601f10611c8c57610100808354040283529160200191611cb7565b820191906000526020600020905b815481529060010190602001808311611c9a57829003601f168201915b50505050508152602001600282015481526020016003820154815260200160048201600280602002604051908101604052809291908260028015611d1a576020028201915b81546001600160a01b03168152600190910190602001808311611cfc575b5050509190925250505060008781526007602090815260408083208151808301909252805482526001015491810191909152919250611d5a838888611fc6565b90506000806000611d75868587600001518860200151610898565b92509250925085602001516001600160a01b03167fa0c6d43553c751eac6408fb8830cce1d25ac333ad47e35f29671b726e8e911648c8860600151611dc18a8763ffffffff16896121a9565b87878a88604051611dd8979695949392919061314d565b60405180910390a260008b815260066020526040812080546001600160a81b031916815590611e0a600183018261251b565b600060028301819055600383018190556004830181905560058301555050506000998a52505060076020525050604086208681556001908101969096555050506002929092555050565b611e5e8282610c8b565b61089457611e76816001600160a01b0316601461139a565b611e8183602061139a565b604051602001611e929291906131a6565b60408051601f198184030181529082905262461bcd60e51b825261088191600401612c47565b60005460ff16610abb5760405162461bcd60e51b815260206004820152601460248201527314185d5cd8589b194e881b9bdd081c185d5cd95960621b6044820152606401610881565b60005460ff1615610abb5760405162461bcd60e51b815260206004820152601060248201526f14185d5cd8589b194e881c185d5cd95960821b6044820152606401610881565b600480546003546040516336f71c3f60e01b815260ff85169381019390935260248301526000916001600160a01b03909116906336f71c3f906044016020604051808303816000875af1158015611fa2573d6000803e3d6000fd5b505050506040513d601f19601f820116820180604052508101906106f19190612fc3565b6060600061202f8484808060200260200160405190810160405280939291908181526020018383602002808284376000920191909152505060095461201f925063ffffffff80821692506401000000009091041661321b565b61202a90600161323f565b612447565b60095490915060009061205290606490640100000000900463ffffffff1661325c565b63ffffffff1690506000846001600160401b0381111561207457612074612707565b60405190808252806020026020018201604052801561209d578160200160208202803683370190505b50905060005b8581101561219e5760008482815181106120bf576120bf612da7565b60200260200101518460646120d49190612d43565b6120de9190612d5a565b8583815181106120f0576120f0612da7565b602090810291909101015160095461211690640100000000900463ffffffff1687612d43565b6121209190612d5a565b61212a9190612e4b565b905061214f88888481811061214157612141612da7565b9050602002013560426124f6565b60000361215a575060015b8060000361216d575060095463ffffffff165b8083838151811061218057612180612da7565b602090810291909101015250806121968161327f565b9150506120a3565b509695505050505050565b60008060006121c4866000015160ff168688606001516106f7565b60055460a08901515160208a0151600a5460408051633005989b60e11b81526001600160a01b0394851660048201529284166024840152604483018790526001600160401b03909116606483015251949650929450169163600b31369160848082019260009290919082900301818387803b15801561224257600080fd5b505af1158015612256573d6000803e3d6000fd5b505060055460a08901515160208a01516040516303d1db8560e31b81526001600160a01b03928316600482015260248101889052908216604482015291169250631e8edc289150606401600060405180830381600087803b1580156122ba57600080fd5b505af11580156122ce573d6000803e3d6000fd5b50505050806000146123535760055460a0870151516020880151604051631d2adf0f60e01b81526001600160a01b039283166004820152908216602482015260448101849052911690631d2adf0f90606401600060405180830381600087803b15801561233a57600080fd5b505af115801561234e573d6000803e3d6000fd5b505050505b836000036123cb5760055460a087015151604051631af5a19360e21b81526001600160a01b03918216600482015260248101859052911690636bd6864c90604401600060405180830381600087803b1580156123ae57600080fd5b505af11580156123c2573d6000803e3d6000fd5b5050505061243c565b60055460a087015160208801516040516353a2418b60e11b81526001600160a01b039093169263a74483169261240992909187908a90600401613298565b600060405180830381600087803b15801561242357600080fd5b505af1158015612437573d6000803e3d6000fd5b505050505b509091119392505050565b6060600083516001600160401b0381111561246457612464612707565b60405190808252806020026020018201604052801561248d578160200160208202803683370190505b50905060005b84518110156124ee576124bf8582815181106124b1576124b1612da7565b6020026020010151856124f6565b8282815181106124d1576124d1612da7565b6020908102919091010152806124e68161327f565b915050612493565b509392505050565b6000808263ffffffff161161250b5782610be5565b610be563ffffffff8316846132ca565b50805461252790612d6d565b6000825580601f10612537575050565b601f016020900490600052602060002090810190610c5891906125ad565b826002810192821561259d579160200282015b8281111561259d57825182546001600160a01b0319166001600160a01b03909116178255602090920191600190910190612568565b506125a99291506125ad565b5090565b5b808211156125a957600081556001016125ae565b6000602082840312156125d457600080fd5b81356001600160e01b031981168114610be557600080fd5b60008060006060848603121561260157600080fd5b505081359360208301359350604090920135919050565b60006020828403121561262a57600080fd5b5035919050565b60005b8381101561264c578181015183820152602001612634565b50506000910152565b6000815180845261266d816020860160208601612631565b601f01601f19169290920160200192915050565b60ff861681526001600160a01b038516602082015260a0604082018190526000906126ae90830186612655565b606083019490945250608001529392505050565b6001600160a01b0381168114610c5857600080fd5b600080604083850312156126ea57600080fd5b8235915060208301356126fc816126c2565b809150509250929050565b634e487b7160e01b600052604160045260246000fd5b604080519081016001600160401b038111828210171561273f5761273f612707565b60405290565b604051601f8201601f191681016001600160401b038111828210171561276d5761276d612707565b604052919050565b60ff81168114610c5857600080fd5b600082601f83011261279557600080fd5b81356001600160401b038111156127ae576127ae612707565b6127c1601f8201601f1916602001612745565b8181528460208386010111156127d657600080fd5b816020850160208301376000918101602001919091529392505050565b600082601f83011261280457600080fd5b61280c61271d565b80604084018581111561281e57600080fd5b845b81811015612841578035612833816126c2565b845260209384019301612820565b509095945050505050565b600060e0828403121561285e57600080fd5b60405160c081016001600160401b03828210818311171561288157612881612707565b816040528293508435915061289582612775565b9082526020840135906128a7826126c2565b81602084015260408501359150808211156128c157600080fd5b506128ce85828601612784565b60408301525060608301356060820152608083013560808201526128f58460a085016127f3565b60a08201525092915050565b6000806000806080858703121561291757600080fd5b84356001600160401b038082111561292e57600080fd5b61293a8883890161284c565b955060209150818701358181111561295157600080fd5b8701601f8101891361296257600080fd5b80358281111561297457612974612707565b8060051b9250612985848401612745565b818152928201840192848101908b85111561299f57600080fd5b928501925b848410156129bd578335825292850192908501906129a4565b989b989a505050506040870135966060013595945050505050565b600081518084526020808501945080840160005b83811015612a08578151875295820195908201906001016129ec565b509495945050505050565b83815263ffffffff83166020820152606060408201526000612a3860608301846129d8565b95945050505050565b60008060008060808587031215612a5757600080fd5b5050823594602084013594506040840135936060013592509050565b600060208284031215612a8557600080fd5b8135610be581612775565b63ffffffff81168114610c5857600080fd5b600060408284031215612ab457600080fd5b612abc61271d565b8235612ac781612a90565b81526020830135612ad781612a90565b60208201529392505050565b600060208284031215612af557600080fd5b81356001600160401b03811115612b0b57600080fd5b610a448482850161284c565b60008060408385031215612b2a57600080fd5b50508035926020909101359150565b600060208284031215612b4b57600080fd5b8135610be5816126c2565b600060208284031215612b6857600080fd5b813561ffff81168114610be557600080fd5b60008060008060008060e08789031215612b9357600080fd5b863595506020870135612ba581612775565b9450604087013593506060870135925060808701356001600160401b03811115612bce57600080fd5b612bda89828a01612784565b925050612bea8860a089016127f3565b90509295509295509295565b600060208284031215612c0857600080fd5b81356001600160401b03811115612c1e57600080fd5b610a4484828501612784565b600060208284031215612c3c57600080fd5b8135610be581612a90565b602081526000610be56020830184612655565b600080600060408486031215612c6f57600080fd5b8335925060208401356001600160401b0380821115612c8d57600080fd5b818601915086601f830112612ca157600080fd5b813581811115612cb057600080fd5b8760208260051b8501011115612cc557600080fd5b6020830194508093505050509250925092565b600060208284031215612cea57600080fd5b81356001600160401b0381168114610be557600080fd5b60008060408385031215612d1457600080fd5b8235612d1f816126c2565b946020939093013593505050565b634e487b7160e01b600052601160045260246000fd5b80820281158282048414176106f1576106f1612d2d565b818103818111156106f1576106f1612d2d565b600181811c90821680612d8157607f821691505b602082108103612da157634e487b7160e01b600052602260045260246000fd5b50919050565b634e487b7160e01b600052603260045260246000fd5b808201808211156106f1576106f1612d2d565b60ff81811683821601908111156106f1576106f1612d2d565b600060ff821660ff8103612dff57612dff612d2d565b60010192915050565b6020808252601390820152724143433a204e6f7420676f7665726e616e636560681b604082015260600190565b634e487b7160e01b600052601260045260246000fd5b600082612e5a57612e5a612e35565b500490565b600060208284031215612e7157600080fd5b8151610be581612a90565b6020808252601f908201527f5265656e7472616e637947756172643a207265656e7472616e742063616c6c00604082015260600190565b600060208284031215612ec557600080fd5b8151610be581612775565b600181815b80851115612f0b578160001904821115612ef157612ef1612d2d565b80851615612efe57918102915b93841c9390800290612ed5565b509250929050565b600082612f22575060016106f1565b81612f2f575060006106f1565b8160018114612f455760028114612f4f57612f6b565b60019150506106f1565b60ff841115612f6057612f60612d2d565b50506001821b6106f1565b5060208310610133831016604e8410600b8410161715612f8e575081810a6106f1565b612f988383612ed0565b8060001904821115612fac57612fac612d2d565b029392505050565b6000610be560ff841683612f13565b600060208284031215612fd557600080fd5b5051919050565b600081612feb57612feb612d2d565b506000190190565b601f82111561081057600081815260208120601f850160051c8101602086101561301a5750805b601f850160051c820191505b8181101561303957828155600101613026565b505050505050565b81516001600160401b0381111561305a5761305a612707565b61306e816130688454612d6d565b84612ff3565b602080601f8311600181146130a3576000841561308b5750858301515b600019600386901b1c1916600185901b178555613039565b600085815260208120601f198616915b828110156130d2578886015182559484019460019091019084016130b3565b50858210156130f05787850151600019600388901b60f8161c191681555b5050505050600190811b01905550565b8060005b600281101561312c5781516001600160a01b0316845260209384019390910190600101613104565b50505050565b8381526020810183905260808101610a446040830184613100565b878152866020820152851515604082015284606082015263ffffffff8416608082015260e060a0820152600061318660e08301856129d8565b82810360c084015261319881856129d8565b9a9950505050505050505050565b7f416363657373436f6e74726f6c3a206163636f756e74200000000000000000008152600083516131de816017850160208801612631565b7001034b99036b4b9b9b4b733903937b6329607d1b601791840191820152835161320f816028840160208801612631565b01602801949350505050565b63ffffffff82811682821603908082111561323857613238612d2d565b5092915050565b63ffffffff81811683821601908082111561323857613238612d2d565b600063ffffffff8084168061327357613273612e35565b92169190910492915050565b60006001820161329157613291612d2d565b5060010190565b60a081016132a68287613100565b6001600160a01b039490941660408201526060810192909252608090910152919050565b6000826132d9576132d9612e35565b50069056fea2646970667358221220d5e446b8db1e562c83dcb47c64a3427cb2a5d7b95c1bbfc9bcf7b701de5fd57464736f6c63430008110033","linkReferences":{}},"methodIdentifiers":{"DEFAULT_ADMIN_ROLE()":"a217fddf","PRECISION()":"aaf5eb68","RANDOMIZER_ROLE()":"bf193005","TEAM_ROLE()":"49d5e604","_computeDollarValue(address,uint256)":"f7137e77","bet(uint256,uint8,uint256,uint256,bytes,address[2])":"bb4149e0","calcReward(uint256,uint256)":"89d9dd4f","calcWager(uint256,uint256,uint256)":"10088fbc","changeRandomizerRouter(address)":"8f130d50","completedGames(uint256)":"4d30372d","config()":"79502c55","decodeGameData(bytes)":"bda9a844","encodeGameData(uint32)":"d13b95ad","games(uint256)":"117a5b90","getHouseEdge((uint8,address,bytes,uint256,uint256,address[2]))":"7f1ad204","getRoleAdmin(bytes32)":"248a9ca3","grantRole(bytes32,address)":"2f2ff15d","hasRole(bytes32,address)":"91d14854","houseEdge()":"d667dcd7","isWon(uint256,uint256)":"b663de34","maxGameCount()":"e9f9b2d7","minConfirmations()":"e7c4393e","options(uint256)":"409e2205","pause()":"8456cb59","paused()":"5c975abb","play((uint8,address,bytes,uint256,uint256,address[2]),uint256[],uint256,uint256)":"37107fc7","randomizerCallback(uint256,uint256[])":"e5199bb8","randomizerRouter()":"4b95a52e","refundCooldown()":"2d3e8c93","refundGame(uint256)":"d7260cba","renounceRole(bytes32,address)":"36568abe","revokeRole(bytes32,address)":"d547741f","setMinConfirmations(uint16)":"9104a03d","setVaultManager(address)":"b543503e","shouldStop(uint256,uint256,uint256,uint256)":"3b49b7ed","supportsInterface(bytes4)":"01ffc9a7","unpause()":"3f4ba83a","updateConfig((uint32,uint32))":"6899f46d","updateHouseEdge(uint64)":"e84f0cc0","updateMaxGameCount(uint8)":"427dc913","updateRefundCooldown(uint32)":"d1adfff4","vaultManager()":"8a4adf24"},"id":12}