{"abi":[{"type":"function","name":"CONSUMER_ROLE","inputs":[],"outputs":[{"name":"","type":"bytes32","internalType":"bytes32"}],"stateMutability":"view"},{"type":"function","name":"DEFAULT_ADMIN_ROLE","inputs":[],"outputs":[{"name":"","type":"bytes32","internalType":"bytes32"}],"stateMutability":"view"},{"type":"function","name":"PROVIDER_ROLE","inputs":[],"outputs":[{"name":"","type":"bytes32","internalType":"bytes32"}],"stateMutability":"view"},{"type":"function","name":"RANDOMIZER_ROLE","inputs":[],"outputs":[{"name":"","type":"bytes32","internalType":"bytes32"}],"stateMutability":"view"},{"type":"function","name":"ROUTER_ROLE","inputs":[],"outputs":[{"name":"","type":"bytes32","internalType":"bytes32"}],"stateMutability":"view"},{"type":"function","name":"TEAM_ROLE","inputs":[],"outputs":[{"name":"","type":"bytes32","internalType":"bytes32"}],"stateMutability":"view"},{"type":"function","name":"defaultProviderId","inputs":[],"outputs":[{"name":"","type":"uint32","internalType":"uint32"}],"stateMutability":"view"},{"type":"function","name":"getRoleAdmin","inputs":[{"name":"role","type":"bytes32","internalType":"bytes32"}],"outputs":[{"name":"","type":"bytes32","internalType":"bytes32"}],"stateMutability":"view"},{"type":"function","name":"grantRole","inputs":[{"name":"role","type":"bytes32","internalType":"bytes32"},{"name":"account","type":"address","internalType":"address"}],"outputs":[],"stateMutability":"nonpayable"},{"type":"function","name":"hasRole","inputs":[{"name":"role","type":"bytes32","internalType":"bytes32"},{"name":"account","type":"address","internalType":"address"}],"outputs":[{"name":"","type":"bool","internalType":"bool"}],"stateMutability":"view"},{"type":"function","name":"providers","inputs":[{"name":"","type":"uint32","internalType":"uint32"}],"outputs":[{"name":"","type":"address","internalType":"contract IRandomizerProvider"}],"stateMutability":"view"},{"type":"function","name":"reRequest","inputs":[{"name":"_requestId","type":"uint256","internalType":"uint256"}],"outputs":[],"stateMutability":"nonpayable"},{"type":"function","name":"reRequest","inputs":[{"name":"_requestId","type":"uint256","internalType":"uint256"},{"name":"_providerId","type":"uint32","internalType":"uint32"}],"outputs":[],"stateMutability":"nonpayable"},{"type":"function","name":"renounceRole","inputs":[{"name":"role","type":"bytes32","internalType":"bytes32"},{"name":"account","type":"address","internalType":"address"}],"outputs":[],"stateMutability":"nonpayable"},{"type":"function","name":"request","inputs":[{"name":"_count","type":"uint32","internalType":"uint32"},{"name":"_minConfirmations","type":"uint256","internalType":"uint256"}],"outputs":[{"name":"requestId_","type":"uint256","internalType":"uint256"}],"stateMutability":"nonpayable"},{"type":"function","name":"requestIds","inputs":[],"outputs":[{"name":"","type":"uint256","internalType":"uint256"}],"stateMutability":"view"},{"type":"function","name":"requests","inputs":[{"name":"","type":"uint256","internalType":"uint256"}],"outputs":[{"name":"count","type":"uint32","internalType":"uint32"},{"name":"consumer","type":"address","internalType":"contract IRandomizerConsumer"},{"name":"provider","type":"address","internalType":"address"},{"name":"minConfirmations","type":"uint256","internalType":"uint256"},{"name":"targetTime","type":"uint256","internalType":"uint256"}],"stateMutability":"view"},{"type":"function","name":"response","inputs":[{"name":"_requestId","type":"uint256","internalType":"uint256"},{"name":"_rngList","type":"uint256[]","internalType":"uint256[]"}],"outputs":[],"stateMutability":"nonpayable"},{"type":"function","name":"revokeRole","inputs":[{"name":"role","type":"bytes32","internalType":"bytes32"},{"name":"account","type":"address","internalType":"address"}],"outputs":[],"stateMutability":"nonpayable"},{"type":"function","name":"scheduledRequest","inputs":[{"name":"_count","type":"uint32","internalType":"uint32"},{"name":"_targetTime","type":"uint256","internalType":"uint256"}],"outputs":[{"name":"requestId_","type":"uint256","internalType":"uint256"}],"stateMutability":"nonpayable"},{"type":"function","name":"setProvider","inputs":[{"name":"_id","type":"uint32","internalType":"uint32"},{"name":"_provider","type":"address","internalType":"contract IRandomizerProvider"}],"outputs":[],"stateMutability":"nonpayable"},{"type":"function","name":"supportsInterface","inputs":[{"name":"interfaceId","type":"bytes4","internalType":"bytes4"}],"outputs":[{"name":"","type":"bool","internalType":"bool"}],"stateMutability":"view"},{"type":"function","name":"trigger","inputs":[{"name":"_requestId","type":"uint256","internalType":"uint256"}],"outputs":[],"stateMutability":"nonpayable"},{"type":"function","name":"updateDefaultProvider","inputs":[{"name":"_id","type":"uint32","internalType":"uint32"}],"outputs":[],"stateMutability":"nonpayable"},{"type":"event","name":"Fulfilled","inputs":[{"name":"requestId","type":"uint256","indexed":true,"internalType":"uint256"},{"name":"consumer","type":"address","indexed":false,"internalType":"address"},{"name":"provider","type":"address","indexed":false,"internalType":"address"},{"name":"randoms","type":"uint256[]","indexed":false,"internalType":"uint256[]"}],"anonymous":false},{"type":"event","name":"ReRequested","inputs":[{"name":"requestId","type":"uint256","indexed":true,"internalType":"uint256"},{"name":"consumer","type":"address","indexed":false,"internalType":"address"},{"name":"provider","type":"address","indexed":false,"internalType":"address"}],"anonymous":false},{"type":"event","name":"RequestCreated","inputs":[{"name":"requestId","type":"uint256","indexed":true,"internalType":"uint256"},{"name":"consumer","type":"address","indexed":false,"internalType":"address"},{"name":"provider","type":"address","indexed":false,"internalType":"address"},{"name":"count","type":"uint32","indexed":false,"internalType":"uint32"}],"anonymous":false},{"type":"event","name":"RoleAdminChanged","inputs":[{"name":"role","type":"bytes32","indexed":true,"internalType":"bytes32"},{"name":"previousAdminRole","type":"bytes32","indexed":true,"internalType":"bytes32"},{"name":"newAdminRole","type":"bytes32","indexed":true,"internalType":"bytes32"}],"anonymous":false},{"type":"event","name":"RoleGranted","inputs":[{"name":"role","type":"bytes32","indexed":true,"internalType":"bytes32"},{"name":"account","type":"address","indexed":true,"internalType":"address"},{"name":"sender","type":"address","indexed":true,"internalType":"address"}],"anonymous":false},{"type":"event","name":"RoleRevoked","inputs":[{"name":"role","type":"bytes32","indexed":true,"internalType":"bytes32"},{"name":"account","type":"address","indexed":true,"internalType":"address"},{"name":"sender","type":"address","indexed":true,"internalType":"address"}],"anonymous":false},{"type":"event","name":"ScheduledRequestCreated","inputs":[{"name":"requestId","type":"uint256","indexed":true,"internalType":"uint256"},{"name":"consumer","type":"address","indexed":false,"internalType":"address"},{"name":"provider","type":"address","indexed":false,"internalType":"address"},{"name":"count","type":"uint32","indexed":false,"internalType":"uint32"},{"name":"originTargetTime","type":"uint256","indexed":false,"internalType":"uint256"}],"anonymous":false},{"type":"event","name":"Triggered","inputs":[{"name":"requestId","type":"uint256","indexed":true,"internalType":"uint256"}],"anonymous":false},{"type":"event","name":"VaultManagerChange","inputs":[{"name":"vaultManager","type":"address","indexed":false,"internalType":"address"}],"anonymous":false}],"bytecode":{"object":"0x6080604052600160035534801561001557600080fd5b50610021600033610026565b6100d2565b6100308282610034565b5050565b6000828152602081815260408083206001600160a01b038516845290915290205460ff16610030576000828152602081815260408083206001600160a01b03851684529091529020805460ff1916600117905561008e3390565b6001600160a01b0316816001600160a01b0316837f2f8788117e7eff1d82e926ec794901d17c78024a50270940304540a733656f0d60405160405180910390a45050565b61187c806100e16000396000f3fe608060405234801561001057600080fd5b50600436106101585760003560e01c8063526fbe55116100c3578063bda4d7e71161007c578063bda4d7e7146103cd578063bf193005146103f2578063d547741f14610419578063ed684cc61461042c578063f2b916941461043f578063f3e5013b1461045257600080fd5b8063526fbe55146102f45780636aa28ccf1461030757806381d12c581461031057806391d148541461039f578063996db6a8146103b2578063a217fddf146103c557600080fd5b806336568abe1161011557806336568abe1461022c57806336f71c3f1461023f57806349d5e604146102525780634bc02da6146102795780634c26100b146102a05780634f4c09ad146102b357600080fd5b806301ffc9a71461015d578063216afafe14610185578063248a9ca31461019a57806324c20a34146101cb5780632f2ff15d146101f257806330d643b514610205575b600080fd5b61017061016b36600461144f565b610465565b60405190151581526020015b60405180910390f35b610198610193366004611479565b61049c565b005b6101bd6101a8366004611479565b60009081526020819052604090206001015490565b60405190815260200161017c565b6101bd7f4a3debffbb5bc5d4c738c3d8b74da2daa7589500e8c18ed2d6a9a12a34a3116181565b6101986102003660046114a7565b6105fa565b6101bd7feb4fd9f47c063b511700e1c8e94e2fa4088ffca1fdcef1e60edf1beecd1b2e6481565b61019861023a3660046114a7565b610624565b6101bd61024d3660046114f0565b6106a2565b6101bd7f9b82d2f38fbdf13006bfa741767f793d917e063392737837b580c1c2b1e0bab381565b6101bd7fee129e6fb492ad85e7c4d99e24facc6412bb957226fd6e1ff5efa1d2c0569e9c81565b6101986102ae36600461151a565b61081e565b6102dc6102c1366004611546565b6001602052600090815260409020546001600160a01b031681565b6040516001600160a01b03909116815260200161017c565b610198610302366004611561565b610a19565b6101bd60035481565b61036361031e366004611479565b6002602081905260009182526040909120805460018201549282015460039092015463ffffffff8216936001600160a01b036401000000009093048316939216919085565b6040805163ffffffff9690961686526001600160a01b03948516602087015292909316918401919091526060830152608082015260a00161017c565b6101706103ad3660046114a7565b610be8565b6101bd6103c03660046114f0565b610c11565b6101bd600081565b6004546103dd9063ffffffff1681565b60405163ffffffff909116815260200161017c565b6101bd7f2f660b522cd66c3fe8eabbd9815ae97246faa2cf642722f997fcefd13b6a67b681565b6101986104273660046114a7565b610d05565b61019861043a366004611479565b610d2a565b61019861044d366004611546565b610f04565b6101986104603660046115e0565b610fd8565b60006001600160e01b03198216637965db0b60e01b148061049657506301ffc9a760e01b6001600160e01b03198316145b92915050565b60008181526002602052604090206001015481906001600160a01b03166104de5760405162461bcd60e51b81526004016104d59061160c565b60405180910390fd5b600082815260026020818152604092839020835160a081018552815463ffffffff81168083526001600160a01b036401000000009092048216948301949094526001830154168186018190529382015460608201819052600390920154608082015293516303920c5760e11b8152600481018790526024810192909252604482015263072418ae906064016020604051808303816000875af1158015610588573d6000803e3d6000fd5b505050506040513d601f19601f820116820180604052508101906105ac9190611639565b50827fc172934257811da4d5fed4d4357b8c4f4089d77a93ac0195fe755dd310705c613360408085015181516001600160a01b039384168152921660208301520160405180910390a2505050565b6000828152602081905260409020600101546106158161107d565b61061f838361108a565b505050565b6001600160a01b03811633146106945760405162461bcd60e51b815260206004820152602f60248201527f416363657373436f6e74726f6c3a2063616e206f6e6c792072656e6f756e636560448201526e103937b632b9903337b91039b2b63360891b60648201526084016104d5565b61069e828261110e565b5050565b60006106ce7fee129e6fb492ad85e7c4d99e24facc6412bb957226fd6e1ff5efa1d2c0569e9c33610be8565b61070e5760405162461bcd60e51b81526020600482015260116024820152702927221d102737ba1031b7b739bab6b2b960791b60448201526064016104d5565b60045463ffffffff166000908152600160205260408120546001600160a01b03166003546040516303920c5760e11b8152600481019190915263ffffffff86166024820152604481018590529091506001600160a01b0382169063072418ae906064016020604051808303816000875af1158015610790573d6000803e3d6000fd5b505050506040513d601f19601f820116820180604052508101906107b49190611639565b506107c28185600086611173565b9150817f9d41529f0e293ec14df8f4a22cec849f79645d141b0ab331641144b9b9d4bba933604080516001600160a01b039283168152918516602083015263ffffffff8816908201526060015b60405180910390a25092915050565b6108487f9b82d2f38fbdf13006bfa741767f793d917e063392737837b580c1c2b1e0bab333610be8565b6108845760405162461bcd60e51b815260206004820152600d60248201526c524e443a204e6f74207465616d60981b60448201526064016104d5565b60008281526002602052604090206001015482906001600160a01b03166108bd5760405162461bcd60e51b81526004016104d59061160c565b6000838152600260208181526040808420815160a081018352815463ffffffff80821683526001600160a01b036401000000009092048216838701526001808501805480851686890152868a01546060870190815260039097015460808701528c84168b52918852868a2054998d9052979096526001600160a01b031990951696169586179094558351905191516303920c5760e11b815260048101899052921660248301526044820152909190819063072418ae906064016020604051808303816000875af1158015610995573d6000803e3d6000fd5b505050506040513d601f19601f820116820180604052508101906109b99190611639565b50847fc172934257811da4d5fed4d4357b8c4f4089d77a93ac0195fe755dd310705c61336000888152600260209081526040918290206001015482516001600160a01b039485168152931690830152015b60405180910390a25050505050565b610a437f4a3debffbb5bc5d4c738c3d8b74da2daa7589500e8c18ed2d6a9a12a34a3116133610be8565b610a835760405162461bcd60e51b81526020600482015260116024820152702927221d102737ba10383937bb34b232b960791b60448201526064016104d5565b60008381526002602052604090206001015483906001600160a01b0316610abc5760405162461bcd60e51b81526004016104d59061160c565b600084815260026020818152604092839020835160a081018552815463ffffffff811682526001600160a01b036401000000009091048116938201849052600183015416818601529281015460608401526003015460808301529151631ca3337760e31b815290919063e5199bb890610b3d90889088908890600401611684565b600060405180830381600087803b158015610b5757600080fd5b505af1158015610b6b573d6000803e3d6000fd5b5050506000868152600260208181526040832080546001600160c01b03191681556001810180546001600160a01b03191690559182018390556003909101919091558201518691507fafb49fdbc77e2b88f0dccccc44f38be22dc5a1c6e3989bb09bbc2b5e618dc1f490338787604051610a0a94939291906116a7565b6000918252602082815260408084206001600160a01b0393909316845291905290205460ff1690565b6000610c3d7fee129e6fb492ad85e7c4d99e24facc6412bb957226fd6e1ff5efa1d2c0569e9c33610be8565b610c7d5760405162461bcd60e51b81526020600482015260116024820152702927221d102737ba1031b7b739bab6b2b960791b60448201526064016104d5565b60045463ffffffff166000908152600160205260408120546001600160a01b03169050610cad8185856000611173565b9150817fdb5ed5249156268f4888d62236f202712a7984883f54897e91e55bbe2ef914c733604080516001600160a01b039283168152918516602083015263ffffffff8816908201526060810186905260800161080f565b600082815260208190526040902060010154610d208161107d565b61061f838361110e565b60008181526002602052604090206001015481906001600160a01b0316610d635760405162461bcd60e51b81526004016104d59061160c565b6000828152600260208181526040808420815160a081018352815463ffffffff811682526001600160a01b0364010000000090910481169482019490945260018201549093169183019190915291820154606082015260039091015460808201819052909103610e0a5760405162461bcd60e51b81526020600482015260126024820152711493910e88139bdd081cd8da19591d5b195960721b60448201526064016104d5565b8060800151421015610e4e5760405162461bcd60e51b815260206004820152600d60248201526c524e443a204e6f742074696d6560981b60448201526064016104d5565b604081810151825191516303920c5760e11b81526004810186905263ffffffff9092166024830152600060448301526001600160a01b03169063072418ae906064016020604051808303816000875af1158015610eaf573d6000803e3d6000fd5b505050506040513d601f19601f82011682018060405250810190610ed39190611639565b5060405183907fcdeba0448cafa891383055f46f2fec420e049fab5171b5b30b5458c0320f68fb90600090a2505050565b610f0f600033610be8565b610f515760405162461bcd60e51b8152602060048201526013602482015272524e443a204e6f7420676f7665726e616e636560681b60448201526064016104d5565b63ffffffff81166000908152600160205260409020546001600160a01b0316610fbc5760405162461bcd60e51b815260206004820152601760248201527f524e443a2050726f7669646572206e6f7420666f756e6400000000000000000060448201526064016104d5565b6004805463ffffffff191663ffffffff92909216919091179055565b610fe3600033610be8565b6110255760405162461bcd60e51b8152602060048201526013602482015272524e443a204e6f7420676f7665726e616e636560681b60448201526064016104d5565b63ffffffff8216600090815260016020526040902080546001600160a01b0319166001600160a01b03831617905561069e7f4a3debffbb5bc5d4c738c3d8b74da2daa7589500e8c18ed2d6a9a12a34a311618261108a565b6110878133611248565b50565b6110948282610be8565b61069e576000828152602081815260408083206001600160a01b03851684529091529020805460ff191660011790556110ca3390565b6001600160a01b0316816001600160a01b0316837f2f8788117e7eff1d82e926ec794901d17c78024a50270940304540a733656f0d60405160405180910390a45050565b6111188282610be8565b1561069e576000828152602081815260408083206001600160a01b0385168085529252808320805460ff1916905551339285917ff6391f5c32d9c69d2a47ea670b442974b53935d1edc7fd64eb21e047a839171b9190a45050565b60006040518060a001604052808563ffffffff1681526020016111933390565b6001600160a01b03908116825287811660208084019190915260408084018790526060938401889052600380546000908152600280855283822088518154968a01518816640100000000026001600160c01b031990971663ffffffff9091161795909517855592870151600185018054919096166001600160a01b03199091161790945593850151908201556080909301519282019290925580549250829161123b836116f4565b9190505550949350505050565b6112528282610be8565b61069e5761126a816001600160a01b031660146112ac565b6112758360206112ac565b604051602001611286929190611731565b60408051601f198184030181529082905262461bcd60e51b82526104d5916004016117a6565b606060006112bb8360026117d9565b6112c69060026117f0565b67ffffffffffffffff8111156112de576112de611803565b6040519080825280601f01601f191660200182016040528015611308576020820181803683370190505b509050600360fc1b8160008151811061132357611323611819565b60200101906001600160f81b031916908160001a905350600f60fb1b8160018151811061135257611352611819565b60200101906001600160f81b031916908160001a90535060006113768460026117d9565b6113819060016117f0565b90505b60018111156113f9576f181899199a1a9b1b9c1cb0b131b232b360811b85600f16601081106113b5576113b5611819565b1a60f81b8282815181106113cb576113cb611819565b60200101906001600160f81b031916908160001a90535060049490941c936113f28161182f565b9050611384565b5083156114485760405162461bcd60e51b815260206004820181905260248201527f537472696e67733a20686578206c656e67746820696e73756666696369656e7460448201526064016104d5565b9392505050565b60006020828403121561146157600080fd5b81356001600160e01b03198116811461144857600080fd5b60006020828403121561148b57600080fd5b5035919050565b6001600160a01b038116811461108757600080fd5b600080604083850312156114ba57600080fd5b8235915060208301356114cc81611492565b809150509250929050565b803563ffffffff811681146114eb57600080fd5b919050565b6000806040838503121561150357600080fd5b61150c836114d7565b946020939093013593505050565b6000806040838503121561152d57600080fd5b8235915061153d602084016114d7565b90509250929050565b60006020828403121561155857600080fd5b611448826114d7565b60008060006040848603121561157657600080fd5b83359250602084013567ffffffffffffffff8082111561159557600080fd5b818601915086601f8301126115a957600080fd5b8135818111156115b857600080fd5b8760208260051b85010111156115cd57600080fd5b6020830194508093505050509250925092565b600080604083850312156115f357600080fd5b6115fc836114d7565b915060208301356114cc81611492565b6020808252601390820152721493910e88105b1c9958591e48199a5b1b1959606a1b604082015260600190565b60006020828403121561164b57600080fd5b5051919050565b81835260006001600160fb1b0383111561166b57600080fd5b8260051b80836020870137939093016020019392505050565b83815260406020820152600061169e604083018486611652565b95945050505050565b6001600160a01b038581168252841660208201526060604082018190526000906116d49083018486611652565b9695505050505050565b634e487b7160e01b600052601160045260246000fd5b600060018201611706576117066116de565b5060010190565b60005b83811015611728578181015183820152602001611710565b50506000910152565b7f416363657373436f6e74726f6c3a206163636f756e742000000000000000000081526000835161176981601785016020880161170d565b7001034b99036b4b9b9b4b733903937b6329607d1b601791840191820152835161179a81602884016020880161170d565b01602801949350505050565b60208152600082518060208401526117c581604085016020870161170d565b601f01601f19169190910160400192915050565b8082028115828204841417610496576104966116de565b80820180821115610496576104966116de565b634e487b7160e01b600052604160045260246000fd5b634e487b7160e01b600052603260045260246000fd5b60008161183e5761183e6116de565b50600019019056fea26469706673582212207040e534cc1a403922c50cb243be15fa61c925a2e1afc09c56132722c789d5b164736f6c63430008110033","linkReferences":{}},"methodIdentifiers":{"CONSUMER_ROLE()":"4bc02da6","DEFAULT_ADMIN_ROLE()":"a217fddf","PROVIDER_ROLE()":"24c20a34","RANDOMIZER_ROLE()":"bf193005","ROUTER_ROLE()":"30d643b5","TEAM_ROLE()":"49d5e604","defaultProviderId()":"bda4d7e7","getRoleAdmin(bytes32)":"248a9ca3","grantRole(bytes32,address)":"2f2ff15d","hasRole(bytes32,address)":"91d14854","providers(uint32)":"4f4c09ad","reRequest(uint256)":"216afafe","reRequest(uint256,uint32)":"4c26100b","renounceRole(bytes32,address)":"36568abe","request(uint32,uint256)":"36f71c3f","requestIds()":"6aa28ccf","requests(uint256)":"81d12c58","response(uint256,uint256[])":"526fbe55","revokeRole(bytes32,address)":"d547741f","scheduledRequest(uint32,uint256)":"996db6a8","setProvider(uint32,address)":"f3e5013b","supportsInterface(bytes4)":"01ffc9a7","trigger(uint256)":"ed684cc6","updateDefaultProvider(uint32)":"f2b91694"},"id":30}