{"abi":[{"type":"constructor","inputs":[{"name":"_router","type":"address","internalType":"contract IRandomizerRouter"}],"stateMutability":"nonpayable"},{"type":"function","name":"DEFAULT_ADMIN_ROLE","inputs":[],"outputs":[{"name":"","type":"bytes32","internalType":"bytes32"}],"stateMutability":"view"},{"type":"function","name":"PRECISION","inputs":[],"outputs":[{"name":"","type":"uint256","internalType":"uint256"}],"stateMutability":"view"},{"type":"function","name":"RANDOMIZER_ROLE","inputs":[],"outputs":[{"name":"","type":"bytes32","internalType":"bytes32"}],"stateMutability":"view"},{"type":"function","name":"TEAM_ROLE","inputs":[],"outputs":[{"name":"","type":"bytes32","internalType":"bytes32"}],"stateMutability":"view"},{"type":"function","name":"_computeDollarValue","inputs":[{"name":"_token","type":"address","internalType":"address"},{"name":"_wager","type":"uint256","internalType":"uint256"}],"outputs":[{"name":"_wagerInDollar","type":"uint256","internalType":"uint256"}],"stateMutability":"view"},{"type":"function","name":"_updateWinMultiplier","inputs":[{"name":"_result","type":"uint8","internalType":"enum RPS.Result"},{"name":"_multiplier","type":"uint256","internalType":"uint256"}],"outputs":[],"stateMutability":"nonpayable"},{"type":"function","name":"bet","inputs":[{"name":"_wager","type":"uint256","internalType":"uint256"},{"name":"_count","type":"uint8","internalType":"uint8"},{"name":"_stopGain","type":"uint256","internalType":"uint256"},{"name":"_stopLoss","type":"uint256","internalType":"uint256"},{"name":"_gameData","type":"bytes","internalType":"bytes"},{"name":"_tokens","type":"address[2]","internalType":"address[2]"}],"outputs":[],"stateMutability":"nonpayable"},{"type":"function","name":"calcReward","inputs":[{"name":"_result","type":"uint8","internalType":"enum RPS.Result"},{"name":"_wager","type":"uint256","internalType":"uint256"}],"outputs":[{"name":"reward_","type":"uint256","internalType":"uint256"}],"stateMutability":"view"},{"type":"function","name":"calcWager","inputs":[{"name":"_count","type":"uint256","internalType":"uint256"},{"name":"_usedCount","type":"uint256","internalType":"uint256"},{"name":"_wager","type":"uint256","internalType":"uint256"}],"outputs":[{"name":"usedWager_","type":"uint256","internalType":"uint256"},{"name":"unusedWager_","type":"uint256","internalType":"uint256"}],"stateMutability":"pure"},{"type":"function","name":"changeRandomizerRouter","inputs":[{"name":"_randomizerRouter","type":"address","internalType":"contract IRandomizerRouter"}],"outputs":[],"stateMutability":"nonpayable"},{"type":"function","name":"completedGames","inputs":[{"name":"","type":"uint256","internalType":"uint256"}],"outputs":[{"name":"","type":"bool","internalType":"bool"}],"stateMutability":"view"},{"type":"function","name":"decodeGameData","inputs":[{"name":"_gameData","type":"bytes","internalType":"bytes"}],"outputs":[{"name":"","type":"uint8","internalType":"uint8"}],"stateMutability":"pure"},{"type":"function","name":"encodeGameData","inputs":[{"name":"_choice","type":"uint8","internalType":"uint8"}],"outputs":[{"name":"","type":"bytes","internalType":"bytes"}],"stateMutability":"pure"},{"type":"function","name":"games","inputs":[{"name":"","type":"uint256","internalType":"uint256"}],"outputs":[{"name":"count","type":"uint8","internalType":"uint8"},{"name":"player","type":"address","internalType":"address"},{"name":"gameData","type":"bytes","internalType":"bytes"},{"name":"wager","type":"uint256","internalType":"uint256"},{"name":"startTime","type":"uint256","internalType":"uint256"}],"stateMutability":"view"},{"type":"function","name":"getHouseEdge","inputs":[{"name":"","type":"tuple","internalType":"struct CommonSolo.Game","components":[{"name":"count","type":"uint8","internalType":"uint8"},{"name":"player","type":"address","internalType":"address"},{"name":"gameData","type":"bytes","internalType":"bytes"},{"name":"wager","type":"uint256","internalType":"uint256"},{"name":"startTime","type":"uint256","internalType":"uint256"},{"name":"tokens","type":"address[2]","internalType":"address[2]"}]}],"outputs":[{"name":"edge_","type":"uint64","internalType":"uint64"}],"stateMutability":"view"},{"type":"function","name":"getRoleAdmin","inputs":[{"name":"role","type":"bytes32","internalType":"bytes32"}],"outputs":[{"name":"","type":"bytes32","internalType":"bytes32"}],"stateMutability":"view"},{"type":"function","name":"grantRole","inputs":[{"name":"role","type":"bytes32","internalType":"bytes32"},{"name":"account","type":"address","internalType":"address"}],"outputs":[],"stateMutability":"nonpayable"},{"type":"function","name":"hasRole","inputs":[{"name":"role","type":"bytes32","internalType":"bytes32"},{"name":"account","type":"address","internalType":"address"}],"outputs":[{"name":"","type":"bool","internalType":"bool"}],"stateMutability":"view"},{"type":"function","name":"houseEdge","inputs":[],"outputs":[{"name":"","type":"uint64","internalType":"uint64"}],"stateMutability":"view"},{"type":"function","name":"isWon","inputs":[{"name":"_choice","type":"uint16","internalType":"uint16"},{"name":"_result","type":"uint256","internalType":"uint256"}],"outputs":[{"name":"result_","type":"uint8","internalType":"enum RPS.Result"}],"stateMutability":"pure"},{"type":"function","name":"maxGameCount","inputs":[],"outputs":[{"name":"","type":"uint8","internalType":"uint8"}],"stateMutability":"view"},{"type":"function","name":"minConfirmations","inputs":[],"outputs":[{"name":"","type":"uint256","internalType":"uint256"}],"stateMutability":"view"},{"type":"function","name":"multipliers","inputs":[{"name":"","type":"uint8","internalType":"enum RPS.Result"}],"outputs":[{"name":"","type":"uint256","internalType":"uint256"}],"stateMutability":"view"},{"type":"function","name":"options","inputs":[{"name":"","type":"uint256","internalType":"uint256"}],"outputs":[{"name":"stopGain","type":"uint256","internalType":"uint256"},{"name":"stopLoss","type":"uint256","internalType":"uint256"}],"stateMutability":"view"},{"type":"function","name":"pause","inputs":[],"outputs":[],"stateMutability":"nonpayable"},{"type":"function","name":"paused","inputs":[],"outputs":[{"name":"","type":"bool","internalType":"bool"}],"stateMutability":"view"},{"type":"function","name":"play","inputs":[{"name":"_game","type":"tuple","internalType":"struct CommonSolo.Game","components":[{"name":"count","type":"uint8","internalType":"uint8"},{"name":"player","type":"address","internalType":"address"},{"name":"gameData","type":"bytes","internalType":"bytes"},{"name":"wager","type":"uint256","internalType":"uint256"},{"name":"startTime","type":"uint256","internalType":"uint256"},{"name":"tokens","type":"address[2]","internalType":"address[2]"}]},{"name":"_resultNumbers","type":"uint256[]","internalType":"uint256[]"},{"name":"_stopGain","type":"uint256","internalType":"uint256"},{"name":"_stopLoss","type":"uint256","internalType":"uint256"}],"outputs":[{"name":"payout_","type":"uint256","internalType":"uint256"},{"name":"playedGameCount_","type":"uint32","internalType":"uint32"},{"name":"payouts_","type":"uint256[]","internalType":"uint256[]"}],"stateMutability":"view"},{"type":"function","name":"randomizerCallback","inputs":[{"name":"_requestId","type":"uint256","internalType":"uint256"},{"name":"_rngList","type":"uint256[]","internalType":"uint256[]"}],"outputs":[],"stateMutability":"nonpayable"},{"type":"function","name":"randomizerRouter","inputs":[],"outputs":[{"name":"","type":"address","internalType":"contract IRandomizerRouter"}],"stateMutability":"view"},{"type":"function","name":"refundCooldown","inputs":[],"outputs":[{"name":"","type":"uint32","internalType":"uint32"}],"stateMutability":"view"},{"type":"function","name":"refundGame","inputs":[{"name":"_requestId","type":"uint256","internalType":"uint256"}],"outputs":[],"stateMutability":"nonpayable"},{"type":"function","name":"renounceRole","inputs":[{"name":"role","type":"bytes32","internalType":"bytes32"},{"name":"account","type":"address","internalType":"address"}],"outputs":[],"stateMutability":"nonpayable"},{"type":"function","name":"revokeRole","inputs":[{"name":"role","type":"bytes32","internalType":"bytes32"},{"name":"account","type":"address","internalType":"address"}],"outputs":[],"stateMutability":"nonpayable"},{"type":"function","name":"setMinConfirmations","inputs":[{"name":"_minConfirmations","type":"uint16","internalType":"uint16"}],"outputs":[],"stateMutability":"nonpayable"},{"type":"function","name":"setVaultManager","inputs":[{"name":"_vaultManager","type":"address","internalType":"contract IVaultManager"}],"outputs":[],"stateMutability":"nonpayable"},{"type":"function","name":"shouldStop","inputs":[{"name":"_total","type":"uint256","internalType":"uint256"},{"name":"_wager","type":"uint256","internalType":"uint256"},{"name":"_stopGain","type":"uint256","internalType":"uint256"},{"name":"_stopLoss","type":"uint256","internalType":"uint256"}],"outputs":[{"name":"stop_","type":"bool","internalType":"bool"}],"stateMutability":"pure"},{"type":"function","name":"supportsInterface","inputs":[{"name":"interfaceId","type":"bytes4","internalType":"bytes4"}],"outputs":[{"name":"","type":"bool","internalType":"bool"}],"stateMutability":"view"},{"type":"function","name":"unpause","inputs":[],"outputs":[],"stateMutability":"nonpayable"},{"type":"function","name":"updateHouseEdge","inputs":[{"name":"_houseEdge","type":"uint64","internalType":"uint64"}],"outputs":[],"stateMutability":"nonpayable"},{"type":"function","name":"updateMaxGameCount","inputs":[{"name":"_maxGameCount","type":"uint8","internalType":"uint8"}],"outputs":[],"stateMutability":"nonpayable"},{"type":"function","name":"updateRefundCooldown","inputs":[{"name":"_refundCooldown","type":"uint32","internalType":"uint32"}],"outputs":[],"stateMutability":"nonpayable"},{"type":"function","name":"vaultManager","inputs":[],"outputs":[{"name":"","type":"address","internalType":"contract IVaultManager"}],"stateMutability":"view"},{"type":"event","name":"Created","inputs":[{"name":"player","type":"address","indexed":true,"internalType":"address"},{"name":"requestId","type":"uint256","indexed":false,"internalType":"uint256"},{"name":"wager","type":"uint256","indexed":false,"internalType":"uint256"},{"name":"tokens","type":"address[2]","indexed":false,"internalType":"address[2]"}],"anonymous":false},{"type":"event","name":"Paused","inputs":[{"name":"account","type":"address","indexed":false,"internalType":"address"}],"anonymous":false},{"type":"event","name":"RoleAdminChanged","inputs":[{"name":"role","type":"bytes32","indexed":true,"internalType":"bytes32"},{"name":"previousAdminRole","type":"bytes32","indexed":true,"internalType":"bytes32"},{"name":"newAdminRole","type":"bytes32","indexed":true,"internalType":"bytes32"}],"anonymous":false},{"type":"event","name":"RoleGranted","inputs":[{"name":"role","type":"bytes32","indexed":true,"internalType":"bytes32"},{"name":"account","type":"address","indexed":true,"internalType":"address"},{"name":"sender","type":"address","indexed":true,"internalType":"address"}],"anonymous":false},{"type":"event","name":"RoleRevoked","inputs":[{"name":"role","type":"bytes32","indexed":true,"internalType":"bytes32"},{"name":"account","type":"address","indexed":true,"internalType":"address"},{"name":"sender","type":"address","indexed":true,"internalType":"address"}],"anonymous":false},{"type":"event","name":"Settled","inputs":[{"name":"player","type":"address","indexed":true,"internalType":"address"},{"name":"requestId","type":"uint256","indexed":false,"internalType":"uint256"},{"name":"wager","type":"uint256","indexed":false,"internalType":"uint256"},{"name":"won","type":"bool","indexed":false,"internalType":"bool"},{"name":"payout","type":"uint256","indexed":false,"internalType":"uint256"},{"name":"playedGameCount","type":"uint32","indexed":false,"internalType":"uint32"},{"name":"numbers","type":"uint256[]","indexed":false,"internalType":"uint256[]"},{"name":"payouts","type":"uint256[]","indexed":false,"internalType":"uint256[]"}],"anonymous":false},{"type":"event","name":"Unpaused","inputs":[{"name":"account","type":"address","indexed":false,"internalType":"address"}],"anonymous":false},{"type":"event","name":"UpdateHouseEdge","inputs":[{"name":"houseEdge","type":"uint64","indexed":false,"internalType":"uint64"}],"anonymous":false},{"type":"event","name":"VaultManagerChange","inputs":[{"name":"vaultManager","type":"address","indexed":false,"internalType":"address"}],"anonymous":false}],"bytecode":{"object":"0x608060405260038055600580546207081960a21b64ffffffffff60a01b19909116179055600a80546001600160401b03191660c81790553480156200004357600080fd5b50604051620038a0380380620038a08339810160408190526200006691620004c8565b6000805460ff19168155819081908190620000829033620000fc565b600160025562000092816200010c565b505060096020525050671b33519d8fc400007fec8156718a8372b1db44bb411437d0870f3e3790d4a08526d024ce1b0b668f6b556001600052670d99a8cec7e200007f92e85d02570a8092d09a6e3a57665bc3815a2699a4074001bf1ccabf660f5a365562000653565b620001088282620001b5565b5050565b6200011960003362000223565b6200016b5760405162461bcd60e51b815260206004820152601360248201527f4143433a204e6f7420676f7665726e616e63650000000000000000000000000060448201526064015b60405180910390fd5b600480546001600160a01b0319166001600160a01b038316179055620001b27f2f660b522cd66c3fe8eabbd9815ae97246faa2cf642722f997fcefd13b6a67b68262000250565b50565b620001c1828262000223565b620001085760008281526001602081815260408084206001600160a01b0386168086529252808420805460ff19169093179092559051339285917f2f8788117e7eff1d82e926ec794901d17c78024a50270940304540a733656f0d9190a45050565b60008281526001602090815260408083206001600160a01b038516845290915290205460ff165b92915050565b600082815260016020819052604090912001546200026e816200027f565b6200027a8383620001b5565b505050565b620001b2813362000291828262000223565b6200010857620002b7816001600160a01b031660146200030860201b6200145b1760201c565b620002cd8360206200145b62000308821b17811c565b604051602001620002e092919062000519565b60408051601f198184030181529082905262461bcd60e51b8252620001629160040162000592565b6060600062000319836002620005dd565b62000326906002620005f7565b6001600160401b038111156200034057620003406200060d565b6040519080825280601f01601f1916602001820160405280156200036b576020820181803683370190505b509050600360fc1b8160008151811062000389576200038962000623565b60200101906001600160f81b031916908160001a905350600f60fb1b81600181518110620003bb57620003bb62000623565b60200101906001600160f81b031916908160001a9053506000620003e1846002620005dd565b620003ee906001620005f7565b90505b600181111562000470576f181899199a1a9b1b9c1cb0b131b232b360811b85600f166010811062000426576200042662000623565b1a60f81b8282815181106200043f576200043f62000623565b60200101906001600160f81b031916908160001a90535060049490941c93620004688162000639565b9050620003f1565b508315620004c15760405162461bcd60e51b815260206004820181905260248201527f537472696e67733a20686578206c656e67746820696e73756666696369656e74604482015260640162000162565b9392505050565b600060208284031215620004db57600080fd5b81516001600160a01b0381168114620004c157600080fd5b60005b8381101562000510578181015183820152602001620004f6565b50506000910152565b7f416363657373436f6e74726f6c3a206163636f756e742000000000000000000081526000835162000553816017850160208801620004f3565b7001034b99036b4b9b9b4b733903937b6329607d1b601791840191820152835162000586816028840160208801620004f3565b01602801949350505050565b6020815260008251806020840152620005b3816040850160208701620004f3565b601f01601f19169190910160400192915050565b634e487b7160e01b600052601160045260246000fd5b80820281158282048414176200024a576200024a620005c7565b808201808211156200024a576200024a620005c7565b634e487b7160e01b600052604160045260246000fd5b634e487b7160e01b600052603260045260246000fd5b6000816200064b576200064b620005c7565b506000190190565b61323d80620006636000396000f3fe608060405234801561001057600080fd5b506004361061025e5760003560e01c80638a4adf2411610146578063bf193005116100c3578063d7260cba11610087578063d7260cba14610648578063e5199bb81461065b578063e7c4393e1461066e578063e84f0cc014610677578063e9f9b2d71461068a578063f7137e771461069e57600080fd5b8063bf193005146105c8578063d184ccda146105ef578063d1adfff41461060f578063d547741f14610622578063d667dcd71461063557600080fd5b8063a217fddf1161010a578063a217fddf14610566578063aaf5eb681461056e578063b543503e1461057d578063bb4149e014610590578063bda9a844146105a357600080fd5b80638a4adf24146104fa5780638f130d501461050d5780639104a03d1461052057806391d148541461053357806392870d941461054657600080fd5b8063409e2205116101df5780634feb59e3116101a35780634feb59e3146104495780635c975abb1461045c57806379e7a5d7146104675780637f1ad2041461047a57806380d4dcd5146104b05780638456cb59146104f257600080fd5b8063409e22051461039a578063427dc913146103c157806349d5e604146103d45780634b95a52e146103fb5780634d30372d1461042657600080fd5b80632f2ff15d116102265780632f2ff15d1461033557806336568abe1461034a57806337107fc71461035d5780633b49b7ed1461037f5780633f4ba83a1461039257600080fd5b806301ffc9a71461026357806310088fbc1461028b578063117a5b90146102b3578063248a9ca3146102d75780632d3e8c9314610309575b600080fd5b6102766102713660046124f0565b6106b1565b60405190151581526020015b60405180910390f35b61029e61029936600461251a565b6106e8565b60408051928352602083019190915201610282565b6102c66102c1366004612546565b610716565b6040516102829594939291906125af565b6102fb6102e5366004612546565b6000908152600160208190526040909120015490565b604051908152602001610282565b60055461032090600160a81b900463ffffffff1681565b60405163ffffffff9091168152602001610282565b610348610343366004612605565b6107db565b005b610348610358366004612605565b610806565b61037061036b366004612826565b610889565b60405161028293929190612938565b61027661038d366004612966565b610a0f565b610348610a63565b61029e6103a8366004612546565b6007602052600090815260409020805460019091015482565b6103486103cf366004612998565b610ad4565b6102fb7f9b82d2f38fbdf13006bfa741767f793d917e063392737837b580c1c2b1e0bab381565b60045461040e906001600160a01b031681565b6040516001600160a01b039091168152602001610282565b610276610434366004612546565b60086020526000908152604090205460ff1681565b6103486104573660046129c9565b610b00565b60005460ff16610276565b6102fb6104753660046129c9565b610b64565b6104986104883660046129f3565b50600a546001600160401b031690565b6040516001600160401b039091168152602001610282565b6104e56104be366004612998565b6040805160ff83166020820152606091016040516020818303038152906040529050919050565b6040516102829190612a27565b610348610bc1565b60055461040e906001600160a01b031681565b61034861051b366004612a3a565b610c30565b61034861052e366004612a69565b610c9f565b610276610541366004612605565b610ccf565b6102fb610554366004612a84565b60096020526000908152604090205481565b6102fb600081565b6102fb670de0b6b3a764000081565b61034861058b366004612a3a565b610cfa565b61034861059e366004612a9f565b610d76565b6105b66105b1366004612b1b565b610de6565b60405160ff9091168152602001610282565b6102fb7f2f660b522cd66c3fe8eabbd9815ae97246faa2cf642722f997fcefd13b6a67b681565b6106026105fd366004612b4f565b610dfc565b6040516102829190612b81565b61034861061d366004612ba9565b610eb4565b610348610630366004612605565b610ee6565b600a54610498906001600160401b031681565b610348610656366004612546565b610f0c565b610348610669366004612bcf565b611288565b6102fb60035481565b610348610685366004612c4d565b6112fe565b6005546105b690600160a01b900460ff1681565b6102fb6106ac366004612c76565b611374565b60006001600160e01b03198216637965db0b60e01b14806106e257506301ffc9a760e01b6001600160e01b03198316145b92915050565b6000806106f58385612caa565b9150816107028487612caa565b61070c9190612cc1565b9050935093915050565b6006602052600090815260409020805460018201805460ff8316936101009093046001600160a01b031692919061074c90612cd4565b80601f016020809104026020016040519081016040528092919081815260200182805461077890612cd4565b80156107c55780601f1061079a576101008083540402835291602001916107c5565b820191906000526020600020905b8154815290600101906020018083116107a857829003601f168201915b5050505050908060020154908060030154905085565b600082815260016020819052604090912001546107f7816115f6565b6108018383611600565b505050565b6001600160a01b038116331461087b5760405162461bcd60e51b815260206004820152602f60248201527f416363657373436f6e74726f6c3a2063616e206f6e6c792072656e6f756e636560448201526e103937b632b9903337b91039b2b63360891b60648201526084015b60405180910390fd5b610885828261166b565b5050565b6000806060866000015160ff166001600160401b038111156108ad576108ad612635565b6040519080825280602002602001820160405280156108d6578160200160208202803683370190505b509050866000015160ff16915060006108f28860400151610de6565b905060005b886000015160ff168160ff161015610a035760006109348360ff168a8460ff168151811061092757610927612d0e565b6020026020010151610dfc565b90506000610946828c60600151610b64565b905060008b606001518261095a9190612d24565b90508b6060015161096a826116d2565b03610973575060005b61097c816116d2565b868560ff168151811061099157610991612d0e565b60209081029190910101526109a68289612d4b565b97506109d2888d606001518660016109be9190612d5e565b60ff166109cb9190612caa565b8c8c610a0f565b156109ef576109e2846001612d5e565b60ff169650505050610a03565b505050806109fc90612d77565b90506108f7565b50509450945094915050565b60008215801590610a1f57508385115b15610a385782610a2f8587612cc1565b10159050610a5b565b8115801590610a4657508484115b15610a5b5781610a568686612cc1565b101590505b949350505050565b610a8d7f9b82d2f38fbdf13006bfa741767f793d917e063392737837b580c1c2b1e0bab333610ccf565b610aca5760405162461bcd60e51b815260206004820152600e60248201526d47414d453a204e6f74207465616d60901b6044820152606401610872565b610ad26116e9565b565b6000610adf816115f6565b506005805460ff909216600160a01b0260ff60a01b19909216919091179055565b610b0b600033610ccf565b610b275760405162461bcd60e51b815260040161087290612d96565b8060096000846002811115610b3e57610b3e612b6b565b6002811115610b4f57610b4f612b6b565b81526020810191909152604001600020555050565b6000670de0b6b3a764000060096000856002811115610b8557610b85612b6b565b6002811115610b9657610b96612b6b565b81526020019081526020016000205483610bb09190612caa565b610bba9190612dd9565b9392505050565b610beb7f9b82d2f38fbdf13006bfa741767f793d917e063392737837b580c1c2b1e0bab333610ccf565b610c285760405162461bcd60e51b815260206004820152600e60248201526d47414d453a204e6f74207465616d60901b6044820152606401610872565b610ad261173b565b610c3b600033610ccf565b610c575760405162461bcd60e51b815260040161087290612d96565b600480546001600160a01b0319166001600160a01b038316179055610c9c7f2f660b522cd66c3fe8eabbd9815ae97246faa2cf642722f997fcefd13b6a67b6826107db565b50565b610caa600033610ccf565b610cc65760405162461bcd60e51b815260040161087290612d96565b61ffff16600355565b60009182526001602090815260408084206001600160a01b0393909316845291905290205460ff1690565b610d05600033610ccf565b610d215760405162461bcd60e51b815260040161087290612d96565b600580546001600160a01b0319166001600160a01b0383169081179091556040519081527fa908db00c4502bbe936c6ac99cb6d67f0636790d9b238cfddab0139153f5eb74906020015b60405180910390a150565b816000610d8282610de6565b905060038160ff1610610dce5760405162461bcd60e51b815260206004820152601460248201527310da1bda58d9481a5cdb89dd08185b1b1bddd95960621b6044820152606401610872565b610ddc888888888888611778565b5050505050505050565b6000818060200190518101906106e29190612ded565b60008261ffff16600003610e3b5781600003610e1a575060016106e2565b81600103610e2a575060026106e2565b81600203610e36575060005b6106e2565b8261ffff16600103610e775781600003610e57575060006106e2565b81600103610e67575060016106e2565b81600203610e36575060026106e2565b8261ffff166002036106e25781600003610e93575060026106e2565b81600103610ea3575060006106e2565b816002036106e25750600192915050565b6000610ebf816115f6565b506005805463ffffffff909216600160a81b0263ffffffff60a81b19909216919091179055565b60008281526001602081905260409091200154610f02816115f6565b610801838361166b565b6002805403610f2d5760405162461bcd60e51b815260040161087290612e0a565b60028055600081815260086020526040902054819060ff1615610f865760405162461bcd60e51b815260206004820152601160248201527011d85b59481a5cc818dbdb5c1b195d1959607a1b6044820152606401610872565b6000818152600860209081526040808320805460ff1916600190811790915585845260068352818420825160c081018452815460ff811682526001600160a01b03610100909104169481019490945290810180549192840191610fe890612cd4565b80601f016020809104026020016040519081016040528092919081815260200182805461101490612cd4565b80156110615780601f1061103657610100808354040283529160200191611061565b820191906000526020600020905b81548152906001019060200180831161104457829003601f168201915b505050505081526020016002820154815260200160038201548152602001600482016002806020026040519081016040528092919082600280156110c4576020028201915b81546001600160a01b031681526001909101906020018083116110a6575b50505050508152505090506110d63390565b6001600160a01b031681602001516001600160a01b0316146111285760405162461bcd60e51b815260206004820152600b60248201526a27b7363c90383630bcb2b960a91b6044820152606401610872565b6005546080820151429161114a91600160a81b90910463ffffffff1690612d4b565b106111975760405162461bcd60e51b815260206004820152601a60248201527f47616d65206973206e6f7420726566756e6461626c65207965740000000000006044820152606401610872565b600083815260066020526040812080546001600160a81b0319168155906111c16001830182612451565b5060006002820181905560038201819055600482018190556005918201555460a082015151825160608401516001600160a01b0390931692634154aede929161120f9160ff90911690612caa565b60208501516040516001600160e01b031960e086901b1681526001600160a01b0393841660048201526024810192909252919091166044820152606401600060405180830381600087803b15801561126657600080fd5b505af115801561127a573d6000803e3d6000fd5b505060016002555050505050565b6112b27f2f660b522cd66c3fe8eabbd9815ae97246faa2cf642722f997fcefd13b6a67b633610ccf565b6112f35760405162461bcd60e51b815260206004820152601260248201527129219d102737ba103930b73237b6b4bd32b960711b6044820152606401610872565b610801838383611bd6565b611309600033610ccf565b6113255760405162461bcd60e51b815260040161087290612d96565b600a805467ffffffffffffffff19166001600160401b0383169081179091556040519081527f6a0c74d2a2f78a7af3b6da5a6ae0321cc6d9b6271a7544a895e01d6bf1916e2c90602001610d6b565b6000826001600160a01b031663313ce5676040518163ffffffff1660e01b8152600401602060405180830381865afa1580156113b4573d6000803e3d6000fd5b505050506040513d601f19601f820116820180604052508101906113d89190612ded565b6113e390600a612f25565b6005546040516341976e0960e01b81526001600160a01b038681166004830152909116906341976e0990602401602060405180830381865afa15801561142d573d6000803e3d6000fd5b505050506040513d601f19601f820116820180604052508101906114519190612f34565b610bb09084612caa565b6060600061146a836002612caa565b611475906002612d4b565b6001600160401b0381111561148c5761148c612635565b6040519080825280601f01601f1916602001820160405280156114b6576020820181803683370190505b509050600360fc1b816000815181106114d1576114d1612d0e565b60200101906001600160f81b031916908160001a905350600f60fb1b8160018151811061150057611500612d0e565b60200101906001600160f81b031916908160001a9053506000611524846002612caa565b61152f906001612d4b565b90505b60018111156115a7576f181899199a1a9b1b9c1cb0b131b232b360811b85600f166010811061156357611563612d0e565b1a60f81b82828151811061157957611579612d0e565b60200101906001600160f81b031916908160001a90535060049490941c936115a081612f4d565b9050611532565b508315610bba5760405162461bcd60e51b815260206004820181905260248201527f537472696e67733a20686578206c656e67746820696e73756666696369656e746044820152606401610872565b610c9c8133611f2c565b61160a8282610ccf565b6108855760008281526001602081815260408084206001600160a01b0386168086529252808420805460ff19169093179092559051339285917f2f8788117e7eff1d82e926ec794901d17c78024a50270940304540a733656f0d9190a45050565b6116758282610ccf565b156108855760008281526001602090815260408083206001600160a01b0385168085529252808320805460ff1916905551339285917ff6391f5c32d9c69d2a47ea670b442974b53935d1edc7fd64eb21e047a839171b9190a45050565b6000808212156116e557610e3682612f64565b5090565b6116f1611f90565b6000805460ff191690557f5db9ee0a495bf2e6ff9c91a7834c1ba4fdd244a5e8aa4e537bd38aeae4b073aa335b6040516001600160a01b03909116815260200160405180910390a1565b611743611fd9565b6000805460ff191660011790557f62e78cea01bee320cd4e420270b5ea74000d11b0c9f74754ebdbfc544b05a25861171e3390565b8460ff16600081116117c35760405162461bcd60e51b815260206004820152601460248201527347616d6520636f756e74206f75742d72616e676560601b6044820152606401610872565b600554600160a01b900460ff168111156118165760405162461bcd60e51b815260206004820152601460248201527347616d6520636f756e74206f75742d72616e676560601b6044820152606401610872565b81518760006118258383611374565b60055460405163a8e3925760e01b81523060048201529192506001600160a01b03169063a8e3925790602401602060405180830381865afa15801561186e573d6000803e3d6000fd5b505050506040513d601f19601f820116820180604052508101906118929190612f34565b8110156118d75760405162461bcd60e51b815260206004820152601360248201527247414d453a20576167657220746f6f206c6f7760681b6044820152606401610872565b600560009054906101000a90046001600160a01b03166001600160a01b0316638ac402596040518163ffffffff1660e01b8152600401602060405180830381865afa15801561192a573d6000803e3d6000fd5b505050506040513d601f19601f8201168201806040525081019061194e9190612f34565b8111156119945760405162461bcd60e51b815260206004820152601460248201527308e829a8a7440aec2cecae440e8dede40d0d2ced60631b6044820152606401610872565b61199c611fd9565b60028054036119bd5760405162461bcd60e51b815260040161087290612e0a565b600280553360006119cd8b61201f565b6005549091506001600160a01b03166382b9be1a8860006020020151848f8f60ff166119f99190612caa565b6040516001600160e01b031960e086901b1681526001600160a01b0393841660048201529290911660248301526044820152606401600060405180830381600087803b158015611a4857600080fd5b505af1158015611a5c573d6000803e3d6000fd5b505050506040518060c001604052808c60ff168152602001836001600160a01b031681526020018981526020018d8152602001428152602001888152506006600083815260200190815260200160002060008201518160000160006101000a81548160ff021916908360ff16021790555060208201518160000160016101000a8154816001600160a01b0302191690836001600160a01b031602179055506040820151816001019081611b0f9190612fce565b50606082015181600201556080820151816003015560a082015181600401906002611b3b92919061248b565b50505089151580611b4b57508815155b15611b7e576040805180820182528b815260208082018c8152600085815260079092529290209051815590516001909101555b816001600160a01b03167f4eb2df9ddc67bd535fefe0a4420b0439b48f28eaf990ef434f94694d52e8b943828e8a604051611bbb939291906130bf565b60405180910390a25050600160025550505050505050505050565b600083815260066020526040902054839061010090046001600160a01b0316611c375760405162461bcd60e51b815260206004820152601360248201527211d85b59481a5cc81b9bdd0818dc99585d1959606a1b6044820152606401610872565b600084815260086020526040902054849060ff1615611c8c5760405162461bcd60e51b815260206004820152601160248201527011d85b59481a5cc818dbdb5c1b195d1959607a1b6044820152606401610872565b6000818152600860205260409020805460ff1916600117905560025460011901611cc85760405162461bcd60e51b815260040161087290612e0a565b600280556000858152600660209081526040808320815160c081018352815460ff8116825261010090046001600160a01b0316938101939093526001810180549192840191611d1690612cd4565b80601f0160208091040260200160405190810160405280929190818152602001828054611d4290612cd4565b8015611d8f5780601f10611d6457610100808354040283529160200191611d8f565b820191906000526020600020905b815481529060010190602001808311611d7257829003601f168201915b50505050508152602001600282015481526020016003820154815260200160048201600280602002604051908101604052809291908260028015611df2576020028201915b81546001600160a01b03168152600190910190602001808311611dd4575b5050509190925250505060008781526007602090815260408083208151808301909252805482526001015491810191909152919250611e3283888861209e565b90506000806000611e4d868587600001518860200151610889565b92509250925085602001516001600160a01b03167fa0c6d43553c751eac6408fb8830cce1d25ac333ad47e35f29671b726e8e911648c8860600151611e998a8763ffffffff16896120df565b87878a88604051611eb097969594939291906130da565b60405180910390a260008b815260066020526040812080546001600160a81b031916815590611ee26001830182612451565b600060028301819055600383018190556004830181905560058301555050506000998a52505060076020525050604086208681556001908101969096555050506002929092555050565b611f368282610ccf565b61088557611f4e816001600160a01b0316601461145b565b611f5983602061145b565b604051602001611f6a929190613133565b60408051601f198184030181529082905262461bcd60e51b825261087291600401612a27565b60005460ff16610ad25760405162461bcd60e51b815260206004820152601460248201527314185d5cd8589b194e881b9bdd081c185d5cd95960621b6044820152606401610872565b60005460ff1615610ad25760405162461bcd60e51b815260206004820152601060248201526f14185d5cd8589b194e881c185d5cd95960821b6044820152606401610872565b600480546003546040516336f71c3f60e01b815260ff85169381019390935260248301526000916001600160a01b03909116906336f71c3f906044016020604051808303816000875af115801561207a573d6000803e3d6000fd5b505050506040513d601f19601f820116820180604052508101906106e29190612f34565b6060610a5b8383808060200260200160405190810160405280939291908181526020018383602002808284376000920191909152506003925061237d915050565b60008060006120fa866000015160ff168688606001516106e8565b60055460a08901515160208a0151600a5460408051633005989b60e11b81526001600160a01b0394851660048201529284166024840152604483018790526001600160401b03909116606483015251949650929450169163600b31369160848082019260009290919082900301818387803b15801561217857600080fd5b505af115801561218c573d6000803e3d6000fd5b505060055460a08901515160208a01516040516303d1db8560e31b81526001600160a01b03928316600482015260248101889052908216604482015291169250631e8edc289150606401600060405180830381600087803b1580156121f057600080fd5b505af1158015612204573d6000803e3d6000fd5b50505050806000146122895760055460a0870151516020880151604051631d2adf0f60e01b81526001600160a01b039283166004820152908216602482015260448101849052911690631d2adf0f90606401600060405180830381600087803b15801561227057600080fd5b505af1158015612284573d6000803e3d6000fd5b505050505b836000036123015760055460a087015151604051631af5a19360e21b81526001600160a01b03918216600482015260248101859052911690636bd6864c90604401600060405180830381600087803b1580156122e457600080fd5b505af11580156122f8573d6000803e3d6000fd5b50505050612372565b60055460a087015160208801516040516353a2418b60e11b81526001600160a01b039093169263a74483169261233f92909187908a906004016131a8565b600060405180830381600087803b15801561235957600080fd5b505af115801561236d573d6000803e3d6000fd5b505050505b509091119392505050565b6060600083516001600160401b0381111561239a5761239a612635565b6040519080825280602002602001820160405280156123c3578160200160208202803683370190505b50905060005b8451811015612424576123f58582815181106123e7576123e7612d0e565b60200260200101518561242c565b82828151811061240757612407612d0e565b60209081029190910101528061241c816131da565b9150506123c9565b509392505050565b6000808263ffffffff16116124415782610bba565b610bba63ffffffff8316846131f3565b50805461245d90612cd4565b6000825580601f1061246d575050565b601f016020900490600052602060002090810190610c9c91906124db565b82600281019282156124d3579160200282015b828111156124d357825182546001600160a01b0319166001600160a01b0390911617825560209092019160019091019061249e565b506116e59291505b5b808211156116e557600081556001016124dc565b60006020828403121561250257600080fd5b81356001600160e01b031981168114610bba57600080fd5b60008060006060848603121561252f57600080fd5b505081359360208301359350604090920135919050565b60006020828403121561255857600080fd5b5035919050565b60005b8381101561257a578181015183820152602001612562565b50506000910152565b6000815180845261259b81602086016020860161255f565b601f01601f19169290920160200192915050565b60ff861681526001600160a01b038516602082015260a0604082018190526000906125dc90830186612583565b606083019490945250608001529392505050565b6001600160a01b0381168114610c9c57600080fd5b6000806040838503121561261857600080fd5b82359150602083013561262a816125f0565b809150509250929050565b634e487b7160e01b600052604160045260246000fd5b604051601f8201601f191681016001600160401b038111828210171561267357612673612635565b604052919050565b60ff81168114610c9c57600080fd5b600082601f83011261269b57600080fd5b81356001600160401b038111156126b4576126b4612635565b6126c7601f8201601f191660200161264b565b8181528460208386010111156126dc57600080fd5b816020850160208301376000918101602001919091529392505050565b600082601f83011261270a57600080fd5b604051604081018181106001600160401b038211171561272c5761272c612635565b806040525080604084018581111561274357600080fd5b845b81811015612766578035612758816125f0565b835260209283019201612745565b509195945050505050565b600060e0828403121561278357600080fd5b60405160c081016001600160401b0382821081831117156127a6576127a6612635565b81604052829350843591506127ba8261267b565b9082526020840135906127cc826125f0565b81602084015260408501359150808211156127e657600080fd5b506127f38582860161268a565b604083015250606083013560608201526080830135608082015261281a8460a085016126f9565b60a08201525092915050565b6000806000806080858703121561283c57600080fd5b84356001600160401b038082111561285357600080fd5b61285f88838901612771565b955060209150818701358181111561287657600080fd5b8701601f8101891361288757600080fd5b80358281111561289957612899612635565b8060051b92506128aa84840161264b565b818152928201840192848101908b8511156128c457600080fd5b928501925b848410156128e2578335825292850192908501906128c9565b989b989a505050506040870135966060013595945050505050565b600081518084526020808501945080840160005b8381101561292d57815187529582019590820190600101612911565b509495945050505050565b83815263ffffffff8316602082015260606040820152600061295d60608301846128fd565b95945050505050565b6000806000806080858703121561297c57600080fd5b5050823594602084013594506040840135936060013592509050565b6000602082840312156129aa57600080fd5b8135610bba8161267b565b8035600381106129c457600080fd5b919050565b600080604083850312156129dc57600080fd5b6129e5836129b5565b946020939093013593505050565b600060208284031215612a0557600080fd5b81356001600160401b03811115612a1b57600080fd5b610a5b84828501612771565b602081526000610bba6020830184612583565b600060208284031215612a4c57600080fd5b8135610bba816125f0565b803561ffff811681146129c457600080fd5b600060208284031215612a7b57600080fd5b610bba82612a57565b600060208284031215612a9657600080fd5b610bba826129b5565b60008060008060008060e08789031215612ab857600080fd5b863595506020870135612aca8161267b565b9450604087013593506060870135925060808701356001600160401b03811115612af357600080fd5b612aff89828a0161268a565b925050612b0f8860a089016126f9565b90509295509295509295565b600060208284031215612b2d57600080fd5b81356001600160401b03811115612b4357600080fd5b610a5b8482850161268a565b60008060408385031215612b6257600080fd5b6129e583612a57565b634e487b7160e01b600052602160045260246000fd5b6020810160038310612ba357634e487b7160e01b600052602160045260246000fd5b91905290565b600060208284031215612bbb57600080fd5b813563ffffffff81168114610bba57600080fd5b600080600060408486031215612be457600080fd5b8335925060208401356001600160401b0380821115612c0257600080fd5b818601915086601f830112612c1657600080fd5b813581811115612c2557600080fd5b8760208260051b8501011115612c3a57600080fd5b6020830194508093505050509250925092565b600060208284031215612c5f57600080fd5b81356001600160401b0381168114610bba57600080fd5b60008060408385031215612c8957600080fd5b82356129e5816125f0565b634e487b7160e01b600052601160045260246000fd5b80820281158282048414176106e2576106e2612c94565b818103818111156106e2576106e2612c94565b600181811c90821680612ce857607f821691505b602082108103612d0857634e487b7160e01b600052602260045260246000fd5b50919050565b634e487b7160e01b600052603260045260246000fd5b8181036000831280158383131683831282161715612d4457612d44612c94565b5092915050565b808201808211156106e2576106e2612c94565b60ff81811683821601908111156106e2576106e2612c94565b600060ff821660ff8103612d8d57612d8d612c94565b60010192915050565b6020808252601390820152724143433a204e6f7420676f7665726e616e636560681b604082015260600190565b634e487b7160e01b600052601260045260246000fd5b600082612de857612de8612dc3565b500490565b600060208284031215612dff57600080fd5b8151610bba8161267b565b6020808252601f908201527f5265656e7472616e637947756172643a207265656e7472616e742063616c6c00604082015260600190565b600181815b80851115612e7c578160001904821115612e6257612e62612c94565b80851615612e6f57918102915b93841c9390800290612e46565b509250929050565b600082612e93575060016106e2565b81612ea0575060006106e2565b8160018114612eb65760028114612ec057612edc565b60019150506106e2565b60ff841115612ed157612ed1612c94565b50506001821b6106e2565b5060208310610133831016604e8410600b8410161715612eff575081810a6106e2565b612f098383612e41565b8060001904821115612f1d57612f1d612c94565b029392505050565b6000610bba60ff841683612e84565b600060208284031215612f4657600080fd5b5051919050565b600081612f5c57612f5c612c94565b506000190190565b6000600160ff1b8201612f7957612f79612c94565b5060000390565b601f82111561080157600081815260208120601f850160051c81016020861015612fa75750805b601f850160051c820191505b81811015612fc657828155600101612fb3565b505050505050565b81516001600160401b03811115612fe757612fe7612635565b612ffb81612ff58454612cd4565b84612f80565b602080601f83116001811461303057600084156130185750858301515b600019600386901b1c1916600185901b178555612fc6565b600085815260208120601f198616915b8281101561305f57888601518255948401946001909101908401613040565b508582101561307d5787850151600019600388901b60f8161c191681555b5050505050600190811b01905550565b8060005b60028110156130b95781516001600160a01b0316845260209384019390910190600101613091565b50505050565b8381526020810183905260808101610a5b604083018461308d565b878152866020820152851515604082015284606082015263ffffffff8416608082015260e060a0820152600061311360e08301856128fd565b82810360c084015261312581856128fd565b9a9950505050505050505050565b7f416363657373436f6e74726f6c3a206163636f756e742000000000000000000081526000835161316b81601785016020880161255f565b7001034b99036b4b9b9b4b733903937b6329607d1b601791840191820152835161319c81602884016020880161255f565b01602801949350505050565b60a081016131b6828761308d565b6001600160a01b039490941660408201526060810192909252608090910152919050565b6000600182016131ec576131ec612c94565b5060010190565b60008261320257613202612dc3565b50069056fea264697066735822122065eaf3cf71f93ef4129799de35292e5d8db90f91a68c743d1c3ee5318ef6894f64736f6c63430008110033","linkReferences":{}},"methodIdentifiers":{"DEFAULT_ADMIN_ROLE()":"a217fddf","PRECISION()":"aaf5eb68","RANDOMIZER_ROLE()":"bf193005","TEAM_ROLE()":"49d5e604","_computeDollarValue(address,uint256)":"f7137e77","_updateWinMultiplier(uint8,uint256)":"4feb59e3","bet(uint256,uint8,uint256,uint256,bytes,address[2])":"bb4149e0","calcReward(uint8,uint256)":"79e7a5d7","calcWager(uint256,uint256,uint256)":"10088fbc","changeRandomizerRouter(address)":"8f130d50","completedGames(uint256)":"4d30372d","decodeGameData(bytes)":"bda9a844","encodeGameData(uint8)":"80d4dcd5","games(uint256)":"117a5b90","getHouseEdge((uint8,address,bytes,uint256,uint256,address[2]))":"7f1ad204","getRoleAdmin(bytes32)":"248a9ca3","grantRole(bytes32,address)":"2f2ff15d","hasRole(bytes32,address)":"91d14854","houseEdge()":"d667dcd7","isWon(uint16,uint256)":"d184ccda","maxGameCount()":"e9f9b2d7","minConfirmations()":"e7c4393e","multipliers(uint8)":"92870d94","options(uint256)":"409e2205","pause()":"8456cb59","paused()":"5c975abb","play((uint8,address,bytes,uint256,uint256,address[2]),uint256[],uint256,uint256)":"37107fc7","randomizerCallback(uint256,uint256[])":"e5199bb8","randomizerRouter()":"4b95a52e","refundCooldown()":"2d3e8c93","refundGame(uint256)":"d7260cba","renounceRole(bytes32,address)":"36568abe","revokeRole(bytes32,address)":"d547741f","setMinConfirmations(uint16)":"9104a03d","setVaultManager(address)":"b543503e","shouldStop(uint256,uint256,uint256,uint256)":"3b49b7ed","supportsInterface(bytes4)":"01ffc9a7","unpause()":"3f4ba83a","updateHouseEdge(uint64)":"e84f0cc0","updateMaxGameCount(uint8)":"427dc913","updateRefundCooldown(uint32)":"d1adfff4","vaultManager()":"8a4adf24"},"id":14}